:100000000C9464050C94301C0C94571C0C948C05B7
:100010000C948C050C948C050C948C050C948C051C
:100020000C948C050C948C050C948C050C948C050C
:100030000C948C050C948C050C948C050C948C05FC
:100040000C94E50D0C948C050C94040F0C94360F55
:100050000C948C050C948C050C948C050C948C05DC
:100060000C948C050C948C0500000000000000002E
:100070000000000063DEB540000000005BFF984018
:1000800014AEAF400000000000000000CDCC0C40DA
:1000900000000000039698400E5CA04000000000A5
:1000A0000000000000000000CB011F410000000024
:1000B0000000000000000000000000008830214126
:1000C0000000000000000000000000000000000030
:1000D0000000000000000000000000000000000020
:1000E0000000000000000000000000004A32544000
:1000F0007329BF3EF96E8D40000000000000000033
:100100002BB7AD40BD634940780399400000000023
:1001100000000000000000000000000000000000DF
:1001200000000000000000000000000000000000CF
:1001300000000000E17A644089CA683FAD0B0D40C1
:1001400000000000000000000000000000000000AF
:1001500000000000E38EBF4000000000000000002F
:10016000000000000000000000000000000000008F
:10017000000000000000000000000000BA60D14054
:10018000000000000000000063DEB5400000000039
:10019000E17A644000000000B9198F40D125B03FDA
:1001A000D5719C4030C8EE40CB50CD4000000000DF
:1001B0000000000020289640000000000000000021
:1001C000000000000000000000000000000000002F
:1001D000000000000000000000000000000000001F
:1001E000000000000000000000000000000000000F
:1001F00089CA683FB9198F40000000006666464012
:10020000CDCCEC3F0000000057F8FB4000000000A0
:1002100061540A41000000000000000000000000DE
:1002200000000000000000000000000000000000CE
:1002300000000000000000000000000000000000BE
:1002400000000000000000005BFF9840000000007C
:10025000AD0B0D40D125B03F666646400000000062
:10026000260B674000000000D3C7CF40000000000D
:100270000000000000000000F5C0A04000000000E9
:10028000000000000000000000000000000000006E
:10029000000000000000000000000000000000005E
:1002A000000000000000000014AEAF40000000009D
:1002B00000000000D5719C40CDCCEC3F260B674080
:1002C0000000000020478F408AD8CF400000000087
:1002D000BCF3264103D2014184C00241000000006A
:1002E000000000000000000000000000000000000E
:1002F00000000000B81EC5400000000019A1934096
:100300007B14FE4000000000000000000000000020
:100310000000000030C8EE400000000000000000B7
:1003200020478F400000000033338340000000006E
:100330000000000000000000623B3C4100000000A3
:1003400000000000000000000000000000000000AD
:1003500000000000E38DEC3F000000006FA00E3EA7
:10036000000000000000000000000000000000008D
:1003700000000000CB50CD4057F8FB40D3C7CF4022
:100380008AD8CF40333383400000000000000000D3
:10039000000000000000000000000000000000005D
:1003A000000000000000000000000000000000004D
:1003B000000000000000000000000000B0AA814022
:1003C0002DFFBC4000000000CDCC0C404A32544010
:1003D000000000000000000000000000000000001D
:1003E000000000000000000000000000000000000D
:1003F000DCD95C40000000000000000000000000AC
:10040000000000000000000007A8FB400000000002
:1004100000000000000000000000000000000000DC
:100420000000000000000000000000007329BF3E33
:10043000000000000000000061540A4100000000BC
:10044000BCF326410000000000000000DCD95C4045
:10045000000000002CBF83402F278C407B2AA9403E
:10046000F591AB40E7AE5E40DC7C9B4070340141CF
:10047000000000000000000000000000000000007C
:10048000000000000000000003969840F96E8D40C7
:10049000E38EBF40202896400000000000000000CE
:1004A00003D2014100000000000000000000000035
:1004B0002CBF834000000000D70E9E3EE94F16413E
:1004C0000000000013D1F140489E074100000000E9
:1004D000000000000000000000000000000000001C
:1004E00000000000000000000E5CA04000000000C2
:1004F000000000000000000000000000F5C0A04067
:1005000084C00241623B3C4100000000000000004A
:100510002F278C40D70E9E3E000000006E5A1A41D5
:1005200000000000BAA0FA40000000000000000037
:1005300000000000000000000000000000000000BB
:1005400000000000000000000000000000000000AB
:10055000000000000000000000000000000000009B
:10056000000000000000000000000000000000008B
:100570007B2AA940E94F16416E5A1A41000000003B
:100580000000A040CDCC0C40B5FB3C408004514065
:10059000E196904000000000000000000000000014
:1005A0000000000000000000000000002BB7AD407C
:1005B000000000000000000000000000000000003B
:1005C000000000000000000000000000000000002B
:1005D000F591AB4000000000000000000000A040CA
:1005E000000000009FCDAE40AB7603409154AB407D
:1005F00000000000000000000000000000000000FB
:10060000000000000000000000000000BD63494041
:1006100000000000000000000000000000000000DA
:1006200000000000000000000000000000000000CA
:10063000E7AE5E4013D1F140BAA0FA40CDCC0C40F9
:100640009FCDAE400000000055967040B0EDAD402B
:10065000000000000000000000000000000000009A
:100660000000000000000000CB011F41780399400A
:10067000000000000000000000000000000000007A
:1006800000000000000000000000000007A8FB4080
:10069000DC7C9B40489E074100000000B5FB3C40CD
:1006A000AB76034055967040000000003A15734049
:1006B000157E444000000000000000000000000023
:1006C000000000000000000000000000000000002A
:1006D000000000000000000000000000000000001A
:1006E000000000000000000000000000000000000A
:1006F00070340141000000000000000080045140FF
:100700009154AB40B0EDAD403A157340000000008D
:100710000000204000000000000000000000000079
:1007200000000000000000000000000000000000C9
:1007300000000000000000000000000000000000B9
:1007400000000000000000000000000000000000A9
:10075000000000000000000000000000E196904052
:100760000000000000000000157E44400000204012
:100770000000000000000000000000000000000079
:100780000000000000000000000000000000000069
:100790000000000000000000000000000000000059
:1007A000B81EC540E38DEC3F0000000000000000D3
:1007B0000000000000000000000000000000000039
:1007C0000000000000000000000000000000000029
:1007D000000000000000000000000000DA8ADF3F97
:1007E0000AD7E33F00000000000000000000000006
:1007F00000000000000000000000000000000000F9
:1008000000000000000000000000000000000000E8
:1008100000000000000000000000000000000000D8
:1008200000000000000000000000000000000000C8
:1008300000000000000000000000000000000000B8
:10084000000000000000000088302141000000008E
:10085000BA60D1400000000000000000000000006D
:1008600019A193406FA00E3EB0AA81400000000085
:100870000000000000000000000000000000000078
:100880000000000000000000000000000000000068
:1008900000000000DA8ADF3F0000000000000000D6
:1008A0000DE95C40000000000000000000000000B6
:1008B0000000000000000000000000000000000038
:1008C0007B14FE40000000002DFFBC400000000033
:1008D0000000000000000000000000000000000018
:1008E0000000000000000000000000000000000008
:1008F000000000000AD7E33F000000000DE95C4063
:10090000000000007F0B27400000000000000000F6
:1009100000000000000000000000000000000000D7
:1009200000000000000000000000000000000000C7
:1009300000000000000000000000000000000000B7
:1009400000000000000000000000000000000000A7
:100950000000000000000000000000000000000097
:100960007F0B274000000000982F8A429144377186
:10097000CFFBC0B5A5DBB5E95BC25639F111F15922
:10098000A4823F92D55E1CAB98AA07D8015B831264
:10099000BE853124C37D0C55745DBE72FEB1DE8010
:1009A000A706DC9B74F19BC1C1699BE48647BEEF3F
:1009B000C69DC10FCCA10C246F2CE92DAA84744ACA
:1009C000DCA9B05CDA88F97652513E986DC631A840
:1009D000C82703B0C77F59BFF30BE0C64791A7D51F
:1009E0005163CA0667292914850AB72738211B2EA7
:1009F000FC6D2C4D130D385354730A65BB0A6A768F
:100A00002EC9C281852C7292A1E8BFA24B661AA89A
:100A1000708B4BC2A3516CC719E892D1240699D6AA
:100A200085350EF470A06A1016C1A419086C371E23
:100A30004C774827B5BCB034B30C1C394AAAD84E01
:100A40004FCA9C5BF36F2E68EE828F746F63A5783C
:100A50001478C8840802C78CFAFFBE90EB6C50A4CF
:100A6000F7A3F9BEF27871C6000000080002010089
:100A70000003040700000000000000000102040859
:100A800010204080010204081020010204081020F8
:100A90000404040404040404020202020202030324
:100AA00003030303000000002300260029000000C8
:100AB0000000250028002B00000000002400270073
:100AC0002A00100A660FE10D11241FBECFEFD8E0F7
:100AD000DEBFCDBF12E0A0E0B1E0EAE5F4E402C081
:100AE00005900D92AA32B107D9F725E0AAE2B2E04B
:100AF00001C01D92A83DB207E1F715E0C3E6D5E0BD
:100B000004C02197FE010E94FC21C136D107C9F71C
:100B10000E9462100C94CC1E0C940000CF92DF92C5
:100B2000EF92FF920F931F93CF93DF93CDB7DEB772
:100B30000DB71EB7262F30E0220F331FA9014F5FDC
:100B40005F4FEDB7FEB7E41BF50B0FB6F894FEBF91
:100B50000FBEEDBF4DB75EB74F5F5F4F7A01FFEF3E
:100B6000EF1AFF0ADA01782F6C018C2D871B86178C
:100B7000B8F4F60181916F01982F92959F70906360
:100B80009A330CF0995D9C938F7080638A330CF0DC
:100B9000895DF7018083F2E0EF0EF11C1296E5CF3C
:100BA000FA01E20FF31F1082BA0181EE94E00E9475
:100BB000D30F0FB6F8941EBF0FBE0DBFDF91CF91BC
:100BC0001F910F91FF90EF90DF90CF900895CF93FA
:100BD000C42F8093DD0250E08BE992E00E94DC1E7E
:100BE000C0939A0284E08093990210929502109229
:100BF00096021092970210929802CF910895CF9288
:100C0000DF92EF92FF920E94CD128823C9F180916A
:100C1000CC059091CD05892B99F590918605809111
:100C2000DD028068981396C080919902843011F09B
:100C3000109299024AE050E06091C90481EE94E07C
:100C40000E94411060E671E081EE94E00E94D30FB3
:100C50000E942F0EAB01BC012AE030E081EE94E04F
:100C60000E9434106FE071E081EE94E00E94D30F97
:100C7000609186054AE050E081EE94E00E944810C1
:100C800080919902882309F46CC00E942F0E6B0199
:100C90007C018091950290919602A0919702B0916B
:100CA0009802C816D906EA06FB060CF459C00E9441
:100CB0005213882309F454C04AE050E06091C904FB
:100CC00081EE94E00E94411060E671E081EE94E0D4
:100CD0000E94D30F0E942F0EAB01BC012AE030E02E
:100CE00081EE94E00E94341067E271E081EE94E0BE
:100CF0000E94D30F60919A028BE992E00E948E05C8
:100D000069E371E081EE94E00E94D30F4AE050E085
:100D10006091990281EE94E00E9448108091DD027A
:100D200040919A026BE972E080660E94951384E616
:100D3000C80ED11CE11CF11CC0929502D092960203
:100D4000E0929702F09298028091990281508093EC
:100D5000990206C08091860587FD92CF81E001C08F
:100D600080E0FF90EF90DF90CF90089590918604FF
:100D7000E2EEF2E020E030E0291780F4A901608182
:100D80002F5F3F4F7C966813F7CF2CE1249FC00163
:100D9000259F900D11248B519D4F0895089590919A
:100DA0008604E2EEF2E020E030E0291780F4A901A9
:100DB00060812F5F3F4F7C966813F7CF2CE1249F13
:100DC000C001259F900D112483519D4F08950895D2
:100DD0004091860422EE32E090E0941759F0245EB0
:100DE0003F4FF9017C975081581302C0892F089515
:100DF0009F5FF3CF08952F923F924F925F926F9231
:100E00007F928F929F92AF92BF92CF92DF92EF929A
:100E1000FF920F931F93CF93DF93CDB7DEB7C05BE5
:100E2000D1090FB6F894DEBF0FBECDBF64E670E007
:100E300080E090E00E94600E26E040E051EE60E02D
:100E400070E081EE94E00E9437110E941F1481111E
:100E500006C065E471E081EE94E00E94D90F6091D4
:100E6000C90470E080E090E00E94D80EFE01E45BCF
:100E7000FF4FCE0189569F4F6F011082118212825F
:100E8000138214823596E817F907B9F71091860492
:100E90008091C90490E0019740E6489F9001499FE6
:100EA000300D1124C90188599F4F7C0101E08CE16C
:100EB000782E95E0692EF70185909590A590B490D5
:100EC00020E030E0A901C501B4010E94591F882328
:100ED00031F1812F90E0789EF001799EF00D112480
:100EE000EE51FD4F0083689EF001699EF00D1124C4
:100EF000EC0DFD1D008381829282A382B4821F5F6C
:100F00001F3069F410938604212CDE01A45BBF4FCF
:100F1000C956DF4FB983A883C759D0401EC00F5FA1
:100F2000B4E0EB0EF11C093109F0C5CFEBCF2CE199
:100F3000C156DF4FA881B981CF59D0402A9FF00117
:100F40002B9FF00D1124EE51FD4F0183C256DF4F50
:100F50004881CE59D0404283239480918604C7565D
:100F6000DF4F8883C959D040281608F0D5C1FE014B
:100F70003196108211821282138214823596C956DC
:100F8000DF4F88819981C759D040E817F90789F761
:100F9000A22DB0E0C156DF4FB983A883CF59D0400E
:100FA0002CE12A9FF0012B9FF00D1124EE51FD4FF3
:100FB0000081802F90E0019740E6489F9001499F73
:100FC000300D1124C90188599F4F7C01DD24D39431
:100FD00010E0F70185909590A590B49020E030E066
:100FE000A901C501B4010E94591F882389F0E1E0DD
:100FF000F0E0EC0FFD1F95E0919FE00DF11D112435
:10100000D08281829282A382B4821F5F1F3039F026
:10101000D394A4E0EA0EF11CB9E1DB12DACFC25698
:10102000DF4F0883CE59D040312CC555DF4F188291
:10103000CB5AD040C455DF4F1882CC5AD040E8E498
:10104000C355DF4FE883CD5AD040F3E4C255DF4F9C
:10105000F883CE5AD040C955DF4F1882C75AD040C6
:10106000C855DF4F1882C85AD04028E4C755DF4F13
:101070002883C95AD04043E4C655DF4F4883CA5A33
:10108000D040C756DF4F8881C959D040381609F47F
:101090004ECFDE011196C656DF4FB983A883CA59D9
:1010A000D040C456DF4F1882CC59D040ECE4F0E079
:1010B000EC0FFD1F25E0239DE00DF11D1124CB5504
:1010C000DF4FF983E883C55AD0403196C155DF4FD1
:1010D000F983E883CF5AD040C456DF4F4881CC59BA
:1010E000D040411709F416C1CB55DF4FA881B98113
:1010F000C55AD040BC91C356DF4FB883CD59D040BC
:10110000C656DF4FE881F981CA59D0408081B813B3
:10111000E8C0C155DF4FA881B981CF5AD0408D9129
:101120009D910D90BC91A02DCF55DF4F8883998361
:10113000AA83BB83C15AD0402DEC3CEC4CED50E46B
:10114000BC01CD010E94EC1E2B013C01C656DF4FB5
:10115000E881F981CA59D040C180D280E380F4800F
:101160002DEC3CEC4CE151E4C701B6010E94EC1EB1
:101170004B015C01A3019201C301B2010E94BD2099
:1011800020E030E0A9010E94ED1E2B013C01A501E9
:101190009401C501B4010E94BD209B01AC01C301B3
:1011A000B2010E94ED1E4B015C01C955DF4F288141
:1011B000C75AD040C855DF4F3881C85AD040C755AC
:1011C000DF4F4881C95AD040C655DF4F5881CA5AAF
:1011D000D0400E94591F1816CCF0C955DF4F8882A5
:1011E000C75AD040C855DF4F9882C85AD040C7551B
:1011F000DF4FA882C95AD040C655DF4FB882CA5ABD
:10120000D040C356DF4F0881CD59D0402CEC3CEC88
:101210004CEC5DE3CF55DF4F688179818A819B81FA
:10122000C15AD0400E94EC1E4B015C0129E939E90A
:1012300049E750E4C701B6010E94EC1E6B017C0136
:10124000A5019401C501B4010E94BD2020E030E059
:10125000A9010E94ED1E4B015C01A7019601C70187
:10126000B6010E94BD209B01AC01C501B4010E94E2
:10127000ED1E6B017C01C555DF4F2881CB5AD04054
:10128000C455DF4F3881CC5AD040C355DF4F488119
:10129000CD5AD040C255DF4F5881CE5AD0400E941F
:1012A000591F1816F4F0C555DF4FC882CB5AD040ED
:1012B000C455DF4FD882CC5AD040C355DF4FE882A7
:1012C000CD5AD040C255DF4FF882CE5AD040C356D7
:1012D000DF4FF881CD59D040C256DF4FF883CE5949
:1012E000D040C456DF4F2881CC59D0402F5FC45620
:1012F000DF4F2883CC59D040C656DF4F8881998173
:10130000CA59D0400596C656DF4F99838883CA597B
:10131000D040E2CE3394B5CEC756DF4FA881C9592D
:10132000D04096E0A99FB0011124072E000C880B35
:10133000990B6093D4047093D5048093D604909352
:10134000D7040E9406209B01AC0160E07AEB8BE59C
:101350009AE40E945E1F6093D0047093D10480933E
:10136000D2049093D3045091C90402EE12E0980184
:1013700040E0C756DF4FB881C959D0404B1761F0E4
:10138000245E3F4FF9017C97E0815E1718F440938B
:10139000CB0402C04F5FEDCF0E94D01F0E94E00E31
:1013A0006093DE027093DF028093E0029093E1028B
:1013B000309186049091C904E9EEF2E080E0831751
:1013C00091F0D8012C91DF011497921728F49C9387
:1013D000D8012C91208302C02C9390838F5F045EF0
:1013E0001F4F7C96ECCF87E598E9C055DF4F0FB6CD
:1013F000F894DEBF0FBECDBFDF91CF911F910F914B
:10140000FF90EF90DF90CF90BF90AF909F908F9024
:101410007F906F905F904F903F902F900C94C812E8
:10142000CF93DF9380E290E00E9402228F7180933D
:10143000C904E2EEF2E080E090E028E01082DC01F6
:10144000AE51BD4F11961C92119712961C92129795
:10145000AF014D5F5F4FEA01322F19923A95E9F7DC
:10146000485F5F4FEA01322F19923A95E9F7539698
:101470001C92DF015496ED01322F19923A95E9F74B
:101480004C967C96843AC1E09C07C1F68AE292E0D1
:10149000DF91CF910C94F1144F925F926F927F92F3
:1014A0008F929F92AF92BF92CF92DF92EF92FF9274
:1014B0000F931F93CF93DF93CDB7DEB729970FB666
:1014C000F894DEBF0FBECDBF0E942F0E613A7C4361
:1014D0008743910508F44AC08091CA04811146C02F
:1014E00010E00CE1809186041817E8F54AE050E01E
:1014F0006091C90481EE94E00E94411060E671E0C1
:1015000081EE94E00E94D30F0E942F0EAB01BC012C
:101510002AE030E081EE94E00E9434106AE571E048
:1015200081EE94E00E94D30F019F70011124F70116
:10153000EE51FD4F4AE050E0608181EE94E00E9460
:10154000411060E671E081EE94E00E94D30F68E004
:10155000C7018B519D4F0E948E0581EE94E00E9441
:10156000D50F1F5FBFCF81E08093CA040E942F0E6A
:10157000C090CC04D090CD04E090CE04F090CF0485
:101580000E9406204B015C01C701B6010E940620A3
:101590002091D0043091D1044091D2045091D304D1
:1015A0000E94BD2020E030E44CE156E40E94ED1E94
:1015B0002B013C016091DE027091DF028091E0021C
:1015C0009091E1020E9408209B01AC01C301B2018D
:1015D0000E94ED1E9B01AC01C501B4010E94B82020
:1015E00018160CF0DAC0809199028111D6C0809152
:1015F000D4049091D504A091D604B091D704C81614
:10160000D906EA06FB0608F0C8C0CE0101966C01B7
:101610008C0188E0F82EFC0C60E071E080E090E046
:101620000E94E00EF80161938F01FE12F5CF6091E8
:10163000CC047091CD048091CE049091CF042CE025
:1016400030E040E050E00E943E210091CB04663043
:1016500071058105910540F42CE1029FF0011124F0
:10166000EE51FD4FF18007C08CE1089FF00111247D
:10167000EE51FD4FF280F0928A0482E0809387045D
:101680006091C904609388049CE1099F8001112442
:10169000F801EE51FD4F5F018081809389048F2D09
:1016A00069870E94B606FC0198E0ABE8B4E00190BF
:1016B0000D929A95E1F788E0F601A3E9B4E0019074
:1016C0000D928A95E1F7D801A351BD4F88E0F6014C
:1016D00001900D928A95E1F781E0F501838B4AE054
:1016E00050E0698581EE94E00E94411060E671E06F
:1016F00081EE94E00E94D30F0E942F0EAB01BC013B
:101700002AE030E081EE94E00E94341062E671E05D
:1017100081EE94E00E94D30F64E187E894E00E9498
:101720008E0581EE94E00E94D50F44E167E874E0F5
:101730008F2D0E94E7058091CB0490E00196609187
:10174000860470E00E942A218093CB048091CC040F
:101750009091CD04A091CE04B091CF040196A11D2B
:10176000B11D8093CC049093CD04A093CE04B0938C
:10177000CF046091D0047091D1048091D2049091F3
:10178000D3040E94D01F0E94E00E6093DE0270938B
:10179000DF028093E0029093E1020E94FF0588231C
:1017A00009F4F8C14AE050E06091C90481EE94E088
:1017B0000E94411060E671E081EE94E00E94D30F38
:1017C0000E942F0EAB01BC012AE030E081EE94E0D4
:1017D0000E94341061E771E081EE94E00E94D30F23
:1017E0006091870588E895E00E948E0581EE94E07F
:1017F0000E94D50F80918805823009F011C1F090C8
:101800008A058091C904F812C4C0809189050E949C
:10181000E806FCE18F9F80011124B8016A507D4FDA
:1018200048E050E084E995E00E94CF1E892B09F43E
:10183000F7C04AE050E06F2D81EE94E00E94411025
:1018400060E671E081EE94E00E94D30F0E942F0EBB
:10185000AB01BC012AE030E081EE94E00E9434103C
:1018600062E871E081EE94E00E94D30F60918905F7
:101870004AE050E081EE94E00E9441106AE971E094
:1018800081EE94E00E94D30F809189050E94B606F4
:1018900068E00E948E0564EA71E081EE94E00E94A7
:1018A000D30F68E084E995E00E948E05D801AA5024
:1018B000BD4F88E0E4E9F5E001900D928A95E1F7EB
:1018C0008AE292E00E947114809189050E94B60616
:1018D00048E050E0BC018AE292E00E94901948E0A2
:1018E00050E064E975E08AE292E00E9490198091EC
:1018F00089050E94B60648E050E0BC018AE292E009
:101900000E94FE196DEA71E081EE94E00E94D30F0F
:10191000809189050E94B60668E00E948E0581EEDE
:1019200094E00E94D50F1091890583E0809387048D
:10193000809189058093880480918A058093890429
:101940004AE050E06091C90481EE94E00E944110A9
:1019500060E671E081EE94E00E94D30F0E942F0EAA
:10196000AB01BC012AE030E081EE94E00E9434102B
:1019700067EB71E081EE94E00E94D30F63E087E8AB
:1019800094E00E948E0581EE94E00E94D50F43E022
:1019900042C060918B05681343C010918A0584E1B1
:1019A000E8E8F5E0A7E8B4E001900D928A95E1F748
:1019B000812F69870E94B606FC0198E0ABE8B4E08D
:1019C00001900D929A95E1F74AE050E0698581EE29
:1019D00094E00E94411060E671E081EE94E00E9484
:1019E000D30F0E942F0EAB01BC012AE030E081EE44
:1019F00094E00E94341067EC71E081EE94E00E9464
:101A0000D30F64E187E894E00E948E0581EE94E0B4
:101A10000E94D50F44E167E874E0812F0E94E7053A
:101A200080918805833009F088C080918A050E94E2
:101A3000E8062CE1829FC00111248C010E511D4F3C
:101A4000F8018389813009F078C04AE050E0609164
:101A5000C90481EE94E00E94411060E671E081EEDD
:101A600094E00E94D30F0E942F0EAB01BC012AE02C
:101A700030E081EE94E00E94341062E871E081EE83
:101A800094E00E94D30F60918A054AE050E081EE15
:101A900094E00E9441106AE971E081EE94E00E94B6
:101AA000D30F80918A050E94B60668E00E948E05D9
:101AB00064EA71E081EE94E00E94D30F80918A0580
:101AC0000E94CF0668E00E948E058AE292E00E94A2
:101AD000711480918A050E94B60648E050E0BC016E
:101AE0008AE292E00E94901980918A050E94CF06B6
:101AF00048E050E0BC018AE292E00E949019809197
:101B00008A050E94B60648E050E0BC018AE292E0F5
:101B10000E94FE196DEA71E081EE94E00E94D30FFD
:101B200080918A050E94B60668E00E948E0581EECB
:101B300094E00E94D50FF801138A8091860585FFF5
:101B400029C08091860587FD25C08091860586FD88
:101B50001FC0809186058F71806C40E060E070E06E
:101B600029960FB6F894DEBF0FBECDBFDF91CF919F
:101B70001F910F91FF90EF90DF90CF90BF90AF90AB
:101B80009F908F907F906F905F904F900C949513E3
:101B900080E8E3CF29960FB6F894DEBF0FBECDBF25
:101BA000DF91CF911F910F91FF90EF90DF90CF9039
:101BB000BF90AF909F908F907F906F905F904F906D
:101BC00008958AE292E00C94D2141F920F920FB6FD
:101BD0000F9211242F933F938F939F93AF93BF93B3
:101BE0008091D9049091DA04A091DB04B091DC04D7
:101BF0003091D80423E0230F2D3720F40196A11D46
:101C0000B11D05C026E8230F0296A11DB11D20932A
:101C1000D8048093D9049093DA04A093DB04B093A2
:101C2000DC048091DD049091DE04A091DF04B0918A
:101C3000E0040196A11DB11D8093DD049093DE04A4
:101C4000A093DF04B093E004BF91AF919F918F9177
:101C50003F912F910F900FBE0F901F9018952FB7A7
:101C6000F8946091D9047091DA048091DB0490912A
:101C7000DC042FBF08953FB7F8948091DD04909164
:101C8000DE04A091DF04B091E00426B5A89B05C056
:101C90002F3F19F00196A11DB11D3FBFBA2FA92FEB
:101CA000982F8827820F911DA11DB11DBC01CD0168
:101CB00042E0660F771F881F991F4A95D1F7089554
:101CC0008F929F92AF92BF92CF92DF92EF92FF924C
:101CD0006B017C010E943B0E4B015C01C114D104DD
:101CE000E104F10401F10E94D70E0E943B0EDC01D9
:101CF000CB0188199909AA09BB09883E9340A1051F
:101D0000B10560F321E0C21AD108E108F10888EEBC
:101D1000880E83E0981EA11CB11CC114D104E104FB
:101D2000F10419F7DBCFFF90EF90DF90CF90BF90D9
:101D3000AF909F908F900895789484B5826084BD11
:101D400084B5816084BD85B5826085BD85B58160BF
:101D500085BDEEE6F0E0808181608083E1E8F0E01F
:101D60001082808182608083808181608083E0E84E
:101D7000F0E0808181608083E1EBF0E0808184602D
:101D80008083E0EBF0E0808181608083EAE7F0E02F
:101D90008081846080838081826080838081816093
:101DA00080838081806880831092C10008950895A7
:101DB000611571058105910511F00C94BE1E089501
:101DC000CF93DF9300D000D0CDB7DEB7611571059A
:101DD0008105910579F09B01AC0169833A834B83BE
:101DE0005C830E94B91E29813A814B815C810E94EB
:101DF000602103C060E070E0CB010F900F900F9066
:101E00000F90DF91CF9108951F920F920FB60F920E
:101E100011242F938F939F93EF93FF93E091F104FD
:101E2000F091F2048081E091F704F091F80482FDD2
:101E300012C090818091FA048F5F8F732091FB0410
:101E4000821751F0E091FA04F0E0EF51FB4F958FCB
:101E50008093FA0401C08081FF91EF919F918F914F
:101E60002F910F900FBE0F901F9018951F920F92F9
:101E70000FB60F9211242F933F934F935F936F935D
:101E80007F938F939F93AF93BF93EF93FF9381EED5
:101E900094E00E94AD10FF91EF91BF91AF919F919F
:101EA0008F917F916F915F914F913F912F910F9003
:101EB0000FBE0F901F90189581EE94E00E94711054
:101EC00021E0892B09F420E0822F0895E1EEF4E06F
:101ED0001382128288EE93E0A0E0B0E084839583C1
:101EE000A683B7838EEE91E09183808385EC90E0AA
:101EF0009587848784EC90E09787868780EC90E0D4
:101F0000918B808B81EC90E0938B828B82EC90E0C4
:101F1000958B848B86EC90E0978B868B118E128E3E
:101F2000138E148E0895CF92DF92EF92FF920F934B
:101F30001F93CF93DF936C017A018B01C0E0D0E057
:101F4000CE15DF0589F0D8016D918D01D601ED9197
:101F5000FC910190F081E02DC6010995892B11F4C7
:101F60007E0102C02196ECCFC701DF91CF911F9176
:101F70000F91FF90EF90DF90CF900895611571055C
:101F800079F0FB0101900020E9F73197AF01461B82
:101F9000570BDC01ED91FC910280F381E02D099457
:101FA00080E090E008950C94BE0F69ED71E00C9410
:101FB000BE0F0F931F93CF93DF93EC010E94BE0FD0
:101FC0008C01CE010E94D50F800F911FDF91CF9120
:101FD0001F910F9108954F925F926F927F92EF92AF
:101FE000FF920F931F93CF93DF93CDB7DEB7A197E7
:101FF0000FB6F894DEBF0FBECDBF7C01FA01CB0156
:1020000019A2223008F42AE08E010F5D1F4F422EE4
:10201000512C612C712CBF01A30192010E943E2121
:10202000F901CA01015011096A3014F4605D01C060
:10203000695CD8016C93232B242B252B61F7B80105
:10204000C7010E94BE0FA1960FB6F894DEBF0FBE67
:10205000CDBFDF91CF911F910F91FF90EF907F90B7
:102060006F905F904F9008952115310541F4DC0188
:10207000ED91FC910190F081E02D642F09940C9476
:10208000EB0F9A01462F50E060E070E00C943410A2
:102090000F931F93CF93DF93EC019A01462F50E0EB
:1020A00060E070E00E9434108C01CE010E94D50FD8
:1020B000800F911FDF91CF911F910F9108950E9482
:1020C000C71E08950E949C0E0E9461100E94FB068C
:1020D000CFE9D0E10E944C0A2097E1F30E949F10C3
:1020E000F9CFFC01918D228D892F90E0805C9F4F6C
:1020F000821B91098F7399270895FC01918D828D20
:10210000981731F0828DE80FF11D858D90E00895CC
:102110008FEF9FEF0895FC01918D828D981761F0EC
:10212000828DDF01A80FB11D5D968C91928D9F5F0E
:102130009F73928F90E008958FEF9FEF08958CE545
:102140009FE0892B49F080E090E0892B29F00E94E4
:102150005C0F81110C9400000895FC01848DDF0157
:10216000A80FB11DA35ABF4F2C91848D90E001960A
:102170008F739927848FA689B7892C93A089B189F9
:102180008C9180648C93938D848D981306C0028803
:10219000F389E02D80818F7D80830895CF93DF9335
:1021A000EC01888D8823C9F0EA89FB89808185FD4F
:1021B00005C0A889B9898C9186FD0FC00FB607FCB0
:1021C000F5CF808185FFF2CFA889B9898C9185FFF1
:1021D000EDCFCE010E94AD10E7CFDF91CF910895F2
:1021E000EF92FF920F931F93CF93DF93EC0181E067
:1021F000888F9B8D8C8D981305C0E889F989808123
:1022000085FD24C0F62E0B8D10E00F5F1F4F0F735E
:102210001127E02E8C8DE8120CC00FB607FCFACF08
:10222000E889F989808185FFF5CFCE010E94AD1044
:10223000F1CF8B8DFE01E80FF11DE35AFF4FF082C5
:102240000B8FEA89FB898081806207C0EE89FF8954
:102250006083E889F98980818064808381E090E0EF
:10226000DF91CF911F910F91FF90EF900895CF9242
:10227000DF92EF92FF921F93CF93DF93EC016A01FD
:102280007B01122FE889F98982E080834115514E44
:1022900061057105B1F060E079E08DE390E0A701A0
:1022A00096010E943E21DA01C9010197A109B109F5
:1022B000B695A79597958795AC01411580E158078C
:1022C000A8F0E889F989108260E874E88EE190E06E
:1022D000A70196010E943E21BA01A901415051096E
:1022E000610971097695679557954795EC85FD8548
:1022F0005083EE85FF854083188EEC89FD8910831D
:10230000EA89FB89808180618083EA89FB898081F9
:1023100088608083EA89FB89808180688083EA897C
:10232000FB8980818F7D8083DF91CF911F91FF900A
:10233000EF90DF90CF9008958627682F62956827E9
:10234000062E669566956025062E66956025677053
:10235000082E892F669507946795902D86270694F9
:1023600067959025862708952CB521602CBD25B151
:1023700041E050E060E070E000900A0104C0440FCA
:10238000551F661F771F0A94D2F74095422345B91F
:102390009EBD0DB407FEFDCF2EB530E0322F2227B3
:1023A0008EBD0DB407FEFDCF4EB555B181E090E076
:1023B000A0E0B0E000900A0104C0880F991FAA1F96
:1023C000BB1F0A94D2F7852B85B98CB58E7F8CBD47
:1023D000C901842B0895CF9380E090E00E94B4114E
:1023E0008091CE05853091F580E090EB0E94B4118C
:1023F000682F8091CF05811104C09091D205911171
:1024000076C0E091CF0581E08E0F8093CF05F0E09C
:10241000EB57FA4F60838091CC059091CD050E94D7
:102420009C119093CD058093CC05809187052091D8
:10243000CF0590E0049630E0821793070CF462C059
:102440008091CF05873408F05DC061C08091CE05D2
:1024500087FF1BC0E09187058091CE0591E0980F22
:102460009093CE05ED5F8E0FE82FF0E0EB57FA4F1B
:10247000C0818091CC059091CD056C2F0E949C115C
:102480009093CD058093CC052EC08091CE058330EE
:10249000F1F054F48823A9F08130E9F48091CC055F
:1024A0009091CD05C92F1AC08930B9F08A3099F4BE
:1024B000C091D205909187058DEF891B8093CE0541
:1024C0000DC08091CC059091CD05C82F07C08DE03F
:1024D00092E80E94B411CAEA01C0CDE28091CE0513
:1024E0008F5F8093CE058C2F90E098540DC0E091C3
:1024F000CF0581E08E0F8093CF05F0E0EB57FA4FC8
:1025000090837FCF8DE092E8CF910C94B411CF915E
:10251000089525B181E090E0A0E0B0E0AC01BD01FC
:1025200000900A0104C0440F551F661F771F0A94CC
:10253000D2F7422B45B924B100900A0104C0880F9C
:10254000991FAA1FBB1F0A94D2F7822B84B961E09E
:102550008AE00E94E31C61E08AE00E94A71C61E01F
:102560008BE00E94A71C60E08CE00E94A71C61E049
:102570008DE00E94A71C80E58CBD8DB581608DBD6E
:1025800060E082E00E94A71C61E082E00C94E31C02
:10259000E8980E94B411E89A08958091CE0585309C
:1025A00091F5809187052091CF0590E0049630E069
:1025B0008217930724F08091CF05873420F184E0BF
:1025C0008093CE058091CC059091CD059093CD055B
:1025D0008093CC0580918705833430F081E090E0D2
:1025E0009093CD058093CC058091860586FF3EC0F3
:1025F0008091D305982F9F719F31C1F190918605ED
:1026000089278F7199F18091CE05843069F5809189
:102610008005882351F080938705109286051092DB
:10262000850583E08093CF0504C010928705109242
:10263000CF058FEF9FEF9093CD058093CC056091F0
:10264000D205662351F08091CC059091CD050E9472
:102650009C119093CD058093CC0585E08093CE05A9
:102660008DED92E80E94B41180E008958091CC0530
:102670009091CD05892B49F4E0917E05F0917F057D
:10268000309719F080E009950BC08FEF9FEFDC01C8
:102690008093810590938205A0938305B093840570
:1026A00081E008958091CE05853099F48091CF0521
:1026B00081110FC080E090E00E94C81290FD09C017
:1026C0008DE092E80E94C81284E08093CE0581E0FC
:1026D000089580E0089586FD05C0807E9091D30521
:1026E0009F71890F80938605E0917E05F0917F05AB
:1026F000309711F081E009958FEF9FEF9093CD0512
:102700008093CC058091CC059091CD056091D20548
:102710000E949C119093CD058093CC0586E0809318
:10272000CE058DE392E80C94B411CF93C82F40935B
:10273000870550E088E895E00E94DC1E8C2FCF9141
:102740000C946B13CF93C62F8093D3054093D2057F
:102750003093D1052093D0050E94891280E090E04B
:102760000E94B41185E092E80E94B41180E098EBD9
:102770000E94B41182E00E94131D892B19F480E09D
:1027800090E0F6CF20E1C29FC0011124876C9068D1
:102790000E94B4118091D0059091D10590560E946D
:1027A000B41186E096EC0E94B41182EA94E90E948A
:1027B000B4118CEA92EC0E94B411C091D205CC23E2
:1027C00041F083E89AEC0E94B4118C2F90E09E6C4B
:1027D00006C08BE89AEC0E94B4118DE29EEC0E9438
:1027E000B41183E894EC0E94B41180E598E90E944A
:1027F000B41187E79CEC0E94B41180E090EE0E9437
:10280000B41180E098EC0E94B41189E490EC0E942D
:10281000B41184E08093CE058091D3058F7141F08F
:1028200040E050E06BEE71E180E00E94FE1B03C0CF
:1028300080E00E941E1C8091D305CF910895EF92F5
:10284000FF920F931F93CF93DF931F92CDB7DEB705
:1028500030E2E32EF12C0FEF1FEFC7010E9402229E
:10286000682FC8010E949C118C018FEFE81AF80AAA
:1028700080E3E816F10489F7012B21F582E290E06C
:102880000E9402228130F1F480E290E00E94022254
:10289000182F81E290E00E940222482F84E290E00B
:1028A00049830E940A22612F70E026E075956795A2
:1028B0002A95E1F79C014981812F0E94A213812F63
:1028C0008F7101C080E00F90DF91CF911F910F9128
:1028D000FF90EF90089580E290E0089580E490E00A
:1028E0000895FC0187E696EEA9E0BAE68283938319
:1028F000A483B58385E89EEAA7E6BBEB868397832E
:10290000A087B18782E793EFAEE6BCE38287938727
:10291000A487B5878AE395EFAFE4B5EA8687978702
:10292000A08BB18B8FE792E5AEE0B1E5828B938B04
:10293000A48BB58B8CE898E6A5E0BBE9868B978BDA
:10294000A08FB18F8BEA99EDA3E8BFE1828F938FBF
:10295000A48FB58F89E19DECA0EEBBE5868F978FA4
:10296000A0A3B1A3DF01A659BF4F1C92EE59FF4FA0
:1029700010821182128213821482158216821782AB
:102980000895CF93DF93EC0169E670E002960E9410
:10299000791BE881F9810084F185E02DCE01DF917A
:1029A000CF910994CF93DF93D82FC92FE82FF92F18
:1029B0008EEF91E08193919369E670E0CF010E94E0
:1029C000791B8D2F9C2FDF91CF910C94891BCF9376
:1029D000DF93EC010E94D214CE01DF91CF910C94D1
:1029E0003C1DCF93DF93EC010E94831B8EEF91E09F
:1029F00099838883CE01DF91CF910C9471142F922B
:102A00003F924F925F926F927F928F929F92AF927E
:102A1000BF92CF92DF92EF92FF920F931F93CF93CB
:102A2000DF93CDB7DEB7CC54D1090FB6F894DEBF33
:102A30000FBECDBF2D969FAF8EAF2D971C0102E22A
:102A4000200E311C8E599F4F988F8F8BF101608122
:102A50007181828193810E947F216193719381931F
:102A600091932F89388DE217F30789F72D96AEAD34
:102A7000BFAD2D9712964D915D916D917C911597FB
:102A80004FA358A769A77AA716964D905D906D90B1
:102A90007C9019974BA65CA66DA67EA61A964D90C3
:102AA0005D906D907C901D974FA658AA69AA7AAA4E
:102AB0001E964D905D906D907C9051974BAA5CAAAC
:102AC0006DAA7EAA52964D905D906D907C90559720
:102AD0004FAA58AE69AE7AAE56964D905D906D9005
:102AE0007C9059974BAE5CAE6DAE7EAE5A964D90D3
:102AF0005D906D907C905D9723964CAE5DAE6EAE12
:102B00007FAE23975E964D905D906D907C909197EF
:102B100027964CAE5DAE6EAE7FAE279708E619E005
:102B20001E8B0D8B49835A836B837C832FA938AD11
:102B300049AD5AAD2D833E834F835887730162019F
:102B400023964CAD5DAD6EAD7FAD23974F8F58A3EF
:102B500069A37AA36BAD7CAD8DAD9EAD698B7A8B8D
:102B60008B8B9C8B8BA99CA9ADA9BEA98BA39CA385
:102B7000ADA3BEA34FA458A869A87AA84B8E5C8EBB
:102B80006D8E7E8E6BA47CA48DA49EA469867A86AD
:102B90008B869C86ED89FE8905911591259134914E
:102BA000D1014D905D906D907D901D014D815E81B4
:102BB0006F817885B62F672F742F452F5B2F400EBE
:102BC000511E621E731E0D811E812F813885009556
:102BD0001095209530958F8C98A0A9A0BAA00821B7
:102BE00019212A213B218D809E80AF80B88489895C
:102BF0009A89AB89BC8988229922AA22BB220825FE
:102C000019252A253B25040D151D261D371D2A01D2
:102C10003B01440C551C661C771C411C440C551C84
:102C2000661C771C411C8D809E80AF80B884982DD7
:102C30008B2CBA2CA92C992E80FAB794A794979430
:102C40008794B7F884249524A624B7242A013B014D
:102C500040FA779467945794479477F840FA7794BA
:102C600067945794479477F840FA77946794579409
:102C7000479477F884249524A624B724800E911EC7
:102C8000A21EB31EC80CD91CEA1CFB1C09811A81A8
:102C90002B813C81A02F032F322F212F1A2F000FC1
:102CA000111F221F331F011DD901C801880F991F51
:102CB000AA1FBB1F811D49815A816B817C8140FB0A
:102CC000779567955795479577F940FB7795679581
:102CD0005795479577F98C019D01042715272627DD
:102CE000372749815A816B817C81FA01AB01BF0191
:102CF000440F551F661F771F411D440F551F661F48
:102D0000771F411DDB01CA01880F991FAA1FBB1F36
:102D1000811DB901A801482759276A277B27898483
:102D20009A84AB84BC844B8C5C8C6D8C7E8C8424AC
:102D30009524A624B72409811A812B813C81802205
:102D40009122A222B3229301820189859A85AB85C3
:102D5000BC85082319232A233B23082519252A2566
:102D60003B25400F511F621F731F4BA05CA06DA03D
:102D70007EA04C0C5D1C6E1C7F1C4D865E866F8693
:102D8000788ADB01CA018C0D9D1DAE1DBF1D0D890A
:102D90001E890C5F1F4F1E8B0D8B2B8D3C8D4D8D17
:102DA0005E8D2BA33CA34DA35EA3CF8CD8A0E9A03E
:102DB000FAA04F89588D2416350669F189889A88BA
:102DC000AB88BC888F8E98A2A9A2BAA20D811E8161
:102DD0002F813885098B1A8B2B8B3C8B2D853E855B
:102DE0004F8558892D833E834F83588749855A855F
:102DF0006B857C854B8F5C8F6D8F7E8F49805A8071
:102E00006B807C8049865A866B867C8689839A8310
:102E1000AB83BC83BFCE68EA79E07E8B6D8B2224C6
:102E20002394312CF101EF70FF273896EE0FFF1F2E
:102E3000EE0FFF1F2D96EEACFFAC2D97EE0DFF1D94
:102E40000281138124813581F1013D96EF70FF27C6
:102E50003896EE0FFF1FEE0FFF1FEE0DFF1DC28015
:102E6000D380E480F5804FE0420DE42FEF70B6018F
:102E7000A7013A014B0160FA97948794779467947D
:102E800097F82B966CAE7DAE8EAE9FAE2B972D969F
:102E90006EAD7FAD2D9744E0E49F600D711D112450
:102EA000FB01B096F88FEF8BF1013896EF70FF279A
:102EB0003896EE0FFF1FEE0FFF1F2D964EAD5FAD44
:102EC0002D974E0F5F1FEF89F88D428053806480ED
:102ED0007580FA0182809380A480B580840C951C53
:102EE000A61CB71C702E412E522E632EB301A201D8
:102EF000440F551F661F771F411D28013901E3E06C
:102F00007694679457944794EA95D1F744265526CA
:102F100066267726B80189019B0100FB3795279526
:102F20001795079537F900FB37952795179507955E
:102F300037F94026512662267326480C591C6A1C14
:102F40007B1CFAE0F694E794D794C794FA95D1F7EE
:102F50002B968CAC9DACAEACBFAC2B97C824D924BF
:102F6000EA24FB2480FAB794A79497948794B7F83F
:102F700080FAB794A79497948794B7F88C249D24EB
:102F8000AE24BF24840C951CA61CB71CEF89F88DB9
:102F900082829382A482B5826D897E89FB014590ED
:102FA0005590659074904F8A588E698E7A8E0D85F3
:102FB0001E852F853889F22F232F302F012F1F2FA9
:102FC0004D855E856F8578894095509560957095A3
:102FD00049885A886B887C8844215521662177214D
:102FE0004D845E846F847888CD80DE80EF80F884A5
:102FF0004C205D206E207F206A017B01C424D524F3
:10300000E624F7244F89588D698D7A8DC40ED51E1C
:10301000E61EF71E28013901440C551C661C771C5E
:10302000411C440C551C661C771C411C4D855E855B
:103030006F857889E42F472F762F652F5E2F40FB11
:10304000779567955795479577F9442555256625D2
:1030500077252801390140FA77946794579447946B
:1030600077F840FA779467945794479477F840FA42
:10307000779467945794479477F8442555256625A7
:1030800077254C0D5D1D6E1D7F1D840E951EA61EA1
:10309000B71E4F8C58A069A07AA0840C951CA61C62
:1030A000B71CD82EE92EFA2ECB2ECC0CDD1CEE1C34
:1030B000FF1CC11C97018601000F111F221F331F27
:1030C000011DAC01BD0140FB77956795579547956C
:1030D00077F940FB779567955795479577F968019C
:1030E0007901C426D526E626F726BC01AD01440F9A
:1030F000551F661F771F411D440F551F661F771F01
:10310000411D8A019B01000F111F221F331F011D4A
:10311000B701A6014027512762277327C980DA80AB
:10312000EB80FC8009851A852B853C85C026D1263D
:10313000E226F326C822D922EA22FB2249805A80BD
:103140006B807C8004211521262137210C251D252B
:103150002E253F25400F511F621F731F4B8C5C8C27
:103160006D8C7E8C480C591C6A1C7B1C480D591DAB
:103170006A1D7B1D0FEF201A300A2D893E892C5FB6
:103180003F4F3E8B2D8B89849A84AB84BC848B8E7D
:103190009C8EAD8EBE8EA988BA88CB88DC88AF8E17
:1031A000B8A2C9A2DAA201E32016310419F18D8078
:1031B0009E80AF80B884898A9A8AAB8ABC8AAD84A3
:1031C000BE84CF84D888AD82BE82CF82D8864D8619
:1031D0005E866F86788AC980DA80EB80FC80C9863B
:1031E000DA86EB86FC8689839A83AB83BC83DB011A
:1031F000CA0118CE8FA098A4A9A4BAA4480D591D3D
:103200006A1D7B1D2D96EEADFFAD2D974283538336
:10321000648375838BA49CA4ADA4BEA4880D991D62
:10322000AA1DBB1D86839783A087B18789819A8158
:10323000AB81BC818FA498A8A9A8BAA8880D991DB4
:10324000AA1DBB1D82879387A487B58789859A8528
:10325000AB85BC858BA89CA8ADA8BEA8880D991D80
:10326000AA1DBB1D86879787A08BB18B8FA898ACB2
:10327000A9ACBAAC480C591C6A1C7B1C428A538A04
:10328000648A758A8D859E85AF85B8894BAC5CACA8
:103290006DAC7EAC840D951DA61DB71D868B978BDE
:1032A000A08FB18F8D819E81AF81B88523964CAC64
:1032B0005DAC6EAC7FAC2397840D951DA61DB71D2C
:1032C000828F938FA48FB58F89899A89AB89BC89A6
:1032D00027964CAC5DAC6EAC7FAC2797840D951DEA
:1032E000A61DB71D868F978FA0A3B1A3C45BDF4F28
:1032F0000FB6F894DEBF0FBECDBFDF91CF911F9107
:103300000F91FF90EF90DF90CF90BF90AF909F9084
:103310008F907F906F905F904F903F902F90089587
:103320006F927F928F929F92AF92BF92CF92DF92D5
:10333000EF92FF920F931F93CF93DF934C013B01CA
:10334000EA019A0140E050E060E070E080E090E047
:1033500003E00E94A821F401EE59FF4FA080B18044
:10336000C280D380E480F580068117810E94DF212E
:103370002083318342835383648375838683978359
:10338000840106591F4F80E4A82E740122E2E20E48
:10339000F11C209721F1F8018081BA2CB81A2B2D4D
:1033A00030E0C217D30708F4BC2ECB2CD12CA601D9
:1033B000B3019701280F311DC9010E94DC1EF801DD
:1033C00080818B0D8083CC19DD096C0C7D1C8034D1
:1033D00001F7C4010E94FF14F8011082DACFDF91D7
:1033E000CF911F910F91FF90EF90DF90CF90BF9002
:1033F000AF909F908F907F906F9008954F925F92C3
:103400006F927F928F929F92AF92BF92CF92DF92F4
:10341000EF92FF920F931F93CF93DF93EC016B0119
:10342000942EA52E7C0182E2E80EF11CFE01E659E5
:10343000FF4F2081822F90E08E010E591F4FD70140
:10344000A80FB91F283380F420E82C93808190E0E6
:1034500047E350E0481B590B019660E070E08E0D89
:103460009F1D0E94E51E17C020E82C93808190E0EC
:103470004FE350E0481B590B019660E070E08E0D61
:103480009F1D0E94E51ECE010E94FF1488E3F701F4
:1034900011928A95E9F7D8018C901196BC901197FA
:1034A0001296FC9112971396EC91139714966C91C7
:1034B000149715967C911597282D3B2D4F2F5E2F35
:1034C00016968C91169717969C9100E20E94C32144
:1034D000C901DA01AE01465A5F4F782E66245524A1
:1034E00044240B2F112722273327042915292629A5
:1034F0003729492E5A2E6B2E7724442466247724AC
:103500000429152926293729BA2FA92F982F88276A
:1035100088279927BB27082B192B2A2B3B2BDA014D
:103520000D931D932D933C931397682D7B2D8F2F17
:103530009E2F0E947F21FE01E25AFF4F608371831C
:1035400082839383CE010E94FF1422966991799120
:10355000899199910E947F216C8F7D8F8E8F9F8F93
:10356000CE15DF0599F7492D5A2D4132510510F03E
:1035700040E250E0B701C601DF91CF911F910F915A
:10358000FF90EF90DF90CF90BF90AF909F908F9083
:103590007F906F905F904F900C94DC1E0F93CF93B1
:1035A000DF93EC019A01829606E3AB01BC01CE01E8
:1035B0000E948A1BFE01EE59FF4F2081318142811A
:1035C000538164817581868197813E5F4F4F5F4F44
:1035D0006F4F7F4F8F4F9F4F2083318342835383A1
:1035E0006483758386839783CE01DF91CF910F919A
:1035F0000C94FF146F927F928F929F92AF92BF9222
:10360000CF92DF92EF92FF920F931F93CF93DF93AE
:10361000CDB7DEB7A0970FB6F894DEBF0FBECDBF13
:103620007C014B013A0169015801DC01ED91FC91EB
:103630000484F585E02D40E250E0BE016F5F7F4FCE
:103640000995B7016E5D7F4F0CE59301A401C70199
:103650000E948A1BF701EE59FF4F20813181428180
:10366000538164817581868197813E5F4F4F5F4FA3
:103670006F4F7F4F8F4F9F4F208331834283538300
:103680006483758386839783C7010E94FF14D701E3
:10369000ED91FC910284F385E02D40E250E0BE0103
:1036A0006F5F7F4FC7010995D701ED91FC910484AD
:1036B000F585E02DA501B601C701099560E270E02E
:1036C000CE0101960E94791BA0960FB6F894DEBF3A
:1036D0000FBECDBFDF91CF911F910F91FF90EF9063
:1036E000DF90CF90BF90AF909F908F907F906F9022
:1036F0000895680F791F8617970721F0FC01108243
:103700000196F9CF089526E132E0FC013183208350
:10371000089508958F929F92AF92BF92CF92DF92B9
:10372000EF92FF920F93CF93DF9300D0CDB7DEB728
:103730004C017B01BA016901DC01ED91FC9106802D
:10374000F781E02D49837A8309955C01D401ED91DD
:10375000FC910084F185E02DC401099569817A818D
:10376000AC14BD0428F0A601C7010E94DC1E24C0D1
:10377000D401ED91FC910284F385E02DA601C401F2
:103780000995D401ED91FC910480F581E02DC401EF
:1037900009956C01D401ED91FC910484F585E02D2F
:1037A000AC01B701C4010995D401ED91FC910084ED
:1037B000F185E02DC401099547018C0C9D1CA501E4
:1037C0004C195D09602F70E0C4010E94E51EF701ED
:1037D000E815F90521F0908190279193F9CF0F908A
:1037E0000F90DF91CF910F91FF90EF90DF90CF90EE
:1037F000BF90AF909F908F90089508958230E8F425
:10380000E82FF0E0EE0FFF1FE55FFE4F718360834E
:10381000813041F0809169008C7F482B4093690092
:10382000E89A089580916900440F551F440F551F71
:10383000837F482B40936900E99A0895823078F499
:10384000813011F0E89801C0E998E82FF0E0EE0F20
:10385000FF1FE55FFE4F8DEF9BE19183808308950D
:103860001F920F920FB60F9211242F933F934F93F5
:103870005F936F937F938F939F93AF93BF93EF93D8
:10388000FF93E0910B01F0910C010995FF91EF91ED
:10389000BF91AF919F918F917F916F915F914F9168
:1038A0003F912F910F900FBE0F901F9018951F9270
:1038B0000F920FB60F9211242F933F934F935F9364
:1038C0006F937F938F939F93AF93BF93EF93FF93E8
:1038D000E0910D01F0910E010995FF91EF91BF91DB
:1038E000AF919F918F917F916F915F914F913F9198
:1038F0002F910F900FBE0F901F901895833081F07D
:1039000028F4813099F08230A1F008958730A9F031
:103910008830B9F08430D1F4809180008F7D03C06D
:10392000809180008F7780938000089584B58F7791
:1039300002C084B58F7D84BD08958091B0008F77DB
:1039400003C08091B0008F7D8093B0000895CF9325
:10395000DF9390E0FC01E458F54F2491FC01E0571F
:10396000F54F8491882361F190E0880F991FFC0145
:10397000E854F54FC591D491FC01E255F54FA5915E
:10398000B491611109C09FB7F89488812095822372
:103990008883EC912E230BC0623061F49FB7F894BA
:1039A0003881822F809583238883EC912E2B2C9352
:1039B0009FBF06C08FB7F894E8812E2B28838FBF56
:1039C000DF91CF9108951F93CF93DF93282F30E09D
:1039D000F901E859F54F8491F901E458F54FD49174
:1039E000F901E057F54FC491CC23C9F0162F81118E
:1039F0000E947E1CEC2FF0E0EE0FFF1FE255F54F0A
:103A0000A591B4918FB7F894111105C09C91ED2F39
:103A1000E095E92302C0EC91ED2BEC938FBFDF9191
:103A2000CF911F910895CF93DF93282F30E0F901B4
:103A3000E859F54F8491F901E458F54FD491F90113
:103A4000E057F54FC491CC2391F081110E947E1C68
:103A5000EC2FF0E0EE0FFF1FEC55F54FA591B49160
:103A6000EC91ED2381E090E021F480E002C080E061
:103A700090E0DF91CF9108950C94D31DCF93DF9305
:103A80008230910510F482E090E0E091D605F0914B
:103A9000D70520E030E0C0E0D0E0309711F1408160
:103AA000518148175907C0F04817590761F48281BE
:103AB0009381209719F09B838A832BC09093D7051D
:103AC0008093D60526C02115310519F042175307FA
:103AD00018F49A01BE01DF01EF010280F381E02DAD
:103AE000DCCF2115310509F1281B390B24303105B4
:103AF00090F412968D919C9113976115710521F0A8
:103B0000FB019383828304C09093D7058093D605ED
:103B1000FD01329644C0FD01E20FF31F81939193A2
:103B2000225031092D933C933AC02091D405309115
:103B3000D505232B41F420910201309103013093EC
:103B4000D5052093D4052091000130910101211564
:103B5000310541F42DB73EB7409104015091050164
:103B6000241B350BE091D405F091D505E217F3073E
:103B7000A0F42E1B3F0B2817390778F0AC014E5FDD
:103B80005F4F2417350748F04E0F5F1F5093D50540
:103B90004093D4058193919302C0E0E0F0E0CF011F
:103BA000DF91CF9108950F931F93CF93DF930097E9
:103BB00009F48CC0FC013297138212820091D60561
:103BC0001091D7050115110581F420813181820FF3
:103BD000931F2091D4053091D5052817390779F521
:103BE000F093D505E093D40571C0D80140E050E0D2
:103BF000AE17BF0750F412962D913C911397AD016B
:103C00002115310509F1D901F3CF9D01DA01338383
:103C1000228360817181860F971F8217930769F451
:103C2000EC0128813981260F371F2E5F3F4F3183EA
:103C300020838A819B8193838283452B29F4F0938F
:103C4000D705E093D60542C01396FC93EE931297E6
:103C5000ED01499159919E01240F351FE217F30799
:103C600071F480819181840F951F029611969C9327
:103C70008E938281938113969C938E931297E0E0AA
:103C8000F0E0D80112968D919C911397009719F04E
:103C9000F8018C01F6CF8D919C9198012E5F3F4FDA
:103CA000820F931F2091D4053091D505281739072D
:103CB00069F4309729F41092D7051092D60502C006
:103CC000138212821093D5050093D405DF91CF9112
:103CD0001F910F9108958F929F92AF92BF92CF92B2
:103CE000DF92EF92FF92CF93DF93EC0168817981AD
:103CF0008A819B81611571058105910521F464E23A
:103D000079ED8BE597E02DE133EF41E050E00E9443
:103D1000602149015A019B01AC01A7EAB1E40E946C
:103D200095216B017C01ACEEB4EFA50194010E94DA
:103D3000A321DC01CB018C0D9D1DAE1DBF1DB7FF66
:103D400003C00197A109B04888839983AA83BB83E4
:103D5000BC01CD019F77DF91CF91FF90EF90DF9075
:103D6000CF90BF90AF909F908F9008950E946B1E50
:103D7000089586E091E00E946B1E0895609306010D
:103D8000709307018093080190930901089581E0E1
:103D900090E0F8940C942022F8940C942022FB01DB
:103DA000DC0104C08D910190801921F441505040F4
:103DB000C8F7881B990B0895FB01DC0102C0019034
:103DC0000D9241505040D8F70895DC0101C06D9329
:103DD00041505040E0F708955058BB27AA270E9451
:103DE000041F0C947E200E94702038F00E947720DF
:103DF00020F039F49F3F19F426F40C946D200EF452
:103E0000E095E7FB0C946720E92F0E948F2058F380
:103E1000BA17620773078407950720F079F4A6F5AF
:103E20000C94B1200EF4E0950B2EBA2FA02D0B01AF
:103E3000B90190010C01CA01A0011124FF27591BEF
:103E400099F0593F50F4503E68F11A16F040A22FF5
:103E5000232F342F4427585FF3CF46953795279566
:103E6000A795F0405395C9F77EF41F16BA0B620B65
:103E7000730B840BBAF09150A1F0FF0FBB1F661FAC
:103E8000771F881FC2F70EC0BA0F621F731F841FEF
:103E900048F4879577956795B795F7959E3F08F015
:103EA000B0CF9395880F08F09927EE0F97958795D7
:103EB00008950E94432008F481E008950E94721F33
:103EC0000C947E200E94772058F00E94702040F0D1
:103ED00029F45F3F29F00C94672051110C94B22013
:103EE0000C946D200E948F2068F39923B1F3552321
:103EF00091F3951B550BBB27AA27621773078407FD
:103F000038F09F5F5F4F220F331F441FAA1FA9F392
:103F100035D00E2E3AF0E0E832D091505040E69580
:103F2000001CCAF72BD0FE2F29D0660F771F881FE1
:103F3000BB1F261737074807AB07B0E809F0BB0BD4
:103F4000802DBF01FF2793585F4F3AF09E3F5105E8
:103F500078F00C9467200C94B2205F3FE4F3983E15
:103F6000D4F3869577956795B795F7959F5FC9F7D1
:103F7000880F911D9695879597F90895E1E0660F52
:103F8000771F881FBB1F621773078407BA0720F0CB
:103F9000621B730B840BBA0BEE1F88F7E095089534
:103FA0000E94D71F6894B1110C94B22008950E940A
:103FB000972088F09F5798F0B92F9927B751B0F004
:103FC000E1F0660F771F881F991F1AF0BA95C9F79D
:103FD00014C0B13091F00E94B120B1E008950C946A
:103FE000B120672F782F8827B85F39F0B93FCCF31D
:103FF000869577956795B395D9F73EF4909580951A
:10400000709561957F4F8F4F9F4F0895E89409C039
:1040100097FB3EF490958095709561957F4F8F4FFB
:104020009F4F9923A9F0F92F96E9BB279395F69511
:10403000879577956795B795F111F8CFFAF4BB0F8F
:1040400011F460FF1BC06F5F7F4F8F4F9F4F16C0F3
:10405000882311F096E911C0772321F09EE8872F7D
:10406000762F05C0662371F096E8862F70E060E039
:104070002AF09A95660F771F881FDAF7880F9695B2
:10408000879597F90895990F0008550FAA0BE0E856
:10409000FEEF16161706E807F907C0F0121613060A
:1040A000E407F50798F0621B730B840B950B39F44A
:1040B0000A2661F0232B242B252B21F408950A26B0
:1040C00009F4A140A6958FEF811D811D089597F9F0
:1040D0009F6780E870E060E008959FEF80EC0895AE
:1040E00000240A94161617061806090608950024D7
:1040F0000A9412161306140605060895092E039451
:10410000000C11F4882352F0BB0F40F4BF2B11F4C4
:1041100060FF04C06F5F7F4F8F4F9F4F089557FD23
:104120009058440F551F59F05F3F71F04795880F25
:1041300097FB991F61F09F3F79F0879508951216BC
:1041400013061406551FF2CF4695F1DF08C0161668
:1041500017061806991FF1CF869571056105089419
:104160000895E894BB2766277727CB0197F9089530
:104170000E94432008F48FEF08950E94D0200C94F1
:104180007E200E94702038F00E94772020F0952336
:1041900011F00C9467200C946D2011240C94B22023
:1041A0000E948F2070F3959FC1F3950F50E0551F2B
:1041B000629FF001729FBB27F00DB11D639FAA277C
:1041C000F00DB11DAA1F649F6627B00DA11D661FCB
:1041D000829F2227B00DA11D621F739FB00DA11DEC
:1041E000621F839FA00D611D221F749F3327A00DA6
:1041F000611D231F849F600D211D822F762F6A2F42
:1042000011249F5750409AF0F1F088234AF0EE0FA6
:10421000FF1FBB1F661F771F881F91505040A9F7D3
:104220009E3F510580F00C9467200C94B2205F3FB4
:10423000E4F3983ED4F3869577956795B795F7950F
:10424000E7959F5FC1F7FE2B880F911D9695879587
:1042500097F9089597FB072E16F4009407D077FD81
:1042600009D00E94E82107FC05D03EF49095819585
:104270009F4F0895709561957F4F0895A1E21A2E82
:10428000AA1BBB1BFD010DC0AA1FBB1FEE1FFF1FFA
:10429000A217B307E407F50720F0A21BB30BE40B4A
:1042A000F50B661F771F881F991F1A9469F7609591
:1042B0007095809590959B01AC01BD01CF0108954B
:1042C000052E97FB1EF400940E94772157FD07D01E
:1042D0000E943E2107FC03D04EF40C9477215095A8
:1042E0004095309521953F4F4F4F5F4F08959095E2
:1042F0008095709561957F4F8F4F9F4F08956927E7
:10430000962769277827872778270895A29FB001E5
:10431000B39FC001A39F700D811D1124911DB29FF9
:10432000700D811D1124911D08950E948621A59F65
:10433000900DB49F900DA49F800D911D11240895A0
:10434000B7FF0C9495210E949521821B930B089531
:104350000F93083090F0982F872F762F652F542FCA
:10436000432F322F22270850F4CF220F331F441F30
:10437000551F661F771F881F991F0A95B2F70F9167
:10438000089597FB10F8169400080F93083098F0E2
:104390000850232F342F452F562F672F782F892F22
:1043A000902DF4CF059497958795779567955795B8
:1043B0004795379527950A95AAF70F9108952A0DE5
:1043C0003B1D4C1D5D1D6E1D7F1D801F911F08959F
:1043D000AA1BBB1B51E107C0AA1FBB1FA617B7072B
:1043E00010F0A61BB70B881F991F5A95A9F7809547
:1043F0009095BC01CD010895EE0FFF1F0590F4913B
:10440000E02D0994F999FECF92BD81BDF89A9927C4
:1044100080B50895A8E1B0E042E050E00C9412228B
:10442000DC01CB01FC01F999FECF06C0F2BDE1BD74
:10443000F89A319600B40D9241505040B8F7089563
:1044400015E0C3E6D5E004C0FE010E94FC212196E0
:0A445000C436D107C9F7F894FFCF76
:10445A000000D80520000100000002FD1BFD1B23FF
:10446A0041434B2072656365697665642C206865F3
:10447A00616465723A200023494E2053656E64696F
:10448A006E67206D73673A20002C2070656E646930
:10449A006E673A2000436F6E666967757261746968
:1044AA006F6E206572726F7221002346696E616CAD
:1044BA0023002353656E64696E67206D73673A2023
:1044CA000023526563656976696E67206D73673A82
:1044DA002000234B6579207570646174652C204E29
:1044EA0065696768626F757220002C204F6C644B97
:1044FA00657920002C204E6F6E636520002C204EBB
:10450A0065774B657920002353656E64696E672071
:10451A00636F6E663A20002352452D53656E6469B7
:10452A006E67206D73673A20000D0A006E616E0097
:10453A00696E66006F7666002E0000000000F010BB
:10454A00930F71108B107D10CE1000000000D21452
:10455A00E7146B146E1471149019FE19C114CE1A53
:10456A00FA1A00000000000000005F105F105F10E0
:0A457A005F105F105F105F105F100C
:00000001FF
