:100000000C9464050C94B51A0C94DC1A0C948C05B1
:100010000C948C050C948C050C948C050C948C051C
:100020000C948C050C948C050C948C050C948C050C
:100030000C948C050C948C050C948C050C948C05FC
:100040000C94810C0C948C050C94A00D0C94D20D86
:100050000C948C050C948C050C948C050C948C05DC
:100060000C948C050C948C0500000000000000002E
:100070000000000063DEB540000000005BFF984018
:1000800014AEAF400000000000000000CDCC0C40DA
:1000900000000000039698400E5CA04000000000A5
:1000A0000000000000000000CB011F410000000024
:1000B0000000000000000000000000008830214126
:1000C0000000000000000000000000000000000030
:1000D0000000000000000000000000000000000020
:1000E0000000000000000000000000004A32544000
:1000F0007329BF3EF96E8D40000000000000000033
:100100002BB7AD40BD634940780399400000000023
:1001100000000000000000000000000000000000DF
:1001200000000000000000000000000000000000CF
:1001300000000000E17A644089CA683FAD0B0D40C1
:1001400000000000000000000000000000000000AF
:1001500000000000E38EBF4000000000000000002F
:10016000000000000000000000000000000000008F
:10017000000000000000000000000000BA60D14054
:10018000000000000000000063DEB5400000000039
:10019000E17A644000000000B9198F40D125B03FDA
:1001A000D5719C4030C8EE40CB50CD4000000000DF
:1001B0000000000020289640000000000000000021
:1001C000000000000000000000000000000000002F
:1001D000000000000000000000000000000000001F
:1001E000000000000000000000000000000000000F
:1001F00089CA683FB9198F40000000006666464012
:10020000CDCCEC3F0000000057F8FB4000000000A0
:1002100061540A41000000000000000000000000DE
:1002200000000000000000000000000000000000CE
:1002300000000000000000000000000000000000BE
:1002400000000000000000005BFF9840000000007C
:10025000AD0B0D40D125B03F666646400000000062
:10026000260B674000000000D3C7CF40000000000D
:100270000000000000000000F5C0A04000000000E9
:10028000000000000000000000000000000000006E
:10029000000000000000000000000000000000005E
:1002A000000000000000000014AEAF40000000009D
:1002B00000000000D5719C40CDCCEC3F260B674080
:1002C0000000000020478F408AD8CF400000000087
:1002D000BCF3264103D2014184C00241000000006A
:1002E000000000000000000000000000000000000E
:1002F00000000000B81EC5400000000019A1934096
:100300007B14FE4000000000000000000000000020
:100310000000000030C8EE400000000000000000B7
:1003200020478F400000000033338340000000006E
:100330000000000000000000623B3C4100000000A3
:1003400000000000000000000000000000000000AD
:1003500000000000E38DEC3F000000006FA00E3EA7
:10036000000000000000000000000000000000008D
:1003700000000000CB50CD4057F8FB40D3C7CF4022
:100380008AD8CF40333383400000000000000000D3
:10039000000000000000000000000000000000005D
:1003A000000000000000000000000000000000004D
:1003B000000000000000000000000000B0AA814022
:1003C0002DFFBC4000000000CDCC0C404A32544010
:1003D000000000000000000000000000000000001D
:1003E000000000000000000000000000000000000D
:1003F000DCD95C40000000000000000000000000AC
:10040000000000000000000007A8FB400000000002
:1004100000000000000000000000000000000000DC
:100420000000000000000000000000007329BF3E33
:10043000000000000000000061540A4100000000BC
:10044000BCF326410000000000000000DCD95C4045
:10045000000000002CBF83402F278C407B2AA9403E
:10046000F591AB40E7AE5E40DC7C9B4070340141CF
:10047000000000000000000000000000000000007C
:10048000000000000000000003969840F96E8D40C7
:10049000E38EBF40202896400000000000000000CE
:1004A00003D2014100000000000000000000000035
:1004B0002CBF834000000000D70E9E3EE94F16413E
:1004C0000000000013D1F140489E074100000000E9
:1004D000000000000000000000000000000000001C
:1004E00000000000000000000E5CA04000000000C2
:1004F000000000000000000000000000F5C0A04067
:1005000084C00241623B3C4100000000000000004A
:100510002F278C40D70E9E3E000000006E5A1A41D5
:1005200000000000BAA0FA40000000000000000037
:1005300000000000000000000000000000000000BB
:1005400000000000000000000000000000000000AB
:10055000000000000000000000000000000000009B
:10056000000000000000000000000000000000008B
:100570007B2AA940E94F16416E5A1A41000000003B
:100580000000A040CDCC0C40B5FB3C408004514065
:10059000E196904000000000000000000000000014
:1005A0000000000000000000000000002BB7AD407C
:1005B000000000000000000000000000000000003B
:1005C000000000000000000000000000000000002B
:1005D000F591AB4000000000000000000000A040CA
:1005E000000000009FCDAE40AB7603409154AB407D
:1005F00000000000000000000000000000000000FB
:10060000000000000000000000000000BD63494041
:1006100000000000000000000000000000000000DA
:1006200000000000000000000000000000000000CA
:10063000E7AE5E4013D1F140BAA0FA40CDCC0C40F9
:100640009FCDAE400000000055967040B0EDAD402B
:10065000000000000000000000000000000000009A
:100660000000000000000000CB011F41780399400A
:10067000000000000000000000000000000000007A
:1006800000000000000000000000000007A8FB4080
:10069000DC7C9B40489E074100000000B5FB3C40CD
:1006A000AB76034055967040000000003A15734049
:1006B000157E444000000000000000000000000023
:1006C000000000000000000000000000000000002A
:1006D000000000000000000000000000000000001A
:1006E000000000000000000000000000000000000A
:1006F00070340141000000000000000080045140FF
:100700009154AB40B0EDAD403A157340000000008D
:100710000000204000000000000000000000000079
:1007200000000000000000000000000000000000C9
:1007300000000000000000000000000000000000B9
:1007400000000000000000000000000000000000A9
:10075000000000000000000000000000E196904052
:100760000000000000000000157E44400000204012
:100770000000000000000000000000000000000079
:100780000000000000000000000000000000000069
:100790000000000000000000000000000000000059
:1007A000B81EC540E38DEC3F0000000000000000D3
:1007B0000000000000000000000000000000000039
:1007C0000000000000000000000000000000000029
:1007D000000000000000000000000000DA8ADF3F97
:1007E0000AD7E33F00000000000000000000000006
:1007F00000000000000000000000000000000000F9
:1008000000000000000000000000000000000000E8
:1008100000000000000000000000000000000000D8
:1008200000000000000000000000000000000000C8
:1008300000000000000000000000000000000000B8
:10084000000000000000000088302141000000008E
:10085000BA60D1400000000000000000000000006D
:1008600019A193406FA00E3EB0AA81400000000085
:100870000000000000000000000000000000000078
:100880000000000000000000000000000000000068
:1008900000000000DA8ADF3F0000000000000000D6
:1008A0000DE95C40000000000000000000000000B6
:1008B0000000000000000000000000000000000038
:1008C0007B14FE40000000002DFFBC400000000033
:1008D0000000000000000000000000000000000018
:1008E0000000000000000000000000000000000008
:1008F000000000000AD7E33F000000000DE95C4063
:10090000000000007F0B27400000000000000000F6
:1009100000000000000000000000000000000000D7
:1009200000000000000000000000000000000000C7
:1009300000000000000000000000000000000000B7
:1009400000000000000000000000000000000000A7
:100950000000000000000000000000000000000097
:100960007F0B274000000000982F8A429144377186
:10097000CFFBC0B5A5DBB5E95BC25639F111F15922
:10098000A4823F92D55E1CAB98AA07D8015B831264
:10099000BE853124C37D0C55745DBE72FEB1DE8010
:1009A000A706DC9B74F19BC1C1699BE48647BEEF3F
:1009B000C69DC10FCCA10C246F2CE92DAA84744ACA
:1009C000DCA9B05CDA88F97652513E986DC631A840
:1009D000C82703B0C77F59BFF30BE0C64791A7D51F
:1009E0005163CA0667292914850AB72738211B2EA7
:1009F000FC6D2C4D130D385354730A65BB0A6A768F
:100A00002EC9C281852C7292A1E8BFA24B661AA89A
:100A1000708B4BC2A3516CC719E892D1240699D6AA
:100A200085350EF470A06A1016C1A419086C371E23
:100A30004C774827B5BCB034B30C1C394AAAD84E01
:100A40004FCA9C5BF36F2E68EE828F746F63A5783C
:100A50001478C8840802C78CFAFFBE90EB6C50A4CF
:100A6000F7A3F9BEF27871C6000000080002010089
:100A70000003040700000000000000000102040859
:100A800010204080010204081020010204081020F8
:100A90000404040404040404020202020202030324
:100AA00003030303000000002300260029000000C8
:100AB0000000250028002B00000000002400270073
:100AC0002A008909020E7D0C11241FBECFEFD8E049
:100AD000DEBFCDBF11E0A0E0B1E0EAE4F1E402C086
:100AE00005900D92A63FB107D9F725E0A6EFB1E03A
:100AF00001C01D92A833B207E1F715E0C3E6D5E0C7
:100B000004C02197FE010E947420C136D107C9F7A5
:100B10000E94E70E0C94511D0C940000CF92DF92BE
:100B2000EF92FF920F931F93CF93DF93CDB7DEB772
:100B30000DB71EB7262F30E0220F331FA9014F5FDC
:100B40005F4FEDB7FEB7E41BF50B0FB6F894FEBF91
:100B50000FBEEDBF4DB75EB74F5F5F4F7A01FFEF3E
:100B6000EF1AFF0ADA01782F6C018C2D871B86178C
:100B7000B8F4F60181916F01982F92959F70906360
:100B80009A330CF0995D9C938F7080638A330CF0DC
:100B9000895DF7018083F2E0EF0EF11C1296E5CF3C
:100BA000FA01E20FF31F1082BA0181E494E00E947F
:100BB0006F0E0FB6F8941EBF0FBE0DBFDF91CF9121
:100BC0001F910F91FF90EF90DF90CF900895CF93FA
:100BD000C42F8093A90250E087E692E00E94541D42
:100BE000C093660284E080936502109261021092C5
:100BF00062021092630210926402CF910895CF9224
:100C0000DF92EF92FF920E945211882399F0809117
:100C10002C0590912D05892B69F49091E604809123
:100C2000A902806898133BC080916502843011F05E
:100C300010926502809165028823C1F10E94CB0C5D
:100C40006B017C018091610290916202A09163022C
:100C5000B0916402C816D906EA06FB0634F10E9478
:100C6000D711882311F184E6C80ED11CE11CF11CB8
:100C7000C0926102D0926202E0926302F09264023A
:100C8000809165028150809365028091A902409114
:100C9000660267E672E080660E941A1206C08091C2
:100CA000E60487FDC7CF81E001C080E0FF90EF90B0
:100CB000DF90CF9008959091B603EEEAF2E020E045
:100CC00030E0291780F4A90160812F5F3F4F3B96E8
:100CD0006813F7CF2BE0249FC001259F900D1124AE
:100CE0008F549D4F089508952F923F924F925F9297
:100CF0006F927F928F929F92AF92BF92CF92DF922C
:100D0000EF92FF920F931F93CF93DF93CDB7DEB790
:100D1000CA50D1400FB6F894DEBF0FBECDBF64E617
:100D200070E080E090E00E94FC0C26E040E051EE94
:100D300060E070E081E494E00E94BC0F0E94A41285
:100D4000811106C06FE071E081E494E00E94750EAD
:100D50006091F90370E080E090E00E94740DFE0164
:100D6000E758FF4FCE018F509F4F6F0110821182C5
:100D70001282138214823596E817F907B9F7109199
:100D8000B6038091F90390E0019740E6489F9001F7
:100D9000499F300D1124C90188599F4F7C0101E002
:100DA0008BE0782E95E0692EF70185909590A590BF
:100DB000B49020E030E0A901C501B4010E94D11D2A
:100DC000882331F1812F90E0789EF001799EF00D1B
:100DD0001124E255FD4F0083689EF001699EF00DDD
:100DE0001124EC0DFD1D008381829282A382B482C6
:100DF0001F5F183169F41093B603212CDE01A75848
:100E0000BF4FCF50DF4FB983A883C15FD0401EC012
:100E10000F5FB4E0EB0EF11C093109F0C5CFEBCF49
:100E20002BE0C750DF4FA881B981C95FD0402A9F0E
:100E3000F0012B9FF00D1124E255FD4F0183C850A6
:100E4000DF4F4881C85FD040428323948091B6032E
:100E5000CD50DF4F8883C35FD040281608F0D5C13E
:100E6000FE0131961082118212821382148235960D
:100E7000CF50DF4F88819981C15FD040E817F907D3
:100E800089F7A22DB0E0C750DF4FB983A883C95FAF
:100E9000D0402BE02A9FF0012B9FF00D1124E2554A
:100EA000FD4F0081802F90E0019740E6489F900120
:100EB000499F300D1124C90188599F4F7C01DD24C1
:100EC000D39410E0F70185909590A590B49020E020
:100ED00030E0A901C501B4010E94D11D882389F029
:100EE000E1E0F0E0EC0FFD1F95E0919FE00DF11DBA
:100EF0001124D08281829282A382B4821F5F183132
:100F000039F0D394A4E0EA0EF11CB9E1DB12DACF98
:100F1000C850DF4F0883C85FD040312CCB5FDE4F15
:100F20001882C550D140CA5FDE4F1882C650D140EA
:100F3000E8E4C95FDE4FE883C750D140F4E4C85FFE
:100F4000DE4FF883C850D140CF5FDE4F1882C150CA
:100F5000D140CE5FDE4F1882C250D14028E4CD5F31
:100F6000DE4F2883C350D14044E4CC5FDE4F48833A
:100F7000C450D140CD50DF4F8881C35FD040381678
:100F800009F44ECFDE011196CC50DF4FB983A88310
:100F9000C45FD040CA50DF4F1882C65FD040E9E737
:100FA000F0E0EC0FFD1F25E0239DE00DF11D112465
:100FB000C150DF4FF983E883CF5FD0403196C75FE0
:100FC000DE4FF983E883C950D140CA50DF4F4881D2
:100FD000C65FD040411709F416C1C150DF4FA88148
:100FE000B981CF5FD040BC91C950DF4FB883C75F94
:100FF000D040CC50DF4FE881F981C45FD040808180
:10100000B813E8C0C75FDE4FA881B981C950D1408D
:101010008D919D910D90BC91A02DC550DF4F88837F
:101020009983AA83BB83CB5FD0402DEC3CEC4CE58D
:1010300051E4BC01CD010E94641D2B013C01CC5048
:10104000DF4FE881F981C45FD040C180D280E38066
:10105000F4802DEC3CEC4CE951E4C701B6010E9450
:10106000641D4B015C01A3019201C301B2010E9406
:10107000351F20E030E0A9010E94651D2B013C01D5
:10108000A5019401C501B4010E94351F9B01AC016B
:10109000C301B2010E94651D4B015C01CF5FDE4FB1
:1010A0002881C150D140CE5FDE4F3881C250D1403F
:1010B000CD5FDE4F4881C350D140CC5FDE4F5881B9
:1010C000C450D1400E94D11D1816CCF0CF5FDE4F26
:1010D0008882C150D140CE5FDE4F9882C250D1404D
:1010E000CD5FDE4FA882C350D140CC5FDE4FB882C7
:1010F000C450D140C950DF4F0881C75FD0402CECAD
:101100003CEC4CE45EE3C550DF4F688179818A8115
:101110009B81CB5FD0400E94641D4B015C0129E99B
:1011200039E949EF50E4C701B6010E94641D6B0123
:101130007C01A5019401C501B4010E94351F20E086
:1011400030E0A9010E94651D4B015C01A7019601D9
:10115000C701B6010E94351F9B01AC01C501B40156
:101160000E94651D6B017C01CB5FDE4F2881C5505D
:10117000D140CA5FDE4F3881C650D140C95FDE4FD3
:101180004881C750D140C85FDE4F5881C850D14018
:101190000E94D11D1816F4F0CB5FDE4FC882C550F7
:1011A000D140CA5FDE4FD882C650D140C95FDE4F02
:1011B000E882C750D140C85FDE4FF882C850D140A6
:1011C000C950DF4FF881C75FD040C850DF4FF88368
:1011D000C85FD040CA50DF4F2881C65FD0402F5F24
:1011E000CA50DF4F2883C65FD040CC50DF4F888184
:1011F0009981C45FD0400596CC50DF4F9983888396
:10120000C45FD040E2CE3394B5CECD50DF4FA8813D
:10121000C35FD04096E0A99FB0011124072E000CB7
:10122000880B990B60930404709305048093060463
:10123000909307040E947E1E9B01AC0160E07AEB54
:101240008BE59AE40E94D61D60930004709301041C
:1012500080930204909303045091F9030EEA12E084
:10126000980140E0CD50DF4FB881C35FD0404B17AD
:1012700061F0255F3F4FF9013B97E0815E1718F45D
:101280004093FB0302C04F5FEDCF0E94481E0E94B7
:101290007C0D6093AA027093AB028093AC02909392
:1012A000AD023091B6039091F903E5EBF2E080E0F6
:1012B000831791F0D8012C91DF011497921728F42D
:1012C0009C93D8012C91208302C02C9390838F5F34
:1012D000055F1F4F3B96ECCF87E598E9C65FDE4F71
:1012E0000FB6F894DEBF0FBECDBFDF91CF911F9137
:1012F0000F91FF90EF90DF90CF90BF90AF909F90B5
:101300008F907F906F905F904F903F902F900C94B4
:101310004D11CF93DF9380E290E00E947A208F718D
:101320008093F903EEEAF2E080E090E028E010829A
:10133000DC01A255BD4F11961C92119712961C927A
:10134000DF011396ED01322F19923A95E9F70B96CA
:101350003B968830C1E09C0751F786EF91E0DF9122
:10136000CF910C9476134F925F926F927F928F92EF
:101370009F92AF92BF92CF92DF92EF92FF920F9324
:101380001F93CF93DF93CDB7DEB729970FB6F894AD
:10139000DEBF0FBECDBF0E94CB0C613A7C438743BA
:1013A0009105D0F18091FA03811136C010E00BE075
:1013B0008091B603181768F54AE050E06091F90390
:1013C00081E494E00E94DD0E64E271E081E494E047
:1013D0000E946F0E019F70011124F701E255FD4F2D
:1013E0004AE050E0608181E494E00E94DD0E6CE30D
:1013F00071E081E494E00E946F0E68E0C7018F54B1
:101400009D4F0E948E0581E494E00E94710E1F5F43
:10141000CFCF81E08093FA030E94CB0CC090FC03F5
:10142000D090FD03E090FE03F090FF030E947E1E2B
:101430004B015C01C701B6010E947E1E2091000491
:101440003091010440910204509103040E94351F21
:1014500020E030E44CE156E40E94651D2B013C0184
:101460006091AA027091AB028091AC029091AD02A2
:101470000E94801E9B01AC01C301B2010E94651D48
:101480009B01AC01C501B4010E94301F18160CF07D
:1014900029C18091040490910504A0910604B091A3
:1014A0000704C816D906EA06FB0608F01BC1CE01E0
:1014B00001967C018C0188E0D82EDE0C60E071E0A2
:1014C00080E090E00E947C0DF80161938F01DE12B4
:1014D000F5CF8091FC03A091FB0380FD08C02BE0B9
:1014E000A29FF0011124E255FD4F018107C08BE05E
:1014F000A89FF0011124E255FD4F02810093BA0329
:1015000082E08093B7036091F9036093B8031BE016
:101510001A9FD0011124A255BD4F8C918093B9031D
:10152000802F69870E945B06FC0198E0ABEBB3E07B
:1015300001900D929A95E1F788E0F701A3ECB3E0F2
:1015400001900D928A95E1F74AE050E0698581E4C7
:1015500094E00E94DD0E6EE371E081E494E00E946D
:101560006F0E64E187EB93E00E948E0581E494E0C6
:101570000E94710E44E167EB73E0802F0E94E70543
:101580004AE050E06091F90381E494E00E94DD0EAE
:101590006DE471E081E494E00E946F0EE091FB0342
:1015A0001E9FF0011124E255FD4F4AE050E060819A
:1015B00081E494E00E94DD0E65E671E081E494E050
:1015C0000E946F0EE091FB031E9FF0011124E25573
:1015D000FD4F80810E945B0668E00E948E056FE6E9
:1015E00071E081E494E00E946F0E68E0C7010E9400
:1015F0008E0586EF91E00E94F612E091FB031E9F9C
:10160000F0011124E255FD4F80810E945B0648E005
:1016100050E0BC0186EF91E00E94151848E050E0D0
:10162000B70186EF91E00E941518E091FB031E9F21
:10163000F0011124E255FD4F80810E945B0648E0D5
:1016400050E0BC0186EF91E00E94831868E771E0EA
:1016500081E494E00E946F0EE091FB031E9FF00175
:101660001124E255FD4F80810E945B0668E00E94D4
:101670008E0581E494E00E94710E0091FC031091AC
:10168000FD032091FE033091FF0300FF0BC080910A
:10169000FB0390E001966091B60370E00E94A21FE8
:1016A0008093FB030F5F1F4F2F4F3F4F0093FC03AF
:1016B0001093FD032093FE033093FF036091000419
:1016C0007091010480910204909103040E94481ECD
:1016D0000E947C0D6093AA027093AB028093AC02CF
:1016E0009093AD020E94FF05882309F4EFC04AE001
:1016F00050E06091F90381E494E00E94DD0E62E81D
:1017000071E081E494E00E946F0E6091E70488EE3E
:1017100094E00E948E0581E494E00E94710E809115
:10172000E804823009F09DC06091EA048091F903D9
:10173000681360C04AE050E081E494E00E94DD0E4E
:101740006DE471E081E494E00E946F0E6091E90421
:101750004AE050E081E494E00E94DD0E65E671E02D
:1017600081E494E00E946F0E8091E9040E945B0680
:1017700068E00E948E056FE671E081E494E00E94CB
:101780006F0E68E084EF94E00E948E0586EF91E092
:101790000E94F6128091E9040E945B0648E050E046
:1017A000BC0186EF91E00E94151848E050E064EF1C
:1017B00074E086EF91E00E9415188091E9040E9480
:1017C0005B0648E050E0BC0186EF91E00E94831880
:1017D00068E771E081E494E00E946F0E8091E90473
:1017E0000E945B0668E00E948E0581E494E00E94FE
:1017F000710E37C06091EB04681333C01091EA0496
:1018000084E1E8EEF4E0A7EBB3E001900D928A9555
:10181000E1F7812F69870E945B06FC0198E0ABEB42
:10182000B3E001900D929A95E1F74AE050E06985A6
:1018300081E494E00E94DD0E63E971E081E494E0CC
:101840000E946F0E64E187EB93E00E948E0581E4B5
:1018500094E00E94710E44E167EB73E0812F0E94D7
:10186000E7058091E804813029F08091E60485FD48
:1018700019C02CC09091B603AEEAB2E0E8E0F4E003
:1018800080E0891791F33091E9042C91321306C05E
:10189000208131812F5F3F4F318320838F5F1B96E3
:1018A0003296EFCF8091E60487FD10C08091E60468
:1018B00086FD0AC08091E6048F71806C40E060E094
:1018C00070E00E941A1202C080E8F8CF29960FB685
:1018D000F894DEBF0FBECDBFDF91CF911F910F9166
:1018E000FF90EF90DF90CF90BF90AF909F908F9040
:1018F0007F906F905F904F90089586EF91E00C94E9
:1019000057131F920F920FB60F9211242F933F93EC
:101910008F939F93AF93BF938091390490913A0432
:10192000A0913B04B0913C043091380423E0230F94
:101930002D3720F40196A11DB11D05C026E8230F07
:101940000296A11DB11D2093380480933904909311
:101950003A04A0933B04B0933C0480913D049091E1
:101960003E04A0913F04B09140040196A11DB11D19
:1019700080933D0490933E04A0933F04B0934004B1
:10198000BF91AF919F918F913F912F910F900FBE7B
:101990000F901F9018952FB7F894609139047091AB
:1019A0003A0480913B0490913C042FBF08953FB7C7
:1019B000F89480913D0490913E04A0913F04B09131
:1019C000400426B5A89B05C02F3F19F00196A11D24
:1019D000B11D3FBFBA2FA92F982F8827820F911DC5
:1019E000A11DB11DBC01CD0142E0660F771F881F0C
:1019F000991F4A95D1F708958F929F92AF92BF9207
:101A0000CF92DF92EF92FF926B017C010E94D70C84
:101A10004B015C01C114D104E104F10401F10E9405
:101A2000730D0E94D70CDC01CB0188199909AA0912
:101A3000BB09883E9340A105B10560F321E0C21ABD
:101A4000D108E108F10888EE880E83E0981EA11CF9
:101A5000B11CC114D104E104F10419F7DBCFFF90EC
:101A6000EF90DF90CF90BF90AF909F908F900895B0
:101A7000789484B5826084BD84B5816084BD85B569
:101A8000826085BD85B5816085BDEEE6F0E0808130
:101A900081608083E1E8F0E0108280818260808351
:101AA000808181608083E0E8F0E0808181608083D4
:101AB000E1EBF0E0808184608083E0EBF0E0808106
:101AC00081608083EAE7F0E08081846080838081A8
:101AD0008260808380818160808380818068808350
:101AE0001092C10008950895611571058105910551
:101AF00011F00C94431D0895CF93DF9300D000D0D4
:101B0000CDB7DEB7611571058105910579F09B01AF
:101B1000AC0169833A834B835C830E943E1D29811B
:101B20003A814B815C810E94D81F03C060E070E065
:101B3000CB010F900F900F900F90DF91CF910895F0
:101B40001F920F920FB60F9211242F938F939F9392
:101B5000EF93FF93E0915104F09152048081E09162
:101B60005704F091580482FD12C0908180915A046C
:101B70008F5F8F7320915B04821751F0E0915A04BC
:101B8000F0E0EF5BFB4F958F80935A0401C080819A
:101B9000FF91EF919F918F912F910F900FBE0F901A
:101BA0001F9018951F920F920FB60F9211242F932A
:101BB0003F934F935F936F937F938F939F93AF93D5
:101BC000BF93EF93FF9381E494E00E94320FFF9163
:101BD000EF91BF91AF919F918F917F916F915F91A5
:101BE0004F913F912F910F900FBE0F901F9018951E
:101BF00081E494E00E94F60E21E0892B09F420E0B4
:101C0000822F0895E1E4F4E01382128288EE93E0DB
:101C1000A0E0B0E084839583A683B7838AEB91E04C
:101C20009183808385EC90E09587848784EC90E0B5
:101C30009787868780EC90E0918B808B81EC90E099
:101C4000938B828B82EC90E0958B848B86EC90E07A
:101C5000978B868B118E128E138E148E0895CF92D1
:101C6000DF92EF92FF920F931F93CF93DF936C015C
:101C70007A018B01C0E0D0E0CE15DF0589F0D801F4
:101C80006D918D01D601ED91FC910190F081E02DD7
:101C9000C6010995892B11F47E0102C02196ECCF73
:101CA000C701DF91CF911F910F91FF90EF90DF90CF
:101CB000CF9008956115710579F0FB010190002026
:101CC000E9F73197AF01461B570BDC01ED91FC9111
:101CD0000280F381E02D099480E090E008950C9457
:101CE0005A0E65EA71E00C945A0E0F931F93CF932E
:101CF000DF93EC010E945A0E8C01CE010E94710EFE
:101D0000800F911FDF91CF911F910F9108954F92F6
:101D10005F926F927F92EF92FF920F931F93CF93F8
:101D2000DF93CDB7DEB7A1970FB6F894DEBF0FBE35
:101D3000CDBF7C01FA01CB0119A2223008F42AE0C0
:101D40008E010F5D1F4F422E512C612C712CBF0153
:101D5000A30192010E94B61FF901CA0101501109A5
:101D60006A3014F4605D01C0695CD8016C93232B68
:101D7000242B252B61F7B801C7010E945A0EA196AA
:101D80000FB6F894DEBF0FBECDBFDF91CF911F918C
:101D90000F91FF90EF907F906F905F904F9008951C
:101DA0002115310541F4DC01ED91FC910190F081A8
:101DB000E02D642F09940C94870E9A01462F50E071
:101DC00060E070E00C94D00E0E944C1D08950E94BB
:101DD000380D0E94E60E0E947406C4E2DFE00E9405
:101DE000B3092097E1F30E94240FF9CFFC01918DF4
:101DF000228D892F90E0805C9F4F821B91098F7309
:101E000099270895FC01918D828D981731F0828D6C
:101E1000E80FF11D858D90E008958FEF9FEF0895F5
:101E2000FC01918D828D981761F0828DDF01A80FE2
:101E3000B11D5D968C91928D9F5F9F73928F90E004
:101E400008958FEF9FEF089588EF9DE0892B49F06B
:101E500080E090E0892B29F00E94F80D81110C940C
:101E600000000895FC01848DDF01A80FB11DA35A65
:101E7000BF4F2C91848D90E001968F739927848FAA
:101E8000A689B7892C93A089B1898C9180648C93A1
:101E9000938D848D981306C00288F389E02D80818C
:101EA0008F7D80830895CF93DF93EC01888D882305
:101EB000C9F0EA89FB89808185FD05C0A889B989B7
:101EC0008C9186FD0FC00FB607FCF5CF808185FF92
:101ED000F2CFA889B9898C9185FFEDCFCE010E9400
:101EE000320FE7CFDF91CF910895EF92FF920F93DA
:101EF0001F93CF93DF93EC0181E0888F9B8D8C8DB6
:101F0000981305C0E889F989808185FD24C0F62EE3
:101F10000B8D10E00F5F1F4F0F731127E02E8C8D7C
:101F2000E8120CC00FB607FCFACFE889F989808166
:101F300085FFF5CFCE010E94320FF1CF8B8DFE01D0
:101F4000E80FF11DE35AFF4FF0820B8FEA89FB89FE
:101F50008081806207C0EE89FF896083E889F98902
:101F600080818064808381E090E0DF91CF911F9138
:101F70000F91FF90EF900895CF92DF92EF92FF9232
:101F80001F93CF93DF93EC016A017B01122FE88945
:101F9000F98982E080834115514E61057105B1F0E8
:101FA00060E079E08DE390E0A70196010E94B61F02
:101FB000DA01C9010197A109B109B695A7959795CD
:101FC0008795AC01411580E15807A8F0E889F989A7
:101FD000108260E874E88EE190E0A70196010E940B
:101FE000B61FBA01A90141505109610971097695DD
:101FF000679557954795EC85FD855083EE85FF8560
:102000004083188EEC89FD891083EA89FB898081E1
:1020100080618083EA89FB89808188608083EA8986
:10202000FB89808180688083EA89FB8980818F7D3C
:102030008083DF91CF911F91FF90EF90DF90CF9041
:1020400008958627682F62956827062E66956695FF
:102050006025062E669560256770082E892F669587
:1020600007946795902D8627069467959025862777
:1020700008952CB521602CBD25B141E050E060E011
:1020800070E000900A0104C0440F551F661F771FBF
:102090000A94D2F74095422345B99EBD0DB407FE80
:1020A000FDCF2EB530E0322F22278EBD0DB407FEB6
:1020B000FDCF4EB555B181E090E0A0E0B0E00090DA
:1020C0000A0104C0880F991FAA1FBB1F0A94D2F7E8
:1020D000852B85B98CB58E7F8CBDC901842B089565
:1020E000CF9380E090E00E94391080912E058530DA
:1020F00091F580E090EB0E943910682F80912F05B8
:10210000811104C090913205911176C0E0912F05A4
:1021100081E08E0F80932F05F0E0EB51FB4F608341
:1021200080912C0590912D050E94211090932D05F2
:1021300080932C058091E70420912F0590E0049670
:1021400030E0821793070CF462C080912F0587342A
:1021500008F05DC061C080912E0587FF1BC0E09133
:10216000E70480912E0591E0980F90932E05ED5F86
:102170008E0FE82FF0E0EB51FB4FC08180912C05D2
:1021800090912D056C2F0E94211090932D05809326
:102190002C052EC080912E058330F1F054F4882355
:1021A000A9F08130E9F480912C0590912D05C92F7B
:1021B0001AC08930B9F08A3099F4C09132059091F3
:1021C000E7048DEF891B80932E050DC080912C05AF
:1021D00090912D05C82F07C08DE092E80E9439101C
:1021E000CAEA01C0CDE280912E058F5F80932E0553
:1021F0008C2F90E098540DC0E0912F0581E08E0F58
:1022000080932F05F0E0EB51FB4F90837FCF8DE063
:1022100092E8CF910C943910CF91089525B181E0C7
:1022200090E0A0E0B0E0AC01BD0100900A0104C064
:10223000440F551F661F771F0A94D2F7422B45B9EA
:1022400024B100900A0104C0880F991FAA1FBB1F68
:102250000A94D2F7822B84B961E08AE00E94681B5D
:1022600061E08AE00E942C1B61E08BE00E942C1B45
:1022700060E08CE00E942C1B61E08DE00E942C1B32
:1022800080E58CBD8DB581608DBD60E082E00E94EF
:102290002C1B61E082E00C94681BE8980E943910C6
:1022A000E89A089580912E05853091F58091E70494
:1022B00020912F0590E0049630E08217930724F0D8
:1022C00080912F05873420F184E080932E05809142
:1022D0002C0590912D0590932D0580932C058091D0
:1022E000E704833430F081E090E090932D058093F3
:1022F0002C058091E60486FF3EC080913305982F1F
:102300009F719F31C1F19091E60489278F7199F1F6
:1023100080912E05843069F58091E004882351F086
:102320008093E7041092E6041092E50483E0809322
:102330002F0504C01092E70410922F058FEF9FEF36
:1023400090932D0580932C0560913205662351F002
:1023500080912C0590912D050E94211090932D05C0
:1023600080932C0585E080932E058DED92E80E94E8
:10237000391080E0089580912C0590912D05892BCE
:1023800049F4E091DE04F091DF04309719F080E029
:1023900009950BC08FEF9FEFDC018093E1049093D0
:1023A000E204A093E304B093E40481E008958091F3
:1023B0002E05853099F480912F0581110FC080E0A2
:1023C00090E00E944D1190FD09C08DE092E80E94BE
:1023D0004D1184E080932E0581E0089580E00895FA
:1023E00086FD05C0807E909133059F71890F809393
:1023F000E604E091DE04F091DF04309711F081E013
:1024000009958FEF9FEF90932D0580932C05809178
:102410002C0590912D05609132050E94211090931A
:102420002D0580932C0586E080932E058DE392E8A0
:102430000C943910CF93C82F4093E70450E088EEF6
:1024400094E00E94541D8C2FCF910C94F011CF93E7
:10245000C62F809333054093320530933105209386
:1024600030050E940E1180E090E00E94391085E056
:1024700092E80E94391080E098EB0E94391082E0C7
:102480000E94981B892B19F480E090E0F6CF20E1A0
:10249000C29FC0011124876C90680E9439108091FE
:1024A00030059091310590560E94391086E096ECE7
:1024B0000E94391082EA94E90E9439108CEA92EC69
:1024C0000E943910C0913205CC2341F083E89AEC88
:1024D0000E9439108C2F90E09E6C06C08BE89AEC1D
:1024E0000E9439108DE29EEC0E94391083E894EC32
:1024F0000E94391080E598E90E94391087E79CEC2A
:102500000E94391080E090EE0E94391080E098EC33
:102510000E94391089E490EC0E94391084E0809385
:102520002E05809133058F7141F040E050E060E767
:1025300070E180E00E94831A03C080E00E94A31A29
:1025400080913305CF910895EF92FF920F931F93DF
:10255000CF93DF931F92CDB7DEB730E2E32EF12C9D
:102560000FEF1FEFC7010E947A20682FC8010E9459
:1025700021108C018FEFE81AF80A80E3E816F104C5
:1025800089F7012B21F582E290E00E947A208130C8
:10259000F1F480E290E00E947A20182F81E290E02E
:1025A0000E947A20482F84E290E049830E94822092
:1025B000612F70E026E0759567952A95E1F79C01FB
:1025C0004981812F0E942712812F8F7101C080E0E5
:1025D0000F90DF91CF911F910F91FF90EF90089591
:1025E00080E290E0089580E490E00895FC0187E6A1
:1025F00096EEA9E0BAE682839383A483B58385E847
:102600009EEAA7E6BBEB86839783A087B18782E724
:1026100093EFAEE6BCE382879387A487B5878AE30E
:1026200095EFAFE4B5EA86879787A08BB18B8FE7EC
:1026300092E5AEE0B1E5828B938BA48BB58B8CE8F1
:1026400098E6A5E0BBE9868B978BA08FB18F8BEACC
:1026500099EDA3E8BFE1828F938FA48FB58F89E1B5
:102660009DECA0EEBBE5868F978FA0A3B1A3DF0101
:10267000A659BF4F1C92EE59FF4F10821182128251
:10268000138214821582168217820895CF93DF93E6
:10269000EC0169E670E002960E94FE19E881F9817A
:1026A0000084F185E02DCE01DF91CF910994CF9385
:1026B000DF93D82FC92FE82FF92F8AEC91E081936F
:1026C000919369E670E0CF010E94FE198D2F9C2F37
:1026D000DF91CF910C940E1ACF93DF93EC010E94FF
:1026E0005713CE01DF91CF910C94C11BCF93DF9391
:1026F000EC010E94081A8AEC91E099838883CE014C
:10270000DF91CF910C94F6122F923F924F925F92ED
:102710006F927F928F929F92AF92BF92CF92DF92F1
:10272000EF92FF920F931F93CF93DF93CDB7DEB756
:10273000CC54D1090FB6F894DEBF0FBECDBF2D9695
:102740009FAF8EAF2D971C0102E2200E311C8E59D7
:102750009F4F988F8F8BF10160817181828193816E
:102760000E94F71F61937193819391932F89388D04
:10277000E217F30789F72D96AEADBFAD2D971296F0
:102780004D915D916D917C9115974FA358A769A7C5
:102790007AA716964D905D906D907C9019974BA6F8
:1027A0005CA66DA67EA61A964D905D906D907C906D
:1027B0001D974FA658AA69AA7AAA1E964D905D90B9
:1027C0006D907C9051974BAA5CAA6DAA7EAA5296F6
:1027D0004D905D906D907C9055974FAA58AE69AE24
:1027E0007AAE56964D905D906D907C9059974BAE19
:1027F0005CAE6DAE7EAE5A964D905D906D907C90C5
:102800005D9723964CAE5DAE6EAE7FAE23975E961F
:102810004D905D906D907C90919727964CAE5DAEFB
:102820006EAE7FAE279708E619E01E8B0D8B4983AD
:102830005A836B837C832FA938AD49AD5AAD2D8364
:102840003E834F8358877301620123964CAD5DAD83
:102850006EAD7FAD23974F8F58A369A37AA36BAD5D
:102860007CAD8DAD9EAD698B7A8B8B8B9C8B8BA950
:102870009CA9ADA9BEA98BA39CA3ADA3BEA34FA445
:1028800058A869A87AA84B8E5C8E6D8E7E8E6BA43C
:102890007CA48DA49EA469867A868B869C86ED890D
:1028A000FE890591159125913491D1014D905D904E
:1028B0006D907D901D014D815E816F817885B62F71
:1028C000672F742F452F5B2F400E511E621E731E03
:1028D0000D811E812F8138850095109520953095AA
:1028E0008F8C98A0A9A0BAA0082119212A213B21E8
:1028F0008D809E80AF80B88489899A89AB89BC8994
:1029000088229922AA22BB22082519252A253B259F
:10291000040D151D261D371D2A013B01440C551CB5
:10292000661C771C411C440C551C661C771C411C02
:102930008D809E80AF80B884982D8B2CBA2CA92CCA
:10294000992E80FAB794A79497948794B7F8842423
:102950009524A624B7242A013B0140FA7794679472
:102960005794479477F840FA77946794579447942C
:1029700077F840FA779467945794479477F88424CB
:102980009524A624B724800E911EA21EB31EC80C47
:10299000D91CEA1CFB1C09811A812B813C81A02FC8
:1029A000032F322F212F1A2F000F111F221F331F29
:1029B000011DD901C801880F991FAA1FBB1F811DC6
:1029C00049815A816B817C8140FB7795679557954A
:1029D000479577F940FB779567955795479577F930
:1029E0008C019D01042715272627372749815A8105
:1029F0006B817C81FA01AB01BF01440F551F661F3B
:102A0000771F411D440F551F661F771F411DDB01B6
:102A1000CA01880F991FAA1FBB1F811DB901A801F8
:102A2000482759276A277B2789849A84AB84BC84EA
:102A30004B8C5C8C6D8C7E8C84249524A624B724CE
:102A400009811A812B813C8180229122A222B3220A
:102A50009301820189859A85AB85BC85082319235A
:102A60002A233B23082519252A253B25400F511FE2
:102A7000621F731F4BA05CA06DA07EA04C0C5D1C60
:102A80006E1C7F1C4D865E866F86788ADB01CA01CC
:102A90008C0D9D1DAE1DBF1D0D891E890C5F1F4F26
:102AA0001E8B0D8B2B8D3C8D4D8D5E8D2BA33CA3F2
:102AB0004DA35EA3CF8CD8A0E9A0FAA04F89588D72
:102AC0002416350669F189889A88AB88BC888F8E70
:102AD00098A2A9A2BAA20D811E812F813885098BE7
:102AE0001A8B2B8B3C8B2D853E854F8558892D83EA
:102AF0003E834F83588749855A856B857C854B8FEC
:102B00005C8F6D8F7E8F49805A806B807C80498678
:102B10005A866B867C8689839A83AB83BC83BFCEBF
:102B200068EA79E07E8B6D8B22242394312CF101AD
:102B3000EF70FF273896EE0FFF1FEE0FFF1F2D9649
:102B4000EEACFFAC2D97EE0DFF1D028113812481A9
:102B50003581F1013D96EF70FF273896EE0FFF1F8C
:102B6000EE0FFF1FEE0DFF1DC280D380E480F580C5
:102B70004FE0420DE42FEF70B601A7013A014B017F
:102B800060FA979487947794679497F82B966CAE35
:102B90007DAE8EAE9FAE2B972D966EAD7FAD2D97F1
:102BA00044E0E49F600D711D1124FB01B096F88F85
:102BB000EF8BF1013896EF70FF273896EE0FFF1F6D
:102BC000EE0FFF1F2D964EAD5FAD2D974E0F5F1F81
:102BD000EF89F88D4280538064807580FA0182808D
:102BE0009380A480B580840C951CA61CB71C702E05
:102BF000412E522E632EB301A201440F551F661FB2
:102C0000771F411D28013901E3E0769467945794BA
:102C10004794EA95D1F74426552666267726B801CB
:102C200089019B0100FB379527951795079537F983
:102C300000FB379527951795079537F940265126BC
:102C400062267326480C591C6A1C7B1CFAE0F69419
:102C5000E794D794C794FA95D1F72B968CAC9DAC9A
:102C6000AEACBFAC2B97C824D924EA24FB2480FA4D
:102C7000B794A79497948794B7F880FAB794A794D9
:102C800097948794B7F88C249D24AE24BF24840C99
:102C9000951CA61CB71CEF89F88D82829382A482B2
:102CA000B5826D897E89FB01459055906590749041
:102CB0004F8A588E698E7A8E0D851E852F853889AC
:102CC000F22F232F302F012F1F2F4D855E856F850B
:102CD0007889409550956095709549885A886B8899
:102CE0007C8844215521662177214D845E846F8440
:102CF0007888CD80DE80EF80F8844C205D206E20C7
:102D00007F206A017B01C424D524E624F7244F895F
:102D1000588D698D7A8DC40ED51EE61EF71E2801CA
:102D20003901440C551C661C771C411C440C551C75
:102D3000661C771C411C4D855E856F857889E42F64
:102D4000472F762F652F5E2F40FB77956795579518
:102D5000479577F9442555256625772528013901BA
:102D600040FA779467945794479477F840FA7794A9
:102D700067945794479477F840FA779467945794F8
:102D8000479477F844255525662577254C0D5D1D1C
:102D90006E1D7F1D840E951EA61EB71E4F8C58A05B
:102DA00069A07AA0840C951CA61CB71CD82EE92E0D
:102DB000FA2ECB2ECC0CDD1CEE1CFF1CC11C970187
:102DC0008601000F111F221F331F011DAC01BD0121
:102DD00040FB779567955795479577F940FB779531
:102DE00067955795479577F968017901C426D526E7
:102DF000E626F726BC01AD01440F551F661F771F5D
:102E0000411D440F551F661F771F411D8A019B01FD
:102E1000000F111F221F331F011DB701A6014027FC
:102E2000512762277327C980DA80EB80FC800985EF
:102E30001A852B853C85C026D126E226F326C8229A
:102E4000D922EA22FB2249805A806B807C800421AF
:102E50001521262137210C251D252E253F25400F24
:102E6000511F621F731F4B8C5C8C6D8C7E8C480CC9
:102E7000591C6A1C7B1C480D591D6A1D7B1D0FEFD8
:102E8000201A300A2D893E892C5F3F4F3E8B2D8BB7
:102E900089849A84AB84BC848B8E9C8EAD8EBE8ECE
:102EA000A988BA88CB88DC88AF8EB8A2C9A2DAA27A
:102EB00001E32016310419F18D809E80AF80B88423
:102EC000898A9A8AAB8ABC8AAD84BE84CF84D8882A
:102ED000AD82BE82CF82D8864D865E866F86788A26
:102EE000C980DA80EB80FC80C986DA86EB86FC86B6
:102EF00089839A83AB83BC83DB01CA0118CE8FA080
:102F000098A4A9A4BAA4480D591D6A1D7B1D2D962D
:102F1000EEADFFAD2D9742835383648375838BA4FD
:102F20009CA4ADA4BEA4880D991DAA1DBB1D8683BB
:102F30009783A087B18789819A81AB81BC818FA457
:102F400098A8A9A8BAA8880D991DAA1DBB1D82879B
:102F50009387A487B58789859A85AB85BC858BA81F
:102F60009CA8ADA8BEA8880D991DAA1DBB1D86876B
:102F70009787A08BB18B8FA898ACA9ACBAAC480C42
:102F8000591C6A1C7B1C428A538A648A758A8D8507
:102F90009E85AF85B8894BAC5CAC6DAC7EAC840DC6
:102FA000951DA61DB71D868B978BA08FB18F8D8128
:102FB0009E81AF81B88523964CAC5DAC6EAC7FAC86
:102FC0002397840D951DA61DB71D828F938FA48F07
:102FD000B58F89899A89AB89BC8927964CAC5DAC41
:102FE0006EAC7FAC2797840D951DA61DB71D868FEF
:102FF000978FA0A3B1A3C45BDF4F0FB6F894DEBFD9
:103000000FBECDBFDF91CF911F910F91FF90EF9039
:10301000DF90CF90BF90AF909F908F907F906F90F8
:103020005F904F903F902F9008956F927F928F9274
:103030009F92AF92BF92CF92DF92EF92FF920F9347
:103040001F93CF93DF934C013B01EA019A0140E0CB
:1030500050E060E070E080E090E003E00E9420201B
:10306000F401EE59FF4FA080B180C280D380E4808C
:10307000F580068117810E94572020833183428387
:1030800053836483758386839783840106591F4F16
:1030900080E4A82E740122E2E20EF11C209721F1B7
:1030A000F8018081BA2CB81A2B2D30E0C217D30753
:1030B00008F4BC2ECB2CD12CA601B3019701280F0C
:1030C000311DC9010E94541DF80180818B0D808340
:1030D000CC19DD096C0C7D1C803401F7C4010E9401
:1030E0008413F8011082DACFDF91CF911F910F91F5
:1030F000FF90EF90DF90CF90BF90AF909F908F9018
:103100007F906F9008954F925F926F927F928F920F
:103110009F92AF92BF92CF92DF92EF92FF920F9366
:103120001F93CF93DF93EC016B01942EA52E7C01AE
:1031300082E2E80EF11CFE01E659FF4F2081822F4A
:1031400090E08E010E591F4FD701A80FB91F2833E9
:1031500080F420E82C93808190E047E350E0481B06
:10316000590B019660E070E08E0D9F1D0E945D1D61
:1031700017C020E82C93808190E04FE350E0481B7B
:10318000590B019660E070E08E0D9F1D0E945D1D41
:10319000CE010E94841388E3F70111928A95E9F722
:1031A000D8018C901196BC9011971296FC911297B1
:1031B0001396EC91139714966C91149715967C9135
:1031C0001597282D3B2D4F2F5E2F16968C91169715
:1031D00017969C9100E20E943B20C901DA01AE01E2
:1031E000465A5F4F782E6624552444240B2F11270E
:1031F000222733270429152926293729492E5A2E13
:103200006B2E772444246624772404291529262943
:103210003729BA2FA92F982F882788279927BB27C6
:10322000082B192B2A2B3B2BDA010D931D932D9381
:103230003C931397682D7B2D8F2F9E2F0E94F71F95
:10324000FE01E25AFF4F6083718382839383CE0134
:103250000E948413229669917991899199910E9493
:10326000F71F6C8F7D8F8E8F9F8FCE15DF0599F79F
:10327000492D5A2D4132510510F040E250E0B7017E
:10328000C601DF91CF911F910F91FF90EF90DF90DA
:10329000CF90BF90AF909F908F907F906F905F90F6
:1032A0004F900C94541D0F93CF93DF93EC019A0130
:1032B000829606E3AB01BC01CE010E940F1AFE010B
:1032C000EE59FF4F208131814281538164817581A4
:1032D000868197813E5F4F4F5F4F6F4F7F4F8F4F7C
:1032E0009F4F208331834283538364837583868316
:1032F0009783CE01DF91CF910F910C9484136F923D
:103300007F928F929F92AF92BF92CF92DF92EF9275
:10331000FF920F931F93CF93DF93CDB7DEB7A097A4
:103320000FB6F894DEBF0FBECDBF7C014B013A0152
:1033300069015801DC01ED91FC910484F585E02DD3
:1033400040E250E0BE016F5F7F4F0995B7016E5DAF
:103350007F4F0CE59301A401C7010E940F1AF701EA
:10336000EE59FF4F20813181428153816481758103
:10337000868197813E5F4F4F5F4F6F4F7F4F8F4FDB
:103380009F4F208331834283538364837583868375
:103390009783C7010E948413D701ED91FC910284A9
:1033A000F385E02D40E250E0BE016F5F7F4FC70123
:1033B0000995D701ED91FC910484F585E02DA501D7
:1033C000B601C701099560E270E0CE0101960E9446
:1033D000FE19A0960FB6F894DEBF0FBECDBFDF91E9
:1033E000CF911F910F91FF90EF90DF90CF90BF9002
:1033F000AF909F908F907F906F900895680F791F86
:103400008617970721F0FC0110820196F9CF0895E5
:1034100022EE31E0FC0131832083089508958F92DC
:103420009F92AF92BF92CF92DF92EF92FF920F9353
:10343000CF93DF9300D0CDB7DEB74C017B01BA014B
:103440006901DC01ED91FC910680F781E02D498353
:103450007A8309955C01D401ED91FC910084F1859A
:10346000E02DC401099569817A81AC14BD0428F06E
:10347000A601C7010E94541D24C0D401ED91FC9106
:103480000284F385E02DA601C4010995D401ED91D4
:10349000FC910480F581E02DC40109956C01D401F3
:1034A000ED91FC910484F585E02DAC01B701C401D8
:1034B0000995D401ED91FC910084F185E02DC401C2
:1034C000099547018C0C9D1CA5014C195D09602FC5
:1034D00070E0C4010E945D1DF701E815F90521F0B7
:1034E000908190279193F9CF0F900F90DF91CF911A
:1034F0000F91FF90EF90DF90CF90BF90AF909F9093
:103500008F90089508958230E8F4E82FF0E0EE0FF0
:10351000FF1FE55FFE4F71836083813041F0809132
:1035200069008C7F482B40936900E89A0895809148
:103530006900440F551F440F551F837F482B40934C
:103540006900E99A0895823078F4813011F0E898A2
:1035500001C0E998E82FF0E0EE0FFF1FE55FFE4F96
:1035600082E89AE19183808308951F920F920FB6AB
:103570000F9211242F933F934F935F936F937F93F9
:103580008F939F93AF93BF93EF93FF93E0910B01C2
:10359000F0910C010995FF91EF91BF91AF919F912F
:1035A0008F917F916F915F914F913F912F910F90EC
:1035B0000FBE0F901F9018951F920F920FB60F928B
:1035C00011242F933F934F935F936F937F938F9328
:1035D0009F93AF93BF93EF93FF93E0910D01F09111
:1035E0000E010995FF91EF91BF91AF919F918F913E
:1035F0007F916F915F914F913F912F910F900FBEEF
:103600000F901F901895833081F028F4813099F045
:103610008230A1F008958730A9F08830B9F0843065
:10362000D1F4809180008F7D03C0809180008F77DE
:1036300080938000089584B58F7702C084B58F7D14
:1036400084BD08958091B0008F7703C08091B00051
:103650008F7D8093B0000895CF93DF9390E0FC01BD
:10366000E458F54F2491FC01E057F54F84918823ED
:1036700061F190E0880F991FFC01E854F54FC59166
:10368000D491FC01E255F54FA591B491611109C0A7
:103690009FB7F8948881209582238883EC912E230C
:1036A0000BC0623061F49FB7F8943881822F809507
:1036B00083238883EC912E2B2C939FBF06C08FB75A
:1036C000F894E8812E2B28838FBFDF91CF91089546
:1036D0001F93CF93DF93282F30E0F901E859F54F7E
:1036E0008491F901E458F54FD491F901E057F54F71
:1036F000C491CC23C9F0162F81110E94031BEC2F1B
:10370000F0E0EE0FFF1FE255F54FA591B4918FB792
:10371000F894111105C09C91ED2FE095E92302C0AA
:10372000EC91ED2BEC938FBFDF91CF911F9108951A
:10373000CF93DF93282F30E0F901E859F54F8491BA
:10374000F901E458F54FD491F901E057F54FC491D0
:10375000CC2391F081110E94031BEC2FF0E0EE0FBF
:10376000FF1FEC55F54FA591B491EC91ED2381E04D
:1037700090E021F480E002C080E090E0DF91CF9102
:1037800008950C94581CCF93DF938230910510F468
:1037900082E090E0E0913605F091370520E030E0DE
:1037A000C0E0D0E0309711F14081518148175907AE
:1037B000C0F04817590761F482819381209719F06E
:1037C0009B838A832BC0909337058093360526C050
:1037D0002115310519F04217530718F49A01BE015B
:1037E000DF01EF010280F381E02DDCCF21153105EF
:1037F00009F1281B390B2430310590F412968D9174
:103800009C9113976115710521F0FB0193838283CD
:1038100004C09093370580933605FD01329644C06D
:10382000FD01E20FF31F81939193225031092D93F3
:103830003C933AC02091340530913505232B41F457
:103840002091020130910301309335052093340516
:1038500020910001309101012115310541F42DB76E
:103860003EB74091040150910501241B350BE091B6
:103870003405F0913505E217F307A0F42E1B3F0B3A
:103880002817390778F0AC014E5F5F4F24173507D2
:1038900048F04E0F5F1F50933505409334058193D8
:1038A000919302C0E0E0F0E0CF01DF91CF91089565
:1038B0000F931F93CF93DF93009709F48CC0FC0103
:1038C0003297138212820091360510913705011547
:1038D000110581F420813181820F931F20913405DD
:1038E000309135052817390779F5F0933505E093C0
:1038F000340571C0D80140E050E0AE17BF0750F466
:1039000012962D913C911397AD012115310509F1C6
:10391000D901F3CF9D01DA01338322836081718164
:10392000860F971F8217930769F4EC01288139816C
:10393000260F371F2E5F3F4F318320838A819B8163
:1039400093838283452B29F4F0933705E093360562
:1039500042C01396FC93EE931297ED014991599151
:103960009E01240F351FE217F30771F480819181C6
:10397000840F951F029611969C938E93828193815A
:1039800013969C938E931297E0E0F0E0D801129684
:103990008D919C911397009719F0F8018C01F6CF47
:1039A0008D919C9198012E5F3F4F820F931F209124
:1039B0003405309135052817390769F4309729F413
:1039C000109237051092360502C0138212821093AE
:1039D000350500933405DF91CF911F910F91089524
:1039E0008F929F92AF92BF92CF92DF92EF92FF920F
:1039F000CF93DF93EC01688179818A819B81611586
:103A000071058105910521F464E279ED8BE597E07C
:103A10002DE133EF41E050E00E94D81F49015A01E7
:103A20009B01AC01A7EAB1E40E940D206B017C016F
:103A3000ACEEB4EFA50194010E941B20DC01CB0188
:103A40008C0D9D1DAE1DBF1DB7FF03C00197A109C1
:103A5000B04888839983AA83BB83BC01CD019F773B
:103A6000DF91CF91FF90EF90DF90CF90BF90AF901C
:103A70009F908F9008950E94F01C089586E091E039
:103A80000E94F01C089560930601709307018093D3
:103A9000080190930901089581E090E0F8940C9456
:103AA0009820F8940C949820FB01DC0102C001904E
:103AB0000D9241505040D8F70895DC0101C06D933C
:103AC00041505040E0F708955058BB27AA270E9464
:103AD0007C1D0C94F61E0E94E81E38F00E94EF1E1A
:103AE00020F039F49F3F19F426F40C94E51E0EF4EF
:103AF000E095E7FB0C94DF1EE92F0E94071F58F3A7
:103B0000BA17620773078407950720F079F4A6F5C2
:103B10000C94291F0EF4E0950B2EBA2FA02D0B014B
:103B2000B90190010C01CA01A0011124FF27591B02
:103B300099F0593F50F4503E68F11A16F040A22F08
:103B4000232F342F4427585FF3CF46953795279579
:103B5000A795F0405395C9F77EF41F16BA0B620B78
:103B6000730B840BBAF09150A1F0FF0FBB1F661FBF
:103B7000771F881FC2F70EC0BA0F621F731F841F02
:103B800048F4879577956795B795F7959E3F08F028
:103B9000B0CF9395880F08F09927EE0F97958795EA
:103BA00008950E94BB1E08F481E008950E94EA1D5A
:103BB0000C94F61E0E94EF1E58F00E94E81E40F082
:103BC00029F45F3F29F00C94DF1E51110C942A1F39
:103BD0000C94E51E0E94071F68F39923B1F3552347
:103BE00091F3951B550BBB27AA2762177307840710
:103BF00038F09F5F5F4F220F331F441FAA1FA9F3A6
:103C000035D00E2E3AF0E0E832D091505040E69593
:103C1000001CCAF72BD0FE2F29D0660F771F881FF4
:103C2000BB1F261737074807AB07B0E809F0BB0BE7
:103C3000802DBF01FF2793585F4F3AF09E3F5105FB
:103C400078F00C94DF1E0C942A1F5F3FE4F3983E3B
:103C5000D4F3869577956795B795F7959F5FC9F7E4
:103C6000880F911D9695879597F90895E1E0660F65
:103C7000771F881FBB1F621773078407BA0720F0DE
:103C8000621B730B840BBA0BEE1F88F7E095089547
:103C90000E944F1E6894B1110C942A1F08950E942F
:103CA0000F1F88F09F5798F0B92F9927B751B0F0A0
:103CB000E1F0660F771F881F991F1AF0BA95C9F7B0
:103CC00014C0B13091F00E94291FB1E008950C9406
:103CD000291F672F782F8827B85F39F0B93FCCF3B9
:103CE000869577956795B395D9F73EF4909580952D
:103CF000709561957F4F8F4F9F4F0895E89409C04D
:103D000097FB3EF490958095709561957F4F8F4F0E
:103D10009F4F9923A9F0F92F96E9BB279395F69524
:103D2000879577956795B795F111F8CFFAF4BB0FA2
:103D300011F460FF1BC06F5F7F4F8F4F9F4F16C006
:103D4000882311F096E911C0772321F09EE8872F90
:103D5000762F05C0662371F096E8862F70E060E04C
:103D60002AF09A95660F771F881FDAF7880F9695C5
:103D7000879597F90895990F0008550FAA0BE0E869
:103D8000FEEF16161706E807F907C0F0121613061D
:103D9000E407F50798F0621B730B840B950B39F45D
:103DA0000A2661F0232B242B252B21F408950A26C3
:103DB00009F4A140A6958FEF811D811D089597F903
:103DC0009F6780E870E060E008959FEF80EC0895C1
:103DD00000240A94161617061806090608950024EA
:103DE0000A9412161306140605060895092E039464
:103DF000000C11F4882352F0BB0F40F4BF2B11F4D8
:103E000060FF04C06F5F7F4F8F4F9F4F089557FD36
:103E10009058440F551F59F05F3F71F04795880F38
:103E200097FB991F61F09F3F79F0879508951216CF
:103E300013061406551FF2CF4695F1DF08C016167B
:103E400017061806991FF1CF86957105610508942C
:103E50000895E894BB2766277727CB0197F9089543
:103E60000E94BB1E08F48FEF08950E94481F0C9417
:103E7000F61E0E94E81E38F00E94EF1E20F09523E7
:103E800011F00C94DF1E0C94E51E11240C942A1FD3
:103E90000E94071F70F3959FC1F3950F50E0551FC7
:103EA000629FF001729FBB27F00DB11D639FAA278F
:103EB000F00DB11DAA1F649F6627B00DA11D661FDE
:103EC000829F2227B00DA11D621F739FB00DA11DFF
:103ED000621F839FA00D611D221F749F3327A00DB9
:103EE000611D231F849F600D211D822F762F6A2F55
:103EF00011249F5750409AF0F1F088234AF0EE0FBA
:103F0000FF1FBB1F661F771F881F91505040A9F7E6
:103F10009E3F510580F00C94DF1E0C942A1F5F3FDA
:103F2000E4F3983ED4F3869577956795B795F79522
:103F3000E7959F5FC1F7FE2B880F911D969587959A
:103F400097F9089597FB072E16F4009407D077FD94
:103F500009D00E94602007FC05D03EF49095819521
:103F60009F4F0895709561957F4F0895A1E21A2E95
:103F7000AA1BBB1BFD010DC0AA1FBB1FEE1FFF1F0D
:103F8000A217B307E407F50720F0A21BB30BE40B5D
:103F9000F50B661F771F881F991F1A9469F76095A4
:103FA0007095809590959B01AC01BD01CF0108955E
:103FB000052E97FB1EF400940E94EF1F57FD07D0BB
:103FC0000E94B61F07FC03D04EF40C94EF1F5095CF
:103FD0004095309521953F4F4F4F5F4F08959095F5
:103FE0008095709561957F4F8F4F9F4F08956927FA
:103FF000962769277827872778270895A29FB001F9
:10400000B39FC001A39F700D811D1124911DB29F0C
:10401000700D811D1124911D08950E94FE1FA59F02
:10402000900DB49F900DA49F800D911D11240895B3
:10403000B7FF0C940D200E940D20821B930B089556
:104040000F93083090F0982F872F762F652F542FDD
:10405000432F322F22270850F4CF220F331F441F43
:10406000551F661F771F881F991F0A95B2F70F917A
:10407000089597FB10F8169400080F93083098F0F5
:104080000850232F342F452F562F672F782F892F35
:10409000902DF4CF059497958795779567955795CB
:1040A0004795379527950A95AAF70F9108952A0DF8
:1040B0003B1D4C1D5D1D6E1D7F1D801F911F0895B2
:1040C000AA1BBB1B51E107C0AA1FBB1FA617B7073E
:1040D00010F0A61BB70B881F991F5A95A9F780955A
:1040E0009095BC01CD010895EE0FFF1F0590F4914E
:1040F000E02D0994F999FECF92BD81BDF89A9927D8
:1041000080B50895A8E1B0E042E050E00C948A2028
:10411000DC01CB01FC01F999FECF06C0F2BDE1BD87
:10412000F89A319600B40D9241505040B8F7089576
:1041300015E0C3E6D5E004C0FE010E94742021967C
:0A414000C436D107C9F7F894FFCF89
:10414A000000380520000100000002821A821A438A
:10415A006F6E66696775726174696F6E20657272D7
:10416A006F7221002346696E616C206B6579206647
:10417A006F72206E65696768626F757223002353D8
:10418A00656E64696E67206D73673A2000234B651C
:10419A0079207570646174652C204E656967686260
:1041AA006F757220002C204F6C644B657920002CAF
:1041BA00204E6F6E636520002C204E65774B657923
:1041CA00200023526563656976696E67206D73679F
:1041DA003A20002352452D53656E64696E67206D3F
:1041EA0073673A20000D0A006E616E00696E660000
:1041FA006F7666002E0000000000750F2F0EF60E77
:10420A00100F020F530F0000000057136C13F01227
:10421A00F312F61215188318461353197F19000062
:10422A00000000000000E40EE40EE40EE40EE40ECA
:06423A00E40EE40EE40EA8
:00000001FF
