:100000000C9479000C94620F0C948F0F0C94A10047
:100010000C94A1000C94A1000C94A1000C94A100DC
:100020000C94A1000C94A1000C94A1000C94A100CC
:100030000C94A1000C94A1000C94A1000C94A100BC
:100040000C94EA040C94A1000C9480090C94C3094C
:100050000C94A1000C94A1000C94A1000C94A1009C
:100060000C94A1000C94A10052464D313242204420
:100070006574656374696F6E204641494C21005276
:10008000464D313242204465746563746564204F87
:100090004B210000000007000201000003040600DD
:1000A0000000000000000001020408102040800150
:1000B00002040810200102040810200404040404AF
:1000C0000404040202020202020303030303030006
:1000D0000000002300260029000000000025002861
:1000E000002B0000000000240027002A0000D90394
:1000F000860A11241FBECFEFD8E0DEBFCDBF11E0CE
:10010000A0E0B1E0EAEAF6E202C005900D92A6385E
:10011000B107D9F724E0A6E8B1E001C01D92A731EC
:10012000B207E1F710E0C9E7D0E004C02197FE0173
:100130000E944D13C737D107C9F70E94D9080C9404
:1001400018100C940000CF92EF920F9340E051EE04
:1001500060E070E083ED92E00E94FE091092C3021D
:100160001092C2028CE98093C10242E06AE084EC02
:1001700092E00E94D90E882319F06FE770E002C068
:1001800068E670E083ED92E00E94010742EC51E0E6
:1001900060E084EC92E00E94320D85E0C82E98E089
:1001A000E92E00E028EC42E06091050184EC92E049
:1001B0000E94730C0F91EF90CF9008950F931F93AF
:1001C000CF93C82F8B0161E00E94EF0560E08C2F78
:1001D0000E942B06B801110F880B990B0E94650530
:1001E00061E08C2FCF911F910F910C942B06EF9211
:1001F0000F9384EC92E00E94C90D811103C080E04E
:1002000090E059C08091030490910404892BB9F7C0
:1002100064EE7CE084EC92E00E944C0D8093C1027D
:1002200084EC92E00E942E0F909104018913E7CF95
:10023000E091C802F091C9029081973001F7E091F6
:10024000C602F091C702A2EBB2E001900D929A951E
:10025000E1F72091B4023091B5029091C102F90109
:10026000E25BFD4F9083F901E651FE4F4091B602EB
:1002700040832091050130E03093B3022093B20215
:100280009093B6029CE0E92E01E027E042EB52E0B9
:10029000682F84EC92E00E94A00E81E090E0209113
:1002A000B4023091B5022336310510F480E090E0BD
:1002B0009195819591090F91EF900895EF920F9389
:1002C000CF93DF932091C2023091C30224363105CF
:1002D00009F48BC08091050190E09093B302809364
:1002E000B2023093B5022093B4028091C102809390
:1002F000B6028CE0E82E01E027E042EB52E060918C
:10030000040184EC92E00E94A00EC4E6D0E084ECEC
:1003100092E00E94C90D882309F45BC08091030418
:1003200090910404892B09F054C064EE7CE084ECC5
:1003300092E00E944C0D8093C10284EC92E00E94F6
:100340002E0F9091040189134AC0E091C802F091E8
:10035000C9028081873009F042C0E091C602F09165
:10036000C702A2EBB2E001900D928A95E1F780916D
:10037000B4029091B502FC01E25BFD4F2091B60200
:1003800020832091C2023091C302F901E651FE4F51
:100390004091C10240838217930729F401969093FC
:1003A000C3028093C2028091C2029091C3020E9454
:1003B0000D100E94081068EC70E00E94D612BC017B
:1003C0006C597F4F072E000C880B990B0E94650516
:1003D00009C06AE070E080E090E00E946505219726
:1003E00009F095CF80E090E002C08FEF9FEFDF91A2
:1003F000CF910F91EF900895CF93DF93FB01DB0135
:10040000A20FB31F40E050E063E670E0EB01C21BB7
:10041000D30B9E0160812417350710F07C9104C036
:10042000ED01C456D1097881671BEC0168834F5FE9
:100430005F4F3196119601964436510559F7DF9179
:10044000CF9108952F923F924F925F926F927F9239
:100450008F929F92AF92BF92CF92DF92EF92FF92D4
:100460000F931F93CF93DF93CDB7DEB760970FB68F
:10047000F894DEBF0FBECDBF1C015A8349833E8373
:100480002D8318870F83FC01612C712C062F062EFB
:10049000000C110BCF01821993098017910734F4D6
:1004A0008191680E711C87FD7A94F4CF062E000CA2
:1004B000770B880B990B0E94401169877A878B878D
:1004C0009C87B301770C880B990B0E9440112985FA
:1004D0003A854B855C850E9496106D877E878F8755
:1004E000988BA981BA816D937D938D939C9313977B
:1004F0003C822B82412C512C32018B819C818219B0
:10050000930980179107FCF4EB81FC816191FC83D6
:10051000EB83062E000C770B880B990B0E94401181
:100520002D853E854F8558890E9424109B01AC0182
:100530000E94F5119B01AC01C301B2010E9425107C
:100540002B013C01DACF29853A854B855C85C301B7
:10055000B2010E9496102B013C010E9468129B017F
:10056000AC01AD81BE816D937D938D939C93139768
:10057000C701B6010E94F5119B01AC01E981FA8126
:1005800060817181828193810E9424106093BD02F9
:100590007093BE028093BF029093C002AD81BE8172
:1005A0002D913D914D915C91C501B4010E94F511D1
:1005B0009B01AC01E981FA81608171818281938123
:1005C0000E9425106093B9027093BA028093BB0217
:1005D0009093BC0268E071E083ED92E00E94E40633
:1005E000A981BA814D915D916D917C9122E030E0BD
:1005F00083ED92E00E94C50861E171E083ED92E035
:100600000E94E40622E030E0B301A20183ED92E013
:100610000E94C5086AE171E083ED92E00E94E40661
:10062000ED81FE81408151816281738122E030E061
:1006300083ED92E00E94C50867E271E083ED92E0ED
:100640000E94E4064091BD025091BE026091BF023B
:100650007091C00222E030E083ED92E00E94C50874
:100660006CE371E083ED92E00E94E4064091B902F0
:100670005091BA026091BB027091BC0222E030E05E
:1006800083ED92E00E94C7086101E12CF12CBB24AC
:10069000B394C6018219930980179107B4F5D60166
:1006A0006D916D01062E000C770B880B990B0E9443
:1006B00040112B013C012091BD023091BE024091BE
:1006C000BF025091C0020E94911087FF08C0F10143
:1006D000EE0DFF1D1082BFEFEB1AFB0ADACF20915F
:1006E000B9023091BA024091BB025091BC02C301E1
:1006F000B2010E94F011181664F6F101EE0DFF1D13
:10070000B082EFEFEE1AFE0AC4CFAF81B885EC924B
:1007100063E471E083ED92E00E94E4064AE050E079
:10072000EF81F885608183ED92E00E94D9076DE446
:1007300071E083ED92E00E94E4068101EF81F8858B
:10074000808190E09801221933092817390798F41D
:10075000D8016D918D01062E000C770B4AE050E018
:1007600083ED92E00E94C50760E571E083ED92E0C1
:100770000E94E406E3CF62E571E083ED92E06096CB
:100780000FB6F894DEBF0FBECDBFDF91CF911F91A2
:100790000F91FF90EF90DF90CF90BF90AF909F9020
:1007A0008F907F906F905F904F903F902F900C9420
:1007B0001307E4ECF2E081E893E09383828380E81E
:1007C00093E09583848386E591E09093B8028093CB
:1007D000B70208958F929F92AF92BF92CF92DF920D
:1007E000EF92FF920F931F93CF93DF93CDB7DEB7B6
:1007F00029970FB6F894DEBF0FBECDBF1D821E82B3
:100800001F82188619821A821B821C826091050140
:100810004AE050E06F3010F06091040183ED92E007
:100820000E94D9076EE471E083ED92E00E94E40635
:100830000AEE11E0D8016D918D01062E000C770BA8
:100840004AE050E083ED92E00E94C50762E671E065
:1008500083ED92E00E94E406B2E00E341B0751F7EC
:1008600064E671E083ED92E00E94130784E6E6E817
:10087000F1E0DF011D928A95E9F722E330E044E6DA
:1008800050E06AEE71E0CF010E94FC01812C912CB6
:10089000A12C9FE3B92E750164018E01075F1F4FE4
:1008A0009E012F5F3F4FAE014B5F5F4F64E686E8CE
:1008B00091E00E942202609105014AE050E06F3011
:1008C00010F46091040183ED92E00E94D9076EE478
:1008D00071E083ED92E00E94E4060EE412E0F8017C
:1008E00061918F01062E000C770B4AE050E083EDFA
:1008F00092E00E94C50762E671E083ED92E00E94FB
:10090000E406F2E0023B1F0751F764E671E083ED75
:1009100092E00E94130784E6E6E8F1E0DF011D9211
:100920008A95E9F722E330E044E650E06EE472E0B5
:10093000CF010E94FC01812C912CA12C8FE3B82EB9
:10094000750164018E01075F1F4F9E012F5F3F4FAE
:10095000AE014B5F5F4F64E686E891E00E942202A1
:1009600083ED92E00E94320968EE73E080E090E04F
:100970000E9465051092C3021092C20280E090E0CE
:1009800029960FB6F894DEBF0FBECDBFDF91CF9191
:100990001F910F91FF90EF90DF90CF90BF90AF909D
:1009A0009F908F900895CF93809105018F3018F418
:1009B0000E945E0102C00E94F700C82F6AE070E04A
:1009C00089E00E94DE00CC2319F0CF910C94EA0359
:1009D000CF9108951F920F920FB60F9211242F936B
:1009E0003F938F939F93AF93BF938091CB0290914E
:1009F000CC02A091CD02B091CE023091CA0223E088
:100A0000230F2D3720F40196A11DB11D05C026E846
:100A1000230F0296A11DB11D2093CA028093CB0221
:100A20009093CC02A093CD02B093CE028091CF02DE
:100A30009091D002A091D102B091D2020196A11D55
:100A4000B11D8093CF029093D002A093D102B093B6
:100A5000D202BF91AF919F918F913F912F910F90B3
:100A60000FBE0F901F9018952FB7F8946091CB028E
:100A70007091CC028091CD029091CE022FBF08954B
:100A80003FB7F8948091CF029091D002A091D1020B
:100A9000B091D20226B5A89B05C02F3F19F0019650
:100AA000A11DB11D3FBFBA2FA92F982F8827820FF4
:100AB000911DA11DB11DBC01CD0142E0660F771F44
:100AC000881F991F4A95D1F70895CF92DF92EF9230
:100AD000FF92CF93DF936B017C010E944005EB01F5
:100AE000C114D104E104F10479F00E9440056C1BAB
:100AF0007D0B683E7340A0F381E0C81AD108E1087D
:100B0000F108C851DC4FECCFDF91CF91FF90EF900F
:100B1000DF90CF900895789484B5826084BD84B5C9
:100B2000816084BD85B5826085BD85B5816085BDE8
:100B3000EEE6F0E0808181608083E1E8F0E0108201
:100B4000808182608083808181608083E0E8F0E042
:100B5000808181608083E1EBF0E08081846080832C
:100B6000E0EBF0E0808181608083EAE7F0E0808163
:100B700084608083808182608083808181608083C3
:100B80008081806880831092C1000895833081F055
:100B900028F4813099F08230A1F008958630A9F0D0
:100BA0008730B9F08430D1F4809180008F7D03C00C
:100BB000809180008F7780938000089584B58F772F
:100BC00002C084B58F7D84BD08958091B0008F7779
:100BD00003C08091B0008F7D8093B0000895CF93C3
:100BE000DF9390E0FC01E955FF4F2491FC01E554AF
:100BF000FF4F8491882361F190E0880F991FFC01D9
:100C0000ED51FF4FC591D491FC01E752FF4FA591E3
:100C1000B491611109C09FB7F8948881209582230F
:100C20008883EC912E230BC0623061F49FB7F89457
:100C30003881822F809583238883EC912E2B2C93EF
:100C40009FBF06C08FB7F894E8812E2B28838FBFF3
:100C5000DF91CF9108951F93CF93DF93282F30E03A
:100C6000F901ED56FF4F8491F901E955FF4FD491F9
:100C7000F901E554FF4FC491CC23C9F0162F81111F
:100C80000E94C605EC2FF0E0EE0FFF1FE752FF4F6A
:100C9000A591B4918FB7F894111105C09C91ED2FD7
:100CA000E095E92302C0EC91ED2BEC938FBFDF912F
:100CB000CF911F910895CF93DF93282F30E0F90152
:100CC000ED56FF4F8491F901E955FF4FD491F90199
:100CD000E554FF4FC491CC2391F081110E94C605C9
:100CE000EC2FF0E0EE0FFF1FE153FF4FA591B49101
:100CF000EC91ED2381E090E021F480E002C080E0FF
:100D000090E0DF91CF910895CF92DF92EF92FF9222
:100D10000F931F93CF93DF936C01EB017B01E40EE4
:100D2000F51E00E010E0CE15DF0561F06991D601F7
:100D3000ED91FC910190F081E02DC6010995080F1D
:100D4000191FF1CFC801DF91CF911F910F91FF9033
:100D5000EF90DF90CF9008956115710579F0FB0158
:100D600001900020E9F73197AF01461B570BDC01DA
:100D7000ED91FC910280F381E02D099480E090E0F8
:100D80000895EF92FF920F931F93CF93DF937C010F
:100D9000FB0100E010E06491EF012196662361F011
:100DA000D701ED91FC910190F081E02DC7010995EB
:100DB000080F191FFE01EFCFC801DF91CF911F91DE
:100DC0000F91FF90EF9008950C94AC06DC01ED912B
:100DD000FC910190F081E02D09940F931F93CF9324
:100DE000DF93EC016DE00E94E6068C016AE0CE0123
:100DF0000E94E606800F911FDF91CF911F910F9106
:100E000008950F931F93CF93DF93EC010E94C106C7
:100E10008C01CE010E94ED06800F911FDF91CF91D2
:100E20001F910F9108950F931F93CF93DF93EC01C0
:100E30000E94AC068C01CE010E94ED06800F911F2E
:100E4000DF91CF911F910F9108958F929F92AF9252
:100E5000BF92CF92DF92EF92FF920F931F93CF93A7
:100E6000DF93CDB7DEB7A1970FB6F894DEBF0FBE04
:100E7000CDBF6C01142FE52FCB01022F19A2223018
:100E800008F40AE07E0121E2E20EF11C802E912C92
:100E9000A12CB12C612F7E2FA50194010E94EA1292
:100EA000029F1019112481E0E81AF1081A3014F495
:100EB000105D01C0195CF7011083122FE32FCA01E6
:100EC000232B242B252B31F7B701C6010E94AC063A
:100ED000A1960FB6F894DEBF0FBECDBFDF91CF91C4
:100EE0001F910F91FF90EF90DF90CF90BF90AF9048
:100EF0009F908F900895CF92DF92EF92FF920F9381
:100F00001F93CF93DF93EC016A017B01211531051B
:100F100079F4E881F9810190F081E02D642FDF916F
:100F2000CF911F910F91FF90EF90DF90CF90099498
:100F30002A303105E9F477FF1AC06DE20E94E60617
:100F40008C0144275527BA014C195D096E097F09A8
:100F50002AE0CE010E942507800F911FDF91CF91DB
:100F60001F910F91FF90EF90DF90CF9008952AE0AE
:100F7000B701A601CE01DF91CF911F910F91FF9094
:100F8000EF90DF90CF900C9425079A01AB01770F7B
:100F9000660B770B0C947B072115310541F4DC01BE
:100FA000ED91FC910190F081E02D642F09940C9457
:100FB00025079A01462F50E060E070E00C94CC07C2
:100FC0004F925F926F927F928F929F92AF92BF9259
:100FD000CF92DF92EF92FF92CF93DF93EC016A0101
:100FE0007B01B22E9A01AB01C701B6010E94A81283
:100FF000882319F067E671E027C026013701E894DD
:1010000077F82FEF3FEF4FE75FE7C301B2010E9490
:10101000A81281110DC02FEF3FEF4FE75FE7C3012B
:10102000B2010E94911018161CF46BE671E00CC01E
:101030002FEF3FEF4FE75FE4C701B6010E94F011C9
:1010400018169CF46FE671E0CE01DF91CF91FF900E
:10105000EF90DF90CF90BF90AF909F908F907F9058
:101060006F905F904F900C94AC062FEF3FEF4FE7DF
:101070005FECC701B6010E94911087FDE3CF20E02D
:1010800030E0A901C701B6010E94911087FF0AC094
:101090006DE2CE010E94E6064C01F7FAF094F7F8F3
:1010A000F09402C0812C912CA12C60E070E080E0D3
:1010B0009FE3AB1441F020E030E040E251E40E94B5
:1010C0009610A394F6CF9B01AC01C701B6010E9414
:1010D00025102B013C010E940F116B017C010E9425
:1010E0003E119B01AC01C301B2010E9424102B01EF
:1010F0003C012AE0B701A601CE010E9425077C0130
:10110000E80CF91CBB2039F063E771E0CE010E94C6
:10111000AC06E80EF91EDB2CDD2039F120E030E0D2
:1011200040E251E4C301B2010E94F5112B013C01E0
:101130000E9408114B01770FAA08BB082AE030E093
:10114000B501A401CE010E947B07E80EF91EC5017E
:10115000B4010E9440119B01AC01C301B2010E9485
:1011600024102B013C01DA94D7CFC701DF91CF9136
:10117000FF90EF90DF90CF90BF90AF909F908F90B7
:101180007F906F905F904F9008950C94E0070F93BD
:101190001F93CF93DF93EC010E94E0078C01CE01F7
:1011A0000E94ED06800F911FDF91CF911F910F914B
:1011B00008950E948B050E94A300CAEBD9E00E940B
:1011C000D3042097E1F30E94BA09F9CFFC012485EA
:1011D0003585F901E05CFF4F808191813296208155
:1011E0003181821B930B8F7399270895DC011C9624
:1011F000ED91FC911D97DF01A05CBF4F2D913C91BB
:10120000119712968D919C9111972817390739F0F3
:101210008D919C91E80FF91F808190E008958FEFE8
:101220009FEF0895FC01A485B585FD01E05CFF4FAB
:10123000208131813296808191812817390779F098
:1012400080819181A80FB91F8C91208131812F5FFE
:101250003F4F2F7333273183208390E008958FEF22
:101260009FEF0895FC0181A1882329F0A489B58905
:101270008C9186FFFBCF11A208950F931F93CF93FC
:10128000DF93FC01A685B7858D01005C1F4FE80147
:101290008881998101968F739927AD014E5B5F4FCD
:1012A000EA012881398182179307D1F3E801288167
:1012B0003981A20FB31F6C93A685B785A05CBF4F81
:1012C00011969C938E93A689B7892C9181E090E02A
:1012D000078C02C0880F991F0A94E2F7822B8C9327
:1012E00081E081A30488F589E02D8081806480837A
:1012F00081E090E0DF91CF911F910F9108950895C3
:101300001F920F920FB60F9211242F934F935F935A
:101310008F939F93EF93FF938091C00082FD1CC039
:101320002091C6008091790390917A0301968F7382
:10133000992740917B0350917C038417950771F0A6
:10134000E0917903F0917A03E75CFC4F208390935E
:101350007A038093790302C08091C600FF91EF91D8
:101360009F918F915F914F912F910F900FBE0F9092
:101370001F90189583ED92E00E94E608892B11F0EA
:101380000C947F0908951F920F920FB60F921124AB
:101390002F933F938F939F93EF93FF932091350368
:1013A000309136038091370390913803281739071D
:1013B00031F48091C1008F7D8093C10014C0E09111
:1013C0003703F0913803EB50FD4F208180913703B4
:1013D0009091380301968F739927909338038093E7
:1013E00037032093C600FF91EF919F918F913F911A
:1013F0002F910F900FBE0F901F901895CF92DF92F4
:10140000EF92FF920F931F93CF93DF93EC016A014A
:101410007B014115514E6105710509F1EC89FD898A
:1014200081E090E008A002C0880F991F0A94E2F7BB
:10143000808360E079E08DE390E0A70196010E944F
:10144000EA1289019A0101501109210931093695E1
:10145000279517950795980101151041A8F0EC897B
:10146000FD89108260E874E88EE190E0A7019601A2
:101470000E94EA12DA01C9010197A109B109B695E2
:10148000A795979587959C01E889F9893083EA8922
:10149000FB89208319A2EE89FF89408181E090E0D9
:1014A0009C010C8C02C0220F331F0A94E2F7242BFC
:1014B0002083EE89FF8940819C010D8C02C0220FA0
:1014C000331F0A94E2F7242B2083EE89FF894081A1
:1014D0009C010E8C02C0220F331F0A94E2F7242BCA
:1014E0002083EE89FF8920810F8C02C0880F991F0D
:1014F0000A94E2F7809582238083DF91CF911F9138
:101500000F91FF90EF90DF90CF900895E3EDF2E020
:101510001382128288EE93E0A0E0B0E0848395838A
:10152000A683B78389E791E09183808389E393E081
:101530009587848785EF92E09787868785EC90E092
:10154000918B808B84EC90E0938B828B80EC90E08D
:10155000958B848B81EC90E0978B868B82EC90E06E
:10156000918F808F86EC90E0938F828F84E0848FC0
:1015700083E0858F87E0868F85E0878F81E080A379
:1015800008958627682F62956827062E66956695CA
:101590006025062E669560256770082E892F669552
:1015A00007946795902D8627069467959025862742
:1015B0000895CF93C62F61E0809107010E942B060A
:1015C000C093070161E08C2F0E94EF0561E08091DC
:1015D0000701CF910C942B06CF93DF931F92CDB7C9
:1015E000DEB7809106018250823038F469830E9410
:1015F000520F69816093060103C082E08093060167
:1016000060E0809106010E94EF0561E08091060193
:101610000F90DF91CF910C942B0690911204809142
:101620000601992339F040E050E06EE77BE08250FC
:101630000C94320F82500C94520F809107018A3023
:1016400021F061E08AE00E94EF0561E080910701EE
:101650000E94EF0561E0809107010E942B0661E086
:101660008BE00E94EF0560E08CE00E94EF0561E0F6
:101670008DE00E94EF0580E58CBD8DB581608DBD4C
:1016800060E0809106010E94EF0561E08091060113
:101690000C942B068EBD0DB407FEFDCF8EB50895BC
:1016A000EF92FF921F93CF93DF931F92CDB7DEB7D8
:1016B000182F2CB521602CBD60E080910701998323
:1016C0000E942B069981892F0E944A0BE82EF12C4B
:1016D000FE2CEE24812F0E944A0BE82A61E08091C3
:1016E00007010E942B068CB58E7F8CBDC7010F9021
:1016F000DF91CF911F91FF90EF900895CF9380E0FD
:1017000090E00E94500B80910504853009F094C050
:1017100080910A0490910B04892B91F0809106042A
:1017200084FD0EC085E880937A00809106048F7056
:10173000806480937C0080917A00806480937A003A
:1017400080E090EB0E94500B682F80910A049091EA
:101750000B04892B69F08091060484FD09C08091F7
:101760007A0086FDFCCF90917A00906490937A0085
:1017700080910C0481110EC080911104882351F0D6
:10178000E0910C0491E09E0F90930C04F0E0E3587C
:10179000FC4F8083E0910C0481E08E0F80930C0459
:1017A000F0E0E358FC4F60838091030490910404BF
:1017B0000E94C10A909304048093030480910A0458
:1017C00090910B04892B39F18091060484FD23C08C
:1017D000809107048138F8F480917A0086FDFCCF6F
:1017E000809178002091790090E0922B9C012C53FD
:1017F00031092F35314078F42091080430910904E3
:10180000820F931F9093090480930804809107042A
:101810008F5F809307048091800320910C0490E0F7
:10182000059630E0821793070CF456C080910C04A3
:10183000863808F051C055C08091050487FF1BC051
:10184000E09180038091050491E0980F9093050446
:10185000EC5F8E0FE82FF0E0E358FC4FC0818091E1
:101860000304909104046C2F0E94C10A9093040415
:10187000809303042DC08091050491E0980F90930C
:1018800005048330F1F054F48823A9F08130E9F4A1
:101890008091030490910404C92F1AC08930B9F0D3
:1018A0008A3099F4C0911104909180038DEF891BC7
:1018B000809305040DC08091030490910404C82F07
:1018C00007C08DE092E80E94500BCAEA01C0CDE249
:1018D0008C2F90E0985402C08DE092E8CF910C9448
:1018E000500BCF9108958F929F92AF92BF92EF923B
:1018F0000F931F93CF93DF9300D000D0CDB7DEB707
:10190000142F109212042C836B8389839A830E9474
:101910000D0B6B81609312042C812093110489813B
:101920009A810E941D0B80E090E00E94500B85E0A0
:1019300092E80E94500B80E098EB0E94500B0E94AE
:1019400034054B015C01809106010E945B06892BE6
:1019500091F40E943405DC01CB0188199909AA0988
:10196000BB09883C9105A105B10528F480E090E011
:101970000E94500BE8CF0E943405DC01CB0188198E
:101980009909AA09BB09883C9105A105B10508F090
:1019900054C020E1129FC0011124876C90680E94FE
:1019A000500B80E496EA0E94500B8E2D90E09A53E3
:1019B0000E94500B82EA94E90E94500B8CEA92EC50
:1019C0000E94500B80911104882349F083E89AEC1F
:1019D0000E94500B8091110490E09E6C06C08BE831
:1019E0009AEC0E94500B8DE29EEC0E94500B83E813
:1019F00094EC0E94500B083028F4802F90E0806512
:101A0000986902C087E598E90E94500B87E79CEC33
:101A10000E94500B80E090EE0E94500B80E098EC0A
:101A20000E94500B83E490EC0E94500B84E0809362
:101A300005040E940D0B81E001C080E00F900F9023
:101A40000F900F90DF91CF911F910F91EF90BF906A
:101A5000AF909F908F900895CB01F8940E94500B07
:101A600078940895CF93C62F50930B0440930A04A3
:101A700060E08EE08C0F0E94EF05F89480910604E0
:101A8000807F8093060480910604CF70C82BC0939A
:101A900006047894CF910895CF93DF93EB01809162
:101AA0000504843011F580910A0490910B04892B70
:101AB000F1F0F89420910804309109049091070402
:101AC000789496301CF482E9891B3FC040910A0447
:101AD00050910B044C32514060F040910A045091F7
:101AE0000B044935524038F004C08AE92EC088E919
:101AF0002CC089E92AC040910A0450910B04E0915E
:101B00000A04F0910B04692F990F770BC9010E9409
:101B1000C2129B01DE010E942B13DC01CB012AE0E3
:101B2000B695A795979587952A95D1F78E1B9F0B0C
:101B300064E170E00E94C2128CE9860F8D3924F0B6
:101B40008F3B1CF080EC01C08BE9DF91CF910895B1
:101B50001092800310920C048FEF9FEF9093040477
:101B60008093030460911104662331F00E94C10A3E
:101B700090930404809303041092090410920804C3
:101B80001092070485E0809305048DED92E80C9493
:101B9000500BFC0180910504853039F520918003BC
:101BA00040910C0430E02B5F3F4F50E02417350785
:101BB00024F080910C048638C0F084E08093050402
:101BC00080918003813830F081E090E090930404AC
:101BD0008093030490917E039F7781F090917E0320
:101BE0009F7780911204981749F080910504843002
:101BF00019F4CF010E94A80D80E00895809103049C
:101C000090910404892B41F40190F081E02D3097EC
:101C100019F080E009950BC08FEF9FEFDC018093F6
:101C20000D0490930E04A0930F04B093100481E070
:101C3000089580910504853089F480910C04811108
:101C40000DC00E944A0B80FD09C08DE092E80E9401
:101C5000500B84E08093050481E0089580E00895AE
:101C6000FC01211102C090E001C090E8692B609353
:101C70007E0390911204411102C020E001C020E8CF
:101C8000922B90937F030190F081E02D309711F01B
:101C900081E009958FEF9FEF9093040480930304F4
:101CA0008091030490910404609111040E94C10A80
:101CB000909304048093030486E0809305048DE3ED
:101CC00092E80C94500B809105048430B9F066239F
:101CD000D1F383B7817F633021F0623021F090E04F
:101CE00003C094E001C09CE0892B83BF83B781606F
:101CF00083BF889583B78E7F83BFE5CF0895CF924A
:101D0000EF920F931F93CF93DF93EC01162FBA013D
:101D100020938003422F50E081E893E00E941B1043
:101D20002E2D402F612FCE010E94300E6C2DCE0142
:101D3000DF91CF911F910F91EF90CF900C94630E94
:101D40008F929F92AF92BF92CF92EF920F93CF93C9
:101D5000DF9300D0CDB7DEB74C015A01C4012A830E
:101D600069830E94190E2A816981811108C0C4010A
:101D70002A8369830E94C90D69812A81EFCFCE2C05
:101D8000E12CA501C4010E947F0E0F900F90DF91FE
:101D9000CF910F91EF90CF90BF90AF909F908F9089
:101DA000089560E070E00E942C0D92FB882780F976
:101DB0000895AF92BF92CF92EF920F931F93CF935C
:101DC000DF931F92CDB7DEB75C0149830E94D90A29
:101DD0004981642FC5010E94EC0A85E0C82E98E075
:101DE000E92E00E02AEA41E061E0C5010E94730C9F
:101DF000882341F16FE470ECC5010E942C0D6AE06C
:101E000070E080E090E00E946505C5010E94D10E5F
:101E1000882389F060E470ECC5010E942C0D6AE013
:101E200070E080E090E00E946505C5010E94D10E3F
:101E300011E0182701C010E060E070ECC5010E94BD
:101E40002C0D01C010E0812F0F90DF91CF911F91D9
:101E50000F91EF90CF90BF90AF90089580917F0346
:101E60008F7708958230E8F4E82FF0E0EE0FFF1F3F
:101E7000ED5EFB4F71836083813041F0809169009A
:101E80008C7F482B40936900E89A089580916900FF
:101E9000440F551F440F551F837F482B4093690003
:101EA000E99A0895823068F4813011F0E89801C011
:101EB000E998E82FF0E0EE0FFF1FED5EFB4F118277
:101EC000108208951F920F920FB60F9211242F9334
:101ED0003F934F935F936F937F938F939F93AF93B2
:101EE000BF93EF93FF938091130490911404892B77
:101EF00029F0E0911304F09114040995FF91EF91FA
:101F0000BF91AF919F918F917F916F915F914F9111
:101F10003F912F910F900FBE0F901F9018951F9219
:101F20000F920FB60F9211242F933F934F935F930D
:101F30006F937F938F939F93AF93BF93EF93FF9391
:101F40008091150490911604892B29F0E0911504D5
:101F5000F09116040995FF91EF91BF91AF919F9178
:101F60008F917F916F915F914F913F912F910F9042
:101F70000FBE0F901F9018958F929F92AF92BF92B5
:101F8000CF92DF92EF92FF92CF93DF93EC016881C3
:101F900079818A819B81611571058105910521F403
:101FA00064E279ED8BE597E02DE133EF41E050E01D
:101FB0000E940C1349015A019B01AC01A7EAB1E44C
:101FC0000E943A136B017C01ACEEB4EFA5019401C1
:101FD0000E944813DC01CB018C0D9D1DAE1DBF1D61
:101FE000B7FF03C00197A109B04888839983AA83EA
:101FF000BB839F77DF91CF91FF90EF90DF90CF90E1
:10200000BF90AF909F908F9008950E94BC0F08954D
:1020100080E091E00E94BC0F0895A0E0B0E08093C2
:10202000000190930101A0930201B0930301089570
:10203000F8940C945313FB01DC0102C001900D9243
:1020400041505040D8F708955058BB27AA270E9406
:102050003C100C94B6110E94A81138F00E94AF11E8
:1020600020F039F49F3F19F426F40C94A5110EF4D6
:10207000E095E7FB0C949F11E92F0E94C71158F3DC
:10208000BA17620773078407950720F079F4A6F55D
:102090000C94E9110EF4E0950B2EBA2FA02D0B0134
:1020A000B90190010C01CA01A0011124FF27591B9D
:1020B00099F0593F50F4503E68F11A16F040A22FA3
:1020C000232F342F4427585FF3CF46953795279514
:1020D000A795F0405395C9F77EF41F16BA0B620B13
:1020E000730B840BBAF09150A1F0FF0FBB1F661F5A
:1020F000771F881FC2F70EC0BA0F621F731F841F9D
:1021000048F4879577956795B795F7959E3F08F0C2
:10211000B0CF9395880F08F09927EE0F9795879584
:1021200008950E947B1108F481E008950E94AA108E
:102130000C94B6110E94AF1158F00E94A81140F003
:1021400029F45F3F29F00C949F1151110C94EA116E
:102150000C94A5110E94C71168F39923B1F355237C
:1021600091F3951B550BBB27AA27621773078407AA
:1021700038F09F5F5F4F220F331F441FAA1FA9F340
:1021800035D00E2E3AF0E0E832D091505040E6952E
:10219000001CCAF72BD0FE2F29D0660F771F881F8F
:1021A000BB1F261737074807AB07B0E809F0BB0B82
:1021B000802DBF01FF2793585F4F3AF09E3F510596
:1021C00078F00C949F110C94EA115F3FE4F3983E71
:1021D000D4F3869577956795B795F7959F5FC9F77F
:1021E000880F911D9695879597F90895E1E0660F00
:1021F000771F881FBB1F621773078407BA0720F079
:10220000621B730B840BBA0BEE1F88F7E0950895E1
:102210000E940F116894B1110C94EA1108950E9464
:10222000CF1188F09F5798F0B92F9927B751B0F088
:10223000E1F0660F771F881F991F1AF0BA95C9F74A
:1022400014C0B13091F00E94E911B1E008950C94EE
:10225000E911672F782F8827B85F39F0B93FCCF3A1
:10226000869577956795B395D9F73EF490958095C7
:10227000709561957F4F8F4F9F4F0895E89409C0E7
:1022800097FB3EF490958095709561957F4F8F4FA9
:102290009F4F9923A9F0F92F96E9BB279395F695BF
:1022A000879577956795B795F111F8CFFAF4BB0F3D
:1022B00011F460FF1BC06F5F7F4F8F4F9F4F16C0A1
:1022C000882311F096E911C0772321F09EE8872F2B
:1022D000762F05C0662371F096E8862F70E060E0E7
:1022E0002AF09A95660F771F881FDAF7880F969560
:1022F000879597F90895990F0008550FAA0BE0E804
:10230000FEEF16161706E807F907C0F012161306B7
:10231000E407F50798F0621B730B840B950B39F4F7
:102320000A2661F0232B242B252B21F408950A265D
:1023300009F4A140A6958FEF811D811D089597F99D
:102340009F6780E870E060E008959FEF80EC08955B
:1023500000240A9416161706180609060895002484
:102360000A9412161306140605060895092E0394FE
:10237000000C11F4882352F0BB0F40F4BF2B11F472
:1023800060FF04C06F5F7F4F8F4F9F4F089557FDD1
:102390009058440F551F59F05F3F71F04795880FD3
:1023A00097FB991F61F09F3F79F08795089512166A
:1023B00013061406551FF2CF4695F1DF08C0161616
:1023C00017061806991FF1CF8695710561050894C7
:1023D0000895E894BB2766277727CB0197F90895DE
:1023E0000E947B1108F48FEF08950E9408120C944C
:1023F000B6110E94A81138F00E94AF1120F0952369
:1024000011F00C949F110C94A51111240C94EA1155
:102410000E94C71170F3959FC1F3950F50E0551FAF
:10242000629FF001729FBB27F00DB11D639FAA2729
:10243000F00DB11DAA1F649F6627B00DA11D661F78
:10244000829F2227B00DA11D621F739FB00DA11D99
:10245000621F839FA00D611D221F749F3327A00D53
:10246000611D231F849F600D211D822F762F6A2FEF
:1024700011249F5750409AF0F1F088234AF0EE0F54
:10248000FF1FBB1F661F771F881F91505040A9F781
:102490009E3F510580F00C949F110C94EA115F3F10
:1024A000E4F3983ED4F3869577956795B795F795BD
:1024B000E7959F5FC1F7FE2B880F911D9695879535
:1024C00097F9089519F416F40C94A5110C94AD1213
:1024D0000E94CF11B8F39923C9F3B6F39F57550B58
:1024E00087FF0E94BB120024A0E640EA90018058BA
:1024F0005695979528F4805C660F771F881F20F00B
:1025000026173707480730F4621B730B840B20290A
:1025100031294A2BA69517940794202531254A275F
:1025200058F7660F771F881F20F0261737074807D0
:1025300030F4620B730B840B200D311D411DA095EF
:1025400081F7B901842F9158880F96958795089542
:102550000E947B11880B990B08959F3F31F0915099
:1025600020F4879577956795B795880F911D969577
:10257000879597F9089591505040660F771F881FEF
:10258000D2F70895AA1BBB1B51E107C0AA1FBB1FAE
:10259000A617B70710F0A61BB70B881F991F5A95EF
:1025A000A9F780959095BC01CD01089597FB072E62
:1025B00016F4009407D077FD09D00E94C21207FCE0
:1025C00005D03EF4909581959F4F08957095619543
:1025D0007F4F0895A1E21A2EAA1BBB1BFD010DC05F
:1025E000AA1FBB1FEE1FFF1FA217B307E407F507C3
:1025F00020F0A21BB30BE40BF50B661F771F881F9F
:10260000991F1A9469F760957095809590959B0134
:10261000AC01BD01CF010895052E97FB1EF4009477
:102620000E94231357FD07D00E94EA1207FC03D033
:102630004EF40C94231350954095309521953F4FBF
:102640004F4F5F4F089590958095709561957F4F9E
:102650008F4F9F4F0895A29FB001B39FC001A39FCA
:10266000700D811D1124911DB29F700D811D1124CB
:10267000911D08950E942B13A59F900DB49F900D5E
:10268000A49F800D911D11240895B7FF0C943A1357
:102690000E943A13821B930B0895EE0FFF1F0590C3
:0A26A000F491E02D0994F894FFCFA7
:1026AA00010000000A14020A2020417667203A201D
:1026BA00002020566172203A2000202053746420A2
:1026CA00446576203A2000205468726573686F6CFE
:1026DA006473202D3E204C54203A2000205254206E
:1026EA003A20004176674269747320280029203A0B
:1026FA00200020232300544845204D455353414789
:10270A0045003B002626006E616E00696E66006F0A
:10271A007666002E00000000003D098406E60812D5
:06272A0009F60832090067
:00000001FF
