:100000000C9464050C94791B0C94A01B0C948C0527
:100010000C948C050C948C050C948C050C948C051C
:100020000C948C050C948C050C948C050C948C050C
:100030000C948C050C948C050C948C050C948C05FC
:100040000C94450D0C948C050C94640E0C94960E37
:100050000C948C050C948C050C948C050C948C05DC
:100060000C948C050C948C050000000004FBA64049
:1000700036E8674063DEB540C3F568405BFF9840F3
:1000800014AEAF40740F1F4136FA2F41CDCC0C4057
:100090006907A840000000000E5CA0408FC2154117
:1000A00000000000B81EE540000000000000000055
:1000B0000000000066663A410000000000000000F9
:1000C000000000000000000004FBA640000000004B
:1000D0000000000000000000000000000000000020
:1000E0000BC8274100000000000000004A325440C5
:1000F0007329BF3EF96E8D40D4149640DD8AA0402E
:100100002BB7AD40BD634940780399400329FC40BB
:1001100061F0FA4000000000000000000000000054
:10012000000000000000000036E86740000000000A
:1001300000000000E17A644089CA683FAD0B0D40C1
:1001400000000000000000005D46EF4000000000DD
:1001500000000000E38EBF40D01AC2400000000043
:10016000000000000000000000000000000000008F
:10017000000000000000000000000000BA60D14054
:10018000000000000000000063DEB5400000000039
:10019000E17A644000000000B9198F40D125B03FDA
:1001A000D5719C4000000000CB50CD400000000005
:1001B00000000000202896403D9192400000000081
:1001C000000000000000000000000000000000002F
:1001D00000000000D1951441C812D240D58FF140E3
:1001E0000000000000000000C3F5684000000000AF
:1001F00089CA683FB9198F40000000006666464012
:10020000CDCCEC3F0000000057F8FB4048E1BA407D
:1002100000000000000000000000000000000000DE
:1002200000000000000000000000000000000000CE
:100230000000000000000000431AF040E756CE40E6
:1002400000000000000000005BFF9840000000007C
:10025000AD0B0D40D125B03F666646400000000062
:10026000260B67400000000000000000AE93D34062
:10027000B43E054146BAA140F5C0A04000000000D0
:10028000000000000000000000000000000000006E
:1002900000000000000000001AB6CE40B206DB40AD
:1002A0002C4E24410000000014AEAF400BC8274183
:1002B00000000000D5719C40CDCCEC3F260B674080
:1002C00000000000000000008AD8CF4000000000BD
:1002D000BCF3264103D201410000000000000000F1
:1002E000000000000000000000000000000000000E
:1002F00000000000B81EC5407502C04019A193401F
:100300007B14FE4000000000740F1F41000000003D
:1003100000000000000000000000000000000000DD
:1003200000000000000000003333834000000000A4
:1003300000000000000000000000000000000000BD
:1003400000000000000000000000000000000000AD
:1003500000000000E38DEC3F952A50406FA00E3E58
:10036000000000000000000036FA2F4100000000ED
:100370005D46EF40CB50CD4057F8FB4000000000F9
:100380008AD8CF403333834000000000EE4750410D
:10039000000000000000000000000000000000005D
:1003A000000000000000000000000000000000004D
:1003B000000000007CC4A14057215C3FB0AA8140EE
:1003C0002DFFBC4019C8B640CDCC0C404A32544039
:1003D000000000000000000048E1BA40AE93D340A6
:1003E0000000000000000000EE4750410000000047
:1003F000DCD95C40776697407C0FA140000000008C
:1004000071BA0B4152B89E4007A8FB4073FA2541D0
:1004100000000000000000000000000000000000DC
:1004200000000000000000006907A8407329BF3EDB
:10043000000000000000000000000000B43E054184
:10044000BCF326410000000000000000DCD95C4045
:10045000000000002CBF83402F278C407B2AA9403E
:10046000F591AB40E7AE5E40DC7C9B4070340141CF
:10047000F5B5FD4000000000000000000000000095
:10048000000000000000000000000000F96E8D4038
:10049000E38EBF40202896400000000046BAA140ED
:1004A00003D2014100000000000000007766974081
:1004B0002CBF834000000000D70E9E3EE94F16413E
:1004C0006A05034113D1F140489E07410000000036
:1004D000000000000000000000000000000000001C
:1004E00000000000000000000E5CA040D414964004
:1004F000D01AC2403D91924000000000F5C0A040DB
:100500000000000000000000000000007C0FA1407F
:100510002F278C40D70E9E3E000000006E5A1A41D5
:1005200000000000BAA0FA400000000027E34341A9
:1005300000000000000000000000000000000000BB
:1005400000000000000000008FC21541DD8AA040BD
:10055000000000000000000000000000000000009B
:10056000000000000000000000000000000000008B
:100570007B2AA940E94F16416E5A1A41000000003B
:100580000000A040CDCC0C40B5FB3C408004514065
:10059000E196904000000000000000000000000014
:1005A0000000000000000000000000002BB7AD407C
:1005B000000000000000000000000000000000003B
:1005C00000000000000000000000000071BA0B41B4
:1005D000F591AB406A050341000000000000A04017
:1005E0000000000000000000AB7603409154AB40D7
:1005F00000000000000000000000000000000000FB
:100600000000000000000000B81EE540BD63494046
:1006100000000000000000000000000000000000DA
:1006200000000000000000000000000052B89E40E2
:10063000E7AE5E4013D1F140BAA0FA40CDCC0C40F9
:10064000000000000000000055967040000000000F
:100650004096C840000000000000000000000000BC
:100660000000000000000000000000007803994036
:10067000000000000000000000000000000000007A
:1006800000000000000000000000000007A8FB4080
:10069000DC7C9B40489E074100000000B5FB3C40CD
:1006A000AB76034055967040000000003A15734049
:1006B000157E444000000000000000000000000023
:1006C0000000000000000000000000000329FC40C2
:1006D000000000000000000000000000000000001A
:1006E00000000000000000000000000073FA254137
:1006F000703401410000000027E343418004514071
:100700009154AB40000000003A1573400000000017
:100710000000204000000000000000000000000079
:1007200000000000000000000000000061F0FA403E
:1007300000000000000000000000000000000000B9
:1007400000000000000000000000000000000000A9
:10075000F5B5FD400000000000000000E19690406B
:10076000000000004096C840157E44400000204034
:100770000000000000000000000000000000000079
:10078000000000000000000066663A410000000022
:1007900000000000D195144100000000000000009E
:1007A000B81EC540E38DEC3F7CC4A14000000000B2
:1007B0000000000000000000000000000000000039
:1007C0000000000000000000000000000000000029
:1007D0000000000000000000F3E48640DA8ADF3FFA
:1007E0000AD7E33F00000000000000000000000006
:1007F00000000000C812D240431AF0401AB6CE40A2
:100800007502C040952A504057215C3F000000000F
:1008100000000000000000000000000000000000D8
:1008200000000000000000000000000000000000C8
:1008300000000000F3E4864000000000CDCC4C40F6
:10084000B425A54044F2A7400000000000000000CD
:10085000BA60D140D58FF140E756CE40B206DB40BA
:1008600019A193406FA00E3EB0AA81400000000085
:100870000000000000000000000000000000000078
:100880000000000000000000000000000000000068
:1008900000000000DA8ADF3FCDCC4C4000000000B1
:1008A0000DE95C40000000000000000000000000B6
:1008B0000000000000000000000000002C4E244159
:1008C0007B14FE40000000002DFFBC400000000033
:1008D0000000000000000000000000000000000018
:1008E0000000000000000000000000000000000008
:1008F000000000000AD7E33FB425A5400DE95C40A5
:10090000000000007F0B27400000000000000000F6
:1009100000000000000000000000000000000000D7
:10092000000000000000000019C8B64000000000F0
:1009300000000000000000000000000000000000B7
:1009400000000000000000000000000000000000A7
:10095000000000000000000044F2A740000000007A
:100960007F0B274000000000982F8A429144377186
:10097000CFFBC0B5A5DBB5E95BC25639F111F15922
:10098000A4823F92D55E1CAB98AA07D8015B831264
:10099000BE853124C37D0C55745DBE72FEB1DE8010
:1009A000A706DC9B74F19BC1C1699BE48647BEEF3F
:1009B000C69DC10FCCA10C246F2CE92DAA84744ACA
:1009C000DCA9B05CDA88F97652513E986DC631A840
:1009D000C82703B0C77F59BFF30BE0C64791A7D51F
:1009E0005163CA0667292914850AB72738211B2EA7
:1009F000FC6D2C4D130D385354730A65BB0A6A768F
:100A00002EC9C281852C7292A1E8BFA24B661AA89A
:100A1000708B4BC2A3516CC719E892D1240699D6AA
:100A200085350EF470A06A1016C1A419086C371E23
:100A30004C774827B5BCB034B30C1C394AAAD84E01
:100A40004FCA9C5BF36F2E68EE828F746F63A5783C
:100A50001478C8840802C78CFAFFBE90EB6C50A4CF
:100A6000F7A3F9BEF27871C6000000080002010089
:100A70000003040700000000000000000102040859
:100A800010204080010204081020010204081020F8
:100A90000404040404040404020202020202030324
:100AA00003030303000000002300260029000000C8
:100AB0000000250028002B00000000002400270073
:100AC0002A00FE09C60E410D11241FBECFEFD8E04B
:100AD000DEBFCDBF11E0A0E0B1E0ECEEF2E402C079
:100AE00005900D92A63AB107D9F725E0A6EAB1E044
:100AF00001C01D92A435B207E1F715E0C3E6D5E0C9
:100B000004C02197FE010E944521C136D107C9F7D3
:100B10000E94AB0F0C94151E0C940000CF92DF9234
:100B2000EF92FF920F931F93CF93DF93CDB7DEB772
:100B30000DB71EB7262F30E0220F331FA9014F5FDC
:100B40005F4FEDB7FEB7E41BF50B0FB6F894FEBF91
:100B50000FBEEDBF4DB75EB74F5F5F4F7A01FFEF3E
:100B6000EF1AFF0ADA01782F6C018C2D871B86178C
:100B7000B8F4F60181916F01982F92959F70906360
:100B80009A330CF0995D9C938F7080638A330CF0DC
:100B9000895DF7018083F2E0EF0EF11C1296E5CF3C
:100BA000FA01E20FF31F1082BA018DE594E00E9472
:100BB000330F0FB6F8941EBF0FBE0DBFDF91CF915C
:100BC0001F910F91FF90EF90DF90CF900895CF93FA
:100BD000C42F8093590250E087E192E00E94251EC5
:100BE000C093160284E080931502109211021092B5
:100BF00012021092130210921402CF910895CF9214
:100C0000DF92EF92FF920E941612882381F080916A
:100C1000480590914905892B51F48091020587FF81
:100C200022C080911502843011F01092150280913B
:100C30001502882309F483C00E948F0D6B017C018B
:100C40008091110290911202A0911302B0911402AE
:100C5000C816D906EA06FB060CF470C00E949B1267
:100C6000811103C06BC081E06AC08091150283309E
:100C700008F049C080911702833009F044C04AE06F
:100C800050E0609145048DE594E00E94A10F62E57B
:100C900071E08DE594E00E94330F4AE050E06091EE
:100CA00018028DE594E00E94A10F62E571E08DE5E8
:100CB00094E00E94330F0E948F0DAB01BC012AE02B
:100CC00030E08DE594E00E94940F6FE071E08DE5D7
:100CD00094E00E94330F4AE050E0609115028DE5E8
:100CE00094E00E94A10F62E571E08DE594E00E941E
:100CF000330F6091160287E192E00E948E058DE528
:100D000094E00E94350F809159024091160267E1EC
:100D100072E080660E94DE1284E6C80ED11CE11CDF
:100D2000F11CC0921102D0921202E0921302F092D2
:100D300014028091150281508093150280E0FF908B
:100D4000EF90DF90CF90089590910204EEE5F2E0ED
:100D500020E030E0291780F4A90160812F5F3F4F28
:100D60007C966813F7CF2CE1249FC001259F900D3E
:100D700011248F599D4F0895089590910204EEE536
:100D8000F2E020E030E0291780F4A90160812F5FB4
:100D90003F4F7C966813F7CF2CE1249FC001259F1D
:100DA000900D112487599D4F089508954091020494
:100DB0002EE532E090E0941759F0245E3F4FF901A0
:100DC0007C975081581302C0892F08959F5FF3CFFD
:100DD00008952F923F924F925F926F927F928F92DF
:100DE0009F92AF92BF92CF92DF92EF92FF920F93BA
:100DF0001F93CF93DF93CDB7DEB7C05BD1090FB69A
:100E0000F894DEBF0FBECDBF64E670E080E090E0F6
:100E10000E94C00D26E040E051EE60E070E08DE5FC
:100E200094E00E9480100E946813811106C066E25F
:100E300071E08DE594E00E94390F6091450470E007
:100E400080E090E00E94380EFE01E45BFF4FCE018F
:100E500089569F4F6F011082118212821382148271
:100E60003596E817F907B9F7109102048091450407
:100E700090E0019740E6489F9001499F300D112472
:100E8000C90188599F4F7C0101E08CE1782E95E0E3
:100E9000692EF70185909590A590B49020E030E000
:100EA000A901C501B4010E94A21E882331F1812F3E
:100EB00090E0789EF001799EF00D1124E25AFD4FEA
:100EC0000083689EF001699EF00D1124EC0DFD1D5C
:100ED000008381829282A382B4821F5F1F3069F4F3
:100EE00010930204212CDE01A45BBF4FC956DF4FD3
:100EF000B983A883C759D0401EC00F5FB4E0EB0E82
:100F0000F11C093109F0C5CFEBCF2CE1C156DF4F01
:100F1000A881B981CF59D0402A9FF0012B9FF00DB5
:100F20001124E25AFD4F0183C256DF4F4881CE594A
:100F3000D0404283239480910204C756DF4F8883B8
:100F4000C959D040281608F0D5C1FE01319610824B
:100F500011821282138214823596C956DF4F88811E
:100F60009981C759D040E817F90789F7A22DB0E059
:100F7000C156DF4FB983A883CF59D0402CE12A9FB7
:100F8000F0012B9FF00D1124E25AFD4F0081802FBC
:100F900090E0019740E6489F9001499F300D112451
:100FA000C90188599F4F7C01DD24D39410E0F701DB
:100FB00085909590A590B49020E030E0A901C501FE
:100FC000B4010E94A21E882389F0E1E0F0E0EC0F5A
:100FD000FD1F95E0919FE00DF11D1124D0828182CB
:100FE0009282A382B4821F5F1F3039F0D394A4E0B1
:100FF000EA0EF11CB9E1DB12DACFC256DF4F0883EB
:10100000CE59D040312CC555DF4F1882CB5AD04035
:10101000C455DF4F1882CC5AD040E8E4C355DF4FA7
:10102000E883CD5AD040F3E4C255DF4FF883CE5A5F
:10103000D040C955DF4F1882C75AD040C855DF4F3E
:101040001882C85AD04028E4C755DF4F2883C95AB0
:10105000D04043E4C655DF4F4883CA5AD040C756F4
:10106000DF4F8881C959D040381609F44ECFDE01D0
:101070001196C656DF4FB983A883CA59D040C456CB
:10108000DF4F1882CC59D040ECE4F0E0EC0FFD1FAC
:1010900025E0239DE00DF11D1124CB55DF4FF98391
:1010A000E883C55AD0403196C155DF4FF983E883B4
:1010B000CF5AD040C456DF4F4881CC59D040411759
:1010C00009F416C1CB55DF4FA881B981C55AD0406C
:1010D000BC91C356DF4FB883CD59D040C656DF4FC1
:1010E000E881F981CA59D0408081B813E8C0C15560
:1010F000DF4FA881B981CF5AD0408D919D910D903D
:10110000BC91A02DCF55DF4F88839983AA83BB83E1
:10111000C15AD0402DEC3CEC4CED50E4BC01CD016B
:101120000E94351E2B013C01C656DF4FE881F98134
:10113000CA59D040C180D280E380F4802DEC3CECD1
:101140004CE151E4C701B6010E94351E4B015C0120
:10115000A3019201C301B2010E94062020E030E009
:10116000A9010E94361E2B013C01A5019401C50175
:10117000B4010E9406209B01AC01C301B2010E9490
:10118000361E4B015C01C955DF4F2881C75AD0403C
:10119000C855DF4F3881C85AD040C755DF4F488106
:1011A000C95AD040C655DF4F5881CA5AD0400E9414
:1011B000A21E1816CCF0C955DF4F8882C75AD040FE
:1011C000C855DF4F9882C85AD040C755DF4FA88214
:1011D000C95AD040C655DF4FB882CA5AD040C3560C
:1011E000DF4F0881CD59D0402CEC3CEC4CEC5DE35A
:1011F000CF55DF4F688179818A819B81C15AD04068
:101200000E94351E4B015C0129E939E949E750E4A8
:10121000C701B6010E94351E6B017C01A501940136
:10122000C501B4010E94062020E030E0A9010E941F
:10123000361E4B015C01A7019601C701B6010E9451
:1012400006209B01AC01C501B4010E94361E6B0152
:101250007C01C555DF4F2881CB5AD040C455DF4FA4
:101260003881CC5AD040C355DF4F4881CD5AD04049
:10127000C255DF4F5881CE5AD0400E94A21E181688
:10128000F4F0C555DF4FC882CB5AD040C455DF4F6C
:10129000D882CC5AD040C355DF4FE882CD5AD040D7
:1012A000C255DF4FF882CE5AD040C356DF4FF88187
:1012B000CD59D040C256DF4FF883CE59D040C456E6
:1012C000DF4F2881CC59D0402F5FC456DF4F288391
:1012D000CC59D040C656DF4F88819981CA59D04039
:1012E0000596C656DF4F99838883CA59D040E2CE0F
:1012F0003394B5CEC756DF4FA881C959D04096E088
:10130000A99FB0011124072E000C880B990B609344
:1013100050047093510480935204909353040E949C
:101320004F1F9B01AC0160E07AEB8BE59AE40E94D1
:10133000A71E60934C0470934D0480934E049093C9
:101340004F04509145040EE512E0980140E0C75665
:10135000DF4FB881C959D0404B1761F0245E3F4F31
:10136000F9017C97E0815E1718F44093470402C0AE
:101370004F5FEDCF0E94191F0E94400E60935A02EA
:1013800070935B0280935C0290935D023091020443
:1013900090914504E5E6F2E080E0831791F0D801F2
:1013A0002C91DF011497921728F49C93D8012C916B
:1013B000208302C02C9390838F5F045E1F4F7C9626
:1013C000ECCF87E598E9C055DF4F0FB6F894DEBF44
:1013D0000FBECDBFDF91CF911F910F91FF90EF9086
:1013E000DF90CF90BF90AF909F908F907F906F9045
:1013F0005F904F903F902F900C941112CF93DF93FA
:1014000080E290E00E944B218F7180934504EEE5CD
:10141000F2E080E090E028E01082DC01A25ABD4FAB
:1014200011961C92119712961C921297AF014D5F64
:101430005F4FEA01322F19923A95E9F7485F5F4F03
:10144000EA01322F19923A95E9F753961C92DF017F
:101450005496ED01322F19923A95E9F74C967C9605
:10146000843AC1E09C07C1F686EA91E0DF91CF9112
:101470000C943A143F924F925F926F927F928F92A8
:101480009F92AF92BF92CF92DF92EF92FF920F9313
:101490001F93CF93DF93CDB7DEB728970FB6F8949D
:1014A000DEBF0FBECDBF0E948F0D613A7C438743E4
:1014B000910508F44AC080914604811146C010E0AD
:1014C0000CE1809102041817E8F54AE050E06091C1
:1014D00045048DE594E00E94A10F62E571E08DE581
:1014E00094E00E94330F019F60011124F601E25A3B
:1014F000FD4F4AE050E060818DE594E00E94A10F2D
:1015000062E571E08DE594E00E94330F0E948F0D3B
:10151000AB01BC012AE030E08DE594E00E94940F1D
:101520006BE371E08DE594E00E94330F68E0C60143
:101530008F599D4F0E948E058DE594E00E94350FD6
:101540001F5FBFCF81E0809346040E948F0D809083
:10155000480490904904A0904A04B0904B040E9423
:101560004F1F2B013C01C501B4010E944F1F209168
:101570004C0430914D0440914E0450914F040E9410
:10158000062020E030E44CE156E40E94361E6B0158
:101590007C0160915A0270915B0280915C02909193
:1015A0005D020E94511F9B01AC01C701B6010E9460
:1015B000361E9B01AC01C301B2010E940120181626
:1015C0000CF0B4C0809115028111B0C0809150041C
:1015D00090915104A0915204B09153048816990639
:1015E000AA06BB0608F0A2C0CE0101966C018C01D0
:1015F00088E0F82EFC0C60E071E080E090E00E9452
:10160000400EF80161938F01FE12F5CF60914804FE
:101610007091490480914A0490914B042CE030E091
:1016200040E050E00E948720009147046630710539
:101630008105910540F42CE1029FF0011124E25A4A
:10164000FD4FF18007C08CE1089FF0011124E25AA0
:10165000FD4FF280F092060482E0809303048091B3
:101660004504809304049CE1099F80011124F80142
:10167000E25AFD4F5F018081809305048F2D0E9407
:10168000A406FC0198E0A7E0B4E001900D929A95C1
:10169000E1F788E0F601AFE0B4E001900D928A95A1
:1016A000E1F7D801A759BD4F88E0F60101900D92EE
:1016B0008A95E1F781E0F501838B44E163E074E012
:1016C0008F2D0E94E70590914704892F90E00196A5
:1016D0006091020470E00E9473208093470480911F
:1016E000480490914904A0914A04B0914B0401969A
:1016F000A11DB11D8093480490934904A0934A040E
:10170000B0934B0460914C0470914D0480914E0451
:1017100090914F040E94191F0E94400E60935A023C
:1017200070935B0280935C0290935D020E94FF05C0
:10173000882309F48EC180910405823009F0B5C078
:10174000F090060580914504F812A1C0809105052E
:101750000E94D60630900705FCE18F9F800111247E
:10176000B8016E587D4F48E050E080E195E00E945E
:10177000181E892B09F499C04AE050E06F2D8DE5C1
:1017800094E00E94A10F62E571E08DE594E00E9473
:10179000330F609105054AE050E08DE594E00E942A
:1017A000A10F62E571E08DE594E00E94330F0E9485
:1017B0008F0DAB01BC012AE030E08DE594E00E9482
:1017C000940F67E471E08DE594E00E94330F8091FF
:1017D00005050E94A40668E00E948E0562E571E09E
:1017E0008DE594E00E94330F68E080E195E00E946F
:1017F0008E05D801AE58BD4F88E0E0E1F5E00190DC
:101800000D928A95E1F786EA91E00E94BA138091E1
:1018100005050E94A40648E050E0BC0186EA91E07C
:101820000E94D91848E050E060E175E086EA91E056
:101830000E94D918809105050E94A40648E050E056
:10184000BC0186EA91E00E94471962E571E08DE5EE
:1018500094E00E94330F809105050E94A40668E081
:101860000E948E058DE594E00E94350F809105055C
:1018700093E0909303049091050590930404909154
:1018800006059093050443E063E074E0DFC09091A7
:10189000070598130AC080911502882309F4BAC07D
:1018A00080911702833009F0B5C080910405833020
:1018B00009F08AC0809106050E94D6063090060580
:1018C0002CE1829FC00111248C01025A1D4FF801A6
:1018D0008389813009F078C04AE050E06091450486
:1018E0008DE594E00E94A10F62E571E08DE594E042
:1018F0000E94330F609106054AE050E08DE594E0C8
:101900000E94A10F62E571E08DE594E00E94330F23
:101910000E948F0DAB01BC012AE030E08DE594E020
:101920000E94940F67E471E08DE594E00E94330F0C
:10193000809106050E94A40668E00E948E0562E57B
:1019400071E08DE594E00E94330F809106050E94BE
:10195000BD0668E00E948E0586EA91E00E94BA13F7
:10196000809106050E94A40648E050E0BC0186EA8A
:1019700091E00E94D918809106050E94BD0648E0BA
:1019800050E0BC0186EA91E00E94D91880910605DA
:101990000E94A40648E050E0BC0186EA91E00E9463
:1019A000471962E571E08DE594E00E94330F809164
:1019B00006050E94A40668E00E948E058DE594E06D
:1019C0000E94350FF801138A8091020585FF41C0FE
:1019D0008091020587FD3DC040E060E070E0832D0E
:1019E000806C28960FB6F894DEBF0FBECDBFDF9196
:1019F000CF911F910F91FF90EF90DF90CF90BF900C
:101A0000AF909F908F907F906F905F904F903F909E
:101A10000C94DE12309005051091060584E1E4E097
:101A2000F5E0A3E0B4E001900D928A95E1F7812FF3
:101A30000E94A406FC0198E0A7E0B4E001900D929A
:101A40009A95E1F744E163E074E0812F0E94E70595
:101A50002CCF28960FB6F894DEBF0FBECDBFDF9116
:101A6000CF911F910F91FF90EF90DF90CF90BF909B
:101A7000AF909F908F907F906F905F904F903F902E
:101A8000089586EA91E00C941B141F920F920FB6F2
:101A90000F9211242F933F938F939F93AF93BF93F4
:101AA0008091550490915604A0915704B091580428
:101AB0003091540423E0230F2D3720F40196A11D0B
:101AC000B11D05C026E8230F0296A11DB11D20936C
:101AD00054048093550490935604A0935704B093F4
:101AE00058048091590490915A04A0915B04B091DC
:101AF0005C040196A11DB11D8093590490935A0472
:101B0000A0935B04B0935C04BF91AF919F918F91C0
:101B10003F912F910F900FBE0F901F9018952FB7E8
:101B2000F8946091550470915604809157049091F7
:101B300058042FBF08953FB7F894809159049091AD
:101B40005A04A0915B04B0915C0426B5A89B05C023
:101B50002F3F19F00196A11DB11D3FBFBA2FA92F2C
:101B6000982F8827820F911DA11DB11DBC01CD01A9
:101B700042E0660F771F881F991F4A95D1F7089595
:101B80008F929F92AF92BF92CF92DF92EF92FF928D
:101B90006B017C010E949B0D4B015C01C114D104BF
:101BA000E104F10401F10E94370E0E949B0DDC015B
:101BB000CB0188199909AA09BB09883E9340A10560
:101BC000B10560F321E0C21AD108E108F10888EEFE
:101BD000880E83E0981EA11CB11CC114D104E1043D
:101BE000F10419F7DBCFFF90EF90DF90CF90BF901B
:101BF000AF909F908F900895789484B5826084BD53
:101C000084B5816084BD85B5826085BD85B5816000
:101C100085BDEEE6F0E0808181608083E1E8F0E060
:101C20001082808182608083808181608083E0E88F
:101C3000F0E0808181608083E1EBF0E0808184606E
:101C40008083E0EBF0E0808181608083EAE7F0E070
:101C500080818460808380818260808380818160D4
:101C600080838081806880831092C10008950895E8
:101C7000611571058105910511F00C94071E0895F9
:101C8000CF93DF9300D000D0CDB7DEB761157105DB
:101C90008105910579F09B01AC0169833A834B83FF
:101CA0005C830E94021E29813A814B815C810E94E3
:101CB000A92003C060E070E0CB010F900F900F905F
:101CC0000F90DF91CF9108951F920F920FB60F9250
:101CD00011242F938F939F93EF93FF93E0916D04C3
:101CE000F0916E048081E0917304F091740482FDA0
:101CF00012C09081809176048F5F8F73209177045A
:101D0000821751F0E0917604F0E0E35AFB4F958F93
:101D10008093760401C08081FF91EF919F918F9114
:101D20002F910F900FBE0F901F9018951F920F923A
:101D30000FB60F9211242F933F934F935F936F939E
:101D40007F938F939F93AF93BF93EF93FF938DE513
:101D500094E00E94F60FFF91EF91BF91AF919F9198
:101D60008F917F916F915F914F913F912F910F9044
:101D70000FBE0F901F9018958DE594E00E94BA0F4A
:101D800021E0892B09F420E0822F0895EDE5F4E0AD
:101D90001382128288EE93E0A0E0B0E08483958302
:101DA000A683B78389E691E09183808385EC90E0F8
:101DB0009587848784EC90E09787868780EC90E015
:101DC000918B808B81EC90E0938B828B82EC90E006
:101DD000958B848B86EC90E0978B868B118E128E80
:101DE000138E148E0895CF92DF92EF92FF920F938D
:101DF0001F93CF93DF936C017A018B01C0E0D0E099
:101E0000CE15DF0589F0D8016D918D01D601ED91D8
:101E1000FC910190F081E02DC6010995892B11F408
:101E20007E0102C02196ECCFC701DF91CF911F91B7
:101E30000F91FF90EF90DF90CF900895611571059D
:101E400079F0FB0101900020E9F73197AF01461BC3
:101E5000570BDC01ED91FC910280F381E02D099498
:101E600080E090E008950C941E0F64E571E00C94FE
:101E70001E0F0F931F93CF93DF93EC010E941E0F51
:101E80008C01CE010E94350F800F911FDF91CF9101
:101E90001F910F9108954F925F926F927F92EF92F0
:101EA000FF920F931F93CF93DF93CDB7DEB7A19728
:101EB0000FB6F894DEBF0FBECDBF7C01FA01CB0197
:101EC00019A2223008F42AE08E010F5D1F4F422E26
:101ED000512C612C712CBF01A30192010E9487201B
:101EE000F901CA01015011096A3014F4605D01C0A2
:101EF000695CD8016C93232B242B252B61F7B80147
:101F0000C7010E941E0FA1960FB6F894DEBF0FBE48
:101F1000CDBFDF91CF911F910F91FF90EF907F90F8
:101F20006F905F904F9008952115310541F4DC01C9
:101F3000ED91FC910190F081E02D642F09940C94B7
:101F40004B0F9A01462F50E060E070E00C94940F24
:101F50000E94101E08950E94FC0D0E94AA0F0E946C
:101F6000E906C8EEDFE00E943A0A2097E1F30E94FA
:101F7000E80FF9CFFC01918D228D892F90E0805CD4
:101F80009F4F821B91098F7399270895FC01918DB2
:101F9000828D981731F0828DE80FF11D858D90E0CC
:101FA00008958FEF9FEF0895FC01918D828D981712
:101FB00061F0828DDF01A80FB11D5D968C91928D2D
:101FC0009F5F9F73928F90E008958FEF9FEF08952A
:101FD0008CEB9EE0892B49F080E090E0892B29F082
:101FE0000E94BC0E81110C9400000895FC01848DA8
:101FF000DF01A80FB11DA35ABF4F2C91848D90E033
:1020000001968F739927848FA689B7892C93A0890D
:10201000B1898C9180648C93938D848D981306C0C4
:102020000288F389E02D80818F7D80830895CF938E
:10203000DF93EC01888D8823C9F0EA89FB898081D0
:1020400085FD05C0A889B9898C9186FD0FC00FB6A2
:1020500007FCF5CF808185FFF2CFA889B9898C91E3
:1020600085FFEDCFCE010E94F60FE7CFDF91CF9134
:102070000895EF92FF920F931F93CF93DF93EC019C
:1020800081E0888F9B8D8C8D981305C0E889F98934
:10209000808185FD24C0F62E0B8D10E00F5F1F4F51
:1020A0000F731127E02E8C8DE8120CC00FB607FCC1
:1020B000FACFE889F989808185FFF5CFCE010E94AA
:1020C000F60FF1CF8B8DFE01E80FF11DE35AFF4FA4
:1020D000F0820B8FEA89FB898081806207C0EE89DC
:1020E000FF896083E889F98980818064808381E049
:1020F00090E0DF91CF911F910F91FF90EF900895A5
:10210000CF92DF92EF92FF921F93CF93DF93EC0178
:102110006A017B01122FE889F98982E080834115E9
:10212000514E61057105B1F060E079E08DE390E01A
:10213000A70196010E948720DA01C9010197A10930
:10214000B109B695A79597958795AC01411580E1A2
:102150005807A8F0E889F989108260E874E88EE1F0
:1021600090E0A70196010E948720BA01A901415081
:102170005109610971097695679557954795EC85E1
:10218000FD855083EE85FF854083188EEC89FD899F
:102190001083EA89FB89808180618083EA89FB89D9
:1021A000808188608083EA89FB8980818068808360
:1021B000EA89FB8980818F7D8083DF91CF911F9198
:1021C000FF90EF90DF90CF9008958627682F62955B
:1021D0006827062E669566956025062E669560250D
:1021E0006770082E892F669507946795902D86272E
:1021F000069467959025862708952CB521602CBDFF
:1022000025B141E050E060E070E000900A0104C0B8
:10221000440F551F661F771F0A94D2F7409542233B
:1022200045B99EBD0DB407FEFDCF2EB530E0322F6F
:1022300022278EBD0DB407FEFDCF4EB555B181E00E
:1022400090E0A0E0B0E000900A0104C0880F991F60
:10225000AA1FBB1F0A94D2F7852B85B98CB58E7F38
:102260008CBDC901842B0895CF9380E090E00E943B
:10227000FD1080914A05853091F580E090EB0E9439
:10228000FD10682F80914B05811104C090914E057F
:10229000911176C0E0914B0581E08E0F80934B0544
:1022A000F0E0EF5FFA4F6083809148059091490517
:1022B0000E94E5109093490580934805809103059D
:1022C00020914B0590E0049630E0821793070CF4C0
:1022D00062C080914B05873408F05DC061C0809179
:1022E0004A0587FF1BC0E091030580914A0591E0F4
:1022F000980F90934A05ED5F8E0FE82FF0E0EF5FA7
:10230000FA4FC08180914805909149056C2F0E9439
:10231000E51090934905809348052EC080914A05A9
:102320008330F1F054F48823A9F08130E9F48091EE
:10233000480590914905C92F1AC08930B9F08A30F3
:1023400099F4C0914E05909103058DEF891B809300
:102350004A050DC08091480590914905C82F07C0D6
:102360008DE092E80E94FD10CAEA01C0CDE28091A2
:102370004A058F5F80934A058C2F90E098540DC0DA
:10238000E0914B0581E08E0F80934B05F0E0EF5F0D
:10239000FA4F90837FCF8DE092E8CF910C94FD109F
:1023A000CF91089525B181E090E0A0E0B0E0AC01CC
:1023B000BD0100900A0104C0440F551F661F771F1E
:1023C0000A94D2F7422B45B924B100900A0104C007
:1023D000880F991FAA1FBB1F0A94D2F7822B84B9BA
:1023E00061E08AE00E942C1C61E08AE00E94F01B00
:1023F00061E08BE00E94F01B60E08CE00E94F01B2B
:1024000061E08DE00E94F01B80E58CBD8DB58160A0
:102410008DBD60E082E00E94F01B61E082E00C94E0
:102420002C1CE8980E94FD10E89A089580914A05B6
:10243000853091F58091030520914B0590E004963D
:1024400030E08217930724F080914B05873420F108
:1024500084E080934A0580914805909149059093C6
:1024600049058093480580910305833430F081E06D
:1024700090E090934905809348058091020586FF7E
:102480003EC080914F05982F9F719F31C1F190916F
:10249000020589278F7199F180914A05843069F589
:1024A0008091FC04882351F080930305109202056B
:1024B0001092010583E080934B0504C01092030540
:1024C00010924B058FEF9FEF90934905809348053D
:1024D00060914E05662351F0809148059091490521
:1024E0000E94E510909349058093480585E080930C
:1024F0004A058DED92E80E94FD1080E008958091DC
:10250000480590914905892B49F4E091FA04F0912E
:10251000FB04309719F080E009950BC08FEF9FEF17
:10252000DC018093FD049093FE04A093FF04B0931C
:10253000000581E0089580914A05853099F48091E5
:102540004B0581110FC080E090E00E94111290FDB8
:1025500009C08DE092E80E94111284E080934A0540
:1025600081E0089580E0089586FD05C0807E909109
:102570004F059F71890F80930205E091FA04F09155
:10258000FB04309711F081E009958FEF9FEF909356
:1025900049058093480580914805909149056091CF
:1025A0004E050E94E510909349058093480586E00A
:1025B00080934A058DE392E80C94FD10CF93C82FC9
:1025C0004093030550E084E095E00E94251E8C2F87
:1025D000CF910C94B412CF93C62F80934F054093A4
:1025E0004E0530934D0520934C050E94D21180E09A
:1025F00090E00E94FD1085E092E80E94FD1080E0CE
:1026000098EB0E94FD1082E00E945C1C892B19F45B
:1026100080E090E0F6CF20E1C29FC0011124876CDA
:1026200090680E94FD1080914C0590914D05905648
:102630000E94FD1086E096EC0E94FD1082EA94E96B
:102640000E94FD108CEA92EC0E94FD10C0914E0594
:10265000CC2341F083E89AEC0E94FD108C2F90E08F
:102660009E6C06C08BE89AEC0E94FD108DE29EECF9
:102670000E94FD1083E894EC0E94FD1080E598E92B
:102680000E94FD1087E79CEC0E94FD1080E090EE18
:102690000E94FD1080E098EC0E94FD1089E490EC0F
:1026A0000E94FD1084E080934A0580914F058F7150
:1026B00041F040E050E064E371E180E00E94471B9C
:1026C00003C080E00E94671B80914F05CF91089561
:1026D000EF92FF920F931F93CF93DF931F92CDB78B
:1026E000DEB730E2E32EF12C0FEF1FEFC7010E949F
:1026F0004B21682FC8010E94E5108C018FEFE81A6A
:10270000F80A80E3E816F10489F7012B21F582E24B
:1027100090E00E944B218130F1F480E290E00E9431
:102720004B21182F81E290E00E944B21482F84E238
:1027300090E049830E945321612F70E026E0759557
:1027400067952A95E1F79C014981812F0E94EB1240
:10275000812F8F7101C080E00F90DF91CF911F9189
:102760000F91FF90EF90089580E290E0089580E44B
:1027700090E00895FC0187E696EEA9E0BAE6828330
:102780009383A483B58385E89EEAA7E6BBEB8683A3
:102790009783A087B18782E793EFAEE6BCE3828799
:1027A0009387A487B5878AE395EFAFE4B5EA868778
:1027B0009787A08BB18B8FE792E5AEE0B1E5828B76
:1027C000938BA48BB58B8CE898E6A5E0BBE9868B50
:1027D000978BA08FB18F8BEA99EDA3E8BFE1828F31
:1027E000938FA48FB58F89E19DECA0EEBBE5868F1A
:1027F000978FA0A3B1A3DF01A659BF4F1C92EE593A
:10280000FF4F108211821282138214821582168267
:1028100017820895CF93DF93EC0169E670E002968A
:102820000E94C21AE881F9810084F185E02DCE0171
:10283000DF91CF910994CF93DF93D82FC92FE82F41
:10284000F92F89E791E08193919369E670E0CF01D8
:102850000E94C21A8D2F9C2FDF91CF910C94D21A17
:10286000CF93DF93EC010E941B14CE01DF91CF9137
:102870000C94851CCF93DF93EC010E94CC1A89E75E
:1028800091E099838883CE01DF91CF910C94BA13A4
:102890002F923F924F925F926F927F928F929F9270
:1028A000AF92BF92CF92DF92EF92FF920F931F935E
:1028B000CF93DF93CDB7DEB7CC54D1090FB6F894E0
:1028C000DEBF0FBECDBF2D969FAF8EAF2D971C01E3
:1028D00002E2200E311C8E599F4F988F8F8BF10191
:1028E00060817181828193810E94C820619371937C
:1028F000819391932F89388DE217F30789F72D96ED
:10290000AEADBFAD2D9712964D915D916D917C91BD
:1029100015974FA358A769A77AA716964D905D9073
:102920006D907C9019974BA65CA66DA67EA61A9614
:102930004D905D906D907C901D974FA658AA69AA06
:102940007AAA1E964D905D906D907C9051974BAAFF
:102950005CAA6DAA7EAA52964D905D906D907C9077
:1029600055974FAA58AE69AE7AAE56964D905D9087
:102970006D907C9059974BAE5CAE6DAE7EAE5A9624
:102980004D905D906D907C905D9723964CAE5DAEC2
:102990006EAE7FAE23975E964D905D906D907C906D
:1029A000919727964CAE5DAE6EAE7FAE279708E648
:1029B00019E01E8B0D8B49835A836B837C832FA96F
:1029C00038AD49AD5AAD2D833E834F83588773018F
:1029D000620123964CAD5DAD6EAD7FAD23974F8FF9
:1029E00058A369A37AA36BAD7CAD8DAD9EAD698B09
:1029F0007A8B8B8B9C8B8BA99CA9ADA9BEA98BA331
:102A00009CA3ADA3BEA34FA458A869A87AA84B8ED7
:102A10005C8E6D8E7E8E6BA47CA48DA49EA4698634
:102A20007A868B869C86ED89FE8905911591259184
:102A30003491D1014D905D906D907D901D014D813F
:102A40005E816F817885B62F672F742F452F5B2F9E
:102A5000400E511E621E731E0D811E812F8138850E
:102A600000951095209530958F8C98A0A9A0BAA0BC
:102A7000082119212A213B218D809E80AF80B884B6
:102A800089899A89AB89BC8988229922AA22BB228A
:102A9000082519252A253B25040D151D261D371D42
:102AA0002A013B01440C551C661C771C411C440C3C
:102AB000551C661C771C411C8D809E80AF80B8849D
:102AC000982D8B2CBA2CA92C992E80FAB794A79408
:102AD00097948794B7F884249524A624B7242A01D0
:102AE0003B0140FA779467945794479477F840FAFB
:102AF000779467945794479477F840FA779467945B
:102B00005794479477F884249524A624B724800EFC
:102B1000911EA21EB31EC80CD91CEA1CFB1C098105
:102B20001A812B813C81A02F032F322F212F1A2FA6
:102B3000000F111F221F331F011DD901C801880F6B
:102B4000991FAA1FBB1F811D49815A816B817C81FE
:102B500040FB779567955795479577F940FB7795B3
:102B600067955795479577F98C019D01042715279F
:102B70002627372749815A816B817C81FA01AB0175
:102B8000BF01440F551F661F771F411D440F551F7E
:102B9000661F771F411DDB01CA01880F991FAA1FFD
:102BA000BB1F811DB901A801482759276A277B2728
:102BB00089849A84AB84BC844B8C5C8C6D8C7E8CB9
:102BC00084249524A624B72409811A812B813C8171
:102BD00080229122A222B3229301820189859A85C3
:102BE000AB85BC85082319232A233B2308251925F7
:102BF0002A253B25400F511F621F731F4BA05CA06D
:102C00006DA07EA04C0C5D1C6E1C7F1C4D865E86EC
:102C10006F86788ADB01CA018C0D9D1DAE1DBF1D1C
:102C20000D891E890C5F1F4F1E8B0D8B2B8D3C8DCC
:102C30004D8D5E8D2BA33CA34DA35EA3CF8CD8A05E
:102C4000E9A0FAA04F89588D2416350669F18988C4
:102C50009A88AB88BC888F8E98A2A9A2BAA20D814F
:102C60001E812F813885098B1A8B2B8B3C8B2D85F0
:102C70003E854F8558892D833E834F8358874985EC
:102C80005A856B857C854B8F5C8F6D8F7E8F4980DD
:102C90005A806B807C8049865A866B867C868983C5
:102CA0009A83AB83BC83BFCE68EA79E07E8B6D8B61
:102CB00022242394312CF101EF70FF273896EE0F78
:102CC000FF1FEE0FFF1F2D96EEACFFAC2D97EE0D04
:102CD000FF1D0281138124813581F1013D96EF7042
:102CE000FF273896EE0FFF1FEE0FFF1FEE0DFF1DA3
:102CF000C280D380E480F5804FE0420DE42FEF7076
:102D0000B601A7013A014B0160FA97948794779432
:102D1000679497F82B966CAE7DAE8EAE9FAE2B97D8
:102D20002D966EAD7FAD2D9744E0E49F600D711D33
:102D30001124FB01B096F88FEF8BF1013896EF70FC
:102D4000FF273896EE0FFF1FEE0FFF1F2D964EAD9B
:102D50005FAD2D974E0F5F1FEF89F88D4280538036
:102D600064807580FA0182809380A480B580840C91
:102D7000951CA61CB71C702E412E522E632EB3013B
:102D8000A201440F551F661F771F411D28013901FD
:102D9000E3E07694679457944794EA95D1F74426F4
:102DA000552666267726B80189019B0100FB3795D9
:102DB00027951795079537F900FB379527951795B0
:102DC000079537F94026512662267326480C591C70
:102DD0006A1C7B1CFAE0F694E794D794C794FA95A2
:102DE000D1F72B968CAC9DACAEACBFAC2B97C82466
:102DF000D924EA24FB2480FAB794A7949794879463
:102E0000B7F880FAB794A79497948794B7F88C246E
:102E10009D24AE24BF24840C951CA61CB71CEF89EE
:102E2000F88D82829382A482B5826D897E89FB01AE
:102E300045905590659074904F8A588E698E7A8E21
:102E40000D851E852F853889F22F232F302F012FD6
:102E50001F2F4D855E856F857889409550956095CB
:102E6000709549885A886B887C8844215521662151
:102E700077214D845E846F847888CD80DE80EF80FA
:102E8000F8844C205D206E207F206A017B01C424E1
:102E9000D524E624F7244F89588D698D7A8DC40E88
:102EA000D51EE61EF71E28013901440C551C661C70
:102EB000771C411C440C551C661C771C411C4D851D
:102EC0005E856F857889E42F472F762F652F5E2FDB
:102ED00040FB779567955795479577F94425552594
:102EE000662577252801390140FA7794679457942D
:102EF000479477F840FA779467945794479477F813
:102F000040FA779467945794479477F84425552569
:102F1000662577254C0D5D1D6E1D7F1D840E951E4B
:102F2000A61EB71E4F8C58A069A07AA0840C951CD1
:102F3000A61CB71CD82EE92EFA2ECB2ECC0CDD1CED
:102F4000EE1CFF1CC11C97018601000F111F221FE0
:102F5000331F011DAC01BD0140FB77956795579567
:102F6000479577F940FB779567955795479577F99A
:102F700068017901C426D526E626F726BC01AD01F5
:102F8000440F551F661F771F411D440F551F661FB5
:102F9000771F411D8A019B01000F111F221F331F44
:102FA000011DB701A6014027512762277327C98059
:102FB000DA80EB80FC8009851A852B853C85C0264C
:102FC000D126E226F326C822D922EA22FB22498012
:102FD0005A806B807C8004211521262137210C2505
:102FE0001D252E253F25400F511F621F731F4B8C3F
:102FF0005C8C6D8C7E8C480C591C6A1C7B1C480DAB
:10300000591D6A1D7B1D0FEF201A300A2D893E893C
:103010002C5F3F4F3E8B2D8B89849A84AB84BC847C
:103020008B8E9C8EAD8EBE8EA988BA88CB88DC88AC
:10303000AF8EB8A2C9A2DAA201E32016310419F1B9
:103040008D809E80AF80B884898A9A8AAB8ABC8A38
:10305000AD84BE84CF84D888AD82BE82CF82D8862C
:103060004D865E866F86788AC980DA80EB80FC8028
:10307000C986DA86EB86FC8689839A83AB83BC8318
:10308000DB01CA0118CE8FA098A4A9A4BAA4480D48
:10309000591D6A1D7B1D2D96EEADFFAD2D97428308
:1030A0005383648375838BA49CA4ADA4BEA4880DB4
:1030B000991DAA1DBB1D86839783A087B18789812F
:1030C0009A81AB81BC818FA498A8A9A8BAA8880DC1
:1030D000991DAA1DBB1D82879387A487B587898503
:1030E0009A85AB85BC858BA89CA8ADA8BEA8880D89
:1030F000991DAA1DBB1D86879787A08BB18B8FA8B2
:1031000098ACA9ACBAAC480C591C6A1C7B1C428A0E
:10311000538A648A758A8D859E85AF85B8894BAC44
:103120005CAC6DAC7EAC840D951DA61DB71D868B69
:10313000978BA08FB18F8D819E81AF81B8852396AB
:103140004CAC5DAC6EAC7FAC2397840D951DA61D79
:10315000B71D828F938FA48FB58F89899A89AB8988
:10316000BC8927964CAC5DAC6EAC7FAC2797840DC8
:10317000951DA61DB71D868F978FA0A3B1A3C45B15
:10318000DF4F0FB6F894DEBF0FBECDBFDF91CF91FA
:103190001F910F91FF90EF90DF90CF90BF90AF9075
:1031A0009F908F907F906F905F904F903F902F9067
:1031B00008956F927F928F929F92AF92BF92CF921B
:1031C000DF92EF92FF920F931F93CF93DF934C0107
:1031D0003B01EA019A0140E050E060E070E080E0ED
:1031E00090E003E00E94F120F401EE59FF4FA0802F
:1031F000B180C280D380E480F580068117810E946F
:10320000282120833183428353836483758386839B
:103210009783840106591F4F80E4A82E740122E28F
:10322000E20EF11C209721F1F8018081BA2CB81A26
:103230002B2D30E0C217D30708F4BC2ECB2CD12C99
:10324000A601B3019701280F311DC9010E94251E57
:10325000F80180818B0D8083CC19DD096C0C7D1CFD
:10326000803401F7C4010E944814F8011082DACFBB
:10327000DF91CF911F910F91FF90EF90DF90CF9052
:10328000BF90AF909F908F907F906F9008954F92D6
:103290005F926F927F928F929F92AF92BF92CF92E6
:1032A000DF92EF92FF920F931F93CF93DF93EC0186
:1032B0006B01942EA52E7C0182E2E80EF11CFE012A
:1032C000E659FF4F2081822F90E08E010E591F4F4B
:1032D000D701A80FB91F283380F420E82C938081F0
:1032E00090E047E350E0481B590B019660E070E026
:1032F0008E0D9F1D0E942E1E17C020E82C938081EA
:1033000090E04FE350E0481B590B019660E070E0FD
:103310008E0D9F1D0E942E1ECE010E94481488E330
:10332000F70111928A95E9F7D8018C901196BC901B
:1033300011971296FC9112971396EC91139714968D
:103340006C91149715967C911597282D3B2D4F2F36
:103350005E2F16968C91169717969C9100E20E940C
:103360000C21C901DA01AE01465A5F4F782E66245E
:10337000552444240B2F11272227332704291529EC
:1033800026293729492E5A2E6B2E77244424662469
:1033900077240429152926293729BA2FA92F982FF0
:1033A000882788279927BB27082B192B2A2B3B2BEB
:1033B000DA010D931D932D933C931397682D7B2D6C
:1033C0008F2F9E2F0E94C820FE01E25AFF4F60837C
:1033D000718382839383CE010E944814229669915F
:1033E0007991899199910E94C8206C8F7D8F8E8FE1
:1033F0009F8FCE15DF0599F7492D5A2D4132510582
:1034000010F040E250E0B701C601DF91CF911F916B
:103410000F91FF90EF90DF90CF90BF90AF909F9073
:103420008F907F906F905F904F900C94251E0F931C
:10343000CF93DF93EC019A01829606E3AB01BC01C6
:10344000CE010E94D31AFE01EE59FF4F2081318137
:103450004281538164817581868197813E5F4F4FA0
:103460005F4F6F4F7F4F8F4F9F4F2083318342833A
:1034700053836483758386839783CE01DF91CF91D5
:103480000F910C9448146F927F928F929F92AF92FB
:10349000BF92CF92DF92EF92FF920F931F93CF9341
:1034A000DF93CDB7DEB7A0970FB6F894DEBF0FBE9F
:1034B000CDBF7C014B013A0169015801DC01ED915E
:1034C000FC910484F585E02D40E250E0BE016F5F81
:1034D0007F4F0995B7016E5D7F4F0CE59301A40105
:1034E000C7010E94D31AF701EE59FF4F20813181A5
:1034F0004281538164817581868197813E5F4F4F00
:103500005F4F6F4F7F4F8F4F9F4F20833183428399
:1035100053836483758386839783C7010E9448140D
:10352000D701ED91FC910284F385E02D40E250E05B
:10353000BE016F5F7F4FC7010995D701ED91FC91E7
:103540000484F585E02DA501B601C701099560E267
:1035500070E0CE0101960E94C21AA0960FB6F894B0
:10356000DEBF0FBECDBFDF91CF911F910F91FF90B6
:10357000EF90DF90CF90BF90AF909F908F907F9013
:103580006F900895680F791F8617970721F0FC0147
:1035900010820196F9CF089521E931E0FC013183D1
:1035A0002083089508958F929F92AF92BF92CF92F9
:1035B000DF92EF92FF920F93CF93DF9300D0CDB7BE
:1035C000DEB74C017B01BA016901DC01ED91FC9190
:1035D0000680F781E02D49837A8309955C01D40147
:1035E000ED91FC910084F185E02DC401099569817C
:1035F0007A81AC14BD0428F0A601C7010E94251EE3
:1036000024C0D401ED91FC910284F385E02DA60144
:10361000C4010995D401ED91FC910480F581E02D60
:10362000C40109956C01D401ED91FC910484F585E8
:10363000E02DAC01B701C4010995D401ED91FC91D5
:103640000084F185E02DC401099547018C0C9D1C77
:10365000A5014C195D09602F70E0C4010E942E1E67
:10366000F701E815F90521F0908190279193F9CFA2
:103670000F900F90DF91CF910F91FF90EF90DF901F
:10368000CF90BF90AF909F908F9008950895823013
:10369000E8F4E82FF0E0EE0FFF1FE55FFE4F7183C7
:1036A0006083813041F0809169008C7F482B40938A
:1036B0006900E89A089580916900440F551F440FEE
:1036C000551F837F482B40936900E99A0895823003
:1036D00078F4813011F0E89801C0E998E82FF0E023
:1036E000EE0FFF1FE55FFE4F86E49BE19183808331
:1036F00008951F920F920FB60F9211242F933F93AC
:103700004F935F936F937F938F939F93AF93BF93E9
:10371000EF93FF93E0910B01F0910C010995FF915C
:10372000EF91BF91AF919F918F917F916F915F9139
:103730004F913F912F910F900FBE0F901F901895B2
:103740001F920F920FB60F9211242F933F934F9316
:103750005F936F937F938F939F93AF93BF93EF93F9
:10376000FF93E0910D01F0910E010995FF91EF910A
:10377000BF91AF919F918F917F916F915F914F9189
:103780003F912F910F900FBE0F901F90189583308F
:1037900081F028F4813099F08230A1F008958730CB
:1037A000A9F08830B9F08430D1F4809180008F7D09
:1037B00003C0809180008F7780938000089584B546
:1037C0008F7702C084B58F7D84BD08958091B0004D
:1037D0008F7703C08091B0008F7D8093B0000895F3
:1037E000CF93DF9390E0FC01E458F54F2491FC0166
:1037F000E057F54F8491882361F190E0880F991F7D
:10380000FC01E854F54FC591D491FC01E255F54F08
:10381000A591B491611109C09FB7F8948881209552
:1038200082238883EC912E230BC0623061F49FB712
:10383000F8943881822F809583238883EC912E2BF6
:103840002C939FBF06C08FB7F894E8812E2B288356
:103850008FBFDF91CF9108951F93CF93DF93282FD0
:1038600030E0F901E859F54F8491F901E458F54F3A
:10387000D491F901E057F54FC491CC23C9F0162F2C
:1038800081110E94C71BEC2FF0E0EE0FFF1FE255E5
:10389000F54FA591B4918FB7F894111105C09C9183
:1038A000ED2FE095E92302C0EC91ED2BEC938FBF57
:1038B000DF91CF911F910895CF93DF93282F30E0B0
:1038C000F901E859F54F8491F901E458F54FD49185
:1038D000F901E057F54FC491CC2391F081110E947A
:1038E000C71BEC2FF0E0EE0FFF1FEC55F54FA59135
:1038F000B491EC91ED2381E090E021F480E002C0EE
:1039000080E090E0DF91CF9108950C941C1DCF933F
:10391000DF938230910510F482E090E0E09152054F
:10392000F091530520E030E0C0E0D0E0309711F195
:103930004081518148175907C0F04817590761F471
:1039400082819381209719F09B838A832BC0909367
:1039500053058093520526C02115310519F04217F1
:10396000530718F49A01BE01DF01EF010280F381D1
:10397000E02DDCCF2115310509F1281B390B24304E
:10398000310590F412968D919C91139761157105F4
:1039900021F0FB019383828304C0909353058093AD
:1039A0005205FD01329644C0FD01E20FF31F8193E1
:1039B0009193225031092D933C933AC020915005A8
:1039C00030915105232B41F42091020130910301E4
:1039D0003093510520935005209100013091010151
:1039E0002115310541F42DB73EB7409104015091A6
:1039F0000501241B350BE0915005F0915105E217AC
:103A0000F307A0F42E1B3F0B2817390778F0AC0101
:103A10004E5F5F4F2417350748F04E0F5F1F5093DE
:103A20005105409350058193919302C0E0E0F0E08E
:103A3000CF01DF91CF9108950F931F93CF93DF9321
:103A4000009709F48CC0FC01329713821282009116
:103A50005205109153050115110581F42081318122
:103A6000820F931F20915005309151052817390777
:103A700079F5F0935105E093500571C0D80140E00D
:103A800050E0AE17BF0750F412962D913C9113975A
:103A9000AD012115310509F1D901F3CF9D01DA01FD
:103AA0003383228360817181860F971F821793076A
:103AB00069F4EC0128813981260F371F2E5F3F4FB3
:103AC000318320838A819B8193838283452B29F4D0
:103AD000F0935305E093520542C01396FC93EE9386
:103AE0001297ED01499159919E01240F351FE2175C
:103AF000F30771F480819181840F951F02961196CE
:103B00009C938E938281938113969C938E931297AC
:103B1000E0E0F0E0D80112968D919C911397009708
:103B200019F0F8018C01F6CF8D919C9198012E5FD0
:103B30003F4F820F931F2091500530915105281758
:103B4000390769F4309729F4109253051092520501
:103B500002C0138212821093510500935005DF9129
:103B6000CF911F910F9108958F929F92AF92BF9224
:103B7000CF92DF92EF92FF92CF93DF93EC016881B7
:103B800079818A819B81611571058105910521F4F7
:103B900064E279ED8BE597E02DE133EF41E050E011
:103BA0000E94A92049015A019B01AC01A7EAB1E496
:103BB0000E94DE206B017C01ACEEB4EFA501940104
:103BC0000E94EC20DC01CB018C0D9D1DAE1DBF1DA4
:103BD000B7FF03C00197A109B04888839983AA83DE
:103BE000BB83BC01CD019F77DF91CF91FF90EF9018
:103BF000DF90CF90BF90AF909F908F9008950E94DC
:103C0000B41D089586E091E00E94B41D089560936C
:103C100006017093070180930801909309010895AC
:103C200081E090E0F8940C946921F8940C94692157
:103C3000FB01DC0104C08D910190801921F44150F9
:103C40005040C8F7881B990B0895FB01DC0102C0A6
:103C500001900D9241505040D8F70895DC0101C009
:103C60006D9341505040E0F708955058BB27AA2764
:103C70000E944D1E0C94C71F0E94B91F38F00E946D
:103C8000C01F20F039F49F3F19F426F40C94B61F9E
:103C90000EF4E095E7FB0C94B01FE92F0E94D81FAB
:103CA00058F3BA17620773078407950720F079F471
:103CB000A6F50C94FA1F0EF4E0950B2EBA2FA02D4A
:103CC0000B01B90190010C01CA01A0011124FF27C9
:103CD000591B99F0593F50F4503E68F11A16F040C4
:103CE000A22F232F342F4427585FF3CF46953795C3
:103CF0002795A795F0405395C9F77EF41F16BA0B88
:103D0000620B730B840BBAF09150A1F0FF0FBB1F35
:103D1000661F771F881FC2F70EC0BA0F621F731F7E
:103D2000841F48F4879577956795B795F7959E3FDB
:103D300008F0B0CF9395880F08F09927EE0F97956C
:103D4000879508950E948C1F08F481E008950E94D1
:103D5000BB1E0C94C71F0E94C01F58F00E94B91FC1
:103D600040F029F45F3F29F00C94B01F51110C94DE
:103D7000FB1F0C94B61F0E94D81F68F39923B1F360
:103D8000552391F3951B550BBB27AA276217730781
:103D9000840738F09F5F5F4F220F331F441FAA1F15
:103DA000A9F335D00E2E3AF0E0E832D091505040D1
:103DB000E695001CCAF72BD0FE2F29D0660F771F7F
:103DC000881FBB1F261737074807AB07B0E809F065
:103DD000BB0B802DBF01FF2793585F4F3AF09E3FEA
:103DE000510578F00C94B01F0C94FB1F5F3FE4F377
:103DF000983ED4F3869577956795B795F7959F5F2D
:103E0000C9F7880F911D9695879597F90895E1E078
:103E1000660F771F881FBB1F621773078407BA07D7
:103E200020F0621B730B840BBA0BEE1F88F7E09532
:103E300008950E94201F6894B1110C94FB1F0895EF
:103E40000E94E01F88F09F5798F0B92F9927B7512B
:103E5000B0F0E1F0660F771F881F991F1AF0BA952E
:103E6000C9F714C0B13091F00E94FA1FB1E0089573
:103E70000C94FA1F672F782F8827B85F39F0B93F65
:103E8000CCF3869577956795B395D9F73EF49095E1
:103E90008095709561957F4F8F4F9F4F0895E8945F
:103EA00009C097FB3EF490958095709561957F4F82
:103EB0008F4F9F4F9923A9F0F92F96E9BB27939530
:103EC000F695879577956795B795F111F8CFFAF440
:103ED000BB0F11F460FF1BC06F5F7F4F8F4F9F4F71
:103EE00016C0882311F096E911C0772321F09EE8CF
:103EF000872F762F05C0662371F096E8862F70E035
:103F000060E02AF09A95660F771F881FDAF7880F0E
:103F10009695879597F90895990F0008550FAA0B64
:103F2000E0E8FEEF16161706E807F907C0F01216CC
:103F30001306E407F50798F0621B730B840B950BCF
:103F400039F40A2661F0232B242B252B21F4089524
:103F50000A2609F4A140A6958FEF811D811D0895C1
:103F600097F99F6780E870E060E008959FEF80EC2C
:103F7000089500240A9416161706180609060895CF
:103F800000240A9412161306140605060895092E35
:103F90000394000C11F4882352F0BB0F40F4BF2BA4
:103FA00011F460FF04C06F5F7F4F8F4F9F4F0895E4
:103FB00057FD9058440F551F59F05F3F71F04795DA
:103FC000880F97FB991F61F09F3F79F087950895BF
:103FD000121613061406551FF2CF4695F1DF08C0DE
:103FE000161617061806991FF1CF869571056105FB
:103FF00008940895E894BB2766277727CB0197F9A3
:1040000008950E948C1F08F48FEF08950E941920D4
:104010000C94C71F0E94B91F38F00E94C01F20F0E7
:10402000952311F00C94B01F0C94B61F11240C941E
:10403000FB1F0E94D81F70F3959FC1F3950F50E0AE
:10404000551F629FF001729FBB27F00DB11D639F4A
:10405000AA27F00DB11DAA1F649F6627B00DA11DF0
:10406000661F829F2227B00DA11D621F739FB00D96
:10407000A11D621F839FA00D611D221F749F332706
:10408000A00D611D231F849F600D211D822F762F9F
:104090006A2F11249F5750409AF0F1F088234AF07C
:1040A000EE0FFF1FBB1F661F771F881F91505040E8
:1040B000A9F79E3F510580F00C94B01F0C94FB1F94
:1040C0005F3FE4F3983ED4F3869577956795B7956F
:1040D000F795E7959F5FC1F7FE2B880F911D969589
:1040E000879597F9089597FB072E16F4009407D04B
:1040F00077FD09D00E94312107FC05D03EF4909550
:1041000081959F4F0895709561957F4F0895A1E225
:104110001A2EAA1BBB1BFD010DC0AA1FBB1FEE1F41
:10412000FF1FA217B307E407F50720F0A21BB30B8C
:10413000E40BF50B661F771F881F991F1A9469F708
:1041400060957095809590959B01AC01BD01CF0164
:104150000895052E97FB1EF400940E94C02057FD81
:1041600007D00E94872007FC03D04EF40C94C02097
:1041700050954095309521953F4F4F4F5F4F089593
:1041800090958095709561957F4F8F4F9F4F0895C3
:104190006927962769277827872778270895A29F78
:1041A000B001B39FC001A39F700D811D1124911D0B
:1041B000B29F700D811D1124911D08950E94CF2082
:1041C000A59F900DB49F900DA49F800D911D11246B
:1041D0000895B7FF0C94DE200E94DE20821B930B13
:1041E00008950F93083090F0982F872F762F652F22
:1041F000542F432F322F22270850F4CF220F331F82
:10420000441F551F661F771F881F991F0A95B2F715
:104210000F91089597FB10F8169400080F9308303B
:1042200098F00850232F342F452F562F672F782FC3
:10423000892F902DF4CF059497958795779567955D
:1042400057954795379527950A95AAF70F910895A1
:104250002A0D3B1D4C1D5D1D6E1D7F1D801F911F76
:104260000895AA1BBB1B51E107C0AA1FBB1FA617BD
:10427000B70710F0A61BB70B881F991F5A95A9F70F
:1042800080959095BC01CD010895EE0FFF1F05901C
:10429000F491E02D0994F999FECF92BD81BDF89A71
:1042A000992780B50895A8E1B0E042E050E00C9471
:1042B0005B21DC01CB01FC01F999FECF06C0F2BD08
:1042C000E1BDF89A319600B40D9241505040B8F7D4
:1042D000089515E0C3E6D5E004C0FE010E94452123
:0C42E0002196C436D107C9F7F894FFCF2F
:1042EC000000540520000100000002461B461B2361
:1042FC0053656E64696E67206D73672C2070656EF4
:10430C0064696E672000436F6E66696775726174CD
:10431C00696F6E206572726F7221002346696E613F
:10432C006C206B65792300234B6579207570646173
:10433C00746523000D0A006E616E00696E66006F75
:10434C007666002E00000000003910F30EBA0FD470
:10435C000FC60F1710000000001B143014B413B755
:10436C0013BA13D91847190A14171A431A00000064
:10437C000000000000A80FA80FA80FA80FA80FA8F6
:06438C000FA80FA80F00AE
:00000001FF
