:100000000C9463000C941A090C9441090C948B0015
:100010000C948B000C948B000C948B000C948B0034
:100020000C948B000C948B000C948B000C948B0024
:100030000C948B000C948B000C948B000C948B0014
:100040000C94E4010C948B000C9403030C94350382
:100050000C948B000C948B000C948B000C948B00F4
:100060000C948B000C948B0000000008000201002F
:100070000003040700000000000000000102040863
:100080001020408001020408102001020408102002
:10009000040404040404040402020202020203032E
:1000A00003030303000000002300260029000000D2
:1000B0000000250028002B0000000000240027007D
:1000C0002A00DC01650311241FBECFEFD8E0DEBF9C
:1000D000CDBF11E0A0E0B1E0EEE2F6E102C0059094
:1000E0000D92A435B107D9F722E0A4E5B1E001C033
:1000F0001D92AC3CB207E1F710E0C3E6D0E004C0CB
:100100002197FE010E94F10AC136D107C9F70E946A
:10011000A0040C94820A0C94000064E670E080E075
:1001200090E00E945F0226E040E051EE60E070E067
:1001300089ED91E00E9475050E949B0881111AC00B
:100140006AE071E089ED91E00E94D2034AE050E05C
:100150006091CF0189ED91E00E94980460E171E027
:1001600089ED91E00E94D20363E171E089ED91E0B5
:100170000E94DF036091CF0170E080E090E00E9478
:10018000D70260ED77E080E090E00E94DF026093AC
:100190009601709397018093980190939901EFE9EC
:1001A000F1E01192119281E0EF3CF807D1F787E579
:1001B00098E90C942807CF92DF92EF92FF920F9369
:1001C0001F93CF93DF9380919E0181113FC00E94C6
:1001D0002E026135744383409105C0F10FE911E0AF
:1001E000C0E0D0E04AE050E06091CF0189ED91E0BD
:1001F0000E94980468E271E089ED91E00E94D203C8
:1002000021964AE050E0BE0189ED91E00E9484040D
:1002100068E271E089ED91E00E94D203F8016191FA
:1002200071918F014AE050E089ED91E00E948404D1
:1002300089ED91E00E94DB03C831D10599F681E098
:1002400080939E0189ED91E00E94DA0520919A0148
:1002500030919B0140919C0150919D0124363105C4
:10026000410551050CF05BC0A0EDB7E00E94DE0A2D
:100270006B017C01F8E8CF0EF3E1DF1EE11CF11CFD
:100280008091960190919701A0919801B091990168
:10029000C80ED91EEA1EFB1E0E942E02C616D706E5
:1002A000E806F906E0F50E94B2078823C1F18091C3
:1002B00004018093540181E090E0FC01EC5AFE4F70
:1002C0008083019684329105C1F744E264E571E0D0
:1002D00080E00E94F50780E00E94020860ED77E070
:1002E00080E090E00E94DF02609396017093970196
:1002F000809398019093990180919A0190919B012C
:10030000A0919C01B0919D010196A11DB11D80930A
:100310009A0190939B01A0939C01B0939D010E9430
:100320002D07882309F43FC08091C4029091C50233
:10033000892BC9F580917F02909180028091040100
:1003400098130CC0E0917E02F0E0EE0FFF1FE35621
:10035000FE4F8081918101969183808380917E02FE
:1003600085FF21C080917E0287FD1DC080917E02A5
:1003700086FD17C080917E028F71806C40E060E046
:1003800070E00E94F5076AE271E089ED91E0DF918B
:10039000CF911F910F91FF90EF90DF90CF900C9431
:1003A000DF0380E8EBCFDF91CF911F910F91FF909A
:1003B000EF90DF90CF90089580E290E00E94F70ADE
:1003C0008F718093CF0108951F920F920FB60F92F5
:1003D00011242F933F938F939F93AF93BF9380915B
:1003E000D1019091D201A091D301B091D40130916B
:1003F000D00123E0230F2D3720F40196A11DB11D5C
:1004000005C026E8230F0296A11DB11D2093D0013F
:100410008093D1019093D201A093D301B093D401E2
:100420008091D5019091D601A091D701B091D801CA
:100430000196A11DB11D8093D5019093D601A09383
:10044000D701B093D801BF91AF919F918F913F9108
:100450002F910F900FBE0F901F9018952FB7F89403
:100460006091D1017091D2018091D3019091D4011A
:100470002FBF08953FB7F8948091D5019091D60190
:10048000A091D701B091D80126B5A89B05C02F3FF8
:1004900019F00196A11DB11D3FBFBA2FA92F982FAA
:1004A0008827820F911DA11DB11DBC01CD0142E025
:1004B000660F771F881F991F4A95D1F708958F926D
:1004C0009F92AF92BF92CF92DF92EF92FF926B0119
:1004D0007C010E943A024B015C01C114D104E10489
:1004E000F10401F10E94D6020E943A02DC01CB0124
:1004F00088199909AA09BB09883E9340A105B1054D
:1005000060F321E0C21AD108E108F10888EE880EF4
:1005100083E0981EA11CB11CC114D104E104F104B4
:1005200019F7DBCFFF90EF90DF90CF90BF90AF90A7
:100530009F908F900895789484B5826084BD84B52F
:10054000816084BD85B5826085BD85B5816085BDCE
:10055000EEE6F0E0808181608083E1E8F0E01082E7
:10056000808182608083808181608083E0E8F0E028
:10057000808181608083E1EBF0E080818460808312
:10058000E0EBF0E0808181608083EAE7F0E0808149
:1005900084608083808182608083808181608083A9
:1005A0008081806880831092C1000895089561154C
:1005B00071058105910511F00C94790A0895CF9386
:1005C000DF9300D000D0CDB7DEB76115710581058E
:1005D000910579F09B01AC0169833A834B835C837D
:1005E0000E94740A29813A814B815C810E94B00A81
:1005F00003C060E070E0CB010F900F900F900F9060
:10060000DF91CF9108951F920F920FB60F92112490
:100610002F938F939F93EF93FF93E091E901F091D4
:10062000EA018081E091EF01F091F00182FD12C0BA
:1006300090818091F2018F5F8F732091F301821777
:1006400051F0E091F201F0E0E752FE4F958F809378
:10065000F20101C08081FF91EF919F918F912F91C5
:100660000F900FBE0F901F9018951F920F920FB60C
:100670000F9211242F933F934F935F936F937F9328
:100680008F939F93AF93BF93EF93FF9389ED91E087
:100690000E94EB04FF91EF91BF91AF919F918F91D9
:1006A0007F916F915F914F913F912F910F900FBE6E
:1006B0000F901F90189589ED91E00E94AF0421E002
:1006C000892B09F420E0822F0895E9EDF1E01382EF
:1006D000128288EE93E0A0E0B0E084839583A68345
:1006E000B78387E491E09183808385EC90E09587E0
:1006F000848784EC90E09787868780EC90E0918BEC
:10070000808B81EC90E0938B828B82EC90E0958BD8
:10071000848B86EC90E0978B868B118E128E138ED5
:10072000148E0895CF92DF92EF92FF920F931F9352
:10073000CF93DF936C017A018B01C0E0D0E0CE153E
:10074000DF0589F0D8016D918D01D601ED91FC9105
:100750000190F081E02DC6010995892B11F47E01ED
:1007600002C02196ECCFC701DF91CF911F910F916D
:10077000FF90EF90DF90CF9008956115710579F0AB
:10078000FB0101900020E9F73197AF01461B570BA1
:10079000DC01ED91FC910280F381E02D099480E071
:1007A00090E008950C94BD03DC01ED91FC91019063
:1007B000F081E02D099462E371E00C94BD030F9386
:1007C0001F93CF93DF93EC010E94BD038C01CE01F8
:1007D0000E94DB03800F911FDF91CF911F910F913A
:1007E00008954F925F926F927F92EF92FF920F93D4
:1007F0001F93CF93DF93CDB7DEB7A1970FB6F894D1
:10080000DEBF0FBECDBF7C01FA01CB0119A22230A1
:1008100008F42AE08E010F5D1F4F422E512C612CEF
:10082000712CBF01A30192010E948E0AF901CA0135
:10083000015011096A3014F4605D01C0695CD8018F
:100840006C93232B242B252B61F7B801C7010E9441
:10085000BD03A1960FB6F894DEBF0FBECDBFDF91EA
:10086000CF911F910F91FF90EF907F906F905F90CD
:100870004F900895CF92DF92EF92FF920F931F93C4
:10088000CF93DF93EC016A017B012115310579F4E7
:10089000E881F9810190F081E02D642FDF91CF9103
:1008A0001F910F91FF90EF90DF90CF9009942A3025
:1008B0003105E9F477FF1AC06DE20E94D4038C0180
:1008C00044275527BA014C195D096E097F092AE0B2
:1008D000CE010E94F103800F911FDF91CF911F91F4
:1008E0000F91FF90EF90DF90CF9008952AE0B7012D
:1008F000A601CE01DF91CF911F910F91FF90EF9054
:10090000DF90CF900C94F1039A01AB01770F660B47
:10091000770B0C943A042115310541F4DC01ED917B
:10092000FC910190F081E02D642F09940C94F10367
:100930009A01462F50E060E070E00C948B0408951B
:100940000E949B020E949F040E948D00CDEDD4E086
:100950000E94DB002097E1F30E94DD04F9CFFC0147
:10096000918D228D892F90E0805C9F4F821B910991
:100970008F7399270895FC01918D828D981731F01E
:10098000828DE80FF11D858D90E008958FEF9FEF28
:100990000895FC01918D828D981761F0828DDF01A1
:1009A000A80FB11D5D968C91928D9F5F9F73928F62
:1009B00090E008958FEF9FEF08958BE593E0892BEA
:1009C00049F080E090E0892B29F00E945B038111BF
:1009D0000C9400000895FC01848DDF01A80FB11D67
:1009E000A35ABF4F2C91848D90E001968F73992765
:1009F000848FA689B7892C93A089B1898C91806452
:100A00008C93938D848D981306C00288F389E02D12
:100A100080818F7D80830895CF93DF93EC01888D53
:100A20008823C9F0EA89FB89808185FD05C0A889F2
:100A3000B9898C9186FD0FC00FB607FCF5CF808178
:100A400085FFF2CFA889B9898C9185FFEDCFCE01C2
:100A50000E94EB04E7CFDF91CF910895EF92FF92D0
:100A60000F931F93CF93DF93EC0181E0888F9B8DD1
:100A70008C8D981305C0E889F989808185FD24C093
:100A8000F62E0B8D10E00F5F1F4F0F731127E02E16
:100A90008C8DE8120CC00FB607FCFACFE889F989F3
:100AA000808185FFF5CFCE010E94EB04F1CF8B8DC5
:100AB000FE01E80FF11DE35AFF4FF0820B8FEA8928
:100AC000FB898081806207C0EE89FF896083E889A5
:100AD000F98980818064808381E090E0DF91CF910B
:100AE0001F910F91FF90EF900895CF92DF92EF92B8
:100AF000FF921F93CF93DF93EC016A017B01122FCA
:100B0000E889F98982E080834115514E61057105BC
:100B1000B1F060E079E08DE390E0A70196010E94DA
:100B20008E0ADA01C9010197A109B109B695A79505
:100B300097958795AC01411580E15807A8F0E889A1
:100B4000F989108260E874E88EE190E0A7019601CF
:100B50000E948E0ABA01A901415051096109710927
:100B60007695679557954795EC85FD855083EE857D
:100B7000FF854083188EEC89FD891083EA89FB8903
:100B8000808180618083EA89FB898081886080839D
:100B9000EA89FB89808180688083EA89FB8980817A
:100BA0008F7D8083DF91CF911F91FF90EF90DF9039
:100BB000CF900895CF93DF93EC01E881F98102840F
:100BC000F385E02D0995EA89FB8980818F7E8083FA
:100BD000EA89FB898081877F8083EA89FB8980811C
:100BE0008F778083EA89FB8980818F7D80838A8DDE
:100BF000898FDF91CF9108958627682F62956827A6
:100C0000062E669566956025062E669560256770AA
:100C1000082E892F669507946795902D8627069450
:100C200067959025862708952CB521602CBD25B1A8
:100C300041E050E060E070E00090050104C0440F26
:100C4000551F661F771F0A94D2F74095422345B976
:100C50009EBD0DB407FEFDCF2EB530E0322F22270A
:100C60008EBD0DB407FEFDCF4EB555B181E090E0CD
:100C7000A0E0B0E00090050104C0880F991FAA1FF2
:100C8000BB1F0A94D2F7852B85B98CB58E7F8CBD9E
:100C9000C901842B0895CF9380E090E00E94140650
:100CA0008091C602853091F580E090EB0E94140699
:100CB000682F8091C702811104C09091CA029111DE
:100CC00076C0E091C70281E08E0F8093C702F0E00A
:100CD000E358FD4F60838091C4029091C5020E9449
:100CE000FC059093C5028093C40280917F022091FD
:100CF000C70290E0049630E0821793070CF462C0BC
:100D00008091C702873408F05DC061C08091C6023F
:100D100087FF1BC0E0917F028091C60291E0980F8F
:100D20009093C602ED5F8E0FE82FF0E0E358FD4F81
:100D3000C0818091C4029091C5026C2F0E94FC0575
:100D40009093C5028093C4022EC08091C602833066
:100D5000F1F054F48823A9F08130E9F48091C402C1
:100D60009091C502C92F1AC08930B9F08A3099F420
:100D7000C091CA0290917F028DEF891B8093C602B9
:100D80000DC08091C4029091C502C82F07C08DE0AC
:100D900092E80E941406CAEA01C0CDE28091C60220
:100DA0008F5F8093C6028C2F90E098540DC0E09125
:100DB000C70281E08E0F8093C702F0E0E358FD4F39
:100DC00090837FCF8DE092E8CF910C941406CF9161
:100DD000089525B181E090E0A0E0B0E0AC01BD0154
:100DE0000090050104C0440F551F661F771F0A9429
:100DF000D2F7422B45B924B10090050104C0880FF9
:100E0000991FAA1FBB1F0A94D2F7822B84B961E0F5
:100E10008AE00E94CD0961E08AE00E94910961E0C8
:100E20008BE00E94910960E08CE00E94910961E0F2
:100E30008DE00E94910980E58CBD8DB581608DBDEE
:100E400060E082E00E94910961E082E00C94CD09AB
:100E5000E8980E941406E89A08958091C6028530A9
:100E600091F580917F022091C70290E0049630E0D6
:100E70008217930724F08091C702873420F184E021
:100E80008093C6028091C4029091C5029093C502DE
:100E90008093C40280917F02833430F081E090E03F
:100EA0009093C5028093C40280917E0286FF3EC06B
:100EB0008091CB02982F9F719F31C1F190917E025A
:100EC00089278F7199F18091C602843069F58091EC
:100ED0007802882351F080937F0210927E02109254
:100EE0007D0283E08093C70204C010927F021092BB
:100EF000C7028FEF9FEF9093C5028093C402609169
:100F0000CA02662351F08091C4029091C5020E94EA
:100F1000FC059093C5028093C40285E08093C602CD
:100F20008DED92E80E94140680E008958091C4023D
:100F30009091C502892B49F4E0917602F0917702F5
:100F4000309719F080E009950BC08FEF9FEFDC011F
:100F50008093790290937A02A0937B02B0937C02F3
:100F600081E008958091C602853099F48091C7028E
:100F700081110FC080E090E00E94280790FD09C019
:100F80008DE092E80E94280784E08093C60281E009
:100F9000089580E0089586FD05C0807E9091CB0283
:100FA0009F71890F80937E02E0917602F091770223
:100FB000309711F081E009958FEF9FEF9093C50274
:100FC0008093C4028091C4029091C5026091CA02CC
:100FD0000E94FC059093C5028093C40286E0809332
:100FE000C6028DE392E80C941406CF93C82F409369
:100FF0007F0250E080E892E00E94850A8C2FCF911A
:101000000C94CB079091C6029430B9F08823D1F3A9
:1010100093B7917F833021F0823021F020E003C02C
:1010200024E001C02CE0922B93BF93B7916093BF53
:10103000889593B79E7F93BFE5CF0895CF93C62F32
:101040008093CB024093CA023093C9022093C80216
:101050000E94E90680E090E00E94140685E092E894
:101060000E94140680E098EB0E94140682E00E9421
:10107000FD09892B19F480E090E0F6CF20E1C29FB2
:10108000C0011124876C90680E9414068091C802E8
:101090009091C90290560E94140686E096EC0E9438
:1010A000140682EA94E90E9414068CEA92EC0E94EB
:1010B0001406C091CA02CC2341F083E89AEC0E9446
:1010C00014068C2F90E09E6C06C08BE89AEC0E9470
:1010D00014068DE29EEC0E94140683E894EC0E94B4
:1010E000140680E598E90E94140687E79CEC0E94AC
:1010F000140680E090EE0E94140680E098EC0E94B6
:10110000140689E490EC0E94140684E08093C602E1
:101110008091CB028F7141F040E050E06BE476E0CB
:1011200080E00E94E80803C080E00E9408098091E6
:10113000CB02CF910895EF92FF920F931F93CF931D
:10114000DF931F92CDB7DEB730E2E32EF12C0FEF25
:101150001FEFC7010E94F70A682FC8010E94FC0513
:101160008C018FEFE81AF80A80E3E816F10489F79A
:10117000012B21F582E290E00E94F70A8130F1F420
:1011800080E290E00E94F70A182F81E290E00E942E
:10119000F70A482F84E290E049830E94FF0A612FFA
:1011A00070E026E0759567952A95E1F79C014981E5
:1011B000812F0E941E08812F8F7101C080E00F9047
:1011C000DF91CF911F910F91FF90EF9008950895B7
:1011D0008230E8F4E82FF0E0EE0FFF1FEA5FFE4FE9
:1011E00071836083813041F0809169008C7F482B4E
:1011F00040936900E89A089580916900440F551F53
:10120000440F551F837F482B40936900E99A089546
:10121000823078F4813011F0E89801C0E998E82F25
:10122000F0E0EE0FFF1FEA5FFE4F87EE98E091833C
:10123000808308951F920F920FB60F9211242F935F
:101240003F934F935F936F937F938F939F93AF934E
:10125000BF93EF93FF93E0910601F0910701099589
:10126000FF91EF91BF91AF919F918F917F916F917E
:101270005F914F913F912F910F900FBE0F901F9054
:1012800018951F920F920FB60F9211242F933F9330
:101290004F935F936F937F938F939F93AF93BF937E
:1012A000EF93FF93E0910801F09109010995FF91F7
:1012B000EF91BF91AF919F918F917F916F915F91CE
:1012C0004F913F912F910F900FBE0F901F90189547
:1012D000833081F028F4813099F08230A1F00895B4
:1012E0008730A9F08830B9F08430D1F48091800043
:1012F0008F7D03C0809180008F7780938000089558
:1013000084B58F7702C084B58F7D84BD08958091A8
:10131000B0008F7703C08091B0008F7D8093B000C4
:101320000895CF93DF9390E0FC01E458FF4F2491A0
:10133000FC01E057FF4F8491882361F190E0880F12
:10134000991FFC01E854FF4FC591D491FC01E2556F
:10135000FF4FA591B491611109C09FB7F89488819E
:10136000209582238883EC912E230BC0623061F498
:101370009FB7F8943881822F809583238883EC91DE
:101380002E2B2C939FBF06C08FB7F894E8812E2B8D
:1013900028838FBFDF91CF9108951F93CF93DF9361
:1013A000282F30E0F901E859FF4F8491F901E45802
:1013B000FF4FD491F901E057FF4FC491CC23C9F0FE
:1013C000162F81110E946809EC2FF0E0EE0FFF1F2D
:1013D000E255FF4FA591B4918FB7F894111105C054
:1013E0009C91ED2FE095E92302C0EC91ED2BEC935D
:1013F0008FBFDF91CF911F910895CF93DF93282F57
:1014000030E0F901E859FF4F8491F901E458FF4FAA
:10141000D491F901E057FF4FC491CC2391F0811191
:101420000E946809EC2FF0E0EE0FFF1FEC55FF4F14
:10143000A591B491EC91ED2381E090E021F480E05E
:1014400002C080E090E0DF91CF9108958F929F924B
:10145000AF92BF92CF92DF92EF92FF92CF93DF9342
:10146000EC01688179818A819B8161157105810513
:10147000910521F464E279ED8BE597E02DE133EFFE
:1014800041E050E00E94B00A49015A019B01AC01C1
:10149000A7EAB1E40E94DE0A6B017C01ACEEB4EF76
:1014A000A50194010E94EC0ADC01CB018C0D9D1D6D
:1014B000AE1DBF1DB7FF03C00197A109B0488883C7
:1014C0009983AA83BB83BC01CD019F77DF91CF9124
:1014D000FF90EF90DF90CF90BF90AF909F908F9054
:1014E00008950E94260A089580E091E00E94260A4D
:1014F000089560930001709301018093020190931D
:1015000003010895F8940C94150BFB01DC0102C053
:1015100001900D9241505040D8F70895A1E21A2E43
:10152000AA1BBB1BFD010DC0AA1FBB1FEE1FFF1F87
:10153000A217B307E407F50720F0A21BB30BE40BD7
:10154000F50B661F771F881F991F1A9469F760951E
:101550007095809590959B01AC01BD01CF010895D8
:10156000052E97FB1EF400940E94C70A57FD07D072
:101570000E948E0A07FC03D04EF40C94C70A5095C3
:101580004095309521953F4F4F4F5F4F089590956F
:101590008095709561957F4F8F4F9F4F0895A29FC3
:1015A000B001B39FC001A39F700D811D1124911D37
:1015B000B29F700D811D1124911D08950E94CF0AC4
:1015C000A59F900DB49F900DA49F800D911D112497
:1015D0000895B7FF0C94DE0A0E94DE0A821B930B6B
:1015E0000895EE0FFF1F0590F491E02D0994F999ED
:1015F000FECF92BD81BDF89A992780B50895A8E1E4
:10160000B0E042E050E00C94070BDC01CB01FC01A0
:10161000F999FECF06C0F2BDE1BDF89A319600B44B
:0E1620000D9241505040B8F70895F894FFCF56
:10162E00010000000102E708E7084E6F6465200024
:10163E003A2000436F6E66696775726174696F6EEA
:10164E00206572726F7221002C00202D3E20616386
:10165E006B000D0A006E616E00696E66006F766635
:10166E00002E00000000002E059203AF04C904BB3B
:04167E00040C050053
:00000001FF
