:100000000C9464050C94461B0C946D1B0C948C058D
:100010000C948C050C948C050C948C050C948C051C
:100020000C948C050C948C050C948C050C948C050C
:100030000C948C050C948C050C948C050C948C05FC
:100040000C94120D0C948C050C94310E0C94630ED0
:100050000C948C050C948C050C948C050C948C05DC
:100060000C948C050C948C0500000000000000002E
:100070000000000063DEB540000000005BFF984018
:100080000000000000000000000000000000000070
:1000900000000000000000000E5CA0400000000016
:1000A0000000000000000000000000000000000050
:1000B0000000000000000000000000000000000040
:1000C0000000000000000000000000000000000030
:1000D0000000000000000000000000000000000020
:1000E0000000000000000000000000000000000010
:1000F0007329BF3E00000000000000000000000067
:1001000000000000000000000000000000000000EF
:1001100000000000000000000000000000000000DF
:1001200000000000000000000000000000000000CF
:1001300000000000E17A644089CA683FAD0B0D40C1
:100140005A320B40A446CD4000000000CDF9B84023
:1001500000000000E38EBF40D01AC2400000000043
:10016000000000000000000000000000000000008F
:10017000000000000000000000000000000000007F
:10018000000000000000000063DEB5400000000039
:10019000E17A644000000000B9198F40D125B03FDA
:1001A000D5719C4030C8EE40CB50CD40B60CE840F5
:1001B000B2C50641202896403D91924000000000C3
:1001C000000000000000000000000000000000002F
:1001D00000000000D1951441C812D2400000000078
:1001E000000000000000000000000000000000000F
:1001F00089CA683FB9198F40000000006666464012
:10020000CDCCEC3F9808CA4057F8FB4048E1BA40D3
:100210000000000098A6D540880CD94000000000DE
:1002200000000000000000000000000000000000CE
:100230000000000000000000431AF040E756CE40E6
:1002400000000000000000005BFF9840000000007C
:10025000AD0B0D40D125B03F666646400000000062
:10026000260B674029B6D7400000000000000000C0
:100270000000000000000000F5C0A04000000000E9
:10028000000000000000000000000000000000006E
:1002900000000000000000001AB6CE40B206DB40AD
:1002A000000000000000000000000000000000004E
:1002B0005A320B40D5719C40CDCCEC3F260B6740A9
:1002C0000000000020478F408AD8CF400000000087
:1002D000000000000000000084C002410000000097
:1002E000000000000000000000000000000000000E
:1002F00000000000B81EC5407502C04019A193401F
:10030000000000005F831B410000000000000000AF
:10031000A446CD4030C8EE409808CA4029B6D74020
:1003200020478F400000000033338340DD324241DC
:1003300000000000139E3C41623B3C410000000075
:1003400000000000000000000000000000000000AD
:1003500000000000E38DEC3F952A50406FA00E3E58
:1003600000000000E46FA840000000000000000052
:1003700000000000CB50CD4057F8FB4000000000CB
:100380008AD8CF40333383400000000000000000D3
:10039000000000000000000052892F410000000012
:1003A000000000000000000000000000000000004D
:1003B000000000007CC4A14057215C3FB0AA8140EE
:1003C0000000000019C8B640000000000000000056
:1003D000CDF9B840B60CE84048E1BA400000000052
:1003E00000000000DD32424100000000000000007B
:1003F000DCD95C40000000007C0FA140B81EE54045
:1004000071BA0B410000000007A8FB4073FA2541B8
:10041000000000009A995D4100000000DA5144415B
:100420000000000000000000000000007329BF3E33
:1004300000000000B2C506410000000000000000FE
:10044000000000000000000000000000DCD95C405B
:1004500000000000000000002F278C407B2AA940EC
:10046000F591AB40E7AE5E40000000007034014102
:10047000F5B5FD4000000000000000000000000095
:10048000000000000000000000000000000000006C
:10049000E38EBF402028964098A6D540000000007B
:1004A00000000000139E3C4100000000000000001E
:1004B0000000000000000000D70E9E3E000000007B
:1004C000000000000000000000000000000000002C
:1004D000000000000000000000000000000000001C
:1004E00000000000000000000E5CA04000000000C2
:1004F000D01AC2403D919240880CD940F5C0A0402E
:1005000084C00241623B3C4152892F417C0FA14093
:100510002F278C40D70E9E3E000000006E5A1A41D5
:1005200000000000BAA0FA40F0980A410000000064
:1005300000000000000000000000000000000000BB
:1005400000000000000000000000000000000000AB
:10055000000000000000000000000000000000009B
:10056000000000000000000000000000B81EE54090
:100570007B2AA940000000006E5A1A4100000000CA
:100580000000A040CDCC0C40B5FB3C408004514065
:10059000E196904000000000000000000000000014
:1005A000000000000000000000000000000000004B
:1005B000000000000000000000000000000000003B
:1005C00000000000000000000000000071BA0B41B4
:1005D000F591AB4000000000000000000000A040CA
:1005E000000000009FCDAE40AB7603409154AB407D
:1005F00000000000000000000000000000000000FB
:1006000000000000000000000000000000000000EA
:1006100000000000000000000000000000000000DA
:1006200000000000000000000000000000000000CA
:10063000E7AE5E4000000000BAA0FA40CDCC0C400E
:100640009FCDAE4000000000000000000000000050
:100650004096C840000000000000000000000000BC
:10066000000000000000000000000000000000008A
:10067000000000000000000000000000000000007A
:1006800000000000000000000000000007A8FB4080
:100690000000000000000000F0980A41B5FB3C405B
:1006A000AB76034000000000000000003A157340E4
:1006B000157E444000000000000000000000000023
:1006C000000000000000000000000000000000002A
:1006D000000000000000000000000000000000001A
:1006E00000000000000000000000000073FA254137
:1006F00070340141000000000000000080045140FF
:100700009154AB40000000003A1573400000000017
:100710000000204000000000000000000000000079
:1007200000000000000000000000000000000000C9
:1007300000000000000000000000000000000000B9
:1007400000000000000000000000000000000000A9
:10075000F5B5FD400000000000000000E19690406B
:10076000000000004096C840157E44400000204034
:100770000000000000000000000000000000000079
:100780000000000000000000000000000000000069
:1007900000000000D195144100000000000000009E
:1007A000B81EC540E38DEC3F7CC4A1409A995D41E1
:1007B0000000000000000000000000000000000039
:1007C0000000000000000000000000000000000029
:1007D0000000000000000000F3E48640DA8ADF3FFA
:1007E0000AD7E33F95F57B400000000000000000C1
:1007F00000000000C812D240431AF0401AB6CE40A2
:100800007502C040952A504057215C3F000000000F
:1008100000000000000000000000000000000000D8
:1008200000000000000000000000000000000000C8
:1008300000000000F3E4864000000000CDCC4C40F6
:10084000B425A54044F2A7400000000000000000CD
:100850000000000000000000E756CE40B206DB407A
:1008600019A193406FA00E3EB0AA8140DA514441D5
:100870000000000000000000000000000000000078
:100880000000000000000000000000000000000068
:1008900000000000DA8ADF3FCDCC4C4000000000B1
:1008A0000000000000000000000000000000000048
:1008B0000000000000000000000000000000000038
:1008C0000000000000000000000000000000000028
:1008D0000000000000000000000000000000000018
:1008E0000000000000000000000000000000000008
:1008F000000000000AD7E33FB425A5400000000037
:1009000000000000000000000000000000000000E7
:1009100000000000000000000000000000000000D7
:100920005F831B41E46FA84019C8B6400000000077
:1009300000000000000000000000000000000000B7
:1009400000000000000000000000000000000000A7
:100950000000000095F57B4044F2A7400000000035
:100960000000000000000000982F8A429144377177
:10097000CFFBC0B5A5DBB5E95BC25639F111F15922
:10098000A4823F92D55E1CAB98AA07D8015B831264
:10099000BE853124C37D0C55745DBE72FEB1DE8010
:1009A000A706DC9B74F19BC1C1699BE48647BEEF3F
:1009B000C69DC10FCCA10C246F2CE92DAA84744ACA
:1009C000DCA9B05CDA88F97652513E986DC631A840
:1009D000C82703B0C77F59BFF30BE0C64791A7D51F
:1009E0005163CA0667292914850AB72738211B2EA7
:1009F000FC6D2C4D130D385354730A65BB0A6A768F
:100A00002EC9C281852C7292A1E8BFA24B661AA89A
:100A1000708B4BC2A3516CC719E892D1240699D6AA
:100A200085350EF470A06A1016C1A419086C371E23
:100A30004C774827B5BCB034B30C1C394AAAD84E01
:100A40004FCA9C5BF36F2E68EE828F746F63A5783C
:100A50001478C8840802C78CFAFFBE90EB6C50A4CF
:100A6000F7A3F9BEF27871C6000000080002010089
:100A70000003040700000000000000000102040859
:100A800010204080010204081020010204081020F8
:100A90000404040404040404020202020202030324
:100AA00003030303000000002300260029000000C8
:100AB0000000250028002B00000000002400270073
:100AC0002A004009930E0E0D11241FBECFEFD8E06F
:100AD000DEBFCDBF11E0A0E0B1E0E6E8F2E402C085
:100AE00005900D92AC38B107D9F725E0ACE8B1E03C
:100AF00001C01D92A934B207E1F715E0C3E6D5E0C5
:100B000004C02197FE010E941221C136D107C9F706
:100B10000E94780F0C94E21D0C940000CF92DF929B
:100B2000EF92FF920F931F93CF93DF93CDB7DEB772
:100B30000DB71EB7262F30E0220F331FA9014F5FDC
:100B40005F4FEDB7FEB7E41BF50B0FB6F894FEBF91
:100B50000FBEEDBF4DB75EB74F5F5F4F7A01FFEF3E
:100B6000EF1AFF0ADA01782F6C018C2D871B86178C
:100B7000B8F4F60181916F01982F92959F70906360
:100B80009A330CF0995D9C938F7080638A330CF0DC
:100B9000895DF7018083F2E0EF0EF11C1296E5CF3C
:100BA000FA01E20FF31F1082BA0182E594E00E947D
:100BB000000F0FB6F8941EBF0FBE0DBFDF91CF918F
:100BC0001F910F91FF90EF90DF90CF90089590913B
:100BD000F703E4E4F2E020E030E0291780F4A90113
:100BE00060812F5F3F4F7D966813F7CF2DE1249FE3
:100BF000C001259F900D1124895B9D4F0895089594
:100C00004091F70324E432E090E0941759F0235E1A
:100C10003F4FF9017D975081581302C0892F0895E5
:100C20009F5FF3CF0895CF93C42F8093D40150E0FA
:100C300082E991E00E94F21DC093910184E08093CB
:100C4000900110928C0110928D0110928E011092E1
:100C50008F01CF9108952F923F924F925F926F92A2
:100C60007F928F929F92AF92BF92CF92DF92EF923C
:100C7000FF920F931F93CF93DF93CDB7DEB7C05B87
:100C8000D1090FB6F894DEBF0FBECDBF64E670E0A9
:100C900080E090E00E948D0D26E040E052EC61E0A3
:100CA00070E082E594E00E944D100E94351381119E
:100CB00006C06FE071E082E594E00E94060F60914B
:100CC0003A0470E080E090E00E94050EFE01E45BD3
:100CD000FF4FCE0189569F4F6F0110821182128201
:100CE000138214823596E817F907B9F71091F703C4
:100CF00080913A0490E0019740E6489F9001499F17
:100D0000300D1124C90188599F4F7C0101E08DE10C
:100D1000782E95E0692EF70185909590A590B49076
:100D200020E030E0A901C501B4010E946F1E8823B4
:100D300031F1812F90E0789EF001799EF00D112421
:100D4000EC5BFD4F0083689EF001699EF00D11245D
:100D5000EC0DFD1D008381829282A382B4821F5F0D
:100D60001F3069F41093F703212CDE01A45BBF4F01
:100D7000C956DF4FB983A883C759D0401EC00F5F43
:100D8000B4E0EB0EF11C093109F0C5CFEBCF2DE13A
:100D9000C156DF4FA881B981CF59D0402A9FF001B9
:100DA0002B9FF00D1124EC5BFD4F0183C256DF4FEA
:100DB0004881CE59D040428323948091F703C7568F
:100DC000DF4F8883C959D040281608F0D5C1FE01ED
:100DD0003196108211821282138214823596C9567E
:100DE000DF4F88819981C759D040E817F90789F703
:100DF000A22DB0E0C156DF4FB983A883CF59D040B0
:100E00002DE12A9FF0012B9FF00D1124EC5BFD4F8B
:100E10000081802F90E0019740E6489F9001499F14
:100E2000300D1124C90188599F4F7C01DD24D394D2
:100E300010E0F70185909590A590B49020E030E007
:100E4000A901C501B4010E946F1E882389F0E1E069
:100E5000F0E0EC0FFD1F95E0919FE00DF11D1124D6
:100E6000D08281829282A382B4821F5F1F3039F0C8
:100E7000D394A4E0EA0EF11CB9E1DB12DACFC2563A
:100E8000DF4F0883CE59D040312CC555DF4F188233
:100E9000CB5AD040C455DF4F1882CC5AD040E9EA33
:100EA000C355DF4FE883CD5AD040F3E4C255DF4F3E
:100EB000F883CE5AD040C955DF4F1882C75AD04068
:100EC000C855DF4F1882C85AD04029EAC755DF4FAE
:100ED0002883C95AD04043E4C655DF4F4883CA5AD5
:100EE000D040C756DF4F8881C959D040381609F421
:100EF0004ECFDE011196C656DF4FB983A883CA597B
:100F0000D040C456DF4F1882CC59D040ECE4F0E01A
:100F1000EC0FFD1F25E0239DE00DF11D1124CB55A5
:100F2000DF4FF983E883C55AD0403196C155DF4F72
:100F3000F983E883CF5AD040C456DF4F4881CC595B
:100F4000D040411709F416C1CB55DF4FA881B981B4
:100F5000C55AD040BC91C356DF4FB883CD59D0405D
:100F6000C656DF4FE881F981CA59D0408081B81355
:100F7000E8C0C155DF4FA881B981CF5AD0408D91CB
:100F80009D910D90BC91A02DCF55DF4F8883998303
:100F9000AA83BB83C15AD0402FE135E84FE051E42A
:100FA000BC01CD010E94021E2B013C01C656DF4F41
:100FB000E881F981CA59D040C180D280E380F480B1
:100FC0002AE037ED4BE451E4C701B6010E94021E4E
:100FD0004B015C01A3019201C301B2010E94D31F26
:100FE00020E030E0A9010E94031E2B013C01A50175
:100FF0009401C501B4010E94D31F9B01AC01C30140
:10100000B2010E94031E4B015C01C955DF4F2881CC
:10101000C75AD040C855DF4F3881C85AD040C7554D
:10102000DF4F4881C95AD040C655DF4F5881CA5A50
:10103000D0400E946F1E1816CCF0C955DF4F888231
:10104000C75AD040C855DF4F9882C85AD040C755BC
:10105000DF4FA882C95AD040C655DF4FB882CA5A5E
:10106000D040C356DF4F0881CD59D04028EB3EE138
:1010700045E05EE3CF55DF4F688179818A819B81AE
:10108000C15AD0400E94021E4B015C0120E73DE3A3
:1010900042EA50E4C701B6010E94021E6B017C01C6
:1010A000A5019401C501B4010E94D31F20E030E0E6
:1010B000A9010E94031E4B015C01A7019601C70113
:1010C000B6010E94D31F9B01AC01C501B4010E946F
:1010D000031E6B017C01C555DF4F2881CB5AD040E0
:1010E000C455DF4F3881CC5AD040C355DF4F4881BB
:1010F000CD5AD040C255DF4F5881CE5AD0400E94C1
:101100006F1E1816F4F0C555DF4FC882CB5AD04079
:10111000C455DF4FD882CC5AD040C355DF4FE88248
:10112000CD5AD040C255DF4FF882CE5AD040C35678
:10113000DF4FF881CD59D040C256DF4FF883CE59EA
:10114000D040C456DF4F2881CC59D0402F5FC456C1
:10115000DF4F2883CC59D040C656DF4F8881998114
:10116000CA59D0400596C656DF4F99838883CA591D
:10117000D040E2CE3394B5CEC756DF4FA881C959CF
:10118000D04090E9A99FB0011124072E000C880BD4
:10119000990B6093450470934604809347049093A1
:1011A00048040E941C1F9B01AC0160E07AEB8BEDB0
:1011B0009AE40E94741E60934104709342048093E9
:1011C00043049093440450913A0404E412E09801DB
:1011D00040E0C756DF4FB881C959D0404B1761F086
:1011E000235E3F4FF9017D97E0815E1718F440932D
:1011F0003C0402C04F5FEDCF0E94E61E0E940D0E20
:1012000060934002709341028093420290934302A4
:101210003091F70390913A04EBE4F2E080E0831719
:1012200091F0D8012C91DF011497921728F49C9328
:10123000D8012C91208302C02C9390838F5F035E92
:101240001F4F7D96ECCF86E598E9C055DF4F0FB66E
:10125000F894DEBF0FBECDBFDF91CF911F910F91EC
:10126000FF90EF90DF90CF90BF90AF909F908F90C6
:101270007F906F905F904F903F902F900C94DE1175
:10128000CF93DF9380E290E00E9418218F718093CA
:101290003A04E4E4F2E080E090E028E01082DC012F
:1012A000AC5BBD4F11961C92119712961C9212972F
:1012B000AF014D5F5F4FEA01322F19923A95E9F77E
:1012C000485F5F4FEA01322F19923A95E9F753963A
:1012D0001C925397475F5F4FEA01322F19923A955C
:1012E000E9F75C961C924D967D96833BC1E09C0786
:1012F000A9F685ED91E0DF91CF910C940714CF9280
:10130000DF92EF92FF92CF930E94E3118823A1F026
:1013100080913D0590913E05892B71F48091F704F1
:1013200087FFDDC080919001843011F01092900110
:10133000809192018330C1F180919001882309F45A
:10134000D1C00E945C0D6B017C0180918C01909159
:101350008D01A0918E01B0918F01C816D906EA06C1
:10136000FB060CF4BEC00E946812882309F4B9C0C1
:101370008091D4014091910162E971E080660E9400
:10138000AB1284E6C80ED11CE11CF11CC0928C018A
:10139000D0928D01E0928E01F0928F0180919001A8
:1013A0008150809390019DC0809193010E9400061E
:1013B000CDE1C89FC0011124FC01EC5BFD4F848D81
:1013C000813009F0B9CF4AE050E060913A0482E5FB
:1013D00094E00E946E0F6EE271E082E594E00E945C
:1013E000000F4AE050E06091930182E594E00E9492
:1013F0006E0F6EE271E082E594E00E94000F0E94A1
:101400005C0DAB01BC012AE030E082E594E00E9473
:10141000610F64E271E082E594E00E94000F809128
:1014200093010E94E70568E00E948E056EE271E07C
:1014300082E594E00E94000F809193010E940006D3
:10144000C89FC001112468E0885A9D4F0E948E05F4
:1014500085ED91E00E948713809193010E94E7053A
:1014600048E050E0BC0185ED91E00E94A618809113
:1014700093010E940006C89FC0011124BC01685A54
:101480007D4F48E050E085ED91E00E94A6188091E4
:1014900093010E94E70548E050E0BC0185ED91E032
:1014A0000E9414196EE271E082E594E00E94000F40
:1014B000809193010E94E70568E00E948E0582E515
:1014C00094E00E94020F809193010E940006C89F41
:1014D000C0011124FC01EC5BFD4F148E2DCF81E087
:1014E00001C080E0CF91FF90EF90DF90CF90089502
:1014F0003F924F925F926F927F928F929F92AF92A4
:10150000BF92CF92DF92EF92FF920F931F93CF93F0
:10151000DF93CDB7DEB728970FB6F894DEBF0FBEC6
:10152000CDBF0E945C0D61327B428E46910508F46E
:101530004AC080913B04811146C010E00DE18091CA
:10154000F7031817E8F54AE050E060913A0482E5A5
:1015500094E00E946E0F6EE271E082E594E00E94DA
:10156000000F019F60011124F601EC5BFD4F4AE082
:1015700050E0608182E594E00E946E0F6EE271E0BF
:1015800082E594E00E94000F0E945C0DAB01BC015B
:101590002AE030E082E594E00E94610F60E371E0B0
:1015A00082E594E00E94000F68E0C601895B9D4FD0
:1015B0000E948E0582E594E00E94020F1F5FBFCF5C
:1015C00081E080933B040E945C0D80903D049090EC
:1015D0003E04A0903F04B09040040E941C1F2B01C9
:1015E0003C01C501B4010E941C1F209141043091AF
:1015F000420440914304509144040E94D31F20E0D0
:1016000030E44CE156E40E94031E6B017C016091C2
:1016100040027091410280914202909143020E94E7
:101620001E1F9B01AC01C701B6010E94031E9B0156
:10163000AC01C301B2010E94CE1F18160CF0B3C05A
:10164000809190018111AFC0809145049091460432
:10165000A0914704B091480488169906AA06BB06D3
:1016600008F0A1C0CE0101966C018C0188E0E82E43
:10167000EC0C60E071E080E090E00E940D0EF8015B
:1016800061938F01EE12F5CF60913D0470913E049D
:1016900080913F04909140042CE030E040E050E025
:1016A0000E94542000913C0466307105810591052B
:1016B00040F42DE1029FF0011124EC5BFD4FE1802D
:1016C00007C08DE1089FF0011124EC5BFD4FE28023
:1016D000E092FB0382E08093F80380913A048093C8
:1016E000F9039DE1099F80011124F801EC5BFD4F96
:1016F0005F0180818093FA038E2D0E94E705FC0133
:1017000098E0ACEFB3E001900D929A95E1F788E094
:10171000F601A4E0B4E001900D928A95E1F7D801BA
:10172000A15BBD4F88E0F60101900D928A95E1F72B
:1017300081E0F501838B44E168EF73E08E2D0E9418
:10174000130680913C0490E001966091F70370E0ED
:101750000E94402080933C0480913D0490913E047F
:10176000A0913F04B09140040196A11DB11D80934A
:101770003D0490933E04A0933F04B09340046091D5
:1017800041047091420480914304909144040E946A
:10179000E61E0E940D0E60934002709341028093FA
:1017A0004202909343020E947F09882309F41EC1DC
:1017B0008091F904823009F049C09091FB04809136
:1017C0003A04981335C08091FA040E9400063090C4
:1017D000FC04FDE18F9F80011124B801685A7D4F00
:1017E00048E050E085E095E00E94E51D892B71F10D
:1017F000D801A85ABD4F88E0E5E0F5E001900D92D0
:101800008A95E1F7F801EC5BFD4F81E0848F8091D0
:10181000FA0493E09093F8039091FA049093F903FB
:101820009091FB049093FA0343E068EF73E0DBC010
:101830009091FC0498130AC080919001882309F4C8
:10184000B6C080919201833009F0B1C08091F90453
:10185000833009F086C08091FB040E94000630901E
:10186000FB042DE1829F80011124C8018C5B9D4FF8
:101870006C01FC018389813009F073C04AE050E0BB
:1018800060913A0482E594E00E946E0F6EE271E08E
:1018900082E594E00E94000F6091FB044AE050E072
:1018A00082E594E00E946E0F6EE271E082E594E0C2
:1018B0000E94000F0E945C0DAB01BC012AE030E0E9
:1018C00082E594E00E94610F64E271E082E594E0B9
:1018D0000E94000F8091FB040E94E70568E00E94CF
:1018E0008E056EE271E082E594E00E94000F015BDC
:1018F0001D4F68E0C8010E948E0585ED91E00E94B1
:1019000087138091FB040E94E70548E050E0BC018A
:1019100085ED91E00E94A61848E050E0B80185ED01
:1019200091E00E94A6188091FB040E94E70548E020
:1019300050E0BC0185ED91E00E9414196EE271E067
:1019400082E594E00E94000F8091FB040E94E7056D
:1019500068E00E948E0582E594E00E94020FF60185
:10196000138A8091F70485FF41C08091F70487FDB9
:101970003DC040E060E070E0832D806C28960FB69B
:10198000F894DEBF0FBECDBFDF91CF911F910F91B5
:10199000FF90EF90DF90CF90BF90AF909F908F908F
:1019A0007F906F905F904F903F900C94AB1230906F
:1019B000FA041091FB0484E1E9EFF4E0A8EFB3E04E
:1019C00001900D928A95E1F7812F0E94E705FC01B5
:1019D00098E0ACEFB3E001900D929A95E1F744E105
:1019E00068EF73E0812F0E94130630CF28960FB660
:1019F000F894DEBF0FBECDBFDF91CF911F910F9145
:101A0000FF90EF90DF90CF90BF90AF909F908F901E
:101A10007F906F905F904F903F90089585ED91E09B
:101A20000C94E8131F920F920FB60F9211242F936C
:101A30003F938F939F93AF93BF9380914A0490916C
:101A40004B04A0914C04B0914D043091490423E023
:101A5000230F2D3720F40196A11DB11D05C026E8E6
:101A6000230F0296A11DB11D2093490480934A04BF
:101A700090934B04A0934C04B0934D0480914E047A
:101A800090914F04A0915004B09151040196A11D72
:101A9000B11D80934E0490934F04A0935004B093D3
:101AA0005104BF91AF919F918F913F912F910F90D2
:101AB0000FBE0F901F9018952FB7F89460914A04AD
:101AC00070914B0480914C0490914D042FBF089568
:101AD0003FB7F89480914E0490914F04A091500428
:101AE000B091510426B5A89B05C02F3F19F001966F
:101AF000A11DB11D3FBFBA2FA92F982F8827820F94
:101B0000911DA11DB11DBC01CD0142E0660F771FE3
:101B1000881F991F4A95D1F708958F929F92AF928F
:101B2000BF92CF92DF92EF92FF926B017C010E94F5
:101B3000680D4B015C01C114D104E104F10401F111
:101B40000E94040E0E94680DDC01CB0188199909DE
:101B5000AA09BB09883E9340A105B10560F321E0C5
:101B6000C21AD108E108F10888EE880E83E0981EB9
:101B7000A11CB11CC114D104E104F10419F7DBCF9D
:101B8000FF90EF90DF90CF90BF90AF909F908F909D
:101B90000895789484B5826084BD84B5816084BDE5
:101BA00085B5826085BD85B5816085BDEEE6F0E0D6
:101BB000808181608083E1E8F0E010828081826032
:101BC0008083808181608083E0E8F0E080818160B3
:101BD0008083E1EBF0E0808184608083E0EBF0E0E3
:101BE000808181608083EAE7F0E080818460808387
:101BF0008081826080838081816080838081806831
:101C000080831092C10008950895611571058105C2
:101C1000910511F00C94D41D0895CF93DF9300D05B
:101C200000D0CDB7DEB7611571058105910579F05A
:101C30009B01AC0169833A834B835C830E94CF1D77
:101C400029813A814B815C810E94762003C060E04B
:101C500070E0CB010F900F900F900F90DF91CF911C
:101C600008951F920F920FB60F9211242F938F9306
:101C70009F93EF93FF93E0916204F091630480815E
:101C8000E0916804F091690482FD12C09081809116
:101C90006B048F5F8F7320916C04821751F0E09179
:101CA0006B04F0E0EE5AFB4F958F80936B0401C0FC
:101CB0008081FF91EF919F918F912F910F900FBE97
:101CC0000F901F9018951F920F920FB60F9211242C
:101CD0002F933F934F935F936F937F938F939F9334
:101CE000AF93BF93EF93FF9382E594E00E94C30FFD
:101CF000FF91EF91BF91AF919F918F917F916F91E4
:101D00005F914F913F912F910F900FBE0F901F90B9
:101D1000189582E594E00E94870F21E0892B09F451
:101D200020E0822F0895E2E5F4E01382128288EE2B
:101D300093E0A0E0B0E084839583A683B78380E539
:101D400091E09183808385EC90E09587848784EC93
:101D500090E09787868780EC90E0918B808B81EC78
:101D600090E0938B828B82EC90E0958B848B86EC59
:101D700090E0978B868B118E128E138E148E0895A1
:101D8000CF92DF92EF92FF920F931F93CF93DF9347
:101D90006C017A018B01C0E0D0E0CE15DF0589F03F
:101DA000D8016D918D01D601ED91FC910190F081EA
:101DB000E02DC6010995892B11F47E0102C0219600
:101DC000ECCFC701DF91CF911F910F91FF90EF9062
:101DD000DF90CF9008956115710579F0FB010190B6
:101DE0000020E9F73197AF01461B570BDC01ED915D
:101DF000FC910280F381E02D099480E090E0089549
:101E00000C94EB0E6BE371E00C94EB0E0F931F93AD
:101E1000CF93DF93EC010E94EB0E8C01CE010E9468
:101E2000020F800F911FDF91CF911F910F910895A5
:101E30004F925F926F927F92EF92FF920F931F9358
:101E4000CF93DF93CDB7DEB7A1970FB6F894DEBF7F
:101E50000FBECDBF7C01FA01CB0119A2223008F4DC
:101E60002AE08E010F5D1F4F422E512C612C712CE8
:101E7000BF01A30192010E945420F901CA0101503F
:101E800011096A3014F4605D01C0695CD8016C937B
:101E9000232B242B252B61F7B801C7010E94EB0EE1
:101EA000A1960FB6F894DEBF0FBECDBFDF91CF91E4
:101EB0001F910F91FF90EF907F906F905F904F90E8
:101EC00008952115310541F4DC01ED91FC9101905B
:101ED000F081E02D642F09940C94180F9A01462F7D
:101EE00050E060E070E00C94610F0E94DD1D0895E9
:101EF0000E94C90D0E94770F0E942B06C5EBDFE000
:101F00000E94780A2097E1F30E94B50FF9CFFC01F7
:101F1000918D228D892F90E0805C9F4F821B9109CB
:101F20008F7399270895FC01918D828D981731F058
:101F3000828DE80FF11D858D90E008958FEF9FEF62
:101F40000895FC01918D828D981761F0828DDF01DB
:101F5000A80FB11D5D968C91928D9F5F9F73928F9C
:101F600090E008958FEF9FEF089589E89EE0892B18
:101F700049F080E090E0892B29F00E94890E8111C0
:101F80000C9400000895FC01848DDF01A80FB11DA1
:101F9000A35ABF4F2C91848D90E001968F7399279F
:101FA000848FA689B7892C93A089B1898C9180648C
:101FB0008C93938D848D981306C00288F389E02D4D
:101FC00080818F7D80830895CF93DF93EC01888D8E
:101FD0008823C9F0EA89FB89808185FD05C0A8892D
:101FE000B9898C9186FD0FC00FB607FCF5CF8081B3
:101FF00085FFF2CFA889B9898C9185FFEDCFCE01FD
:102000000E94C30FE7CFDF91CF910895EF92FF9227
:102010000F931F93CF93DF93EC0181E0888F9B8D0B
:102020008C8D981305C0E889F989808185FD24C0CD
:10203000F62E0B8D10E00F5F1F4F0F731127E02E50
:102040008C8DE8120CC00FB607FCFACFE889F9892D
:10205000808185FFF5CFCE010E94C30FF1CF8B8D1C
:10206000FE01E80FF11DE35AFF4FF0820B8FEA8962
:10207000FB898081806207C0EE89FF896083E889DF
:10208000F98980818064808381E090E0DF91CF9145
:102090001F910F91FF90EF900895CF92DF92EF92F2
:1020A000FF921F93CF93DF93EC016A017B01122F04
:1020B000E889F98982E080834115514E61057105F7
:1020C000B1F060E079E08DE390E0A70196010E9415
:1020D0005420DA01C9010197A109B109B695A79564
:1020E00097958795AC01411580E15807A8F0E889DC
:1020F000F989108260E874E88EE190E0A70196010A
:102100000E945420BA01A901415051096109710985
:102110007695679557954795EC85FD855083EE85B7
:10212000FF854083188EEC89FD891083EA89FB893D
:10213000808180618083EA89FB89808188608083D7
:10214000EA89FB89808180688083EA89FB898081B4
:102150008F7D8083DF91CF911F91FF90EF90DF9073
:10216000CF9008958627682F62956827062E66957A
:1021700066956025062E669560256770082E892F66
:10218000669507946795902D862706946795902508
:10219000862708952CB521602CBD25B141E050E083
:1021A00060E070E000900A0104C0440F551F661FF4
:1021B000771F0A94D2F74095422345B99EBD0DB4CE
:1021C00007FEFDCF2EB530E0322F22278EBD0DB495
:1021D00007FEFDCF4EB555B181E090E0A0E0B0E044
:1021E00000900A0104C0880F991FAA1FBB1F0A9400
:1021F000D2F7852B85B98CB58E7F8CBDC901842B18
:102200000895CF9380E090E00E94CA1080913F052E
:10221000853091F580E090EB0E94CA10682F809184
:102220004005811104C090914305911176C0E09161
:10223000400581E08E0F80934005F0E0EA50FB4FAF
:10224000608380913D0590913E050E94B21090936D
:102250003E0580933D058091F8042091400590E073
:10226000049630E0821793070CF462C08091400519
:10227000873408F05DC061C080913F0587FF1BC0B7
:10228000E091F80480913F0591E0980F90933F050D
:10229000ED5F8E0FE82FF0E0EA50FB4FC081809198
:1022A0003D0590913E056C2F0E94B21090933E0523
:1022B00080933D052EC080913F058330F1F054F4AA
:1022C0008823A9F08130E9F480913D0590913E0585
:1022D000C92F1AC08930B9F08A3099F4C0914305EA
:1022E0009091F8048DEF891B80933F050DC080917C
:1022F0003D0590913E05C82F07C08DE092E80E94F1
:10230000CA10CAEA01C0CDE280913F058F5F809379
:102310003F058C2F90E098540DC0E091400581E07E
:102320008E0F80934005F0E0EA50FB4F90837FCF03
:102330008DE092E8CF910C94CA10CF91089525B109
:1023400081E090E0A0E0B0E0AC01BD0100900A01A6
:1023500004C0440F551F661F771F0A94D2F7422B03
:1023600045B924B100900A0104C0880F991FAA1F23
:10237000BB1F0A94D2F7822B84B961E08AE00E94E5
:10238000F91B61E08AE00E94BD1B61E08BE00E94C6
:10239000BD1B60E08CE00E94BD1B61E08DE00E94EF
:1023A000BD1B80E58CBD8DB581608DBD60E082E098
:1023B0000E94BD1B61E082E00C94F91BE8980E942A
:1023C000CA10E89A089580913F05853091F5809173
:1023D000F8042091400590E0049630E082179307BE
:1023E00024F080914005873420F184E080933F05FC
:1023F00080913D0590913E0590933E0580933D056B
:102400008091F804833430F081E090E090933E05B1
:1024100080933D058091F70486FF3EC0809144057E
:10242000982F9F719F31C1F19091F70489278F7187
:1024300099F180913F05843069F58091F1048823FA
:1024400051F08093F8041092F7041092F60483E0A0
:102450008093400504C01092F804109240058FEF5D
:102460009FEF90933E0580933D0560914305662361
:1024700051F080913D0590913E050E94B2109093DD
:102480003E0580933D0585E080933F058DED92E804
:102490000E94CA1080E0089580913D0590913E050C
:1024A000892B49F4E091EF04F091F004309719F092
:1024B00080E009950BC08FEF9FEFDC018093F20461
:1024C0009093F304A093F404B093F50481E008958D
:1024D00080913F05853099F48091400581110FC0AE
:1024E00080E090E00E94DE1190FD09C08DE092E84E
:1024F0000E94DE1184E080933F0581E0089580E032
:10250000089586FD05C0807E909144059F71890FD6
:102510008093F704E091EF04F091F004309711F00C
:1025200081E009958FEF9FEF90933E0580933D05E5
:1025300080913D0590913E05609143050E94B21047
:1025400090933E0580933D0586E080933F058DE3A3
:1025500092E80C94CA10CF93C82F4093F80450E02F
:1025600089EF94E00E94F21D8C2FCF910C94811280
:10257000CF93C62F80934405409343053093420583
:10258000209341050E949F1180E090E00E94CA10B4
:1025900085E092E80E94CA1080E098EB0E94CA1081
:1025A00082E00E94291C892B19F480E090E0F6CF8C
:1025B00020E1C29FC0011124876C90680E94CA105C
:1025C000809141059091420590560E94CA1086E084
:1025D00096EC0E94CA1082EA94E90E94CA108CEA22
:1025E00092EC0E94CA10C0914305CC2341F083E8CD
:1025F0009AEC0E94CA108C2F90E09E6C06C08BE86B
:102600009AEC0E94CA108DE29EEC0E94CA1083E8E8
:1026100094EC0E94CA1080E598E90E94CA1087E7EE
:102620009CEC0E94CA1080E090EE0E94CA1080E0EC
:1026300098EC0E94CA1089E490EC0E94CA1084E0D1
:1026400080933F05809144058F7141F040E050E058
:1026500061E071E180E00E94141B03C080E00E94F1
:10266000341B80914405CF910895EF92FF920F9310
:102670001F93CF93DF931F92CDB7DEB730E2E32EE7
:10268000F12C0FEF1FEFC7010E941821682FC8011E
:102690000E94B2108C018FEFE81AF80A80E3E81666
:1026A000F10489F7012B21F582E290E00E941821C4
:1026B0008130F1F480E290E00E941821182F81E22D
:1026C00090E00E941821482F84E290E049830E9404
:1026D0002021612F70E026E0759567952A95E1F736
:1026E0009C014981812F0E94B812812F8F7101C0F6
:1026F00080E00F90DF91CF911F910F91FF90EF90AD
:10270000089580E290E0089580E490E00895FC014F
:1027100087E696EEA9E0BAE682839383A483B58325
:1027200085E89EEAA7E6BBEB86839783A087B187FF
:1027300082E793EFAEE6BCE382879387A487B587F1
:102740008AE395EFAFE4B5EA86879787A08BB18BD4
:102750008FE792E5AEE0B1E5828B938BA48BB58BCE
:102760008CE898E6A5E0BBE9868B978BA08FB18FAC
:102770008BEA99EDA3E8BFE1828F938FA48FB58F89
:1027800089E19DECA0EEBBE5868F978FA0A3B1A356
:10279000DF01A659BF4F1C92EE59FF4F10821182E4
:1027A0001282138214821582168217820895CF93A3
:1027B000DF93EC0169E670E002960E948F1AE881CF
:1027C000F9810084F185E02DCE01DF91CF9109944C
:1027D000CF93DF93D82FC92FE82FF92F80E691E010
:1027E0008193919369E670E0CF010E948F1A8D2F3B
:1027F0009C2FDF91CF910C949F1ACF93DF93EC0124
:102800000E94E813CE01DF91CF910C94521CCF931C
:10281000DF93EC010E94991A80E691E09983888306
:10282000CE01DF91CF910C9487132F923F924F925C
:102830005F926F927F928F929F92AF92BF92CF9250
:10284000DF92EF92FF920F931F93CF93DF93CDB759
:10285000DEB7CC54D1090FB6F894DEBF0FBECDBFA2
:102860002D969FAF8EAF2D971C0102E2200E311CDA
:102870008E599F4F988F8F8BF1016081718182817A
:1028800093810E94952061937193819391932F89F5
:10289000388DE217F30789F72D96AEADBFAD2D97B2
:1028A00012964D915D916D917C9115974FA358A70C
:1028B00069A77AA716964D905D906D907C901997B8
:1028C0004BA65CA66DA67EA61A964D905D906D9067
:1028D0007C901D974FA658AA69AA7AAA1E964D9079
:1028E0005D906D907C9051974BAA5CAA6DAA7EAAD0
:1028F00052964D905D906D907C9055974FAA58AE32
:1029000069AE7AAE56964D905D906D907C905997D9
:102910004BAE5CAE6DAE7EAE5A964D905D906D90B6
:102920007C905D9723964CAE5DAE6EAE7FAE2397E6
:102930005E964D905D906D907C90919727964CAEF1
:102940005DAE6EAE7FAE279708E619E01E8B0D8B4D
:1029500049835A836B837C832FA938AD49AD5AAD27
:102960002D833E834F8358877301620123964CADBC
:102970005DAD6EAD7FAD23974F8F58A369A37AA34A
:102980006BAD7CAD8DAD9EAD698B7A8B8B8B9C8B4B
:102990008BA99CA9ADA9BEA98BA39CA3ADA3BEA3E3
:1029A0004FA458A869A87AA84B8E5C8E6D8E7E8E37
:1029B0006BA47CA48DA49EA469867A868B869C8653
:1029C000ED89FE890591159125913491D1014D90A4
:1029D0005D906D907D901D014D815E816F81788548
:1029E000B62F672F742F452F5B2F400E511E621E8E
:1029F000731E0D811E812F813885009510952095BD
:102A000030958F8C98A0A9A0BAA0082119212A215D
:102A10003B218D809E80AF80B88489899A89AB895B
:102A2000BC8988229922AA22BB22082519252A2599
:102A30003B25040D151D261D371D2A013B01440CA5
:102A4000551C661C771C411C440C551C661C771CCD
:102A5000411C8D809E80AF80B884982D8B2CBA2C21
:102A6000A92C992E80FAB794A79497948794B7F8D5
:102A700084249524A624B7242A013B0140FA7794A4
:102A800067945794479477F840FA779467945794EB
:102A9000479477F840FA779467945794479477F877
:102AA00084249524A624B724800E911EA21EB31E52
:102AB000C80CD91CEA1CFB1C09811A812B813C81A2
:102AC000A02F032F322F212F1A2F000F111F221F8B
:102AD000331F011DD901C801880F991FAA1FBB1FF1
:102AE000811D49815A816B817C8140FB7795679577
:102AF0005795479577F940FB779567955795479593
:102B000077F98C019D01042715272627372749814E
:102B10005A816B817C81FA01AB01BF01440F551FC3
:102B2000661F771F411D440F551F661F771F411DEC
:102B3000DB01CA01880F991FAA1FBB1F811DB901A4
:102B4000A801482759276A277B2789849A84AB8460
:102B5000BC844B8C5C8C6D8C7E8C84249524A62448
:102B6000B72409811A812B813C8180229122A222E3
:102B7000B3229301820189859A85AB85BC850823A0
:102B800019232A233B23082519252A253B25400FF5
:102B9000511F621F731F4BA05CA06DA07EA04C0C48
:102BA0005D1C6E1C7F1C4D865E866F86788ADB01FD
:102BB000CA018C0D9D1DAE1DBF1D0D891E890C5FA8
:102BC0001F4F1E8B0D8B2B8D3C8D4D8D5E8D2BA342
:102BD0003CA34DA35EA3CF8CD8A0E9A0FAA04F8957
:102BE000588D2416350669F189889A88AB88BC8887
:102BF0008F8E98A2A9A2BAA20D811E812F8138853D
:102C0000098B1A8B2B8B3C8B2D853E854F855889E4
:102C10002D833E834F83588749855A856B857C85F4
:102C20004B8F5C8F6D8F7E8F49805A806B807C804C
:102C300049865A866B867C8689839A83AB83BC835C
:102C4000BFCE68EA79E07E8B6D8B22242394312CF1
:102C5000F101EF70FF273896EE0FFF1FEE0FFF1FF9
:102C60002D96EEACFFAC2D97EE0DFF1D028113816A
:102C700024813581F1013D96EF70FF273896EE0FE4
:102C8000FF1FEE0FFF1FEE0DFF1DC280D380E480FB
:102C9000F5804FE0420DE42FEF70B601A7013A0135
:102CA0004B0160FA979487947794679497F82B96E2
:102CB0006CAE7DAE8EAE9FAE2B972D966EAD7FAD7A
:102CC0002D9744E0E49F600D711D1124FB01B09627
:102CD000F88FEF8BF1013896EF70FF273896EE0FE3
:102CE000FF1FEE0FFF1F2D964EAD5FAD2D974E0FC0
:102CF0005F1FEF89F88D4280538064807580FA01F0
:102D000082809380A480B580840C951CA61CB71C7F
:102D1000702E412E522E632EB301A201440F551F77
:102D2000661F771F411D28013901E3E076946794FF
:102D300057944794EA95D1F7442655266626772678
:102D4000B80189019B0100FB3795279517950795D9
:102D500037F900FB379527951795079537F94026E2
:102D6000512662267326480C591C6A1C7B1CFAE00B
:102D7000F694E794D794C794FA95D1F72B968CAC38
:102D80009DACAEACBFAC2B97C824D924EA24FB245D
:102D900080FAB794A79497948794B7F880FAB79479
:102DA000A79497948794B7F88C249D24AE24BF24CD
:102DB000840C951CA61CB71CEF89F88D8282938227
:102DC000A482B5826D897E89FB01459055906590FE
:102DD00074904F8A588E698E7A8E0D851E852F8548
:102DE0003889F22F232F302F012F1F2F4D855E851D
:102DF0006F857889409550956095709549885A8877
:102E00006B887C8844215521662177214D845E841E
:102E10006F847888CD80DE80EF80F8844C205D2040
:102E20006E207F206A017B01C424D524E624F72488
:102E30004F89588D698D7A8DC40ED51EE61EF71EFA
:102E400028013901440C551C661C771C411C440C9C
:102E5000551C661C771C411C4D855E856F857889E5
:102E6000E42F472F762F652F5E2F40FB77956795D0
:102E70005795479577F944255525662577252801E7
:102E8000390140FA779467945794479477F840FA59
:102E9000779467945794479477F840FA77946794B7
:102EA0005794479477F844255525662577254C0D8A
:102EB0005D1D6E1D7F1D840E951EA61EB71E4F8CB8
:102EC00058A069A07AA0840C951CA61CB71CD82E0B
:102ED000E92EFA2ECB2ECC0CDD1CEE1CFF1CC11CE7
:102EE00097018601000F111F221F331F011DAC0126
:102EF000BD0140FB779567955795479577F940FB5E
:102F0000779567955795479577F968017901C426B4
:102F1000D526E626F726BC01AD01440F551F661FD6
:102F2000771F411D440F551F661F771F411D8A01E2
:102F30009B01000F111F221F331F011DB701A601A6
:102F40004027512762277327C980DA80EB80FC80F5
:102F500009851A852B853C85C026D126E226F326D5
:102F6000C822D922EA22FB2249805A806B807C80C9
:102F700004211521262137210C251D252E253F252D
:102F8000400F511F621F731F4B8C5C8C6D8C7E8CAD
:102F9000480C591C6A1C7B1C480D591D6A1D7B1D61
:102FA0000FEF201A300A2D893E892C5F3F4F3E8B50
:102FB0002D8B89849A84AB84BC848B8E9C8EAD8E41
:102FC000BE8EA988BA88CB88DC88AF8EB8A2C9A289
:102FD000DAA201E32016310419F18D809E80AF80C2
:102FE000B884898A9A8AAB8ABC8AAD84BE84CF842D
:102FF000D888AD82BE82CF82D8864D865E866F86A7
:10300000788AC980DA80EB80FC80C986DA86EB8614
:10301000FC8689839A83AB83BC83DB01CA0118CE0B
:103020008FA098A4A9A4BAA4480D591D6A1D7B1DA0
:103030002D96EEADFFAD2D97428353836483758348
:103040008BA49CA4ADA4BEA4880D991DAA1DBB1D74
:1030500086839783A087B18789819A81AB81BC8160
:103060008FA498A8A9A8BAA8880D991DAA1DBB1D50
:1030700082879387A487B58789859A85AB85BC8528
:103080008BA89CA8ADA8BEA8880D991DAA1DBB1D24
:1030900086879787A08BB18B8FA898ACA9ACBAAC68
:1030A000480C591C6A1C7B1C428A538A648A758AA4
:1030B0008D859E85AF85B8894BAC5CAC6DAC7EAC24
:1030C000840D951DA61DB71D868B978BA08FB18F84
:1030D0008D819E81AF81B88523964CAC5DAC6EAC82
:1030E0007FAC2397840D951DA61DB71D828F938FEE
:1030F000A48FB58F89899A89AB89BC8927964CACF6
:103100005DAC6EAC7FAC2797840D951DA61DB71DD9
:10311000868F978FA0A3B1A3C45BDF4F0FB6F8943F
:10312000DEBF0FBECDBFDF91CF911F910F91FF90FA
:10313000EF90DF90CF90BF90AF909F908F907F9057
:103140006F905F904F903F902F9008956F927F9275
:103150008F929F92AF92BF92CF92DF92EF92FF92A7
:103160000F931F93CF93DF934C013B01EA019A0128
:1031700040E050E060E070E080E090E003E00E941A
:10318000BE20F401EE59FF4FA080B180C280D380F1
:10319000E480F580068117810E94F5202083318329
:1031A000428353836483758386839783840106599E
:1031B0001F4F80E4A82E740122E2E20EF11C20973A
:1031C00021F1F8018081BA2CB81A2B2D30E0C217FA
:1031D000D30708F4BC2ECB2CD12CA601B301970148
:1031E000280F311DC9010E94F21DF80180818B0D4D
:1031F0008083CC19DD096C0C7D1C803401F7C4017F
:103200000E941514F8011082DACFDF91CF911F913F
:103210000F91FF90EF90DF90CF90BF90AF909F9075
:103220008F907F906F9008954F925F926F927F92F0
:103230008F929F92AF92BF92CF92DF92EF92FF92C6
:103240000F931F93CF93DF93EC016B01942EA52E68
:103250007C0182E2E80EF11CFE01E659FF4F20815D
:10326000822F90E08E010E591F4FD701A80FB91F72
:10327000283380F420E82C93808190E047E350E0ED
:10328000481B590B019660E070E08E0D9F1D0E9457
:10329000FB1D17C020E82C93808190E04FE350E0A5
:1032A000481B590B019660E070E08E0D9F1D0E9437
:1032B000FB1DCE010E94151488E3F70111928A9537
:1032C000E9F7D8018C901196BC9011971296FC9159
:1032D00012971396EC91139714966C911497159678
:1032E0007C911597282D3B2D4F2F5E2F16968C9194
:1032F000169717969C9100E20E94D920C901DA0125
:10330000AE01465A5F4F782E6624552444240B2F75
:103310001127222733270429152926293729492E41
:103320005A2E6B2E772444246624772404291529E9
:1033300026293729BA2FA92F982F88278827992738
:10334000BB27082B192B2A2B3B2BDA010D931D933E
:103350002D933C931397682D7B2D8F2F9E2F0E94CA
:103360009520FE01E25AFF4F60837183828393832D
:10337000CE010E94151422966991799189919991B3
:103380000E9495206C8F7D8F8E8F9F8FCE15DF05CD
:1033900099F7492D5A2D4132510510F040E250E085
:1033A000B701C601DF91CF911F910F91FF90EF9070
:1033B000DF90CF90BF90AF909F908F907F906F9055
:1033C0005F904F900C94F21D0F93CF93DF93EC011D
:1033D0009A01829606E3AB01BC01CE010E94A01ABD
:1033E000FE01EE59FF4F208131814281538164817A
:1033F0007581868197813E5F4F4F5F4F6F4F7F4F43
:103400008F4F9F4F2083318342835383648375831F
:1034100086839783CE01DF91CF910F910C94151481
:103420006F927F928F929F92AF92BF92CF92DF92D4
:10343000EF92FF920F931F93CF93DF93CDB7DEB739
:10344000A0970FB6F894DEBF0FBECDBF7C014B0135
:103450003A0169015801DC01ED91FC910484F58584
:10346000E02D40E250E0BE016F5F7F4F0995B7014C
:103470006E5D7F4F0CE59301A401C7010E94A01A65
:10348000F701EE59FF4F20813181428153816481E0
:103490007581868197813E5F4F4F5F4F6F4F7F4FA2
:1034A0008F4F9F4F2083318342835383648375837F
:1034B00086839783C7010E941514D701ED91FC9173
:1034C0000284F385E02D40E250E0BE016F5F7F4F44
:1034D000C7010995D701ED91FC910484F585E02D94
:1034E000A501B601C701099560E270E0CE01019621
:1034F0000E948F1AA0960FB6F894DEBF0FBECDBF04
:10350000DF91CF911F910F91FF90EF90DF90CF90BF
:10351000BF90AF909F908F907F906F900895680FAD
:10352000791F8617970721F0FC0110820196F9CFC9
:10353000089528E731E0FC01318320830895089540
:103540008F929F92AF92BF92CF92DF92EF92FF92B3
:103550000F93CF93DF9300D0CDB7DEB74C017B0143
:10356000BA016901DC01ED91FC910680F781E02D43
:1035700049837A8309955C01D401ED91FC91008423
:10358000F185E02DC401099569817A81AC14BD04EF
:1035900028F0A601C7010E94F21D24C0D401ED91BC
:1035A000FC910284F385E02DA601C4010995D401A4
:1035B000ED91FC910480F581E02DC40109956C0129
:1035C000D401ED91FC910484F585E02DAC01B701A7
:1035D000C4010995D401ED91FC910084F185E02DA1
:1035E000C401099547018C0C9D1CA5014C195D096E
:1035F000602F70E0C4010E94FB1DF701E815F9057A
:1036000021F0908190279193F9CF0F900F90DF9147
:10361000CF910F91FF90EF90DF90CF90BF90AF9040
:103620009F908F90089508958230E8F4E82FF0E09D
:10363000EE0FFF1FE55FFE4F71836083813041F025
:10364000809169008C7F482B40936900E89A089527
:1036500080916900440F551F440F551F837F482BED
:1036600040936900E99A0895823078F4813011F02E
:10367000E89801C0E998E82FF0E0EE0FFF1FE55F42
:10368000FE4F83E19BE19183808308951F920F9207
:103690000FB60F9211242F933F934F935F936F9325
:1036A0007F938F939F93AF93BF93EF93FF93E0919B
:1036B0000B01F0910C010995FF91EF91BF91AF9132
:1036C0009F918F917F916F915F914F913F912F913A
:1036D0000F900FBE0F901F9018951F920F920FB66C
:1036E0000F9211242F933F934F935F936F937F9388
:1036F0008F939F93AF93BF93EF93FF93E0910D014F
:10370000F0910E010995FF91EF91BF91AF919F91BB
:103710008F917F916F915F914F913F912F910F907A
:103720000FBE0F901F901895833081F028F48130E0
:1037300099F08230A1F008958730A9F08830B9F06F
:103740008430D1F4809180008F7D03C0809180000F
:103750008F7780938000089584B58F7702C084B5F9
:103760008F7D84BD08958091B0008F7703C08091D4
:10377000B0008F7D8093B0000895CF93DF9390E0E9
:10378000FC01E458F54F2491FC01E057F54F84917A
:10379000882361F190E0880F991FFC01E854F54FF0
:1037A000C591D491FC01E255F54FA591B4916111F9
:1037B00009C09FB7F8948881209582238883EC9173
:1037C0002E230BC0623061F49FB7F8943881822FAA
:1037D000809583238883EC912E2B2C939FBF06C06A
:1037E0008FB7F894E8812E2B28838FBFDF91CF917C
:1037F00008951F93CF93DF93282F30E0F901E85904
:10380000F54F8491F901E458F54FD491F901E0574F
:10381000F54FC491CC23C9F0162F81110E94941B3F
:10382000EC2FF0E0EE0FFF1FE255F54FA591B4919C
:103830008FB7F894111105C09C91ED2FE095E92305
:1038400002C0EC91ED2BEC938FBFDF91CF911F91D4
:103850000895CF93DF93282F30E0F901E859F54F11
:103860008491F901E458F54FD491F901E057F54FEF
:10387000C491CC2391F081110E94941BEC2FF0E0B5
:10388000EE0FFF1FEC55F54FA591B491EC91ED2390
:1038900081E090E021F480E002C080E090E0DF91E0
:1038A000CF9108950C94E91CCF93DF93823091055A
:1038B00010F482E090E0E0914705F091480520E0A7
:1038C00030E0C0E0D0E0309711F1408151814817DD
:1038D0005907C0F04817590761F4828193812097F6
:1038E00019F09B838A832BC09093480580934705EA
:1038F00026C02115310519F04217530718F49A0113
:10390000BE01DF01EF010280F381E02DDCCF211544
:10391000310509F1281B390B2430310590F412963A
:103920008D919C9113976115710521F0FB01938393
:10393000828304C09093480580934705FD01329629
:1039400044C0FD01E20FF31F81939193225031098E
:103950002D933C933AC02091450530914605232B89
:1039600041F42091020130910301309346052093E8
:10397000450520910001309101012115310541F4E7
:103980002DB73EB74091040150910501241B350B22
:10399000E0914505F0914605E217F307A0F42E1BD0
:1039A0003F0B2817390778F0AC014E5F5F4F2417A3
:1039B000350748F04E0F5F1F50934605409345056D
:1039C0008193919302C0E0E0F0E0CF01DF91CF91CD
:1039D00008950F931F93CF93DF93009709F48CC042
:1039E000FC0132971382128200914705109148051D
:1039F0000115110581F420813181820F931F2091DF
:103A00004505309146052817390779F5F0934605A5
:103A1000E093450571C0D80140E050E0AE17BF0704
:103A200050F412962D913C911397AD01211531055B
:103A300009F1D901F3CF9D01DA013383228360813B
:103A40007181860F971F8217930769F4EC01288113
:103A50003981260F371F2E5F3F4F318320838A81A4
:103A60009B8193838283452B29F4F0934805E0934F
:103A7000470542C01396FC93EE931297ED014991CE
:103A800059919E01240F351FE217F30771F48081CD
:103A90009181840F951F029611969C938E9382813B
:103AA000938113969C938E931297E0E0F0E0D801F7
:103AB00012968D919C911397009719F0F8018C0143
:103AC000F6CF8D919C9198012E5F3F4F820F931FEF
:103AD00020914505309146052817390769F430973C
:103AE00029F4109248051092470502C013821282F1
:103AF0001093460500934505DF91CF911F910F91DB
:103B000008958F929F92AF92BF92CF92DF92EF92E1
:103B1000FF92CF93DF93EC01688179818A819B8149
:103B2000611571058105910521F464E279ED8BE55C
:103B300097E02DE133EF41E050E00E94762049010B
:103B40005A019B01AC01A7EAB1E40E94AB206B01D2
:103B50007C01ACEEB4EFA50194010E94B920DC0118
:103B6000CB018C0D9D1DAE1DBF1DB7FF03C001977E
:103B7000A109B04888839983AA83BB83BC01CD0186
:103B80009F77DF91CF91FF90EF90DF90CF90BF9024
:103B9000AF909F908F9008950E94811D089586E0B8
:103BA00091E00E94811D08956093060170930701C2
:103BB0008093080190930901089581E090E0F894C2
:103BC0000C943621F8940C943621FB01DC0104C0DE
:103BD0008D910190801921F441505040C8F7881B05
:103BE000990B0895FB01DC0102C001900D92415038
:103BF0005040D8F70895DC0101C06D93415050400A
:103C0000E0F708955058BB27AA270E941A1E0C946B
:103C1000941F0E94861F38F00E948D1F20F039F4F7
:103C20009F3F19F426F40C94831F0EF4E095E7FBF4
:103C30000C947D1FE92F0E94A51F58F3BA17620745
:103C400073078407950720F079F4A6F50C94C71F35
:103C50000EF4E0950B2EBA2FA02D0B01B9019001A7
:103C60000C01CA01A0011124FF27591B99F0593FEB
:103C700050F4503E68F11A16F040A22F232F342F33
:103C80004427585FF3CF469537952795A795F04081
:103C90005395C9F77EF41F16BA0B620B730B840B96
:103CA000BAF09150A1F0FF0FBB1F661F771F881F4E
:103CB000C2F70EC0BA0F621F731F841F48F48795A6
:103CC00077956795B795F7959E3F08F0B0CF939598
:103CD000880F08F09927EE0F9795879508950E9411
:103CE000591F08F481E008950E94881E0C94941FC7
:103CF0000E948D1F58F00E94861F40F029F45F3FFC
:103D000029F00C947D1F51110C94C81F0C94831F33
:103D10000E94A51F68F39923B1F3552391F3951BD6
:103D2000550BBB27AA2762177307840738F09F5FDC
:103D30005F4F220F331F441FAA1FA9F335D00E2E49
:103D40003AF0E0E832D091505040E695001CCAF7B6
:103D50002BD0FE2F29D0660F771F881FBB1F261779
:103D600037074807AB07B0E809F0BB0B802DBF0150
:103D7000FF2793585F4F3AF09E3F510578F00C941F
:103D80007D1F0C94C81F5F3FE4F3983ED4F38695E3
:103D900077956795B795F7959F5FC9F7880F911D40
:103DA0009695879597F90895E1E0660F771F881F2C
:103DB000BB1F621773078407BA0720F0621B730BDF
:103DC000840BBA0BEE1F88F7E09508950E94ED1E54
:103DD0006894B1110C94C81F08950E94AD1F88F01B
:103DE0009F5798F0B92F9927B751B0F0E1F0660FBF
:103DF000771F881F991F1AF0BA95C9F714C0B13000
:103E000091F00E94C71FB1E008950C94C71F672F5F
:103E1000782F8827B85F39F0B93FCCF3869577952E
:103E20006795B395D9F73EF4909580957095619517
:103E30007F4F8F4F9F4F0895E89409C097FB3EF442
:103E400090958095709561957F4F8F4F9F4F9923E7
:103E5000A9F0F92F96E9BB279395F6958795779565
:103E60006795B795F111F8CFFAF4BB0F11F460FF25
:103E70001BC06F5F7F4F8F4F9F4F16C0882311F07D
:103E800096E911C0772321F09EE8872F762F05C091
:103E9000662371F096E8862F70E060E02AF09A952C
:103EA000660F771F881FDAF7880F9695879597F921
:103EB0000895990F0008550FAA0BE0E8FEEF1616BB
:103EC0001706E807F907C0F012161306E407F5070E
:103ED00098F0621B730B840B950B39F40A2661F082
:103EE000232B242B252B21F408950A2609F4A14025
:103EF000A6958FEF811D811D089597F99F6780E832
:103F000070E060E008959FEF80EC089500240A942B
:103F10001616170618060906089500240A941216A4
:103F20001306140605060895092E0394000C11F4D7
:103F3000882352F0BB0F40F4BF2B11F460FF04C084
:103F40006F5F7F4F8F4F9F4F089557FD9058440FDD
:103F5000551F59F05F3F71F04795880F97FB991FE8
:103F600061F09F3F79F087950895121613061406A5
:103F7000551FF2CF4695F1DF08C016161706180632
:103F8000991FF1CF86957105610508940895E8940D
:103F9000BB2766277727CB0197F908950E94591F01
:103FA00008F48FEF08950E94E61F0C94941F0E945E
:103FB000861F38F00E948D1F20F0952311F00C947D
:103FC0007D1F0C94831F11240C94C81F0E94A51FF1
:103FD00070F3959FC1F3950F50E0551F629FF0015C
:103FE000729FBB27F00DB11D639FAA27F00DB11D75
:103FF000AA1F649F6627B00DA11D661F829F2227FE
:10400000B00DA11D621F739FB00DA11D621F839F84
:10401000A00D611D221F749F3327A00D611D231F5A
:10402000849F600D211D822F762F6A2F11249F57A8
:1040300050409AF0F1F088234AF0EE0FFF1FBB1FAB
:10404000661F771F881F91505040A9F79E3F51056A
:1040500080F00C947D1F0C94C81F5F3FE4F3983EE2
:10406000D4F3869577956795B795F795E7959F5F14
:10407000C1F7FE2B880F911D9695879597F90895A6
:1040800097FB072E16F4009407D077FD09D00E9405
:10409000FE2007FC05D03EF4909581959F4F089532
:1040A000709561957F4F0895A1E21A2EAA1BBB1B44
:1040B000FD010DC0AA1FBB1FEE1FFF1FA217B307F4
:1040C000E407F50720F0A21BB30BE40BF50B661F0A
:1040D000771F881F991F1A9469F7609570958095CE
:1040E00090959B01AC01BD01CF010895052E97FB72
:1040F0001EF400940E948D2057FD07D00E9454208A
:1041000007FC03D04EF40C948D20509540953095CB
:1041100021953F4F4F4F5F4F089590958095709533
:1041200061957F4F8F4F9F4F089569279627692785
:104130007827872778270895A29FB001B39FC001F1
:10414000A39F700D811D1124911DB29F700D811DC3
:104150001124911D08950E949C20A59F900DB49F4D
:10416000900DA49F800D911D11240895B7FF0C940C
:10417000AB200E94AB20821B930B08950F93083055
:1041800090F0982F872F762F652F542F432F322FA3
:1041900022270850F4CF220F331F441F551F661FDC
:1041A000771F881F991F0A95B2F70F91089597FB03
:1041B00010F8169400080F93083098F00850232F39
:1041C000342F452F562F672F782F892F902DF4CF1E
:1041D0000594979587957795679557954795379562
:1041E00027950A95AAF70F9108952A0D3B1D4C1D9E
:1041F0005D1D6E1D7F1D801F911F0895AA1BBB1B97
:1042000051E107C0AA1FBB1FA617B70710F0A61BD6
:10421000B70B881F991F5A95A9F780959095BC01F7
:10422000CD010895EE0FFF1F0590F491E02D099444
:10423000F999FECF92BD81BDF89A992780B508956E
:10424000A8E1B0E042E050E00C942821DC01CB0171
:10425000FC01F999FECF06C0F2BDE1BDF89A319696
:1042600000B40D9241505040B8F7089515E0C3E6F0
:10427000D5E004C0FE010E9412212196C436D10768
:06428000C9F7F894FFCF1E
:104286000000490520000100000002131B131B4318
:104296006F6E66696775726174696F6E206572729A
:1042A6006F722100206B657955706461746520001A
:1042B6002066696E616C4B657920000D0A006E619F
:1042C6006E00696E66006F7666002E0000000000C4
:1042D6000610C00E870FA10F930FE40F0000000019
:1042E600E813FD13811384138713A6181419D71323
:1042F600E419101A0000000000000000750F750F89
:0C430600750F750F750F750F750F750F93
:00000001FF
