:100000000C9479000C94220F0C944F0F0C94A100C7
:100010000C94A1000C94A1000C94A1000C94A100DC
:100020000C94A1000C94A1000C94A1000C94A100CC
:100030000C94A1000C94A1000C94A1000C94A100BC
:100040000C94AA040C94A1000C9440090C9483090C
:100050000C94A1000C94A1000C94A1000C94A1009C
:100060000C94A1000C94A10052464D313242204420
:100070006574656374696F6E204641494C21005276
:10008000464D313242204465746563746564204F87
:100090004B210000000007000201000003040600DD
:1000A0000000000000000001020408102040800150
:1000B00002040810200102040810200404040404AF
:1000C0000404040202020202020303030303030006
:1000D0000000002300260029000000000025002861
:1000E000002B0000000000240027002A00009903D4
:1000F000460A11241FBECFEFD8E0DEBFCDBF11E00E
:10010000A0E0B1E0EAE2F6E202C005900D92A03A6A
:10011000B107D9F724E0A0EAB1E001C01D92A133F4
:10012000B207E1F710E0C9E7D0E004C02197FE0173
:100130000E940D13C737D107C9F70E9499080C9484
:10014000D80F0C940000CF92EF920F9340E051EE45
:1001500060E070E08DEE92E00E94BE091092DD0238
:100160001092DC028CE98093DB0242E06AE08EEDC3
:1001700092E00E94990E882319F06FE770E002C0A8
:1001800068E670E08DEE92E00E94C10642EC51E01C
:1001900060E08EED92E00E94F20C85E0C82E98E0BF
:1001A000E92E00E028EC42E0609105018EED92E03E
:1001B0000E94330C0F91EF90CF9008950F931F93EF
:1001C000CF93C82F8B0161E00E94AF0560E08C2FB8
:1001D0000E94EB05B801110F880B990B0E942505B1
:1001E00061E08C2FCF911F910F910C94EB05EF9252
:1001F0000F938EED92E00E94890D811103C080E083
:1002000090E059C080911D0490911E04892BB9F78C
:1002100064EE7CE08EED92E00E940C0D8093DB0298
:100220008EED92E00E94EE0E909104018913E7CFCB
:10023000E091E202F091E3029081973001F7E091C2
:10024000E002F091E102ACECB2E001900D929A95DF
:10025000E1F72091CE023091CF029091DB02F901BB
:10026000E859FD4F9083F901EC5FFD4F4091D002BA
:1002700040832091050130E03093CD022093CC02E1
:100280009093D0029CE0E92E01E027E04CEC52E094
:10029000682F8EED92E00E94600E81E090E0209148
:1002A000CE023091CF022336310510F480E090E089
:1002B0009195819591090F91EF900895EF920F9389
:1002C000CF93DF932091DC023091DD02243631059B
:1002D00009F48BC08091050190E09093CD0280934A
:1002E000CC023093CF022093CE028091DB02809328
:1002F000D0028CE0E82E01E027E04CEC52E0609167
:1003000004018EED92E00E94600EC4E6D0E08EED16
:1003100092E00E94890D882309F45BC080911D043E
:1003200090911E04892B09F054C064EE7CE08EEDA0
:1003300092E00E940C0D8093DB028EED92E00E9411
:10034000EE0E9091040189134AC0E091E202F0910F
:10035000E3028081873009F042C0E091E002F09131
:10036000E102ACECB2E001900D928A95E1F7809148
:10037000CE029091CF02FC01E859FD4F2091D002AE
:1003800020832091DC023091DD02F901EC5FFD4F0A
:100390004091DB0240838217930729F401969093E2
:1003A000DD028093DC028091DC029091DD020E94EC
:1003B000CD0F0E94C80F68EC70E00E949612BC013D
:1003C0006C597F4F072E000C880B990B0E94250556
:1003D00009C06AE070E080E090E00E942505219766
:1003E00009F095CF80E090E002C08FEF9FEFDF91A2
:1003F000CF910F91EF9008952F923F924F925F927D
:100400006F927F928F929F92AF92BF92CF92DF9224
:10041000EF92FF920F931F93CF93DF93CDB7DEB789
:100420002C970FB6F894DEBF0FBECDBF1C015C83C6
:100430004B833C872B871E830D83FC01A12CB12CA1
:10044000062F062E000C110BCF018219930980177D
:10045000910734F48191A80EB11C87FDBA94F4CFB2
:10046000062E000C770B880B990B0E9400116F83EE
:10047000788789879A87B501BB0C880B990B0E94F6
:1004800000112F81388549855A850E9456102B010D
:100490003C01EB81FC8160837183828393833A8288
:1004A0002982812C912C540189819A818219930986
:1004B00080179107ECF4E981FA816191FA83E9836D
:1004C000062E000C770B880B990B0E940011A301DC
:1004D00092010E94E40F9B01AC010E94B5119B01A7
:1004E000AC01C501B4010E94E50F4B015C01DCCFFA
:1004F0002F81388549855A85C501B4010E9456105F
:100500004B015C010E9428129B01AC01EB85FC852C
:100510006083718382839383C701B6010E94B51102
:100520009B01AC01EB81FC816081718182819381AF
:100530000E94E40F6093D7027093D8028093D9028F
:100540009093DA026093D3027093D4028093D50221
:100550009093D60268E071E08DEE92E00E94A406CE
:10056000EB81FC81408151816281738122E030E026
:100570008DEE92E00E9485086EE171E08DEE92E0D2
:100580000E94A40622E030E0B501A4018DEE92E0C5
:100590000E94850867E271E08DEE92E00E94A40659
:1005A000EB85FC85408151816281738122E030E0DE
:1005B0008DEE92E00E94850864E371E08DEE92E09A
:1005C0000E94A4064091D7025091D8026091D902AE
:1005D0007091DA0222E030E08DEE92E00E94850810
:1005E00069E471E08DEE92E00E94A4064091D3028E
:1005F0005091D4026091D5027091D60222E030E091
:100600008DEE92E00E9487086101E12CF12CBB2461
:10061000B394C6018219930980179107B4F5F601C6
:1006200061916F01062E000C770B880B990B0E94CD
:1006300000112B013C012091D7023091D80240914A
:10064000D9025091DA020E94511087FF08C0F101CF
:10065000EE0DFF1D1082FFEFEF1AFF0ADACF209197
:10066000D3023091D4024091D5025091D602C301F9
:10067000B2010E94B011181664F6F101EE0DFF1DD3
:10068000B0828FEFE81AF80AC4CFED81FE81E082D4
:1006900060E571E08DEE92E00E94A4064AE050E031
:1006A000ED81FE8160818DEE92E00E94990767E600
:1006B00071E08DEE92E00E94A4068101ED81FE8141
:1006C000808190E09801221933092817390798F49E
:1006D000F80161918F01062E000C770B4AE050E083
:1006E0008DEE92E00E9485076AE671E08DEE92E061
:1006F0000E94A406E3CF6CE671E08DEE92E02C96AA
:100700000FB6F894DEBF0FBECDBFDF91CF911F9122
:100710000F91FF90EF90DF90CF90BF90AF909F90A0
:100720008F907F906F905F904F903F902F900C94A0
:10073000D306EEEDF2E08BE993E0938382838AE9BE
:1007400093E09583848380E791E09093D202809335
:10075000D10208958F929F92AF92BF92CF92DF9273
:10076000EF92FF920F931F93CF93DF93CDB7DEB736
:1007700029970FB6F894DEBF0FBECDBF1D821E8233
:100780001F82188619821A821B821C8260910501C1
:100790004AE050E06F3010F0609104018DEE92E07D
:1007A0000E94990768E671E08DEE92E00E94A4062F
:1007B00004E012E0D8016D918D01062E000C770B3C
:1007C0004AE050E08DEE92E00E9485076CE771E010
:1007D0008DEE92E00E94A406B2E008361B0751F7A6
:1007E0006EE771E08DEE92E00E94D30684E6E0EAC7
:1007F000F1E0DF01982F1D929A95E9F7E4E0F2E02D
:10080000A0EAB1E001900D928A95E1F7812C912C3C
:1008100090E4A92EBA2C750164018E01075F1F4F69
:100820009E012F5F3F4FAE014B5F5F4F64E680EA52
:1008300091E00E94FC01609105014AE050E06F30B8
:1008400010F4609104018DEE92E00E94990768E631
:1008500071E08DEE92E00E94A40608E612E0D80155
:100860006D918D01062E000C770B4AE050E08DEE65
:1008700092E00E9485076CE771E08DEE92E00E94A5
:10088000A406B2E00C3C1B0751F76EE771E08DEE59
:1008900092E00E94D30684E6E0EAF1E0DF01982FBF
:1008A0001D929A95E9F7E8E6F2E0A0EAB1E001903E
:1008B0000D928A95E1F7812C912C80E4A82EBA2C18
:1008C000750164018E01075F1F4F9E012F5F3F4F2F
:1008D000AE014B5F5F4F64E680EA91E00E94FC014D
:1008E0008DEE92E00E94F20868EE73E080E090E006
:1008F0000E9425051092DD021092DC0280E090E05B
:1009000029960FB6F894DEBF0FBECDBFDF91CF9111
:100910001F910F91FF90EF90DF90CF90BF90AF901D
:100920009F908F900895CF93809105018F3018F498
:100930000E945E0102C00E94F700C82F6AE070E0CA
:1009400089E00E94DE00CC2319F0CF910C94AA0319
:10095000CF9108951F920F920FB60F9211242F93EB
:100960003F938F939F93AF93BF938091E5029091B4
:10097000E602A091E702B091E8023091E40223E0A0
:10098000230F2D3720F40196A11DB11D05C026E8C7
:10099000230F0296A11DB11D2093E4028093E5026E
:1009A0009093E602A093E702B093E8028091E902F7
:1009B0009091EA02A091EB02B091EC020196A11D88
:1009C000B11D8093E9029093EA02A093EB02B093E9
:1009D000EC02BF91AF919F918F913F912F910F901A
:1009E0000FBE0F901F9018952FB7F8946091E502F5
:1009F0007091E6028091E7029091E8022FBF08957E
:100A00003FB7F8948091E9029091EA02A091EB023D
:100A1000B091EC0226B5A89B05C02F3F19F00196B6
:100A2000A11DB11D3FBFBA2FA92F982F8827820F74
:100A3000911DA11DB11DBC01CD0142E0660F771FC4
:100A4000881F991F4A95D1F70895CF92DF92EF92B0
:100A5000FF92CF93DF936B017C010E940005EB01B5
:100A6000C114D104E104F10479F00E9400056C1B6B
:100A70007D0B683E7340A0F381E0C81AD108E108FD
:100A8000F108C851DC4FECCFDF91CF91FF90EF9090
:100A9000DF90CF900895789484B5826084BD84B54A
:100AA000816084BD85B5826085BD85B5816085BD69
:100AB000EEE6F0E0808181608083E1E8F0E0108282
:100AC000808182608083808181608083E0E8F0E0C3
:100AD000808181608083E1EBF0E0808184608083AD
:100AE000E0EBF0E0808181608083EAE7F0E08081E4
:100AF0008460808380818260808380818160808344
:100B00008081806880831092C1000895833081F0D5
:100B100028F4813099F08230A1F008958630A9F050
:100B20008730B9F08430D1F4809180008F7D03C08C
:100B3000809180008F7780938000089584B58F77AF
:100B400002C084B58F7D84BD08958091B0008F77F9
:100B500003C08091B0008F7D8093B0000895CF9343
:100B6000DF9390E0FC01E955FF4F2491FC01E5542F
:100B7000FF4F8491882361F190E0880F991FFC0159
:100B8000ED51FF4FC591D491FC01E752FF4FA59164
:100B9000B491611109C09FB7F89488812095822390
:100BA0008883EC912E230BC0623061F49FB7F894D8
:100BB0003881822F809583238883EC912E2B2C9370
:100BC0009FBF06C08FB7F894E8812E2B28838FBF74
:100BD000DF91CF9108951F93CF93DF93282F30E0BB
:100BE000F901ED56FF4F8491F901E955FF4FD4917A
:100BF000F901E554FF4FC491CC23C9F0162F8111A0
:100C00000E948605EC2FF0E0EE0FFF1FE752FF4F2A
:100C1000A591B4918FB7F894111105C09C91ED2F57
:100C2000E095E92302C0EC91ED2BEC938FBFDF91AF
:100C3000CF911F910895CF93DF93282F30E0F901D2
:100C4000ED56FF4F8491F901E955FF4FD491F90119
:100C5000E554FF4FC491CC2391F081110E94860589
:100C6000EC2FF0E0EE0FFF1FE153FF4FA591B49181
:100C7000EC91ED2381E090E021F480E002C080E07F
:100C800090E0DF91CF910895CF92DF92EF92FF92A3
:100C90000F931F93CF93DF936C01EB017B01E40E65
:100CA000F51E00E010E0CE15DF0561F06991D60178
:100CB000ED91FC910190F081E02DC6010995080F9E
:100CC000191FF1CFC801DF91CF911F910F91FF90B4
:100CD000EF90DF90CF9008956115710579F0FB01D9
:100CE00001900020E9F73197AF01461B570BDC015B
:100CF000ED91FC910280F381E02D099480E090E079
:100D00000895EF92FF920F931F93CF93DF937C018F
:100D1000FB0100E010E06491EF012196662361F091
:100D2000D701ED91FC910190F081E02DC70109956B
:100D3000080F191FFE01EFCFC801DF91CF911F915E
:100D40000F91FF90EF9008950C946C06DC01ED91EB
:100D5000FC910190F081E02D09940F931F93CF93A4
:100D6000DF93EC016DE00E94A6068C016AE0CE01E3
:100D70000E94A606800F911FDF91CF911F910F91C6
:100D800008950F931F93CF93DF93EC010E94810688
:100D90008C01CE010E94AD06800F911FDF91CF9193
:100DA0001F910F9108950F931F93CF93DF93EC0141
:100DB0000E946C068C01CE010E94AD06800F911F2F
:100DC000DF91CF911F910F9108958F929F92AF92D3
:100DD000BF92CF92DF92EF92FF920F931F93CF9328
:100DE000DF93CDB7DEB7A1970FB6F894DEBF0FBE85
:100DF000CDBF6C01142FE52FCB01022F19A2223099
:100E000008F40AE07E0121E2E20EF11C802E912C12
:100E1000A12CB12C612F7E2FA50194010E94AA1252
:100E2000029F1019112481E0E81AF1081A3014F415
:100E3000105D01C0195CF7011083122FE32FCA0166
:100E4000232B242B252B31F7B701C6010E946C06FA
:100E5000A1960FB6F894DEBF0FBECDBFDF91CF9144
:100E60001F910F91FF90EF90DF90CF90BF90AF90C8
:100E70009F908F900895CF92DF92EF92FF920F9301
:100E80001F93CF93DF93EC016A017B01211531059C
:100E900079F4E881F9810190F081E02D642FDF91F0
:100EA000CF911F910F91FF90EF90DF90CF90099419
:100EB0002A303105E9F477FF1AC06DE20E94A606D8
:100EC0008C0144275527BA014C195D096E097F0929
:100ED0002AE0CE010E94E506800F911FDF91CF919D
:100EE0001F910F91FF90EF90DF90CF9008952AE02F
:100EF000B701A601CE01DF91CF911F910F91FF9015
:100F0000EF90DF90CF900C94E5069A01AB01770F3C
:100F1000660B770B0C943B072115310541F4DC017E
:100F2000ED91FC910190F081E02D642F09940C94D7
:100F3000E5069A01462F50E060E070E00C948C07C3
:100F40004F925F926F927F928F929F92AF92BF92D9
:100F5000CF92DF92EF92FF92CF93DF93EC016A0181
:100F60007B01B22E9A01AB01C701B6010E94681243
:100F7000882319F061E871E027C026013701E89461
:100F800077F82FEF3FEF4FE75FE7C301B2010E9411
:100F9000681281110DC02FEF3FEF4FE75FE7C301EC
:100FA000B2010E94511018161CF465E871E00CC0E3
:100FB0002FEF3FEF4FE75FE4C701B6010E94B0118A
:100FC00018169CF469E871E0CE01DF91CF91FF9093
:100FD000EF90DF90CF90BF90AF909F908F907F90D9
:100FE0006F905F904F900C946C062FEF3FEF4FE7A0
:100FF0005FECC701B6010E94511087FDE3CF20E0EE
:1010000030E0A901C701B6010E94511087FF0AC054
:101010006DE2CE010E94A6064C01F7FAF094F7F8B3
:10102000F09402C0812C912CA12C60E070E080E053
:101030009FE3AB1441F020E030E040E251E40E9435
:101040005610A394F6CF9B01AC01C701B6010E94D4
:10105000E50F2B013C010E94CF106B017C010E9427
:10106000FE109B01AC01C301B2010E94E40F2B01F1
:101070003C012AE0B701A601CE010E94E5067C01F1
:10108000E80CF91CBB2039F06DE871E0CE010E943C
:101090006C06E80EF91EDB2CDD2039F120E030E093
:1010A00040E251E4C301B2010E94B5112B013C01A1
:1010B0000E94C8104B01770FAA08BB082AE030E055
:1010C000B501A401CE010E943B07E80EF91EC5013F
:1010D000B4010E9400119B01AC01C301B2010E9446
:1010E000E40F2B013C01DA94D7CFC701DF91CF91F8
:1010F000FF90EF90DF90CF90BF90AF909F908F9038
:101100007F906F905F904F9008950C94A0070F937D
:101110001F93CF93DF93EC010E94A0078C01CE01B7
:101120000E94AD06800F911FDF91CF911F910F910B
:1011300008950E944B050E94A300CAE7D9E00E94CF
:1011400093042097E1F30E947A09F9CFFC012485EA
:101150003585F901E05CFF4F8081918132962081D5
:101160003181821B930B8F7399270895DC011C96A4
:10117000ED91FC911D97DF01A05CBF4F2D913C913B
:10118000119712968D919C9111972817390739F074
:101190008D919C91E80FF91F808190E008958FEF69
:1011A0009FEF0895FC01A485B585FD01E05CFF4F2C
:1011B000208131813296808191812817390779F019
:1011C00080819181A80FB91F8C91208131812F5F7F
:1011D0003F4F2F7333273183208390E008958FEFA3
:1011E0009FEF0895FC0181A1882329F0A489B58986
:1011F0008C9186FFFBCF11A208950F931F93CF937D
:10120000DF93FC01A685B7858D01005C1F4FE801C7
:101210008881998101968F739927AD014E5B5F4F4D
:10122000EA012881398182179307D1F3E8012881E7
:101230003981A20FB31F6C93A685B785A05CBF4F01
:1012400011969C938E93A689B7892C9181E090E0AA
:10125000078C02C0880F991F0A94E2F7822B8C93A7
:1012600081E081A30488F589E02D808180648083FA
:1012700081E090E0DF91CF911F910F910895089543
:101280001F920F920FB60F9211242F934F935F93DB
:101290008F939F93EF93FF938091C00082FD1CC0BA
:1012A0002091C600809193039091940301968F73CF
:1012B000992740919503509196038417950771F0F3
:1012C000E0919303F0919403ED5AFC4F20839093A7
:1012D00094038093930302C08091C600FF91EF9125
:1012E0009F918F915F914F912F910F900FBE0F9013
:1012F0001F9018958DEE92E00E94A608892B11F0A0
:101300000C943F0908951F920F920FB60F9211246B
:101310002F933F938F939F93EF93FF9320914F03CE
:10132000309150038091510390915203281739074F
:1013300031F48091C1008F7D8093C10014C0E09191
:101340005103F0915203E15FFC4F208180915103E2
:101350009091520301968F73992790935203809333
:1013600051032093C600FF91EF919F918F913F9180
:101370002F910F900FBE0F901F901895CF92DF9274
:10138000EF92FF920F931F93CF93DF93EC016A01CB
:101390007B014115514E6105710509F1EC89FD890B
:1013A00081E090E008A002C0880F991F0A94E2F73C
:1013B000808360E079E08DE390E0A70196010E94D0
:1013C000AA1289019A0101501109210931093695A2
:1013D000279517950795980101151041A8F0EC89FC
:1013E000FD89108260E874E88EE190E0A701960123
:1013F0000E94AA12DA01C9010197A109B109B695A3
:10140000A795979587959C01E889F9893083EA89A2
:10141000FB89208319A2EE89FF89408181E090E059
:101420009C010C8C02C0220F331F0A94E2F7242B7C
:101430002083EE89FF8940819C010D8C02C0220F20
:10144000331F0A94E2F7242B2083EE89FF89408121
:101450009C010E8C02C0220F331F0A94E2F7242B4A
:101460002083EE89FF8920810F8C02C0880F991F8D
:101470000A94E2F7809582238083DF91CF911F91B8
:101480000F91FF90EF90DF90CF900895EDEEF2E096
:101490001382128288EE93E0A0E0B0E0848395830B
:1014A000A683B78383E991E09183808383E593E00A
:1014B000958784878FE093E09787868785EC90E017
:1014C000918B808B84EC90E0938B828B80EC90E00E
:1014D000958B848B81EC90E0978B868B82EC90E0EF
:1014E000918F808F86EC90E0938F828F84E0848F41
:1014F00083E0858F87E0868F85E0878F81E080A3FA
:1015000008958627682F62956827062E669566954A
:101510006025062E669560256770082E892F6695D2
:1015200007946795902D86270694679590258627C2
:101530000895CF93C62F61E0809107010E94EB05CB
:10154000C093070161E08C2F0E94AF0561E080919C
:101550000701CF910C94EB05CF93DF931F92CDB78A
:10156000DEB7809106018250823038F469830E9490
:10157000120F69816093060103C082E08093060127
:1015800060E0809106010E94AF0561E08091060154
:101590000F90DF91CF910C94EB0590912C048091EA
:1015A0000601992339F040E050E06EE37BE0825081
:1015B0000C94F20E82500C94120F809107018A3025
:1015C00021F061E08AE00E94AF0561E080910701AF
:1015D0000E94AF0561E0809107010E94EB0561E088
:1015E0008BE00E94AF0560E08CE00E94AF0561E0F7
:1015F0008DE00E94AF0580E58CBD8DB581608DBD0D
:1016000060E0809106010E94AF0561E080910601D3
:101610000C94EB058EBD0DB407FEFDCF8EB508957D
:10162000EF92FF921F93CF93DF931F92CDB7DEB758
:10163000182F2CB521602CBD60E0809107019983A3
:101640000E94EB059981892F0E940A0BE82EF12C4C
:10165000FE2CEE24812F0E940A0BE82A61E0809183
:1016600007010E94EB058CB58E7F8CBDC7010F90E2
:10167000DF91CF911F91FF90EF900895CF9380E07D
:1016800090E00E94100B80911F04853009F094C0F7
:101690008091240490912504892B91F0809120045D
:1016A00084FD0EC085E880937A00809120048F70BD
:1016B000806480937C0080917A00806480937A00BB
:1016C00080E090EB0E94100B682F80912404909191
:1016D0002504892B69F08091200484FD09C0809144
:1016E0007A0086FDFCCF90917A00906490937A0006
:1016F0008091260481110EC080912B04882351F023
:10170000E091260491E09E0F90932604F0E0E956C4
:10171000FC4F8083E091260481E08E0F80932604A5
:10172000F0E0E956FC4F608380911D0490911E0407
:101730000E94810A90931E0480931D0480912404CA
:1017400090912504892B39F18091200484FD23C0D8
:10175000809121048138F8F480917A0086FDFCCFD5
:10176000809178002091790090E0922B9C012C537D
:1017700031092F35314078F420912204309123042F
:10178000820F931F9093230480932204809121045D
:101790008F5F8093210480919A032091260490E02A
:1017A000059630E0821793070CF456C0809126040A
:1017B000863808F051C055C080911F0487FF1BC0B8
:1017C000E0919A0380911F0491E0980F90931F0479
:1017D000EC5F8E0FE82FF0E0E956FC4FC08180915E
:1017E0001D0490911E046C2F0E94810A90931E0488
:1017F00080931D042DC080911F0491E0980F909359
:101800001F048330F1F054F48823A9F08130E9F407
:1018100080911D0490911E04C92F1AC08930B9F01F
:101820008A3099F4C0912B0490919A038DEF891B13
:1018300080931F040DC080911D0490911E04C82F39
:1018400007C08DE092E80E94100BCAEA01C0CDE209
:101850008C2F90E0985402C08DE092E8CF910C94C8
:10186000100BCF9108958F929F92AF92BF92EF92FB
:101870000F931F93CF93DF9300D000D0CDB7DEB787
:10188000142F10922C042C836B8389839A830E94DB
:10189000CD0A6B8160932C042C8120932B048981C9
:1018A0009A810E94DD0A80E090E00E94100B85E0A2
:1018B00092E80E94100B80E098EB0E94100B0E94AF
:1018C000F4044B015C01809106010E941B06892BE8
:1018D00091F40E94F404DC01CB0188199909AA094A
:1018E000BB09883C9105A105B10528F480E090E092
:1018F0000E94100BE8CF0E94F404DC01CB01881990
:101900009909AA09BB09883C9105A105B10508F010
:1019100054C020E1129FC0011124876C90680E947E
:10192000100B80E496EA0E94100B8E2D90E09A53E3
:101930000E94100B82EA94E90E94100B8CEA92EC50
:101940000E94100B80912B04882349F083E89AECC5
:101950000E94100B80912B0490E09E6C06C08BE8D7
:101960009AEC0E94100B8DE29EEC0E94100B83E813
:1019700094EC0E94100B083028F4802F90E08065D2
:10198000986902C087E598E90E94100B87E79CECF4
:101990000E94100B80E090EE0E94100B80E098EC0B
:1019A0000E94100B83E490EC0E94100B84E0809363
:1019B0001F040E94CD0A81E001C080E00F900F90CB
:1019C0000F900F90DF91CF911F910F91EF90BF90EB
:1019D000AF909F908F900895CB01F8940E94100BC8
:1019E00078940895CF93C62F5093250440932404F0
:1019F00060E08EE08C0F0E94AF05F8948091200487
:101A0000807F8093200480912004CF70C82BC093E6
:101A100020047894CF910895CF93DF93EB018091C8
:101A20001F04843011F58091240490912504892BA2
:101A3000F1F0F89420912204309123049091210434
:101A4000789496301CF482E9891B3FC040912404AD
:101A5000509125044C32514060F040912404509143
:101A600025044935524038F004C08AE92EC088E97F
:101A70002CC089E92AC04091240450912504E091AA
:101A80002404F0912504692F990F770BC9010E9456
:101A900082129B01DE010E94EB12DC01CB012AE0E5
:101AA000B695A795979587952A95D1F78E1B9F0B8D
:101AB00064E170E00E9482128CE9860F8D3924F077
:101AC0008F3B1CF080EC01C08BE9DF91CF91089532
:101AD00010929A03109226048FEF9FEF90931E04AA
:101AE00080931D0460912B04662331F00E94810ACB
:101AF00090931E0480931D041092230410922204DC
:101B00001092210485E080931F048DED92E80C94DF
:101B1000100BFC0180911F04853039F520919A0348
:101B20004091260430E02B5F3F4F50E024173507EB
:101B300024F0809126048638C0F084E080931F044E
:101B400080919A03813830F081E090E090931E04F8
:101B500080931D04909198039F7781F09091980352
:101B60009F7780912C04981749F080911F0484304E
:101B700019F4CF010E94680D80E0089580911D0442
:101B800090911E04892B41F40190F081E02D309753
:101B900019F080E009950BC08FEF9FEFDC01809377
:101BA000270490932804A0932904B0932A0481E089
:101BB000089580911F04853089F480912604811155
:101BC0000DC00E940A0B80FD09C08DE092E80E94C2
:101BD000100B84E080931F0481E0089580E0089555
:101BE000FC01211102C090E001C090E8692B6093D4
:101BF000980390912C04411102C020E001C020E81C
:101C0000922B909399030190F081E02D309711F081
:101C100081E009958FEF9FEF90931E0480931D0440
:101C200080911D0490911E0460912B040E94810AF2
:101C300090931E0480931D0486E080931F048DE31F
:101C400092E80C94100B80911F048430B9F0662345
:101C5000D1F383B7817F633021F0623021F090E0CF
:101C600003C094E001C09CE0892B83BF83B78160EF
:101C700083BF889583B78E7F83BFE5CF0895CF92CA
:101C8000EF920F931F93CF93DF93EC01162FBA01BE
:101C900020939A03422F50E08BE993E00E94DB0FE0
:101CA0002E2D402F612FCE010E94F00D6C2DCE0104
:101CB000DF91CF911F910F91EF90CF900C94230E55
:101CC0008F929F92AF92BF92CF92EF920F93CF934A
:101CD000DF9300D0CDB7DEB74C015A01C4012A838F
:101CE00069830E94D90D2A816981811108C0C401CC
:101CF0002A8369830E94890D69812A81EFCFCE2CC6
:101D0000E12CA501C4010E943F0E0F900F90DF91BE
:101D1000CF910F91EF90CF90BF90AF909F908F9009
:101D2000089560E070E00E94EC0C92FB882780F937
:101D30000895AF92BF92CF92EF920F931F93CF93DC
:101D4000DF931F92CDB7DEB75C0149830E94990AE9
:101D50004981642FC5010E94AC0A85E0C82E98E035
:101D6000E92E00E02AEA41E061E0C5010E94330C5F
:101D7000882341F16FE470ECC5010E94EC0C6AE02D
:101D800070E080E090E00E942505C5010E94910E60
:101D9000882389F060E470ECC5010E94EC0C6AE0D5
:101DA00070E080E090E00E942505C5010E94910E40
:101DB00011E0182701C010E060E070ECC5010E943E
:101DC000EC0C01C010E0812F0F90DF91CF911F919B
:101DD0000F91EF90CF90BF90AF90089580919903AD
:101DE0008F7708958230E8F4E82FF0E0EE0FFF1FC0
:101DF000E35DFB4F71836083813041F08091690026
:101E00008C7F482B40936900E89A0895809169007F
:101E1000440F551F440F551F837F482B4093690083
:101E2000E99A0895823068F4813011F0E89801C091
:101E3000E998E82FF0E0EE0FFF1FE35DFB4F118202
:101E4000108208951F920F920FB60F9211242F93B4
:101E50003F934F935F936F937F938F939F93AF9332
:101E6000BF93EF93FF9380912D0490912E04892BC3
:101E700029F0E0912D04F0912E040995FF91EF9146
:101E8000BF91AF919F918F917F916F915F914F9192
:101E90003F912F910F900FBE0F901F9018951F929A
:101EA0000F920FB60F9211242F933F934F935F938E
:101EB0006F937F938F939F93AF93BF93EF93FF9312
:101EC00080912F0490913004892B29F0E0912F0408
:101ED000F09130040995FF91EF91BF91AF919F91DF
:101EE0008F917F916F915F914F913F912F910F90C3
:101EF0000FBE0F901F9018958F929F92AF92BF9236
:101F0000CF92DF92EF92FF92CF93DF93EC01688143
:101F100079818A819B81611571058105910521F483
:101F200064E279ED8BE597E02DE133EF41E050E09D
:101F30000E94CC1249015A019B01AC01A7EAB1E40D
:101F40000E94FA126B017C01ACEEB4EFA501940182
:101F50000E940813DC01CB018C0D9D1DAE1DBF1D21
:101F6000B7FF03C00197A109B04888839983AA836A
:101F7000BB839F77DF91CF91FF90EF90DF90CF9061
:101F8000BF90AF909F908F9008950E947C0F08950E
:101F900080E091E00E947C0F0895A0E0B0E0809383
:101FA000000190930101A0930201B09303010895F1
:101FB000F8940C941313FB01DC0102C001900D9204
:101FC00041505040D8F708955058BB27AA270E9487
:101FD000FC0F0C9476110E94681138F00E946F116A
:101FE00020F039F49F3F19F426F40C9465110EF497
:101FF000E095E7FB0C945F11E92F0E94871158F3DD
:10200000BA17620773078407950720F079F4A6F5DD
:102010000C94A9110EF4E0950B2EBA2FA02D0B01F4
:10202000B90190010C01CA01A0011124FF27591B1D
:1020300099F0593F50F4503E68F11A16F040A22F23
:10204000232F342F4427585FF3CF46953795279594
:10205000A795F0405395C9F77EF41F16BA0B620B93
:10206000730B840BBAF09150A1F0FF0FBB1F661FDA
:10207000771F881FC2F70EC0BA0F621F731F841F1D
:1020800048F4879577956795B795F7959E3F08F043
:10209000B0CF9395880F08F09927EE0F9795879505
:1020A00008950E943B1108F481E008950E946A108F
:1020B0000C9476110E946F1158F00E94681140F044
:1020C00029F45F3F29F00C945F1151110C94AA116F
:1020D0000C9465110E94871168F39923B1F355237D
:1020E00091F3951B550BBB27AA276217730784072B
:1020F00038F09F5F5F4F220F331F441FAA1FA9F3C1
:1021000035D00E2E3AF0E0E832D091505040E695AE
:10211000001CCAF72BD0FE2F29D0660F771F881F0F
:10212000BB1F261737074807AB07B0E809F0BB0B02
:10213000802DBF01FF2793585F4F3AF09E3F510516
:1021400078F00C945F110C94AA115F3FE4F3983E71
:10215000D4F3869577956795B795F7959F5FC9F7FF
:10216000880F911D9695879597F90895E1E0660F80
:10217000771F881FBB1F621773078407BA0720F0F9
:10218000621B730B840BBA0BEE1F88F7E095089562
:102190000E94CF106894B1110C94AA1108950E9466
:1021A0008F1188F09F5798F0B92F9927B751B0F049
:1021B000E1F0660F771F881F991F1AF0BA95C9F7CB
:1021C00014C0B13091F00E94A911B1E008950C94AF
:1021D000A911672F782F8827B85F39F0B93FCCF362
:1021E000869577956795B395D9F73EF49095809548
:1021F000709561957F4F8F4F9F4F0895E89409C068
:1022000097FB3EF490958095709561957F4F8F4F29
:102210009F4F9923A9F0F92F96E9BB279395F6953F
:10222000879577956795B795F111F8CFFAF4BB0FBD
:1022300011F460FF1BC06F5F7F4F8F4F9F4F16C021
:10224000882311F096E911C0772321F09EE8872FAB
:10225000762F05C0662371F096E8862F70E060E067
:102260002AF09A95660F771F881FDAF7880F9695E0
:10227000879597F90895990F0008550FAA0BE0E884
:10228000FEEF16161706E807F907C0F01216130638
:10229000E407F50798F0621B730B840B950B39F478
:1022A0000A2661F0232B242B252B21F408950A26DE
:1022B00009F4A140A6958FEF811D811D089597F91E
:1022C0009F6780E870E060E008959FEF80EC0895DC
:1022D00000240A9416161706180609060895002405
:1022E0000A9412161306140605060895092E03947F
:1022F000000C11F4882352F0BB0F40F4BF2B11F4F3
:1023000060FF04C06F5F7F4F8F4F9F4F089557FD51
:102310009058440F551F59F05F3F71F04795880F53
:1023200097FB991F61F09F3F79F0879508951216EA
:1023300013061406551FF2CF4695F1DF08C0161696
:1023400017061806991FF1CF869571056105089447
:102350000895E894BB2766277727CB0197F908955E
:102360000E943B1108F48FEF08950E94C8110C944D
:1023700076110E94681138F00E946F1120F09523A9
:1023800011F00C945F110C94651111240C94AA1196
:102390000E94871170F3959FC1F3950F50E0551F70
:1023A000629FF001729FBB27F00DB11D639FAA27AA
:1023B000F00DB11DAA1F649F6627B00DA11D661FF9
:1023C000829F2227B00DA11D621F739FB00DA11D1A
:1023D000621F839FA00D611D221F749F3327A00DD4
:1023E000611D231F849F600D211D822F762F6A2F70
:1023F00011249F5750409AF0F1F088234AF0EE0FD5
:10240000FF1FBB1F661F771F881F91505040A9F701
:102410009E3F510580F00C945F110C94AA115F3F10
:10242000E4F3983ED4F3869577956795B795F7953D
:10243000E7959F5FC1F7FE2B880F911D96958795B5
:1024400097F9089519F416F40C9465110C946D1213
:102450000E948F11B8F39923C9F3B6F39F57550B18
:1024600087FF0E947B120024A0E640EA900180587A
:102470005695979528F4805C660F771F881F20F08B
:1024800026173707480730F4621B730B840B20298B
:1024900031294A2BA69517940794202531254A27E0
:1024A00058F7660F771F881F20F026173707480751
:1024B00030F4620B730B840B200D311D411DA09570
:1024C00081F7B901842F9158880F969587950895C3
:1024D0000E943B11880B990B08959F3F31F091505A
:1024E00020F4879577956795B795880F911D9695F8
:1024F000879597F9089591505040660F771F881F70
:10250000D2F70895AA1BBB1B51E107C0AA1FBB1F2E
:10251000A617B70710F0A61BB70B881F991F5A956F
:10252000A9F780959095BC01CD01089597FB072EE2
:1025300016F4009407D077FD09D00E94821207FCA0
:1025400005D03EF4909581959F4F089570956195C3
:102550007F4F0895A1E21A2EAA1BBB1BFD010DC0DF
:10256000AA1FBB1FEE1FFF1FA217B307E407F50743
:1025700020F0A21BB30BE40BF50B661F771F881F1F
:10258000991F1A9469F760957095809590959B01B5
:10259000AC01BD01CF010895052E97FB1EF40094F8
:1025A0000E94E31257FD07D00E94AA1207FC03D035
:1025B0004EF40C94E31250954095309521953F4F81
:1025C0004F4F5F4F089590958095709561957F4F1F
:1025D0008F4F9F4F0895A29FB001B39FC001A39F4B
:1025E000700D811D1124911DB29F700D811D11244C
:1025F000911D08950E94EB12A59F900DB49F900D20
:10260000A49F800D911D11240895B7FF0C94FA1218
:102610000E94FA12821B930B0895EE0FFF1F059084
:0A262000F491E02D0994F894FFCF27
:10262A0001000000140A020A2A2A2A5341445A4184
:10263A0044492A2A2A2020417667203A200020206D
:10264A00566172203A200020205374642044657633
:10265A00203A2000205468726573686F6C64732096
:10266A002D3E204C54203A2000205254203A20007B
:10267A004578747261632042697473285361647A7D
:10268A006164692920280029203A20002023230098
:10269A00544845204D455353414745003B002626A3
:1026AA00006E616E00696E66006F7666002E00002D
:1026BA00000000FD084406A608D208B608F2080081
:00000001FF
