:100000000C9463000C94DD0B0C940A0C0C948B0084
:100010000C948B000C948B000C948B000C948B0034
:100020000C948B000C948B000C948B000C948B0024
:100030000C948B000C948B000C948B000C948B0014
:100040000C9493020C948B000C94FB050C943E06CC
:100050000C948B000C948B000C948B000C948B00F4
:100060000C948B000C948B00000000070002010030
:100070000003040600000000000000000102040864
:100080001020408001020408102001020408102002
:10009000040404040404040402020202020203032E
:1000A00003030303000000002300260029000000D2
:1000B0000000250028002B0000000000240027007D
:1000C0002A00F601010711241FBECFEFD8E0DEBFE2
:1000D000CDBF11E0A0E0B1E0E4E6FAE102C0059096
:1000E0000D92AE32B107D9F726E0AEE2B1E001C021
:1000F0001D92A437B207E1F710E0C3E6D0E004C0D8
:100100002197FE010E942A0DC136D107C9F70E942E
:1001100054050C94930C0C940000CF92EF920F9323
:1001200040E051EE60E070E080E395E00E947906E7
:1001300010921F0510921E058CE980931D0542E068
:100140006AE081E295E00E94540B882339F042EC8A
:1001500051E060E081E295E00E94AD0985E0C82EA3
:1001600098E0E92E00E028EC42E06091050181E290
:1001700095E00E94EE080F91EF90CF9008950F93B5
:100180001F93CF93C82F8B0161E00E94980360E01A
:100190008C2F0E94D403B801110F880B990B0E9479
:1001A0000E0361E08C2FCF911F910F910C94D4031B
:1001B000EF920F9381E295E00E94440A811103C0FF
:1001C00080E090E060C08091600690916106892B8C
:1001D000B9F764EE7CE081E295E00E94C709809364
:1001E0001D0581E295E00E94A90B909104018913FD
:1001F000E7CFE0912505F09126058081873001F752
:10020000E0912305F0912405A6E1B5E001900D925F
:100210008A95E1F7809118059091190520911D05A7
:10022000FC01EE5DFC4F2083FC01E25DFE4F30914E
:100230001A0530838091050190E090931705809313
:10024000160520931A056AE070E080E090E00E94B5
:100250000E038CE0E82E01E027E046E155E06091D6
:10026000200581E295E00E941B0B81E090E0209147
:10027000180530911905233F314010F480E090E0DB
:100280009195819591090F91EF900895EF920F93B9
:10029000CF93DF9320911E0530911F05243F41E04D
:1002A000340709F49CC08091050190E090931705F4
:1002B00080931605309319052093180580911D052C
:1002C00080931A058CE0E82E01E027E046E155E036
:1002D0006091200581E295E00E941B0BC4E6D0E00E
:1002E00081E295E00E94440A882309F46CC0809161
:1002F000600690916106892B09F065C064EE7CE090
:1003000081E295E00E94C70980931D0581E295E096
:100310000E94A90B9091040189135BC0E09125050F
:10032000F09126058081873009F053C0E0912305C4
:10033000F0912405A6E1B5E001900D928A95E1F7D0
:100340002091180530911905F901EE5DFC4F80915F
:100350001A05808340911E0550911F0580911D054F
:10036000FA01E25DFE4F80832417350731F42F5FD9
:100370003F4F30931F0520931E05082E000C990B4C
:1003800097FF03C091958195910920911E053091A9
:100390001F05AC01429FC001439F900D529F900DDD
:1003A00011240E94880C0E94830C68EC70E00E946B
:1003B000B30CBC016C597F4F072E000C880B990BB6
:1003C0000E940E0309C062E370E080E090E00E94AA
:1003D0000E03219709F084CF80E090E002C08FEFF8
:1003E0009FEFDF91CF910F91EF900895E1E2F5E05B
:1003F0008EED95E0938382838DED95E095838483E4
:1004000088E091E090931C0580931B050895CF939D
:10041000DF93609105014AE050E06F3010F0609189
:10042000040180E395E00E944D0564E171E080E302
:1004300095E00E946A04CEE2D1E06991062E000C9C
:10044000770B4AE050E080E395E00E94390568E1CF
:1004500071E080E395E00E946A0483E0C232D8072D
:1004600061F76AE171E080E395E00E94870480E330
:1004700095E00E94AD05609105014AE050E06F30C3
:1004800010F46091040180E395E00E944D0564E161
:1004900071E080E395E00E946A04C2E2D3E06991D2
:1004A000062E000C770B4AE050E080E395E00E94B6
:1004B000390568E171E080E395E00E946A0485E017
:1004C000C631D80761F76AE171E080E395E00E94E8
:1004D000870480E395E00E94AD0568EE73E080E05C
:1004E00090E00E940E0310921F0510921E0580E0FE
:1004F00090E0DF91CF910895CF93809105018F30E7
:1005000018F40E94460102C00E94D800C82F6AE079
:1005100070E089E00E94BF00CC2319F0CF910C94C9
:100520000702CF9108951F920F920FB60F921124D8
:100530002F933F938F939F93AF93BF938091280501
:1005400090912905A0912A05B0912B05309127059E
:1005500023E0230F2D3720F40196A11DB11D05C006
:1005600026E8230F0296A11DB11D20932705809335
:10057000280590932905A0932A05B0932B05809117
:100580002C0590912D05A0912E05B0912F05019677
:10059000A11DB11D80932C0590932D05A0932E05D0
:1005A000B0932F05BF91AF919F918F913F912F9164
:1005B0000F900FBE0F901F9018952FB7F894609171
:1005C00028057091290580912A0590912B052FBF50
:1005D00008953FB7F89480912C0590912D05A09136
:1005E0002E05B0912F0526B5A89B05C02F3F19F009
:1005F0000196A11DB11D3FBFBA2FA92F982F8827A3
:10060000820F911DA11DB11DBC01CD0142E0660FFD
:10061000771F881F991F4A95D1F70895CF92DF92CF
:10062000EF92FF92CF93DF936B017C010E94E9026E
:10063000EB01C114D104E104F10479F00E94E90254
:100640006C1B7D0B683E7340A0F381E0C81AD10893
:10065000E108F108C851DC4FECCFDF91CF91FF905A
:10066000EF90DF90CF900895789484B5826084BD38
:1006700084B5816084BD85B5826085BD85B58160A6
:1006800085BDEEE6F0E0808181608083E1E8F0E006
:100690001082808182608083808181608083E0E835
:1006A000F0E0808181608083E1EBF0E08081846014
:1006B0008083E0EBF0E0808181608083EAE7F0E016
:1006C000808184608083808182608083808181607A
:1006D00080838081806880831092C1000895833078
:1006E00081F028F4813099F08230A1F008958630AD
:1006F000A9F08730B9F08430D1F4809180008F7DEB
:1007000003C0809180008F7780938000089584B526
:100710008F7702C084B58F7D84BD08958091B0002D
:100720008F7703C08091B0008F7D8093B0000895D3
:10073000CF93DF9390E0FC01E458FF4F2491FC013C
:10074000E057FF4F8491882361F190E0880F991F53
:10075000FC01E854FF4FC591D491FC01E255FF4FD5
:10076000A591B491611109C09FB7F8948881209533
:1007700082238883EC912E230BC0623061F49FB7F3
:10078000F8943881822F809583238883EC912E2BD7
:100790002C939FBF06C08FB7F894E8812E2B288337
:1007A0008FBFDF91CF9108951F93CF93DF93282FB1
:1007B00030E0F901E859FF4F8491F901E458FF4F07
:1007C000D491F901E057FF4FC491CC23C9F0162F03
:1007D00081110E946F03EC2FF0E0EE0FFF1FE25536
:1007E000FF4FA591B4918FB7F894111105C09C915A
:1007F000ED2FE095E92302C0EC91ED2BEC938FBF38
:10080000DF91CF911F910895CF93DF93282F30E090
:10081000F901E859FF4F8491F901E458FF4FD49151
:10082000F901E057FF4FC491CC2391F081110E9450
:100830006F03EC2FF0E0EE0FFF1FEC55FF4FA5917B
:10084000B491EC91ED2381E090E021F480E002C0CE
:1008500080E090E0DF91CF910895CF92DF92EF9208
:10086000FF920F931F93CF93DF936C01EB017B01FA
:10087000E40EF51E00E010E0CE15DF0561F0699191
:10088000D601ED91FC910190F081E02DC601099512
:10089000080F191FF1CFC801DF91CF911F910F9160
:1008A000FF90EF90DF90CF9008956115710579F07A
:1008B000FB0101900020E9F73197AF01461B570B70
:1008C000DC01ED91FC910280F381E02D099480E040
:1008D00090E008950C945504DC01ED91FC91019099
:1008E000F081E02D09940F931F93CF93DF93EC01D8
:1008F0006DE00E946C048C016AE0CE010E946C04E1
:10090000800F911FDF91CF911F910F9108950F9349
:100910001F93CF93DF93EC010E9455048C01CE010D
:100920000E947304800F911FDF91CF911F910F914F
:1009300008958F929F92AF92BF92CF92DF92EF92E3
:10094000FF920F931F93CF93DF93CDB7DEB7A1979D
:100950000FB6F894DEBF0FBECDBF6C01142FE52F8C
:10096000CB01022F19A2223008F40AE07E0121E215
:10097000E20EF11C802E912CA12CB12C612F7E2F28
:10098000A50194010E94C70C029F1019112481E057
:10099000E81AF1081A3014F4105D01C0195CF7016F
:1009A0001083122FE32FCA01232B242B252B31F781
:1009B000B701C6010E945504A1960FB6F894DEBF98
:1009C0000FBECDBFDF91CF911F910F91FF90EF90A0
:1009D000DF90CF90BF90AF909F908F900895CF926F
:1009E000DF92EF92FF920F931F93CF93DF93EC016F
:1009F0006A017B012115310579F4E881F9810190C3
:100A0000F081E02D642FDF91CF911F910F91FF9026
:100A1000EF90DF90CF9009942A303105E9F477FF09
:100A20001AC06DE20E946C048C0144275527BA015C
:100A30004C195D096E097F092AE0CE010E949904D4
:100A4000800F911FDF91CF911F910F91FF90EF9039
:100A5000DF90CF9008952AE0B701A601CE01DF9183
:100A6000CF911F910F91FF90EF90DF90CF900C945A
:100A700099049A01AB01770F660B770B0C94EF0486
:100A80002115310541F4DC01ED91FC910190F081DB
:100A9000E02D642F09940C9499049A01462F50E09C
:100AA00060E070E00C9440050E9434030E948D00C9
:100AB000C5E3D6E00E947C022097E1F30E94350650
:100AC000F9CFFC0124853585F901E05CFF4F808179
:100AD0009181329620813181821B930B8F739927EC
:100AE0000895DC011C96ED91FC911D97DF01A05C3F
:100AF000BF4F2D913C91119712968D919C9111971A
:100B00002817390739F08D919C91E80FF91F8081E2
:100B100090E008958FEF9FEF0895FC01A485B585BF
:100B2000FD01E05CFF4F208131813296808191810F
:100B30002817390779F080819181A80FB91F8C910E
:100B4000208131812F5F3F4F2F73332731832083E3
:100B500090E008958FEF9FEF0895FC0181A1882315
:100B600029F0A489B5898C9186FFFBCF11A2089545
:100B70000F931F93CF93DF93FC01A685B7858D015B
:100B8000005C1F4FE8018881998101968F73992736
:100B9000AD014E5B5F4FEA012881398182179307CF
:100BA000D1F3E80128813981A20FB31F6C93A68588
:100BB000B785A05CBF4F11969C938E93A689B78989
:100BC0002C9181E090E0078C02C0880F991F0A9455
:100BD000E2F7822B8C9381E081A30488F589E02DD4
:100BE00080818064808381E090E0DF91CF911F91CC
:100BF0000F91089508951F920F920FB60F9211242E
:100C00002F934F935F938F939F93EF93FF938091D5
:100C1000C00082FD1CC02091C6008091D605909135
:100C2000D70501968F7399274091D8055091D90522
:100C30008417950771F0E091D605F091D705EA5633
:100C4000FA4F20839093D7058093D60502C08091F8
:100C5000C600FF91EF919F918F915F914F912F91DE
:100C60000F900FBE0F901F90189580E395E00E94A3
:100C70006105892B11F00C94FA0508951F920F92CB
:100C80000FB60F9211242F933F938F939F93EF935F
:100C9000FF93209192053091930580919405909156
:100CA00095052817390731F48091C1008F7D809315
:100CB000C10014C0E0919405F0919505EE5AFA4FE9
:100CC0002081809194059091950501968F739927C5
:100CD00090939505809394052093C600FF91EF9122
:100CE0009F918F913F912F910F900FBE0F901F906A
:100CF0001895CF92DF92EF92FF920F931F93CF93AD
:100D0000DF93EC016A017B014115514E61057105CC
:100D100009F1EC89FD8981E090E008A002C0880F0C
:100D2000991F0A94E2F7808360E079E08DE390E018
:100D3000A70196010E94C70C89019A01015011096F
:100D400021093109369527951795079598010115C1
:100D50001041A8F0EC89FD89108260E874E88EE10A
:100D600090E0A70196010E94C70CDA01C901019722
:100D7000A109B109B695A795979587959C01E88932
:100D8000F9893083EA89FB89208319A2EE89FF89DA
:100D9000408181E090E09C010C8C02C0220F331F47
:100DA0000A94E2F7242B2083EE89FF8940819C017D
:100DB0000D8C02C0220F331F0A94E2F7242B2083EC
:100DC000EE89FF8940819C010E8C02C0220F331FE7
:100DD0000A94E2F7242B2083EE89FF8920810F8C6F
:100DE00002C0880F991F0A94E2F7809582238083BE
:100DF000DF91CF911F910F91FF90EF90DF90CF90F7
:100E00000895E0E3F5E01382128288EE93E0A0E01B
:100E1000B0E084839583A683B78381E291E09183D8
:100E2000808386E995E09587848782E595E09787BA
:100E3000868785EC90E0918B808B84EC90E0938B9F
:100E4000828B80EC90E0958B848B81EC90E0978B8B
:100E5000868B82EC90E0918F808F86EC90E0938F70
:100E6000828F84E0848F83E0858F87E0868F85E0A2
:100E7000878F81E080A308958627682F6295682771
:100E8000062E669566956025062E66956025677028
:100E9000082E892F669507946795902D86270694CE
:100EA0006795902586270895CF93C62F61E080919E
:100EB00007010E94D403C093070161E08C2F0E94B8
:100EC000980361E080910701CF910C94D403CF93F4
:100ED000DF931F92CDB7DEB780910601825082303A
:100EE00038F469830E94CD0B69816093060103C0C9
:100EF00082E08093060160E0809106010E949803E1
:100F000061E0809106010F90DF91CF910C94D403A2
:100F100090916F0680910601992339F040E050E0EE
:100F200069EF77E082500C94AD0B82500C94CD0B9E
:100F3000809107018A3021F061E08AE00E949803E5
:100F400061E0809107010E94980361E080910701B0
:100F50000E94D40361E08BE00E94980360E08CE083
:100F60000E94980361E08DE00E94980380E58CBDAB
:100F70008DB581608DBD60E0809106010E9498036F
:100F800061E0809106010C94D4038EBD0DB407FE80
:100F9000FDCF8EB50895EF92FF921F93CF93DF930D
:100FA0001F92CDB7DEB7182F2CB521602CBD60E0A5
:100FB0008091070199830E94D4039981892F0E940F
:100FC000C507E82EF12CFE2CEE24812F0E94C507C8
:100FD000E82A61E0809107010E94D4038CB58E7FDE
:100FE0008CBDC7010F90DF91CF911F91FF90EF90C3
:100FF0000895CF9380E090E00E94CB078091620635
:10100000853009F094C08091670690916806892B1D
:1010100091F08091630684FD0EC085E880937A008C
:10102000809163068F70806480937C0080917A0049
:10103000806480937A0080E090EB0E94CB07682F59
:101040008091670690916806892B69F0809163060C
:1010500084FD09C080917A0086FDFCCF90917A00D2
:10106000906490937A008091690681110EC08091FE
:101070006E06882351F0E091690691E09E0F9093EF
:101080006906F0E0E652FA4F8083E091690681E05C
:101090008E0F80936906F0E0E652FA4F60838091EC
:1010A0006006909161060E943C07909361068093D0
:1010B00060068091670690916806892B39F18091CE
:1010C000630684FD23C0809164068138F8F4809122
:1010D0007A0086FDFCCF809178002091790090E025
:1010E000922B9C012C5331092F35314078F42091FB
:1010F000650630916606820F931F90936606809373
:101100006506809164068F5F809364068091DD059B
:101110002091690690E0059630E0821793070CF461
:1011200056C080916906863808F051C055C080913C
:10113000620687FF1BC0E091DD058091620691E0A9
:10114000980F90936206EC5F8E0FE82FF0E0E65266
:10115000FA4FC08180916006909161066C2F0E94C9
:101160003C0790936106809360062DC080916206D3
:1011700091E0980F909362068330F1F054F4882345
:10118000A9F08130E9F48091600690916106C92F41
:101190001AC08930B9F08A3099F4C0916E069091E6
:1011A000DD058DEF891B809362060DC0809160067E
:1011B00090916106C82F07C08DE092E80E94CB078E
:1011C000CAEA01C0CDE28C2F90E0985402C08DE0B5
:1011D00092E8CF910C94CB07CF9108958F929F9274
:1011E000AF92BF92EF920F931F93CF93DF9300D0F4
:1011F00000D0CDB7DEB7142F10926F062C836B830F
:1012000089839A830E9488076B8160936F062C8183
:1012100020936E0689819A810E94980780E090E071
:101220000E94CB0785E092E80E94CB0780E098EB14
:101230000E94CB070E94DD024B015C0180910601F8
:101240000E940404892B91F40E94DD02DC01CB0191
:1012500088199909AA09BB09883C9105A105B1051E
:1012600028F480E090E00E94CB07E8CF0E94DD02E6
:10127000DC01CB0188199909AA09BB09883C9105B1
:10128000A105B10508F054C020E1129FC00111244E
:10129000876C90680E94CB0780E496EA0E94CB0797
:1012A0008E2D90E09A530E94CB0782EA94E90E9427
:1012B000CB078CEA92EC0E94CB0780916E068823C4
:1012C00049F083E89AEC0E94CB0780916E0690E08B
:1012D0009E6C06C08BE89AEC0E94CB078DE29EECD8
:1012E0000E94CB0783E894EC0E94CB07083028F4D7
:1012F000802F90E08065986902C087E598E90E9498
:10130000CB0787E79CEC0E94CB0780E090EE0E9421
:10131000CB0780E098EC0E94CB0783E490EC0E941E
:10132000CB0784E0809362060E94880781E001C0B9
:1013300080E00F900F900F900F90DF91CF911F9151
:101340000F91EF90BF90AF909F908F900895CB0139
:10135000F8940E94CB0778940895CF93C62F5093AA
:1013600068064093670660E08EE08C0F0E94980349
:10137000F89480916306807F809363068091630672
:10138000CF70C82BC09363067894CF910895CF9304
:10139000DF93EB0180916206843011F5809167063E
:1013A00090916806892BF1F0F894209165063091B0
:1013B000660690916406789496301CF482E9891B45
:1013C0003FC040916706509168064C32514060F032
:1013D00040916706509168064935524038F004C084
:1013E0008AE92EC088E92CC089E92AC040916706A5
:1013F00050916806E0916706F0916806692F990F91
:10140000770BC9010E949F0C9B01DE010E94080D11
:10141000DC01CB012AE0B695A795979587952A958B
:10142000D1F78E1B9F0B64E170E00E949F0C8CE94A
:10143000860F8D3924F08F3B1CF080EC01C08BE9C6
:10144000DF91CF9108951092DD05109269068FEF1C
:101450009FEF909361068093600660916E0666230D
:1014600031F00E943C0790936106809360061092D1
:101470006606109265061092640685E08093620607
:101480008DED92E80C94CB07FC01809162068530CB
:1014900039F52091DD054091690630E02B5F3F4F23
:1014A00050E02417350724F0809169068638C0F093
:1014B00084E0809362068091DD05813830F081E020
:1014C00090E090936106809360069091DB059F7792
:1014D00081F09091DB059F7780916F06981749F016
:1014E00080916206843019F4CF010E94230A80E0C3
:1014F00008958091600690916106892B41F40190D6
:10150000F081E02D309719F080E009950BC08FEF46
:101510009FEFDC0180936A0690936B06A0936C06A4
:10152000B0936D0681E0089580916206853089F45C
:101530008091690681110DC00E94C50780FD09C018
:101540008DE092E80E94CB0784E08093620681E000
:10155000089580E00895FC01211102C090E001C0CF
:1015600090E8692B6093DB0590916F06411102C0F2
:1015700020E001C020E8922B9093DC050190F081DF
:10158000E02D309711F081E009958FEF9FEF909358
:10159000610680936006809160069091610660917B
:1015A0006E060E943C07909361068093600686E079
:1015B000809362068DE392E80C94CB0780916206DB
:1015C0008430B9F06623D1F383B7817F633021F093
:1015D000623021F090E003C094E001C09CE0892BD0
:1015E00083BF83B7816083BF889583B78E7F83BFB6
:1015F000E5CF0895CF92EF920F931F93CF93DF9390
:10160000EC01162FBA012093DD05422F50E08EED3C
:1016100095E00E94960C2E2D402F612FCE010E9446
:10162000AB0A6C2DCE01DF91CF911F910F91EF90FE
:10163000CF900C94DE0A8F929F92AF92BF92CF927E
:10164000EF920F93CF93DF9300D0CDB7DEB74C016D
:101650005A01C4012A8369830E94940A2A816981FC
:10166000811108C0C4012A8369830E94440A6981E8
:101670002A81EFCFCE2CE12CA501C4010E94FA0AE9
:101680000F900F90DF91CF910F91EF90CF90BF907F
:10169000AF909F908F90089560E070E00E94A7093E
:1016A00092FB882780F90895AF92BF92CF92EF9274
:1016B0000F931F93CF93DF931F92CDB7DEB75C01DB
:1016C00049830E9454074981642FC5010E9467071E
:1016D00085E0C82E98E0E92E00E02AEA41E061E0CA
:1016E000C5010E94EE08882341F16FE470ECC5014A
:1016F0000E94A7096AE070E080E090E00E940E037B
:10170000C5010E944C0B882389F060E470ECC50190
:101710000E94A7096AE070E080E090E00E940E035A
:10172000C5010E944C0B11E0182701C010E060E0D9
:1017300070ECC5010E94A70901C010E0812F0F9035
:10174000DF91CF911F910F91EF90CF90BF90AF900D
:1017500008958091DC058F7708958230E8F4E82FB2
:10176000F0E0EE0FFF1FE059F94F71836083813085
:1017700041F0809169008C7F482B40936900E89A82
:10178000089580916900440F551F440F551F837FB2
:10179000482B40936900E99A0895823068F48130BB
:1017A00011F0E89801C0E998E82FF0E0EE0FFF1F74
:1017B000E059F94F1182108208951F920F920FB6CF
:1017C0000F9211242F933F934F935F936F937F93C7
:1017D0008F939F93AF93BF93EF93FF938091700686
:1017E00090917106892B29F0E0917006F0917106B5
:1017F0000995FF91EF91BF91AF919F918F917F914B
:101800006F915F914F913F912F910F900FBE0F906D
:101810001F9018951F920F920FB60F9211242F93BD
:101820003F934F935F936F937F938F939F93AF9368
:10183000BF93EF93FF938091720690917306892B6B
:1018400029F0E0917206F09173060995FF91EF91EE
:10185000BF91AF919F918F917F916F915F914F91C8
:101860003F912F910F900FBE0F901F9018958F9260
:101870009F92AF92BF92CF92DF92EF92FF92CF935F
:10188000DF93EC01688179818A819B816115710503
:101890008105910521F464E279ED8BE597E02DE176
:1018A00033EF41E050E00E94E90C49015A019B01ED
:1018B000AC01A7EAB1E40E94170D6B017C01ACEE0C
:1018C000B4EFA50194010E94250DDC01CB018C0D24
:1018D0009D1DAE1DBF1DB7FF03C00197A109B048F4
:1018E00088839983AA83BB839F77DF91CF91FF90F1
:1018F000EF90DF90CF90BF90AF909F908F90089522
:101900000E94370C089580E091E00E94370C089502
:10191000A0E0B0E08093000190930101A093020148
:10192000B09303010895F8940C94300DFB01DC0191
:1019300002C001900D9241505040D8F70895AA1B63
:10194000BB1B51E107C0AA1FBB1FA617B70710F0AA
:10195000A61BB70B881F991F5A95A9F780959095DC
:10196000BC01CD01089597FB072E16F4009407D013
:1019700077FD09D00E949F0C07FC05D03EF490959E
:1019800081959F4F0895709561957F4F0895A1E2CD
:101990001A2EAA1BBB1BFD010DC0AA1FBB1FEE1FE9
:1019A000FF1FA217B307E407F50720F0A21BB30B34
:1019B000E40BF50B661F771F881F991F1A9469F7B0
:1019C00060957095809590959B01AC01BD01CF010C
:1019D0000895052E97FB1EF400940E94000D57FDFC
:1019E00007D00E94C70C07FC03D04EF40C94000DE6
:1019F00050954095309521953F4F4F4F5F4F08953B
:101A000090958095709561957F4F8F4F9F4F08956A
:101A1000A29FB001B39FC001A39F700D811D11242F
:101A2000911DB29F700D811D1124911D08950E947A
:101A3000080DA59F900DB49F900DA49F800D911D42
:101A400011240895B7FF0C94170D0E94170D821BE7
:101A5000930B0895EE0FFF1F0590F491E02D09946C
:041A6000F894FFCF28
:101A640001000000140A020A544845204D4553530E
:101A740041474500203A20003B0026260000000094
:0E1A840000B8052D0461058D057105AD050046
:00000001FF
