:100000000C9479000C94E8110C9415120C94A10036
:100010000C94A1000C94A1000C94A1000C94A100DC
:100020000C94A1000C94A1000C94A1000C94A100CC
:100030000C94A1000C94A1000C94A1000C94A100BC
:100040000C9470070C94A1000C94060C0C94490CB1
:100050000C94A1000C94A1000C94A1000C94A1009C
:100060000C94A1000C94A10052464D313242204420
:100070006574656374696F6E204641494C21005276
:10008000464D313242204465746563746564204F87
:100090004B210000000007000201000003040600DD
:1000A0000000000000000001020408102040800150
:1000B00002040810200102040810200404040404AF
:1000C0000404040202020202020303030303030006
:1000D0000000002300260029000000000025002861
:1000E000002B0000000000240027002A0000DF058C
:1000F0000C0D11241FBECFEFD8E0DEBFCDBF11E045
:10010000A0E0B1E0E6EBFBE202C005900D92A83B57
:10011000B107D9F724E0A8EBB1E001C01D92A535E5
:10012000B207E1F710E0C9E7D0E004C02197FE0173
:100130000E94D315C737D107C9F70E945F0B0C94F3
:100140009E120C940000CF92EF920F9340E051EE7C
:1001500060E070E081E193E00E94840C1092010362
:10016000109200038CE98093FF0242E06AE082E093
:1001700093E00E945F11882319F06FE770E002C0DE
:1001800068E670E081E193E00E94870942EC51E06B
:1001900060E082E093E00E94B80F85E0C82E98E00E
:1001A000E92E00E028EC42E06091050182E093E056
:1001B0000E94F90E0F91EF90CF9008950F931F9327
:1001C000CF93C82F8B0161E00E94750860E08C2FEF
:1001D0000E94B108B801110F880B990B0E94EB0720
:1001E00061E08C2FCF911F910F910C94B108EF9289
:1001F0000F9382E093E00E944F10811103C080E0D2
:1002000090E059C08091410490914204892BB9F744
:1002100064EE7CE082E093E00E94D20F8093FF02C4
:1002200082E093E00E94B411909104018913E7CF1A
:10023000E0910603F09107039081973001F7E09178
:100240000403F0910503A4EEB2E001900D929A959B
:10025000E1F72091E6023091E7029091FF02F90167
:10026000E058FD4F9083F901E45EFD4F4091E802B4
:1002700040832091050130E03093E5022093E402B1
:100280009093E8029CE0E92E01E027E044EE52E082
:10029000682F82E093E00E94261181E090E0209197
:1002A000E6023091E7022336310510F480E090E059
:1002B0009195819591090F91EF900895EF920F9389
:1002C000CF93DF9320910003309101032436310551
:1002D00009F48BC08091050190E09093E502809332
:1002E000E4023093E7022093E6028091FF028093BC
:1002F000E8028CE0E82E01E027E044EE52E0609155
:10030000040182E093E00E942611C4E6D0E082E07E
:1003100093E00E944F10882309F45BC08091410450
:1003200090914204892B09F054C064EE7CE082E095
:1003300093E00E94D20F8093FF0282E093E00E943C
:10034000B4119091040189134AC0E0910603F09121
:1003500007038081873009F042C0E0910403F091E7
:100360000503A4EEB2E001900D928A95E1F7809129
:10037000E6029091E702FC01E058FD4F2091E8026F
:1003800020832091000330910103F901E45EFD4FC9
:100390004091FF0240838217930729F401969093BE
:1003A00001038093000380910003909101030E9458
:1003B00093120E948E1268EC70E00E945C15BC01E2
:1003C0006C597F4F072E000C880B990B0E94EB078E
:1003D00009C06AE070E080E090E00E94EB0721979E
:1003E00009F095CF80E090E002C08FEF9FEFDF91A2
:1003F000CF910F91EF9008959F92AF92BF92CF92BD
:10040000DF92EF92FF920F931F93CF93DF937C01C4
:10041000C62F5A016901FC0180E090E0262F660F8B
:10042000330BB901615071098617970798F401964B
:10043000AC014217530760F4D701A40FB51F9C907D
:10044000D081D91514F49082DC934F5F5F4FF1CFC8
:100450003196EACFF701E25AFF4F8081F60180839F
:10046000F7018581F801808368E071E081E193E024
:100470000E946A09F6016081062E000C770B4AE0A3
:1004800050E081E193E00E944B0A64E271E081E177
:1004900093E00E946A09F8016081062E000C770B38
:1004A0004AE050E081E193E00E944B0A6AE271E089
:1004B00081E193E0C0FD43C00E946A09C7FDCF5FA0
:1004C000C5950C2E000CDD0B87010C0F1D1F21970D
:1004D000CE0DDF1DF80180816881062E000C770BA0
:1004E000680F711D87FD7A95072E000C880B990BFC
:1004F0000E94C61320E030E040E05FE30E947B14DE
:10050000AB01BC0122E030E081E193E00E944B0BA3
:10051000F80180816881062E000C770B680F711D31
:1005200087FD7A95072E000C880B990B0E94C61345
:1005300020E030E040E05FE30E947B141DC00E9499
:100540006A09C7FDCF5FC595C7018C0F911DC7FD17
:100550009A95EC016881062E000C770B4AE050E07A
:1005600081E193E00E944B0A6881062E000C770B14
:10057000880B990B0E94C613F501608371838283F7
:100580009383DF91CF911F910F91FF90EF90DF90B8
:10059000CF90BF90AF909F9008952F923F924F922F
:1005A0005F926F927F928F929F92AF92BF92CF9203
:1005B000DF92EF92FF920F931F93CF93DF93CDB70C
:1005C000DEB729970FB6F894DEBF0FBECDBF1C0172
:1005D0006D835A834983FC82EB82250136018E8D1F
:1005E0009F8DA8A1B9A18E839F83A887B987D901C0
:1005F0006C91062E000C770B880B990B0E94C6138A
:100600009B01AC01E981FA816081718182819381D2
:100610000E94AA124B015C016093F3027093F402F2
:100620008093F5029093F602D8016C91062E000C8F
:10063000770B880B990B0E94C613E981FA81208100
:100640003181428153810E94AA126B017C01609327
:10065000EF027093F0028093F1029093F2029B01FB
:10066000AC01C501B4010E94AB126093EB02709320
:10067000EC028093ED029093EE02A3019201C5017A
:10068000B4010E947B149B01AC01A981BA816D91D8
:100690007D918D919C910E94AA126093FB027093B0
:1006A000FC028093FD029093FE022E813F814885DB
:1006B0005985C701B6010E947B149B01AC01E981F9
:1006C000FA8160817181828193810E94AB12609373
:1006D000F7027093F8028093F9029093FA0267E7A9
:1006E00071E081E193E00E946A094091FB02509120
:1006F000FC026091FD027091FE0222E030E081E197
:1007000093E00E944B0B65E371E081E193E00E946E
:100710006A094091F7025091F8026091F9027091D4
:10072000FA0222E030E081E193E00E944D0B00E00C
:1007300010E0FD81EF2EFF0FFF08DD24D394802F02
:1007400090E08E159F059CF5F101E80FF91F60817F
:10075000062E000C770B880B990B0E94C6134B01D9
:100760005C012091FB023091FC024091FD0250910E
:10077000FE020E94171387FF05C0F101E10FF11D72
:10078000108212C02091F7023091F8024091F902D4
:100790005091FA02C501B4010E94761418162CF487
:1007A000F101E10FF11DD0821F5F0F5FC8CFAB8158
:1007B000BC811C936CE371E081E193E00E946A09C3
:1007C0004AE050E0EB81FC81608181E193E00E948E
:1007D0005F0A6FE171E081E193E00E946A0910E035
:1007E000AB81BC818C911817A8F4F101E10FF11DC8
:1007F0006081062E000C770B4AE050E081E193E027
:100800000E944B0A62E271E081E193E00E946A0972
:100810001F5FE6CF66E471E081E193E029960FB6B1
:10082000F894DEBF0FBECDBFDF91CF911F910F9126
:10083000FF90EF90DF90CF90BF90AF909F908F9000
:100840007F906F905F904F903F902F900C949909FC
:100850002F923F924F925F926F927F928F929F92D0
:10086000AF92BF92CF92DF92EF92FF920F931F93BE
:10087000CF93DF93CDB7DEB760970FB6F894DEBFA6
:100880000FBECDBF1C015A8349833E832D83188739
:100890000F83FC01612C712C062F062E000C110B0E
:1008A000CF01821993098017910734F48191680E62
:1008B000711C87FD7A94F4CF062E000C770B880B01
:1008C000990B0E94C61369877A878B879C87B3012F
:1008D000770C880B990B0E94C61329853A854B85A6
:1008E0005C850E941C136D877E878F87988BA981FA
:1008F000BA816D937D938D939C9313973C822B8249
:10090000412C512C32018B819C81821993098017D3
:100910009107FCF4EB81FC816191FC83EB83062E53
:10092000000C770B880B990B0E94C6132D853E8512
:100930004F8558890E94AA129B01AC010E947B142A
:100940009B01AC01C301B2010E94AB122B013C011F
:10095000DACF29853A854B855C85C301B2010E94B7
:100960001C132B013C010E94EE149B01AC01AD81D4
:10097000BE816D937D938D939C931397C701B601B0
:100980000E947B149B01AC01E981FA816081718135
:10099000828193810E94AA126093FB027093FC02F1
:1009A0008093FD029093FE02AD81BE812D913D9119
:1009B0004D915C91C501B4010E947B149B01AC0177
:1009C000E981FA8160817181828193810E94AB12F9
:1009D0006093F7027093F8028093F9029093FA0201
:1009E0006AE471E081E193E00E946A09A981BA8119
:1009F0004D915D916D917C9122E030E081E193E039
:100A00000E944B0B63E571E081E193E00E946A096B
:100A100022E030E0B301A20181E193E00E944B0BA0
:100A20006CE571E081E193E00E946A09ED81FE814D
:100A3000408151816281738122E030E081E193E065
:100A40000E944B0B69E671E081E193E00E946A0924
:100A50004091FB025091FC026091FD027091FE02F8
:100A600022E030E081E193E00E944B0B65E371E00E
:100A700081E193E00E946A094091F7025091F802E7
:100A80006091F9027091FA0222E030E081E193E096
:100A90000E944D0B6101E12CF12CBB24B394C601E3
:100AA0008219930980179107B4F5D6016D916D01F4
:100AB000062E000C770B880B990B0E94C6132B0196
:100AC0003C012091FB023091FC024091FD025091CB
:100AD000FE020E94171387FF08C0F101EE0DFF1DF3
:100AE0001082BFEFEB1AFB0ADACF2091F7023091A8
:100AF000F8024091F9025091FA02C301B2010E943A
:100B00007614181664F6F101EE0DFF1DB082EFEFBA
:100B1000EE1AFE0AC4CFAF81B885EC926EE771E0A1
:100B200081E193E00E946A094AE050E0EF81F88594
:100B3000608181E193E00E945F0A6FE171E081E1F1
:100B400093E00E946A098101EF81F885808190E03D
:100B50009801221933092817390798F4D8016D91A3
:100B60008D01062E000C770B4AE050E081E193E006
:100B70000E944B0A62E271E081E193E00E946A09FF
:100B8000E3CF66E471E081E193E060960FB6F894FC
:100B9000DEBF0FBECDBFDF91CF911F910F91FF90B0
:100BA000EF90DF90CF90BF90AF909F908F907F900D
:100BB0006F905F904F903F902F900C949909E2E0D6
:100BC000F3E08FEB93E0938382838EEB93E0958346
:100BD000848388E891E09093EA028093E902089583
:100BE0007F928F929F92AF92BF92CF92DF92EF92BD
:100BF000FF920F931F93CF93DF93CDB7DEB72F975D
:100C00000FB6F894DEBF0FBECDBF19861A861B86BD
:100C10001C861D821E821F82188619821A821B82E0
:100C20001C82609105014AE050E06F3010F0609145
:100C3000040181E193E00E945F0A60E271E081E1DA
:100C400093E00E946A090CE112E0D8016D918D01D8
:100C5000062E000C770B4AE050E081E193E00E9401
:100C60004B0A64E971E081E193E00E946A09B2E015
:100C700000381B0751F766E971E081E193E00E94BB
:100C8000990934E6732EE8EBF1E0DF01872D1D9220
:100C90008A95E9F7ECE1F2E0A8EBB1E0872D01904D
:100CA0000D928A95E1F7812C912CA12C4FE3B42E63
:100CB000C12CD12C50E8E52E5EE3F52E8E01035FAA
:100CC0001F4F9E012F5F3F4FAE014B5F5F4F64E6AA
:100CD00088EB91E00E942804ECE1F2E0A8EBB1E09F
:100CE000872D01900D928A95E1F70F5F1F4F9E01AE
:100CF000215F3F4FAE01475F5F4F64E688EB91E0B5
:100D00000E94FC01ECE1F2E0A8EBB1E001900D9251
:100D10007A94E1F78FE38F931F921F921F925601EF
:100D20006701DE011D967D019E01215F3F4FAE01EF
:100D3000475F5F4F64E688EB91E00E94CD026091CF
:100D400005010F900F900F900F904AE050E06F3028
:100D500010F46091040181E193E00E945F0A60E277
:100D600071E081E193E00E946A0900E812E0F80175
:100D700061918F01062E000C770B4AE050E081E173
:100D800093E00E944B0A64E971E081E193E00E94E4
:100D90006A09F2E0043E1F0751F766E971E081E15C
:100DA00093E00E94990984E6782EE8EBF1E0DF01F8
:100DB000872D1D928A95E9F7E0E8F2E0A8EBB1E013
:100DC000872D01900D928A95E1F7812C912CA12C11
:100DD0009FE3B92EC12CD12C20E8E22E2EE3F22E77
:100DE0008E01035F1F4F9E012F5F3F4FAE014B5F90
:100DF0005F4F64E688EB91E00E942804E0E8F2E0AF
:100E0000A8EBB1E0872D01900D928A95E1F70F5F75
:100E10001F4F9E01215F3F4FAE01475F5F4F64E66A
:100E200088EB91E00E94FC01E0E8F2E0A8EBB1E081
:100E300001900D927A94E1F78FE38F931F921F92A6
:100E40001F9256016701DE011D967D019E01215F03
:100E50003F4FAE01475F5F4F64E688EB91E00E9431
:100E6000CD0281E193E00E94B80B68EE73E080E070
:100E700090E00E94EB0710920103109200030F9084
:100E80000F900F900F9080E090E02F960FB6F8949F
:100E9000DEBF0FBECDBFDF91CF911F910F91FF90AD
:100EA000EF90DF90CF90BF90AF909F908F907F900A
:100EB0000895CF93809105018F3018F40E945E0150
:100EC00002C00E94F700C82F6AE070E089E00E942B
:100ED000DE00CC2319F0CF910C94F005CF9108954A
:100EE0001F920F920FB60F9211242F933F938F935F
:100EF0009F93AF93BF938091090390910A03A091B0
:100F00000B03B0910C033091080323E0230F2D371E
:100F100020F40196A11DB11D05C026E8230F0296FD
:100F2000A11DB11D209308038093090390930A0328
:100F3000A0930B03B0930C0380910D0390910E03CB
:100F4000A0910F03B09110030196A11DB11D8093D4
:100F50000D0390930E03A0930F03B0931003BF9162
:100F6000AF919F918F913F912F910F900FBE0F9056
:100F70001F9018952FB7F8946091090370910A0398
:100F800080910B0390910C032FBF08953FB7F89405
:100F900080910D0390910E03A0910F03B091100367
:100FA00026B5A89B05C02F3F19F00196A11DB11DC4
:100FB0003FBFBA2FA92F982F8827820F911DA11DFF
:100FC000B11DBC01CD0142E0660F771F881F991F3C
:100FD0004A95D1F70895CF92DF92EF92FF92CF9387
:100FE000DF936B017C010E94C607EB01C114D104A1
:100FF000E104F10479F00E94C6076C1B7D0B683E8A
:101000007340A0F381E0C81AD108E108F108C85183
:10101000DC4FECCFDF91CF91FF90EF90DF90CF903E
:101020000895789484B5826084BD84B5816084BD60
:1010300085B5826085BD85B5816085BDEEE6F0E051
:10104000808181608083E1E8F0E0108280818260AD
:101050008083808181608083E0E8F0E0808181602E
:101060008083E1EBF0E0808184608083E0EBF0E05E
:10107000808181608083EAE7F0E080818460808302
:1010800080818260808380818160808380818068AC
:1010900080831092C1000895833081F028F481305C
:1010A00099F08230A1F008958630A9F08730B9F028
:1010B0008430D1F4809180008F7D03C080918000C6
:1010C0008F7780938000089584B58F7702C084B5B0
:1010D0008F7D84BD08958091B0008F7703C080918B
:1010E000B0008F7D8093B0000895CF93DF9390E0A0
:1010F000FC01E955FF4F2491FC01E554FF4F849119
:10110000882361F190E0880F991FFC01ED51FF4F9A
:10111000C591D491FC01E752FF4FA591B4916111A3
:1011200009C09FB7F8948881209582238883EC9129
:101130002E230BC0623061F49FB7F8943881822F60
:10114000809583238883EC912E2B2C939FBF06C020
:101150008FB7F894E8812E2B28838FBFDF91CF9132
:1011600008951F93CF93DF93282F30E0F901ED56B8
:10117000FF4F8491F901E955FF4FD491F901E554EE
:10118000FF4FC491CC23C9F0162F81110E944C0847
:10119000EC2FF0E0EE0FFF1FE752FF4FA591B49147
:1011A0008FB7F894111105C09C91ED2FE095E923BC
:1011B00002C0EC91ED2BEC938FBFDF91CF911F918B
:1011C0000895CF93DF93282F30E0F901ED56FF4FBC
:1011D0008491F901E955FF4FD491F901E554FF4F8E
:1011E000C491CC2391F081110E944C08EC2FF0E0C7
:1011F000EE0FFF1FE153FF4FA591B491EC91ED234A
:1012000081E090E021F480E002C080E090E0DF9196
:10121000CF910895CF92DF92EF92FF920F931F9399
:10122000CF93DF936C01EB017B01E40EF51E00E030
:1012300010E0CE15DF0561F06991D601ED91FC91CA
:101240000190F081E02DC6010995080F191FF1CF1B
:10125000C801DF91CF911F910F91FF90EF90DF9028
:10126000CF9008956115710579F0FB010190002080
:10127000E9F73197AF01461B570BDC01ED91FC916B
:101280000280F381E02D099480E090E00895EF92D0
:10129000FF920F931F93CF93DF937C01FB0100E03C
:1012A00010E06491EF012196662361F0D701ED9182
:1012B000FC910190F081E02DC7010995080F191FDD
:1012C000FE01EFCFC801DF91CF911F910F91FF90E9
:1012D000EF9008950C943209DC01ED91FC9101909E
:1012E000F081E02D09940F931F93CF93DF93EC01CE
:1012F0006DE00E946C098C016AE0CE010E946C09CD
:10130000800F911FDF91CF911F910F9108950F933F
:101310001F93CF93DF93EC010E9447098C01CE010C
:101320000E947309800F911FDF91CF911F910F9140
:1013300008950F931F93CF93DF93EC010E9432091E
:101340008C01CE010E947309800F911FDF91CF9114
:101350001F910F9108958F929F92AF92BF92CF925B
:10136000DF92EF92FF920F931F93CF93DF93CDB74E
:10137000DEB7A1970FB6F894DEBF0FBECDBF6C01EC
:10138000142FE52FCB01022F19A2223008F40AE016
:101390007E0121E2E20EF11C802E912CA12CB12CB9
:1013A000612F7E2FA50194010E947015029F1019D4
:1013B000112481E0E81AF1081A3014F4105D01C01C
:1013C000195CF7011083122FE32FCA01232B242B62
:1013D000252B31F7B701C6010E943209A1960FB63D
:1013E000F894DEBF0FBECDBFDF91CF911F910F915B
:1013F000FF90EF90DF90CF90BF90AF909F908F9035
:101400000895CF92DF92EF92FF920F931F93CF93A5
:10141000DF93EC016A017B012115310579F4E88144
:10142000F9810190F081E02D642FDF91CF911F9120
:101430000F91FF90EF90DF90CF9009942A30310503
:10144000E9F477FF1AC06DE20E946C098C01442711
:101450005527BA014C195D096E097F092AE0CE01B2
:101460000E94AB09800F911FDF91CF911F910F91C7
:10147000FF90EF90DF90CF9008952AE0B701A6018A
:10148000CE01DF91CF911F910F91FF90EF90DF90F0
:10149000CF900C94AB099A01AB01770F660B770BD9
:1014A0000C94010A2115310541F4DC01ED91FC9108
:1014B0000190F081E02D642F09940C94AB099A01FE
:1014C000462F50E060E070E00C94520A4F925F9219
:1014D0006F927F928F929F92AF92BF92CF92DF9244
:1014E000EF92FF92CF93DF93EC016A017B01B22E62
:1014F0009A01AB01C701B6010E942E15882319F08D
:1015000069E971E027C026013701E89477F82FEFE9
:101510003FEF4FE75FE7C301B2010E942E15811133
:101520000DC02FEF3FEF4FE75FE7C301B2010E940D
:10153000171318161CF46DE971E00CC02FEF3FEF84
:101540004FE75FE4C701B6010E94761418169CF4B9
:1015500061EA71E0CE01DF91CF91FF90EF90DF90D3
:10156000CF90BF90AF909F908F907F906F905F9043
:101570004F900C9432092FEF3FEF4FE75FECC7011C
:10158000B6010E94171387FDE3CF20E030E0A901E8
:10159000C701B6010E94171387FF0AC06DE2CE0192
:1015A0000E946C094C01F7FAF094F7F8F09402C02D
:1015B000812C912CA12C60E070E080E09FE3AB14C3
:1015C00041F020E030E040E251E40E941C13A3947B
:1015D000F6CF9B01AC01C701B6010E94AB122B01F3
:1015E0003C010E9495136B017C010E94C4139B0176
:1015F000AC01C301B2010E94AA122B013C012AE0F6
:10160000B701A601CE010E94AB097C01E80CF91CD0
:10161000BB2039F065EA71E0CE010E943209E80E84
:10162000F91EDB2CDD2039F120E030E040E251E40E
:10163000C301B2010E947B142B013C010E948E1356
:101640004B01770FAA08BB082AE030E0B501A401DE
:10165000CE010E94010AE80EF91EC501B4010E94E4
:10166000C6139B01AC01C301B2010E94AA122B0157
:101670003C01DA94D7CFC701DF91CF91FF90EF9073
:10168000DF90CF90BF90AF909F908F907F906F90A2
:101690005F904F9008950C94660A0F931F93CF9319
:1016A000DF93EC010E94660A8C01CE010E9473094F
:1016B000800F911FDF91CF911F910F9108950E948C
:1016C00011080E94A300C0E4DCE00E9459072097A3
:1016D000E1F30E94400CF9CFFC0124853585F90126
:1016E000E05CFF4F80819181329620813181821BA5
:1016F000930B8F7399270895DC011C96ED91FC9153
:101700001D97DF01A05CBF4F2D913C911197129660
:101710008D919C9111972817390739F08D919C91E3
:10172000E80FF91F808190E008958FEF9FEF0895F3
:10173000FC01A485B585FD01E05CFF4F208131816E
:101740003296808191812817390779F080819181C3
:10175000A80FB91F8C91208131812F5F3F4F2F73CC
:1017600033273183208390E008958FEF9FEF089512
:10177000FC0181A1882329F0A489B5898C9186FF79
:10178000FBCF11A208950F931F93CF93DF93FC011A
:10179000A685B7858D01005C1F4FE801888199817E
:1017A00001968F739927AD014E5B5F4FEA01288147
:1017B000398182179307D1F3E80128813981A20F7B
:1017C000B31F6C93A685B785A05CBF4F11969C9301
:1017D0008E93A689B7892C9181E090E0078C02C096
:1017E000880F991F0A94E2F7822B8C9381E081A3E2
:1017F0000488F589E02D80818064808381E090E019
:10180000DF91CF911F910F91089508951F920F922C
:101810000FB60F9211242F934F935F938F939F9343
:10182000EF93FF938091C00082FD1CC02091C60001
:101830008091B7039091B80301968F7399274091D7
:10184000B9035091BA038417950771F0E091B7037B
:10185000F091B803E958FC4F20839093B80380932C
:10186000B70302C08091C600FF91EF919F918F91C5
:101870005F914F912F910F900FBE0F901F90189571
:1018800081E193E00E946C0B892B11F00C94050C04
:1018900008951F920F920FB60F9211242F933F932A
:1018A0008F939F93EF93FF93209173033091740371
:1018B00080917503909176032817390731F4809150
:1018C000C1008F7D8093C10014C0E0917503F09139
:1018D0007603ED5CFC4F2081809175039091760337
:1018E00001968F73992790937603809375032093C5
:1018F000C600FF91EF919F918F913F912F910F9093
:101900000FBE0F901F901895CF92DF92EF92FF922B
:101910000F931F93CF93DF93EC016A017B01411575
:10192000514E6105710509F1EC89FD8981E090E076
:1019300008A002C0880F991F0A94E2F7808360E034
:1019400079E08DE390E0A70196010E94701589016E
:101950009A010150110921093109369527951795EA
:101960000795980101151041A8F0EC89FD891082B6
:1019700060E874E88EE190E0A70196010E9470157E
:10198000DA01C9010197A109B109B695A795979503
:1019900087959C01E889F9893083EA89FB8920834E
:1019A00019A2EE89FF89408181E090E09C010C8CB6
:1019B00002C0220F331F0A94E2F7242B2083EE8902
:1019C000FF8940819C010D8C02C0220F331F0A94B5
:1019D000E2F7242B2083EE89FF8940819C010E8C45
:1019E00002C0220F331F0A94E2F7242B2083EE89D2
:1019F000FF8920810F8C02C0880F991F0A94E2F79B
:101A0000809582238083DF91CF911F910F91FF906A
:101A1000EF90DF90CF900895E1E1F3E0138212821E
:101A200088EE93E0A0E0B0E084839583A683B7833B
:101A30008BEA91E09183808387E793E095878487A1
:101A400083E393E09787868785EC90E0918B808B8A
:101A500084EC90E0938B828B80EC90E0958B848B70
:101A600081EC90E0978B868B82EC90E0918F808F59
:101A700086EC90E0938F828F84E0848F83E0858F63
:101A800087E0868F85E0878F81E080A30895862791
:101A9000682F62956827062E669566956025062E46
:101AA000669560256770082E892F6695079467955F
:101AB000902D862706946795902586270895CF93C5
:101AC000C62F61E0809107010E94B108C093070111
:101AD00061E08C2F0E94750861E080910701CF9131
:101AE0000C94B108CF93DF931F92CDB7DEB78091EE
:101AF00006018250823038F469830E94D8116981CE
:101B00006093060103C082E08093060160E080914B
:101B100006010E94750861E0809106010F90DF9137
:101B2000CF910C94B10890915004809106019923B3
:101B300039F040E050E064E07EE082500C94B8114F
:101B400082500C94D811809107018A3021F061E015
:101B50008AE00E94750861E0809107010E94750883
:101B600061E0809107010E94B10861E08BE00E9472
:101B7000750860E08CE00E94750861E08DE00E94CD
:101B8000750880E58CBD8DB581608DBD60E080916C
:101B900006010E94750861E0809106010C94B1086D
:101BA0008EBD0DB407FEFDCF8EB50895EF92FF9266
:101BB0001F93CF93DF931F92CDB7DEB7182F2CB5AD
:101BC00021602CBD60E08091070199830E94B108DB
:101BD0009981892F0E94D00DE82EF12CFE2CEE2445
:101BE000812F0E94D00DE82A61E0809107010E94B8
:101BF000B1088CB58E7F8CBDC7010F90DF91CF915E
:101C00001F91FF90EF900895CF9380E090E00E94A5
:101C1000D60D80914304853009F094C0809148042A
:101C200090914904892B91F08091440484FD0EC069
:101C300085E880937A00809144048F70806480935B
:101C40007C0080917A00806480937A0080E090EB41
:101C50000E94D60D682F8091480490914904892BE9
:101C600069F08091440484FD09C080917A0086FD6A
:101C7000FCCF90917A00906490937A0080914A040E
:101C800081110EC080914F04882351F0E0914A04E5
:101C900091E09E0F90934A04F0E0E554FC4F80835E
:101CA000E0914A0481E08E0F80934A04F0E0E5540D
:101CB000FC4F608380914104909142040E94470D43
:101CC0009093420480934104809148049091490488
:101CD000892B39F18091440484FD23C0809145040F
:101CE0008138F8F480917A0086FDFCCF80917800ED
:101CF0002091790090E0922B9C012C5331092F35D3
:101D0000314078F42091460430914704820F931FAC
:101D10009093470480934604809145048F5F80939D
:101D200045048091BE0320914A0490E0059630E07E
:101D3000821793070CF456C080914A04863808F045
:101D400051C055C08091430487FF1BC0E091BE0382
:101D50008091430491E0980F90934304EC5F8E0FC1
:101D6000E82FF0E0E554FC4FC08180914104909150
:101D700042046C2F0E94470D9093420480934104CB
:101D80002DC08091430491E0980F909343048330D9
:101D9000F1F054F48823A9F08130E9F480914104F2
:101DA00090914204C92F1AC08930B9F08A3099F451
:101DB000C0914F049091BE038DEF891B8093430423
:101DC0000DC08091410490914204C82F07C08DE05E
:101DD00092E80E94D60DCAEA01C0CDE28C2F90E0B5
:101DE000985402C08DE092E8CF910C94D60DCF911B
:101DF00008958F929F92AF92BF92EF920F931F938D
:101E0000CF93DF9300D000D0CDB7DEB7142F109260
:101E100050042C836B8389839A830E94930D6B817A
:101E2000609350042C8120934F0489819A810E94F1
:101E3000A30D80E090E00E94D60D85E092E80E941C
:101E4000D60D80E098EB0E94D60D0E94BA074B0198
:101E50005C01809106010E94E108892B91F40E94A7
:101E6000BA07DC01CB0188199909AA09BB09883C8A
:101E70009105A105B10528F480E090E00E94D60DFF
:101E8000E8CF0E94BA07DC01CB0188199909AA0999
:101E9000BB09883C9105A105B10508F054C020E1BB
:101EA000129FC0011124876C90680E94D60D80E4B7
:101EB00096EA0E94D60D8E2D90E09A530E94D60D80
:101EC00082EA94E90E94D60D8CEA92EC0E94D60D2B
:101ED00080914F04882349F083E89AEC0E94D60D44
:101EE00080914F0490E09E6C06C08BE89AEC0E94B3
:101EF000D60D8DE29EEC0E94D60D83E894EC0E94F4
:101F0000D60D083028F4802F90E08065986902C0D3
:101F100087E598E90E94D60D87E79CEC0E94D60DD4
:101F200080E090EE0E94D60D80E098EC0E94D60DE5
:101F300083E490EC0E94D60D84E0809343040E94D9
:101F4000930D81E001C080E00F900F900F900F90F3
:101F5000DF91CF911F910F91EF90BF90AF909F9025
:101F60008F900895CB01F8940E94D60D789408952F
:101F7000CF93C62F509349044093480460E08EE00D
:101F80008C0F0E947508F89480914404807F8093A0
:101F9000440480914404CF70C82BC09344047894C7
:101FA000CF910895CF93DF93EB0180914304843068
:101FB00011F58091480490914904892BF1F0F8942F
:101FC00020914604309147049091450478949630CE
:101FD0001CF482E9891B3FC0409148045091490498
:101FE0004C32514060F040914804509149044935C9
:101FF000524038F004C08AE92EC088E92CC089E933
:102000002AC04091480450914904E0914804F0915D
:102010004904692F990F770BC9010E9448159B014C
:10202000DE010E94B115DC01CB012AE0B695A7952F
:10203000979587952A95D1F78E1B9F0B64E170E0E9
:102040000E9448158CE9860F8D3924F08F3B1CF0D7
:1020500080EC01C08BE9DF91CF9108951092BE030F
:1020600010924A048FEF9FEF9093420480934104B3
:1020700060914F04662331F00E94470D9093420413
:102080008093410410924704109246041092450434
:1020900085E0809343048DED92E80C94D60DFC010D
:1020A00080914304853039F52091BE0340914A0464
:1020B00030E02B5F3F4F50E02417350724F080912C
:1020C0004A048638C0F084E0809343048091BE03C4
:1020D000813830F081E090E0909342048093410495
:1020E0009091BC039F7781F09091BC039F77809182
:1020F0005004981749F080914304843019F4CF01BB
:102100000E942E1080E00895809141049091420435
:10211000892B41F40190F081E02D309719F080E097
:1021200009950BC08FEF9FEFDC0180934B049093D8
:102130004C04A0934D04B0934E0481E00895809127
:102140004304853089F480914A0481110DC00E94B6
:10215000D00D80FD09C08DE092E80E94D60D84E08C
:102160008093430481E0089580E00895FC012111EB
:1021700002C090E001C090E8692B6093BC0390918D
:102180005004411102C020E001C020E8922B90933E
:10219000BD030190F081E02D309711F081E00995A9
:1021A0008FEF9FEF9093420480934104809141040C
:1021B0009091420460914F040E94470D9093420415
:1021C0008093410486E0809343048DE392E80C946D
:1021D000D60D809143048430B9F06623D1F383B7E0
:1021E000817F633021F0623021F090E003C094E001
:1021F00001C09CE0892B83BF83B7816083BF889532
:1022000083B78E7F83BFE5CF0895CF92EF920F9370
:102210001F93CF93DF93EC01162FBA012093BE03D7
:10222000422F50E08FEB93E00E94A1122E2D402F01
:10223000612FCE010E94B6106C2DCE01DF91CF919F
:102240001F910F91EF90CF900C94E9108F929F9275
:10225000AF92BF92CF92EF920F93CF93DF9300D0C4
:10226000CDB7DEB74C015A01C4012A8369830E94AD
:102270009F102A816981811108C0C4012A83698362
:102280000E944F1069812A81EFCFCE2CE12CA5014D
:10229000C4010E9405110F900F90DF91CF910F9113
:1022A000EF90CF90BF90AF909F908F90089560E097
:1022B00070E00E94B20F92FB882780F90895AF92D8
:1022C000BF92CF92EF920F931F93CF93DF931F9202
:1022D000CDB7DEB75C0149830E945F0D4981642F51
:1022E000C5010E94720D85E0C82E98E0E92E00E03D
:1022F0002AEA41E061E0C5010E94F90E882341F11C
:102300006FE470ECC5010E94B20F6AE070E080E0FB
:1023100090E00E94EB07C5010E945711882389F0C5
:1023200060E470ECC5010E94B20F6AE070E080E0EA
:1023300090E00E94EB07C5010E94571111E0182799
:1023400001C010E060E070ECC5010E94B20F01C056
:1023500010E0812F0F90DF91CF911F910F91EF909F
:10236000CF90BF90AF9008958091BD038F7708956F
:102370008230E8F4E82FF0E0EE0FFF1FEF5AFB4F3A
:1023800071836083813041F0809169008C7F482B9C
:1023900040936900E89A089580916900440F551FA1
:1023A000440F551F837F482B40936900E99A089595
:1023B000823068F4813011F0E89801C0E998E82F84
:1023C000F0E0EE0FFF1FEF5AFB4F118210820895CD
:1023D0001F920F920FB60F9211242F933F934F939A
:1023E0005F936F937F938F939F93AF93BF93EF937D
:1023F000FF938091510490915204892B29F0E09130
:102400005104F09152040995FF91EF91BF91AF9162
:102410009F918F917F916F915F914F913F912F91FC
:102420000F900FBE0F901F9018951F920F920FB62E
:102430000F9211242F933F934F935F936F937F934A
:102440008F939F93AF93BF93EF93FF938091530428
:1024500090915404892B29F0E0915304F091540495
:102460000995FF91EF91BF91AF919F918F917F91CE
:102470006F915F914F913F912F910F900FBE0F90F1
:102480001F9018958F929F92AF92BF92CF92DF923A
:10249000EF92FF92CF93DF93EC01688179818A817B
:1024A0009B81611571058105910521F464E279ED47
:1024B0008BE597E02DE133EF41E050E00E9492156B
:1024C00049015A019B01AC01A7EAB1E40E94C01581
:1024D0006B017C01ACEEB4EFA50194010E94CE1516
:1024E000DC01CB018C0D9D1DAE1DBF1DB7FF03C0D0
:1024F0000197A109B04888839983AA83BB839F77FA
:10250000DF91CF91FF90EF90DF90CF90BF90AF9091
:102510009F908F9008950E944212089580E091E06C
:102520000E9442120895A0E0B0E0809300019093D1
:102530000101A0930201B09303010895F8940C9453
:10254000D915FB01DC0102C001900D9241505040B1
:10255000D8F708955058BB27AA270E94C2120C949E
:102560003C140E942E1438F00E94351420F039F4E7
:102570009F3F19F426F40C942B140EF4E095E7FB1E
:102580000C942514E92F0E944D1458F3BA176207D2
:1025900073078407950720F079F4A6F50C946F145F
:1025A0000EF4E0950B2EBA2FA02D0B01B90190016E
:1025B0000C01CA01A0011124FF27591B99F0593FB2
:1025C00050F4503E68F11A16F040A22F232F342FFA
:1025D0004427585FF3CF469537952795A795F04048
:1025E0005395C9F77EF41F16BA0B620B730B840B5D
:1025F000BAF09150A1F0FF0FBB1F661F771F881F15
:10260000C2F70EC0BA0F621F731F841F48F487956C
:1026100077956795B795F7959E3F08F0B0CF93955E
:10262000880F08F09927EE0F9795879508950E94D7
:10263000011408F481E008950E9430130C943C14B6
:102640000E94351458F00E942E1440F029F45F3F88
:1026500029F00C94251451110C9470140C942B1423
:102660000E944D1468F39923B1F3552391F3951B00
:10267000550BBB27AA2762177307840738F09F5FA3
:102680005F4F220F331F441FAA1FA9F335D00E2E10
:102690003AF0E0E832D091505040E695001CCAF77D
:1026A0002BD0FE2F29D0660F771F881FBB1F261740
:1026B00037074807AB07B0E809F0BB0B802DBF0117
:1026C000FF2793585F4F3AF09E3F510578F00C94E6
:1026D00025140C9470145F3FE4F3983ED4F3869570
:1026E00077956795B795F7959F5FC9F7880F911D07
:1026F0009695879597F90895E1E0660F771F881FF3
:10270000BB1F621773078407BA0720F0621B730BA5
:10271000840BBA0BEE1F88F7E09508950E9495137D
:102720006894B1110C94701408950E94551488F0A7
:102730009F5798F0B92F9927B751B0F0E1F0660F85
:10274000771F881F991F1AF0BA95C9F714C0B130C6
:1027500091F00E946F14B1E008950C946F14672FEC
:10276000782F8827B85F39F0B93FCCF386957795F5
:102770006795B395D9F73EF49095809570956195DE
:102780007F4F8F4F9F4F0895E89409C097FB3EF409
:1027900090958095709561957F4F8F4F9F4F9923AE
:1027A000A9F0F92F96E9BB279395F695879577952C
:1027B0006795B795F111F8CFFAF4BB0F11F460FFEC
:1027C0001BC06F5F7F4F8F4F9F4F16C0882311F044
:1027D00096E911C0772321F09EE8872F762F05C058
:1027E000662371F096E8862F70E060E02AF09A95F3
:1027F000660F771F881FDAF7880F9695879597F9E8
:102800000895990F0008550FAA0BE0E8FEEF161681
:102810001706E807F907C0F012161306E407F507D4
:1028200098F0621B730B840B950B39F40A2661F048
:10283000232B242B252B21F408950A2609F4A140EB
:10284000A6958FEF811D811D089597F99F6780E8F8
:1028500070E060E008959FEF80EC089500240A94F2
:102860001616170618060906089500240A9412166B
:102870001306140605060895092E0394000C11F49E
:10288000882352F0BB0F40F4BF2B11F460FF04C04B
:102890006F5F7F4F8F4F9F4F089557FD9058440FA4
:1028A000551F59F05F3F71F04795880F97FB991FAF
:1028B00061F09F3F79F0879508951216130614066C
:1028C000551FF2CF4695F1DF08C0161617061806F9
:1028D000991FF1CF86957105610508940895E894D4
:1028E000BB2766277727CB0197F908950E9401142B
:1028F00008F48FEF08950E948E140C943C140E94EB
:102900002E1438F00E94351420F0952311F00C9409
:1029100025140C942B1411240C9470140E944D1443
:1029200070F3959FC1F3950F50E0551F629FF00122
:10293000729FBB27F00DB11D639FAA27F00DB11D3B
:10294000AA1F649F6627B00DA11D661F829F2227C4
:10295000B00DA11D621F739FB00DA11D621F839F4B
:10296000A00D611D221F749F3327A00D611D231F21
:10297000849F600D211D822F762F6A2F11249F576F
:1029800050409AF0F1F088234AF0EE0FFF1FBB1F72
:10299000661F771F881F91505040A9F79E3F510531
:1029A00080F00C9425140C9470145F3FE4F3983E6F
:1029B000D4F3869577956795B795F795E7959F5FDB
:1029C000C1F7FE2B880F911D9695879597F908956D
:1029D00019F416F40C942B140C9433150E9455140E
:1029E000B8F39923C9F3B6F39F57550B87FF0E949D
:1029F00041150024A0E640EA90018058569597952D
:102A000028F4805C660F771F881F20F02617370791
:102A1000480730F4621B730B840B202931294A2BA1
:102A2000A69517940794202531254A2758F7660F55
:102A3000771F881F20F026173707480730F4620BEE
:102A4000730B840B200D311D411DA09581F7B90139
:102A5000842F9158880F9695879508950E940114A8
:102A6000880B990B08959F3F31F0915020F4879582
:102A700077956795B795880F911D9695879597F9E6
:102A8000089591505040660F771F881FD2F7089520
:102A9000AA1BBB1B51E107C0AA1FBB1FA617B70784
:102AA00010F0A61BB70B881F991F5A95A9F78095A0
:102AB0009095BC01CD01089597FB072E16F4009464
:102AC00007D077FD09D00E94481507FC05D03EF4D9
:102AD000909581959F4F0895709561957F4F0895CA
:102AE000A1E21A2EAA1BBB1BFD010DC0AA1FBB1F12
:102AF000EE1FFF1FA217B307E407F50720F0A21B84
:102B0000B30BE40BF50B661F771F881F991F1A94F0
:102B100069F760957095809590959B01AC01BD011A
:102B2000CF010895052E97FB1EF400940E94A9156D
:102B300057FD07D00E94701507FC03D04EF40C948B
:102B4000A91550954095309521953F4F4F4F5F4FB8
:102B5000089590958095709561957F4F8F4F9F4F09
:102B60000895A29FB001B39FC001A39F700D811D66
:102B70001124911DB29F700D811D1124911D089586
:102B80000E94B115A59F900DB49F900DA49F800D3C
:102B9000911D11240895B7FF0C94C0150E94C01513
:102BA000821B930B0895EE0FFF1F0590F491E02D0B
:062BB0000994F894FFCF28
:102BB600010000000A14020A2052616E676520288F
:102BC6004D696E525353202D204D6178525353292F
:102BD600203A2000203C2D3E2000204D656469618E
:102BE6006E203A2000205254203A20004D6564425F
:102BF6006974732028002023230020204176672053
:102C06003A20002020566172203A2000202053747A
:102C16006420446576203A20002054687265736803
:102C26006F6C6473202D3E204C54203A2000417670
:102C36006742697473202800544845204D45535314
:102C4600414745003B002626006E616E00696E66B0
:102C5600006F7666002E0000000000C30B0A096CA8
:082C66000B980B7C0BB80B006E
:00000001FF
