:100000000C9463000C94A00A0C94CD0A0C948B0001
:100010000C948B000C948B000C948B000C948B0034
:100020000C948B000C948B000C948B000C948B0024
:100030000C948B000C948B000C948B000C948B0014
:100040000C9418020C948B000C9459050C949C058C
:100050000C948B000C948B000C948B000C948B00F4
:100060000C948B000C948B00000000070002010030
:100070000003040600000000000000000102040864
:100080001020408001020408102001020408102002
:10009000040404040404040402020202020203032E
:1000A00003030303000000002300260029000000D2
:1000B0000000250028002B0000000000240027007D
:1000C0002A000D025F0611241FBECFEFD8E0DEBF6D
:1000D000CDBF11E0A0E0B1E0E6EAF6E102C0059094
:1000E0000D92A831B107D9F722E0A8E1B1E001C033
:1000F0001D92A437B207E1F710E0C3E6D0E004C0D8
:100100002197FE010E944B0BC136D107C9F70E940F
:10011000B2040C94FA0A0C940000CF92EF920F9361
:1001200040E051EE60E070E080E391E00E94D7058E
:1001300010921D0110921C0142EC51E060E081E23E
:1001400091E00E94D10880912001909101012091BD
:100150000001891302C020931F01821302C09093F3
:100160001F018A3028F4873040F4853058F002C0EF
:100170008A3041F42093200102C09093200181E055
:1001800080931E0185E0C82E98E0E92E00E028EC5F
:1001900042E06091200181E291E00E9418080F91F5
:1001A000EF90CF9008950F931F93CF93C82F8B019B
:1001B00061E00E941D0360E08C2F0E945903B8018A
:1001C000110F880B990B0E94930261E08C2FCF9145
:1001D0001F910F910C945903CF93DF93EB01682F7C
:1001E000880F770B4AE050E080E391E00E9498048A
:1001F00064E071E080E391E00E94EF034AE050E0A8
:10020000BE0180E391E00E94AC0466E071E080E30F
:1002100091E0DF91CF910C94EF03EF920F9381E285
:1002200091E00E9468098823E1F180916002909139
:100230006102892BB1F564EE7CE081E291E00E94DD
:10024000EB08E0912501F09126019081943049F569
:10025000E0912301F09124014081518162817381F9
:10026000409318015093190160931A0170931B0178
:1002700060911A0170911B010E94EC008091200195
:1002800090E090931901809318018CE0E82E01E032
:1002900024E048E151E060911F0181E291E00E9479
:1002A0003F0A0F91EF90089581E291E00E94680962
:1002B000882349F18091600290916102892B19F5A0
:1002C00064EE7CE081E291E00E94EB08E091250180
:1002D000F091260190819430B1F4E0912301F091E6
:1002E00024014081518162817381409318015093B0
:1002F000190160931A0170931B0160911A017091AA
:100300001B010C94EC000895EF920F93CF93DF93B1
:100310008091200190E090931901809318018091C1
:100320001C0190911D0190931B0180931A018CE098
:10033000E82E01E024E048E151E060911F0181E2F4
:1003400091E00E943F0ACAE0D0E081E291E00E9481
:100350006809882399F18091600290916102892B4C
:1003600069F564EE7CE081E291E00E94EB08E091A7
:100370002501F09126019081943031F5E09123011F
:10038000F091240140815181628173814093180171
:100390005093190160931A0170931B0160911A0127
:1003A00070911B010E94EC0080911C0190911D0135
:1003B000019690931D0180931C0109C06AE070E0D2
:1003C00080E090E00E949302219709F0BECFDF9178
:1003D000CF910F91EF90089580911E01882319F01D
:1003E0000E94540115C08091200190910101891350
:1003F00009C00E94840168EE73E080E090E00E94F2
:10040000930206C090910001891302C00E940D0161
:100410006AE070E089E00C94D300E1E2F1E08EED57
:1004200091E0938382838DED91E095838483089599
:100430001F920F920FB60F9211242F933F938F9319
:100440009F93AF93BF938091280190912901A09130
:100450002A01B0912B013091270123E0230F2D3782
:1004600020F40196A11DB11D05C026E8230F0296B8
:10047000A11DB11D2093270180932801909329018C
:10048000A0932A01B0932B0180912C0190912D0112
:10049000A0912E01B0912F010196A11DB11D809355
:1004A0002C0190932D01A0932E01B0932F01BF91A9
:1004B000AF919F918F913F912F910F900FBE0F9011
:1004C0001F9018952FB7F894609128017091290119
:1004D00080912A0190912B012FBF08953FB7F89486
:1004E00080912C0190912D01A0912E01B0912F01AE
:1004F00026B5A89B05C02F3F19F00196A11DB11D7F
:100500003FBFBA2FA92F982F8827820F911DA11DB9
:10051000B11DBC01CD0142E0660F771F881F991FF6
:100520004A95D1F70895CF92DF92EF92FF92CF9341
:10053000DF936B017C010E946E02EB01C114D104B8
:10054000E104F10479F00E946E026C1B7D0B683EA1
:100550007340A0F381E0C81AD108E108F108C8513E
:10056000DC4FECCFDF91CF91FF90EF90DF90CF90F9
:100570000895789484B5826084BD84B5816084BD1B
:1005800085B5826085BD85B5816085BDEEE6F0E00C
:10059000808181608083E1E8F0E010828081826068
:1005A0008083808181608083E0E8F0E080818160E9
:1005B0008083E1EBF0E0808184608083E0EBF0E019
:1005C000808181608083EAE7F0E0808184608083BD
:1005D0008081826080838081816080838081806867
:1005E00080831092C1000895833081F028F4813017
:1005F00099F08230A1F008958630A9F08730B9F0E3
:100600008430D1F4809180008F7D03C08091800080
:100610008F7780938000089584B58F7702C084B56A
:100620008F7D84BD08958091B0008F7703C0809145
:10063000B0008F7D8093B0000895CF93DF9390E05A
:10064000FC01E458FF4F2491FC01E057FF4F8491D7
:10065000882361F190E0880F991FFC01E854FF4F57
:10066000C591D491FC01E255FF4FA591B491611160
:1006700009C09FB7F8948881209582238883EC91E4
:100680002E230BC0623061F49FB7F8943881822F1B
:10069000809583238883EC912E2B2C939FBF06C0DB
:1006A0008FB7F894E8812E2B28838FBFDF91CF91ED
:1006B00008951F93CF93DF93282F30E0F901E85975
:1006C000FF4F8491F901E458FF4FD491F901E057AD
:1006D000FF4FC491CC23C9F0162F81110E94F40260
:1006E000EC2FF0E0EE0FFF1FE255FF4FA591B49104
:1006F0008FB7F894111105C09C91ED2FE095E92377
:1007000002C0EC91ED2BEC938FBFDF91CF911F9145
:100710000895CF93DF93282F30E0F901E859FF4F78
:100720008491F901E458FF4FD491F901E057FF4F4C
:10073000C491CC2391F081110E94F402EC2FF0E0DF
:10074000EE0FFF1FEC55FF4FA591B491EC91ED23F7
:1007500081E090E021F480E002C080E090E0DF9151
:10076000CF910895CF92DF92EF92FF920F931F9354
:10077000CF93DF936C01EB017B01E40EF51E00E0EB
:1007800010E0CE15DF0561F06991D601ED91FC9185
:100790000190F081E02DC6010995080F191FF1CFD6
:1007A000C801DF91CF911F910F91FF90EF90DF90E3
:1007B000CF9008956115710579F0FB01019000203B
:1007C000E9F73197AF01461B570BDC01ED91FC9126
:1007D0000280F381E02D099480E090E008950C946C
:1007E000DA03DC01ED91FC910190F081E02D099498
:1007F0008F929F92AF92BF92CF92DF92EF92FF9231
:100800000F931F93CF93DF93CDB7DEB7A1970FB6AA
:10081000F894DEBF0FBECDBF6C01142FE52FCB01C6
:10082000022F19A2223008F40AE07E0121E2E20E32
:10083000F11C802E912CA12CB12C612F7E2FA501B3
:1008400094010E941A0B029F1019112481E0E81AEA
:10085000F1081A3014F4105D01C0195CF70110831F
:10086000122FE32FCA01232B242B252B31F7B7019D
:10087000C6010E94DA03A1960FB6F894DEBF0FBE40
:10088000CDBFDF91CF911F910F91FF90EF90DF903F
:10089000CF90BF90AF909F908F900895CF92DF92AE
:1008A000EF92FF920F931F93CF93DF93EC016A01B6
:1008B0007B012115310579F4E881F9810190F081FE
:1008C000E02D642FDF91CF911F910F91FF90EF905A
:1008D000DF90CF9009942A303105E9F477FF1AC0F0
:1008E0006DE20E94F1038C0144275527BA014C198F
:1008F0005D096E097F092AE0CE010E94F803800F8E
:10090000911FDF91CF911F910F91FF90EF90DF909A
:10091000CF9008952AE0B701A601CE01DF91CF91D3
:100920001F910F91FF90EF90DF90CF900C94F80300
:100930009A01AB01770F660B770B0C944E042115CF
:10094000310541F4DC01ED91FC910190F081E02D45
:10095000642F09940C94F8039A01AB0160E070E0F5
:100960000C949F040E94B9020E948D00C3E9D5E057
:100970000E94EC012097E1F30E949305F9CFFC015E
:1009800024853585F901E05CFF4F808191813296A5
:1009900020813181821B930B8F7399270895DC018D
:1009A0001C96ED91FC911D97DF01A05CBF4F2D912E
:1009B0003C91119712968D919C91119728173907A8
:1009C00039F08D919C91E80FF91F808190E0089596
:1009D0008FEF9FEF0895FC01A485B585FD01E05CD4
:1009E000FF4F20813181329680819181281739070C
:1009F00079F080819181A80FB91F8C91208131817C
:100A00002F5F3F4F2F7333273183208390E008956A
:100A10008FEF9FEF0895FC0181A1882329F0A4891D
:100A2000B5898C9186FFFBCF11A208950F931F9378
:100A3000CF93DF93FC01A685B7858D01005C1F4F26
:100A4000E8018881998101968F739927AD014E5BEA
:100A50005F4FEA012881398182179307D1F3E801BA
:100A600028813981A20FB31F6C93A685B785A05C3E
:100A7000BF4F11969C938E93A689B7892C9181E0E4
:100A800090E0078C02C0880F991F0A94E2F7822B2E
:100A90008C9381E081A30488F589E02D80818064B6
:100AA000808381E090E0DF91CF911F910F910895B5
:100AB00008951F920F920FB60F9211242F934F9308
:100AC0005F938F939F93EF93FF938091C00082FD7C
:100AD0001CC02091C6008091D6019091D70101964B
:100AE0008F7399274091D8015091D90184179507A8
:100AF00071F0E091D601F091D701EA56FE4F2083C4
:100B00009093D7018093D60102C08091C600FF91D7
:100B1000EF919F918F915F914F912F910F900FBE09
:100B20000F901F90189580E391E00E94BF04892BDD
:100B300011F00C94580508951F920F920FB60F9262
:100B400011242F933F938F939F93EF93FF932091C3
:100B50009201309193018091940190919501281711
:100B6000390731F48091C1008F7D8093C10014C09A
:100B7000E0919401F0919501EE5AFE4F2081809111
:100B800094019091950101968F7399279093950107
:100B9000809394012093C600FF91EF919F918F91D4
:100BA0003F912F910F900FBE0F901F901895CF92ED
:100BB000DF92EF92FF920F931F93CF93DF93EC019D
:100BC0006A017B014115514E6105710509F1EC89FE
:100BD000FD8981E090E008A002C0880F991F0A9467
:100BE000E2F7808360E079E08DE390E0A701960171
:100BF0000E941A0B89019A0101501109210931093A
:100C00003695279517950795980101151041A8F07D
:100C1000EC89FD89108260E874E88EE190E0A7011C
:100C200096010E941A0BDA01C9010197A109B109C5
:100C3000B695A795979587959C01E889F9893083A2
:100C4000EA89FB89208319A2EE89FF89408181E02E
:100C500090E09C010C8C02C0220F331F0A94E2F733
:100C6000242B2083EE89FF8940819C010D8C02C0DA
:100C7000220F331F0A94E2F7242B2083EE89FF8989
:100C800040819C010E8C02C0220F331F0A94E2F7B0
:100C9000242B2083EE89FF8920810F8C02C0880FCE
:100CA000991F0A94E2F7809582238083DF91CF9188
:100CB0001F910F91FF90EF90DF90CF900895E0E3A8
:100CC000F1E01382128288EE93E0A0E0B0E084832A
:100CD0009583A683B7838CE091E09183808386E936
:100CE00091E09587848782E591E09787868785ECF8
:100CF00090E0918B808B84EC90E0938B828B80ECE6
:100D000090E0958B848B81EC90E0978B868B82ECC6
:100D100090E0918F808F86EC90E0938F828F84E0BB
:100D2000848F83E0858F87E0868F85E0878F81E0E1
:100D300080A308958627682F62956827062E6695FA
:100D400066956025062E669560256770082E892FAA
:100D5000669507946795902D86270694679590254C
:100D60008627089590916F0280910201992339F0AE
:100D700040E050E063E277E082500C94700A8250C9
:100D80000C94900A809103018A3021F061E08AE09E
:100D90000E941D0361E0809103010E941D0361E038
:100DA000809103010E94590361E08BE00E941D03C2
:100DB00060E08CE00E941D0361E08DE00E941D0355
:100DC00080E58CBD8DB581608DBD60E080910201B4
:100DD0000E941D0361E0809102010C9459038EBDB5
:100DE0000DB407FEFDCF8EB50895EF92FF921F93CD
:100DF000CF93DF931F92CDB7DEB7182F2CB52160AC
:100E00002CBD60E08091030199830E945903998170
:100E1000892F0E94EF06E82EF12CFE2CEE24812F64
:100E20000E94EF06E82A61E0809103010E945903C5
:100E30008CB58E7F8CBDC7010F90DF91CF911F9134
:100E4000FF90EF900895CF9380E090E00E94F50628
:100E500080916202853009F094C080916702909180
:100E60006802892B91F08091630284FD0EC085E8B1
:100E700080937A00809163028F70806480937C00FD
:100E800080917A00806480937A0080E090EB0E94E9
:100E9000F506682F8091670290916802892B69F0AE
:100EA0008091630284FD09C080917A0086FDFCCFA9
:100EB00090917A00906490937A00809169028111F8
:100EC0000EC080916E02882351F0E091690291E09A
:100ED0009E0F90936902F0E0E652FE4F8083E0910E
:100EE000690281E08E0F80936902F0E0E652FE4FC6
:100EF000608380916002909161020E949A069093B3
:100F00006102809360028091670290916802892B50
:100F100039F18091630284FD23C08091640281389D
:100F2000F8F480917A0086FDFCCF809178002091C2
:100F3000790090E0922B9C012C5331092F353140E0
:100F400078F42091650230916602820F931F90938E
:100F5000660280936502809164028F5F80936402D1
:100F60008091DD012091690290E0059630E08217C2
:100F700093070CF456C080916902863808F051C07E
:100F800055C08091620287FF1BC0E091DD01809116
:100F9000620291E0980F90936202EC5F8E0FE82F4F
:100FA000F0E0E652FE4FC0818091600290916102B4
:100FB0006C2F0E949A0690936102809360022DC06C
:100FC0008091620291E0980F909362028330F1F079
:100FD00054F48823A9F08130E9F480916002909163
:100FE0006102C92F1AC08930B9F08A3099F4C091D2
:100FF0006E029091DD018DEF891B809362020DC01E
:101000008091600290916102C82F07C08DE092E844
:101010000E94F506CAEA01C0CDE28C2F90E09854F8
:1010200002C08DE092E8CF910C94F506CF9108951F
:101030008F929F92AF92BF92EF920F931F93CF9395
:10104000DF9300D000D0CDB7DEB7142F10926F021F
:101050002C836B8389839A830E94B2066B81609391
:101060006F022C8120936E0289819A810E94C206B0
:1010700080E090E00E94F50685E092E80E94F50687
:1010800080E098EB0E94F5060E9462024B015C0131
:10109000809102010E948903892B91F40E946202CF
:1010A000DC01CB0188199909AA09BB09883C910583
:1010B000A105B10528F480E090E00E94F506E8CF94
:1010C0000E946202DC01CB0188199909AA09BB09B7
:1010D000883C9105A105B10508F054C020E1129F9C
:1010E000C0011124876C90680E94F50680E496EA9E
:1010F0000E94F5068E2D90E09A530E94F50682EA32
:1011000094E90E94F5068CEA92EC0E94F506809123
:101110006E02882349F083E89AEC0E94F5068091DC
:101120006E0290E09E6C06C08BE89AEC0E94F50679
:101130008DE29EEC0E94F50683E894EC0E94F50691
:10114000083028F4802F90E08065986902C087E518
:1011500098E90E94F50687E79CEC0E94F50680E07E
:1011600090EE0E94F50680E098EC0E94F50683E47C
:1011700090EC0E94F50684E0809362020E94B20621
:1011800081E001C080E00F900F900F900F90DF91F1
:10119000CF911F910F91EF90BF90AF909F908F9044
:1011A0000895CF93C62F509368024093670260E082
:1011B0008EE08C0F0E941D03F89480916302807F63
:1011C0008093630280916302CF70C82BC093630247
:1011D0007894CF910895CF93DF93EB0180916202D1
:1011E000843011F58091670290916802892BF1F0AB
:1011F000F89420916502309166029091640278948F
:1012000096301CF482E9891B3FC0409167025091DF
:1012100068024C32514060F0409167025091680280
:101220004935524038F004C08AE92EC088E92CC004
:1012300089E92AC04091670250916802E0916702F3
:10124000F0916802692F990F770BC9010E94060B74
:101250009B01DE010E943C0BDC01CB012AE0B6952C
:10126000A795979587952A95D1F78E1B9F0B64E1DB
:1012700070E00E94060B8CE9860F8D3924F08F3BBD
:101280001CF080EC01C08BE9DF91CF9108951092A2
:10129000DD01109269028FEF9FEF909361028093BE
:1012A000600260916E02662331F00E949A0690936C
:1012B00061028093600210926602109265021092A1
:1012C000640285E0809362028DED92E80C94F5064D
:1012D000FC0180916202853039F52091DD01409159
:1012E000690230E02B5F3F4F50E02417350724F0B0
:1012F000809169028638C0F084E080936202809118
:10130000DD01813830F081E090E0909361028093BC
:1013100060029091DB019F7781F09091DB019F77D4
:1013200080916F02981749F080916202843019F41D
:10133000CF010E94470980E008958091600290915A
:101340006102892B41F40190F081E02D309719F072
:1013500080E009950BC08FEF9FEFDC0180936A025C
:1013600090936B02A0936C02B0936D0281E008959C
:1013700080916202853089F48091690281110DC0EB
:101380000E94EF0680FD09C08DE092E80E94F506FC
:1013900084E08093620281E0089580E00895FC017A
:1013A000211102C090E001C090E8692B6093DB013D
:1013B00090916F02411102C020E001C020E8922B01
:1013C0009093DC010190F081E02D309711F081E0E5
:1013D00009958FEF9FEF9093610280936002809157
:1013E00060029091610260916E020E949A06909351
:1013F00061028093600286E0809362028DE392E84E
:101400000C94F506809162028430B9F06623D1F322
:1014100083B7817F633021F0623021F090E003C018
:1014200094E001C09CE0892B83BF83B7816083BFB8
:10143000889583B78E7F83BFE5CF0895CF92EF92D3
:101440000F931F93CF93DF93EC01162FBA012093D4
:10145000DD01422F50E08EED91E00E94FD0A2E2D1D
:10146000402F612FCE010E94CF096C2DCE01DF915C
:10147000CF911F910F91EF90CF900C94020A8F9211
:101480009F92AF92BF92CF92EF920F93CF93DF9341
:1014900000D0CDB7DEB74C015A01C4012A8369835D
:1014A0000E94B8092A816981811108C0C4012A8378
:1014B00069830E94680969812A81EFCFCE2CE12CD3
:1014C000A501C4010E941E0A0F900F90DF91CF91D9
:1014D0000F91EF90CF90BF90AF909F908F90089515
:1014E0008230E8F4E82FF0E0EE0FFF1FE059FD4FE7
:1014F00071836083813041F0809169008C7F482B3B
:1015000040936900E89A089580916900440F551F3F
:10151000440F551F837F482B40936900E99A089533
:10152000823068F4813011F0E89801C0E998E82F22
:10153000F0E0EE0FFF1FE059FD4F11821082089579
:101540001F920F920FB60F9211242F933F934F9338
:101550005F936F937F938F939F93AF93BF93EF931B
:10156000FF938091700290917102892B29F0E09194
:101570007002F09171020995FF91EF91BF91AF91C7
:101580009F918F917F916F915F914F913F912F919B
:101590000F900FBE0F901F9018951F920F920FB6CD
:1015A0000F9211242F933F934F935F936F937F93E9
:1015B0008F939F93AF93BF93EF93FF9380917202AA
:1015C00090917302892B29F0E0917202F0917302DD
:1015D0000995FF91EF91BF91AF919F918F917F916D
:1015E0006F915F914F913F912F910F900FBE0F9090
:1015F0001F901895F8940C94510BFB01DC0102C06C
:1016000001900D9241505040D8F70895AA1BBB1B82
:1016100051E107C0AA1FBB1FA617B70710F0A61BF2
:10162000B70B881F991F5A95A9F780959095BC0113
:10163000CD010895A1E21A2EAA1BBB1BFD010DC00E
:10164000AA1FBB1FEE1FFF1FA217B307E407F50772
:1016500020F0A21BB30BE40BF50B661F771F881F4E
:10166000991F1A9469F760957095809590959B01E4
:10167000AC01BD01CF010895A29FB001B39FC0018D
:10168000A39F700D811D1124911DB29F700D811DAE
:101690001124911D0895EE0FFF1F0590F491E02D88
:0616A0000994F894FFCF4D
:1016A6000201020A2C003B00000000001605B203EE
:0816B600BF04EB04CF040B0597
:00000001FF
