:100000000C9479000C94500F0C947D0F0C94A1006B
:100010000C94A1000C94A1000C94A1000C94A100DC
:100020000C94A1000C94A1000C94A1000C94A100CC
:100030000C94A1000C94A1000C94A1000C94A100BC
:100040000C94D8040C94A1000C946E090C94B10982
:100050000C94A1000C94A1000C94A1000C94A1009C
:100060000C94A1000C94A10052464D313242204420
:100070006574656374696F6E204641494C21005276
:10008000464D313242204465746563746564204F87
:100090004B210000000007000201000003040600DD
:1000A0000000000000000001020408102040800150
:1000B00002040810200102040810200404040404AF
:1000C0000404040202020202020303030303030006
:1000D0000000002300260029000000000025002861
:1000E000002B0000000000240027002A0000B303BA
:1000F000740A11241FBECFEFD8E0DEBFCDBF11E0E0
:10010000A0E0B1E0E6E8F6E202C005900D92A23967
:10011000B107D9F724E0A2E9B1E001C01D92A332F2
:10012000B207E1F710E0C9E7D0E004C02197FE0173
:100130000E943B13C737D107C9F70E94C7080C9428
:1001400006100C940000CF92EF920F9340E051EE16
:1001500060E070E08FED92E00E94EC091092CF0217
:100160001092CE028CE98093CD0242E06AE080EDED
:1001700092E00E94C70E882319F06FE770E002C07A
:1001800068E670E08FED92E00E94EF0642EC51E0ED
:1001900060E080ED92E00E94200D85E0C82E98E09E
:1001A000E92E00E028EC42E06091050180ED92E04C
:1001B0000E94610C0F91EF90CF9008950F931F93C1
:1001C000CF93C82F8B0161E00E94DD0560E08C2F8A
:1001D0000E941906B801110F880B990B0E94530554
:1001E00061E08C2FCF911F910F910C941906EF9223
:1001F0000F9380ED92E00E94B70D811103C080E063
:1002000090E059C080910F0490911004892BB9F7A8
:1002100064EE7CE080ED92E00E943A0D8093CD0286
:1002200080ED92E00E941C0F909104018913E7CFAA
:10023000E091D402F091D5029081973001F7E091DE
:10024000D202F091D302AEEBB2E001900D929A95FA
:10025000E1F72091C0023091C1029091CD02F901E5
:10026000E65AFD4F9083F901EA50FE4F4091C202D9
:1002700040832091050130E03093BF022093BE02FD
:100280009093C2029CE0E92E01E027E04EEB52E0A1
:10029000682F80ED92E00E948E0E81E090E0209128
:1002A000C0023091C1022336310510F480E090E0A5
:1002B0009195819591090F91EF900895EF920F9389
:1002C000CF93DF932091CE023091CF0224363105B7
:1002D00009F48BC08091050190E09093BF02809358
:1002E000BE023093C1022093C0028091CD02809360
:1002F000C2028CE0E82E01E027E04EEB52E0609174
:10030000040180ED92E00E948E0EC4E6D0E080ED04
:1003100092E00E94B70D882309F45BC080910F041E
:1003200090911004892B09F054C064EE7CE080EDBC
:1003300092E00E943A0D8093CD0280ED92E00E94FF
:100340001C0F9091040189134AC0E091D402F091EE
:10035000D5028081873009F042C0E091D202F0914D
:10036000D302AEEBB2E001900D928A95E1F7809155
:10037000C0029091C102FC01E65AFD4F2091C202D9
:1003800020832091CE023091CF02F901EA50FE4F36
:100390004091CD0240838217930729F401969093F0
:1003A000CF028093CE028091CE029091CF020E9424
:1003B000FB0F0E94F60F68EC70E00E94C412BC01B3
:1003C0006C597F4F072E000C880B990B0E94530528
:1003D00009C06AE070E080E090E00E945305219738
:1003E00009F095CF80E090E002C08FEF9FEFDF91A2
:1003F000CF910F91EF9008952F923F924F925F927D
:100400006F927F928F929F92AF92BF92CF92DF9224
:10041000EF92FF920F931F93CF93DF93CDB7DEB789
:1004200060970FB6F894DEBF0FBECDBF1C015A8394
:1004300049833E832D8318870F83FC01612C712C27
:10044000062F062E000C110BCF018219930980177D
:10045000910734F48191680E711C87FD7A94F4CF72
:10046000062E000C770B880B990B0E942E116987C2
:100470007A878B879C87B301770C880B990B0E9436
:100480002E1129853A854B855C850E9484106D87E5
:100490007E878F87988BA981BA816D937D938D9389
:1004A0009C9313973C822B82412C512C32018B81DF
:1004B0009C818219930980179107FCF4EB81FC81E0
:1004C0006191FC83EB83062E000C770B880B990B54
:1004D0000E942E112D853E854F8558890E9412104D
:1004E0009B01AC010E94E3119B01AC01C301B2016D
:1004F0000E9413102B013C01DACF29853A854B85E8
:100500005C85C301B2010E9484102B013C010E9452
:1005100056129B01AC01AD81BE816D937D938D938D
:100520009C931397C701B6010E94E3119B01AC0194
:10053000E981FA8160817181828193810E94121028
:100540006093C9027093CA028093CB029093CC024D
:10055000AD81BE812D913D914D915C91C501B4015C
:100560000E94E3119B01AC01E981FA8160817181F4
:10057000828193810E9413106093C5027093C6021A
:100580008093C7029093C80268E071E08FED92E01B
:100590000E94D206A981BA814D915D916D917C91A5
:1005A00022E030E08FED92E00E94B30861E171E05B
:1005B0008FED92E00E94D20622E030E0B301A2016A
:1005C0008FED92E00E94B3086AE171E08FED92E056
:1005D0000E94D206ED81FE8140815181628173814A
:1005E00022E030E08FED92E00E94B30867E271E014
:1005F0008FED92E00E94D2064091C9025091CA024A
:100600006091CB027091CC0222E030E08FED92E05D
:100610000E94B3086CE371E08FED92E00E94D20675
:100620004091C5025091C6026091C7027091C80204
:1006300022E030E08FED92E00E94B5086101E12CEC
:10064000F12CBB24B394C60182199309801791073A
:10065000B4F5D6016D916D01062E000C770B880B59
:10066000990B0E942E112B013C012091C90230915F
:10067000CA024091CB025091CC020E947F1087FFAA
:1006800008C0F101EE0DFF1D1082BFEFEB1AFB0A4F
:10069000DACF2091C5023091C6024091C702509135
:1006A000C802C301B2010E94DE11181664F6F101FE
:1006B000EE0DFF1DB082EFEFEE1AFE0AC4CFAF8140
:1006C000B885EC9263E471E08FED92E00E94D2066F
:1006D0004AE050E0EF81F88560818FED92E00E9462
:1006E000C70769E571E08FED92E00E94D2068101B3
:1006F000EF81F885808190E098012219330928174D
:10070000390798F4D8016D918D01062E000C770BF6
:100710004AE050E08FED92E00E94B3076CE571E093
:100720008FED92E00E94D206E3CF6EE571E08FED8F
:1007300092E060960FB6F894DEBF0FBECDBFDF919A
:10074000CF911F910F91FF90EF90DF90CF90BF90CE
:10075000AF909F908F907F906F905F904F903F9061
:100760002F900C940107E0EDF2E08DE893E0938385
:1007700082838CE893E09583848382E691E0909372
:10078000C4028093C30208957F928F929F92AF928A
:10079000BF92CF92DF92EF92FF920F931F93CF936E
:1007A000DF93CDB7DEB729970FB6F894DEBF0FBE43
:1007B000CDBF1D821E821F82188619821A821B825B
:1007C0001C82609105014AE050E06F3010F06091AA
:1007D00004018FED92E00E94C7076AE571E08FED9A
:1007E00092E00E94D20606EF11E0D8016D918D01D2
:1007F000062E000C770B4AE050E08FED92E00E944D
:10080000B3076EE671E08FED92E00E94D206B2E08F
:100810000A351B0751F760E771E08FED92E00E9407
:10082000010724E6722EE2E9F1E0DF01872D1D9237
:100830008A95E9F7E6EFF1E0A2E9B1E0872D0190B2
:100840000D928A95E1F7812C912CA12C3FE3B32ED8
:10085000C12CD12C40E8E42E4EE3F42E8E01075F2C
:100860001F4F9E012F5F3F4FAE014B5F5F4F64E60E
:1008700082E991E00E94FC01E6EFF1E0A2E9B1E03B
:1008800001900D927A94E1F7609105014AE050E001
:100890006F3010F4609104018FED92E00E94C70761
:1008A0006AE571E08FED92E00E94D2060AE512E05F
:1008B000D8016D918D01062E000C770B4AE050E0B7
:1008C0008FED92E00E94B3076EE671E08FED92E04B
:1008D0000E94D206B2E00E3B1B0751F760E771E0C1
:1008E0008FED92E00E94010784E6E2E9F1E0DF018A
:1008F000982F1D929A95E9F7EAE5F2E0A2E9B1E0B6
:1009000001900D928A95E1F7812C912CA12C8FE317
:10091000B82EC12CD12C90E8E92E9EE3F92E8E0141
:10092000075F1F4F9E012F5F3F4FAE014B5F5F4F31
:1009300064E682E991E00E94FC018FED92E00E9462
:10094000200968EE73E080E090E00E945305109269
:10095000CF021092CE0280E090E029960FB6F89474
:10096000DEBF0FBECDBFDF91CF911F910F91FF90E2
:10097000EF90DF90CF90BF90AF909F908F907F903F
:100980000895CF93809105018F3018F40E945E0185
:1009900002C00E94F700C82F6AE070E089E00E9460
:1009A000DE00CC2319F0CF910C94C403CF910895AD
:1009B0001F920F920FB60F9211242F933F938F9394
:1009C0009F93AF93BF938091D7029091D802A0914B
:1009D000D902B091DA023091D60223E0230F2D37ED
:1009E00020F40196A11DB11D05C026E8230F029633
:1009F000A11DB11D2093D6028093D7029093D802F7
:100A0000A093D902B093DA028091DB029091DC02CC
:100A1000A091DD02B091DE020196A11DB11D80936F
:100A2000DB029093DC02A093DD02B093DE02BF9163
:100A3000AF919F918F913F912F910F900FBE0F908B
:100A40001F9018952FB7F8946091D7027091D80233
:100A50008091D9029091DA022FBF08953FB7F894A0
:100A60008091DB029091DC02A091DD02B091DE0268
:100A700026B5A89B05C02F3F19F00196A11DB11DF9
:100A80003FBFBA2FA92F982F8827820F911DA11D34
:100A9000B11DBC01CD0142E0660F771F881F991F71
:100AA0004A95D1F70895CF92DF92EF92FF92CF93BC
:100AB000DF936B017C010E942E05EB01C114D10470
:100AC000E104F10479F00E942E056C1B7D0B683E59
:100AD0007340A0F381E0C81AD108E108F108C851B9
:100AE000DC4FECCFDF91CF91FF90EF90DF90CF9074
:100AF0000895789484B5826084BD84B5816084BD96
:100B000085B5826085BD85B5816085BDEEE6F0E086
:100B1000808181608083E1E8F0E0108280818260E2
:100B20008083808181608083E0E8F0E08081816063
:100B30008083E1EBF0E0808184608083E0EBF0E093
:100B4000808181608083EAE7F0E080818460808337
:100B500080818260808380818160808380818068E1
:100B600080831092C1000895833081F028F4813091
:100B700099F08230A1F008958630A9F08730B9F05D
:100B80008430D1F4809180008F7D03C080918000FB
:100B90008F7780938000089584B58F7702C084B5E5
:100BA0008F7D84BD08958091B0008F7703C08091C0
:100BB000B0008F7D8093B0000895CF93DF9390E0D5
:100BC000FC01E955FF4F2491FC01E554FF4F84914E
:100BD000882361F190E0880F991FFC01ED51FF4FD0
:100BE000C591D491FC01E752FF4FA591B4916111D9
:100BF00009C09FB7F8948881209582238883EC915F
:100C00002E230BC0623061F49FB7F8943881822F95
:100C1000809583238883EC912E2B2C939FBF06C055
:100C20008FB7F894E8812E2B28838FBFDF91CF9167
:100C300008951F93CF93DF93282F30E0F901ED56ED
:100C4000FF4F8491F901E955FF4FD491F901E55423
:100C5000FF4FC491CC23C9F0162F81110E94B40517
:100C6000EC2FF0E0EE0FFF1FE752FF4FA591B4917C
:100C70008FB7F894111105C09C91ED2FE095E923F1
:100C800002C0EC91ED2BEC938FBFDF91CF911F91C0
:100C90000895CF93DF93282F30E0F901ED56FF4FF1
:100CA0008491F901E955FF4FD491F901E554FF4FC3
:100CB000C491CC2391F081110E94B405EC2FF0E097
:100CC000EE0FFF1FE153FF4FA591B491EC91ED237F
:100CD00081E090E021F480E002C080E090E0DF91CC
:100CE000CF910895CF92DF92EF92FF920F931F93CF
:100CF000CF93DF936C01EB017B01E40EF51E00E066
:100D000010E0CE15DF0561F06991D601ED91FC91FF
:100D10000190F081E02DC6010995080F191FF1CF50
:100D2000C801DF91CF911F910F91FF90EF90DF905D
:100D3000CF9008956115710579F0FB0101900020B5
:100D4000E9F73197AF01461B570BDC01ED91FC91A0
:100D50000280F381E02D099480E090E00895EF9205
:100D6000FF920F931F93CF93DF937C01FB0100E071
:100D700010E06491EF012196662361F0D701ED91B7
:100D8000FC910190F081E02DC7010995080F191F12
:100D9000FE01EFCFC801DF91CF911F910F91FF901E
:100DA000EF9008950C949A06DC01ED91FC9101906E
:100DB000F081E02D09940F931F93CF93DF93EC0103
:100DC0006DE00E94D4068C016AE0CE010E94D40638
:100DD000800F911FDF91CF911F910F9108950F9375
:100DE0001F93CF93DF93EC010E94AF068C01CE01DD
:100DF0000E94DB06800F911FDF91CF911F910F9111
:100E000008950F931F93CF93DF93EC010E949A06EE
:100E10008C01CE010E94DB06800F911FDF91CF91E4
:100E20001F910F9108958F929F92AF92BF92CF9290
:100E3000DF92EF92FF920F931F93CF93DF93CDB783
:100E4000DEB7A1970FB6F894DEBF0FBECDBF6C0121
:100E5000142FE52FCB01022F19A2223008F40AE04B
:100E60007E0121E2E20EF11C802E912CA12CB12CEE
:100E7000612F7E2FA50194010E94D812029F1019A4
:100E8000112481E0E81AF1081A3014F4105D01C051
:100E9000195CF7011083122FE32FCA01232B242B97
:100EA000252B31F7B701C6010E949A06A1960FB60D
:100EB000F894DEBF0FBECDBFDF91CF911F910F9190
:100EC000FF90EF90DF90CF90BF90AF909F908F906A
:100ED0000895CF92DF92EF92FF920F931F93CF93DB
:100EE000DF93EC016A017B012115310579F4E8817A
:100EF000F9810190F081E02D642FDF91CF911F9156
:100F00000F91FF90EF90DF90CF9009942A30310538
:100F1000E9F477FF1AC06DE20E94D4068C014427E1
:100F20005527BA014C195D096E097F092AE0CE01E7
:100F30000E941307800F911FDF91CF911F910F9196
:100F4000FF90EF90DF90CF9008952AE0B701A601BF
:100F5000CE01DF91CF911F910F91FF90EF90DF9025
:100F6000CF900C9413079A01AB01770F660B770BA8
:100F70000C9469072115310541F4DC01ED91FC91D8
:100F80000190F081E02D642F09940C9413079A01CD
:100F9000462F50E060E070E00C94BA074F925F92E9
:100FA0006F927F928F929F92AF92BF92CF92DF9279
:100FB000EF92FF92CF93DF93EC016A017B01B22E97
:100FC0009A01AB01C701B6010E949612882319F05D
:100FD00063E771E027C026013701E89477F82FEF27
:100FE0003FEF4FE75FE7C301B2010E949612811104
:100FF0000DC02FEF3FEF4FE75FE7C301B2010E9443
:101000007F1018161CF467E771E00CC02FEF3FEF5C
:101010004FE75FE4C701B6010E94DE1118169CF489
:101020006BE771E0CE01DF91CF91FF90EF90DF9001
:10103000CF90BF90AF909F908F907F906F905F9078
:101040004F900C949A062FEF3FEF4FE75FECC701EC
:10105000B6010E947F1087FDE3CF20E030E0A901B8
:10106000C701B6010E947F1087FF0AC06DE2CE0162
:101070000E94D4064C01F7FAF094F7F8F09402C0FD
:10108000812C912CA12C60E070E080E09FE3AB14F8
:1010900041F020E030E040E251E40E948410A3944B
:1010A000F6CF9B01AC01C701B6010E9413102B01C2
:1010B0003C010E94FD106B017C010E942C119B01E0
:1010C000AC01C301B2010E9412102B013C012AE0C5
:1010D000B701A601CE010E9413077C01E80CF91CA0
:1010E000BB2039F06FE771E0CE010E949A06E80E4E
:1010F000F91EDB2CDD2039F120E030E040E251E444
:10110000C301B2010E94E3112B013C010E94F610C1
:101110004B01770FAA08BB082AE030E0B501A40113
:10112000CE010E946907E80EF91EC501B4010E94B4
:101130002E119B01AC01C301B2010E9412102B01C0
:101140003C01DA94D7CFC701DF91CF91FF90EF90A8
:10115000DF90CF90BF90AF909F908F907F906F90D7
:101160005F904F9008950C94CE070F931F93CF93E9
:10117000DF93EC010E94CE078C01CE010E94DB06BA
:10118000800F911FDF91CF911F910F9108950E94C1
:1011900079050E94A300C8EAD9E00E94C104209703
:1011A000E1F30E94A809F9CFFC0124853585F901F6
:1011B000E05CFF4F80819181329620813181821BDA
:1011C000930B8F7399270895DC011C96ED91FC9188
:1011D0001D97DF01A05CBF4F2D913C911197129696
:1011E0008D919C9111972817390739F08D919C9119
:1011F000E80FF91F808190E008958FEF9FEF089529
:10120000FC01A485B585FD01E05CFF4F20813181A3
:101210003296808191812817390779F080819181F8
:10122000A80FB91F8C91208131812F5F3F4F2F7301
:1012300033273183208390E008958FEF9FEF089547
:10124000FC0181A1882329F0A489B5898C9186FFAE
:10125000FBCF11A208950F931F93CF93DF93FC014F
:10126000A685B7858D01005C1F4FE80188819981B3
:1012700001968F739927AD014E5B5F4FEA0128817C
:10128000398182179307D1F3E80128813981A20FB0
:10129000B31F6C93A685B785A05CBF4F11969C9336
:1012A0008E93A689B7892C9181E090E0078C02C0CB
:1012B000880F991F0A94E2F7822B8C9381E081A317
:1012C0000488F589E02D80818064808381E090E04E
:1012D000DF91CF911F910F91089508951F920F9262
:1012E0000FB60F9211242F934F935F938F939F9379
:1012F000EF93FF938091C00082FD1CC02091C60037
:10130000809185039091860301968F739927409170
:101310008703509188038417950771F0E091850346
:10132000F0918603EB5BFC4F2083909386038093C0
:10133000850302C08091C600FF91EF919F918F912C
:101340005F914F912F910F900FBE0F901F901895A6
:101350008FED92E00E94D408892B11F00C946D0956
:1013600008951F920F920FB60F9211242F933F935F
:101370008F939F93EF93FF9320914103309142030A
:1013800080914303909144032817390731F48091E9
:10139000C1008F7D8093C10014C0E0914303F091A0
:1013A0004403EF5FFC4F20818091430390914403FD
:1013B00001968F739927909344038093430320935E
:1013C000C600FF91EF919F918F913F912F910F90C8
:1013D0000FBE0F901F901895CF92DF92EF92FF9261
:1013E0000F931F93CF93DF93EC016A017B014115AB
:1013F000514E6105710509F1EC89FD8981E090E0AC
:1014000008A002C0880F991F0A94E2F7808360E069
:1014100079E08DE390E0A70196010E94D81289013E
:101420009A0101501109210931093695279517951F
:101430000795980101151041A8F0EC89FD891082EB
:1014400060E874E88EE190E0A70196010E94D8124E
:10145000DA01C9010197A109B109B695A795979538
:1014600087959C01E889F9893083EA89FB89208383
:1014700019A2EE89FF89408181E090E09C010C8CEB
:1014800002C0220F331F0A94E2F7242B2083EE8937
:10149000FF8940819C010D8C02C0220F331F0A94EA
:1014A000E2F7242B2083EE89FF8940819C010E8C7A
:1014B00002C0220F331F0A94E2F7242B2083EE8907
:1014C000FF8920810F8C02C0880F991F0A94E2F7D0
:1014D000809582238083DF91CF911F910F91FF90A0
:1014E000EF90DF90CF900895EFEDF2E0138212823B
:1014F00088EE93E0A0E0B0E084839583A683B78371
:1015000085E891E09183808385E493E095878487E3
:1015100081E093E09787868785EC90E0918B808BC4
:1015200084EC90E0938B828B80EC90E0958B848BA5
:1015300081EC90E0978B868B82EC90E0918F808F8E
:1015400086EC90E0938F828F84E0848F83E0858F98
:1015500087E0868F85E0878F81E080A308958627C6
:10156000682F62956827062E669566956025062E7B
:10157000669560256770082E892F66950794679594
:10158000902D862706946795902586270895CF93FA
:10159000C62F61E0809107010E941906C0930701E0
:1015A00061E08C2F0E94DD0561E080910701CF9101
:1015B0000C941906CF93DF931F92CDB7DEB78091BD
:1015C00006018250823038F469830E94400F69819D
:1015D0006093060103C082E08093060160E0809181
:1015E00006010E94DD0561E0809106010F90DF9108
:1015F000CF910C94190690911E04809106019923B5
:1016000039F040E050E06CE67BE082500C94200F13
:1016100082500C94400F809107018A3021F061E0E4
:101620008AE00E94DD0561E0809107010E94DD05EE
:1016300061E0809107010E94190661E08BE00E9441
:10164000DD0560E08CE00E94DD0561E08DE00E9438
:10165000DD0580E58CBD8DB581608DBD60E080913C
:1016600006010E94DD0561E0809106010C941906D7
:101670008EBD0DB407FEFDCF8EB50895EF92FF929B
:101680001F93CF93DF931F92CDB7DEB7182F2CB5E2
:1016900021602CBD60E08091070199830E941906AA
:1016A0009981892F0E94380BE82EF12CFE2CEE2414
:1016B000812F0E94380BE82A61E0809107010E9487
:1016C00019068CB58E7F8CBDC7010F90DF91CF912D
:1016D0001F91FF90EF900895CF9380E090E00E94DB
:1016E0003E0B80911104853009F094C0809116045E
:1016F00090911704892B91F08091120484FD0EC003
:1017000085E880937A00809112048F7080648093C2
:101710007C0080917A00806480937A0080E090EB76
:101720000E943E0B682F8091160490911704892B1C
:1017300069F08091120484FD09C080917A0086FDD1
:10174000FCCF90917A00906490937A008091180475
:1017500081110EC080911D04882351F0E09118047E
:1017600091E09E0F90931804F0E0E757FC4F8083C0
:10177000E091180481E08E0F80931804F0E0E757A1
:10178000FC4F608380910F04909110040E94AF0A77
:101790009093100480930F04809116049091170485
:1017A000892B39F18091120484FD23C080911304A8
:1017B0008138F8F480917A0086FDFCCF8091780022
:1017C0002091790090E0922B9C012C5331092F3508
:1017D000314078F42091140430911504820F931F46
:1017E0009093150480931404809113048F5F809369
:1017F000130480918C032091180490E0059630E04A
:10180000821793070CF456C080911804863808F0AC
:1018100051C055C08091110487FF1BC0E0918C031B
:101820008091110491E0980F90931104EC5F8E0F5A
:10183000E82FF0E0E757FC4FC08180910F049091B2
:1018400010046C2F0E94AF0A9093100480930F0431
:101850002DC08091110491E0980F90931104833072
:10186000F1F054F48823A9F08130E9F480910F0459
:1018700090911004C92F1AC08930B9F08A3099F4B8
:10188000C0911D0490918C038DEF891B80931104EE
:101890000DC080910F0490911004C82F07C08DE0F7
:1018A00092E80E943E0BCAEA01C0CDE28C2F90E084
:1018B000985402C08DE092E8CF910C943E0BCF91EA
:1018C00008958F929F92AF92BF92EF920F931F93C2
:1018D000CF93DF9300D000D0CDB7DEB7142F109296
:1018E0001E042C836B8389839A830E94FB0A6B817D
:1018F00060931E042C8120931D0489819A810E948B
:101900000B0B80E090E00E943E0B85E092E80E9485
:101910003E0B80E098EB0E943E0B0E9422054B019B
:101920005C01809106010E944906892B91F40E9476
:101930002205DC01CB0188199909AA09BB09883C59
:101940009105A105B10528F480E090E00E943E0BCE
:10195000E8CF0E942205DC01CB0188199909AA0968
:10196000BB09883C9105A105B10508F054C020E1F0
:10197000129FC0011124876C90680E943E0B80E486
:1019800096EA0E943E0B8E2D90E09A530E943E0BE9
:1019900082EA94E90E943E0B8CEA92EC0E943E0B94
:1019A00080911D04882349F083E89AEC0E943E0B45
:1019B00080911D0490E09E6C06C08BE89AEC0E941A
:1019C0003E0B8DE29EEC0E943E0B83E894EC0E945D
:1019D0003E0B083028F4802F90E08065986902C0A3
:1019E00087E598E90E943E0B87E79CEC0E943E0B3E
:1019F00080E090EE0E943E0B80E098EC0E943E0B4F
:101A000083E490EC0E943E0B84E0809311040E94DA
:101A1000FB0A81E001C080E00F900F900F900F90C3
:101A2000DF91CF911F910F91EF90BF90AF909F905A
:101A30008F900895CB01F8940E943E0B78940895FE
:101A4000CF93C62F509317044093160460E08EE0A6
:101A50008C0F0E94DD05F89480911204807F8093A2
:101A6000120480911204CF70C82BC0931204789492
:101A7000CF910895CF93DF93EB01809111048430CF
:101A800011F58091160490911704892BF1F0F894C8
:101A90002091140430911504909113047894963099
:101AA0001CF482E9891B3FC0409116045091170431
:101AB0004C32514060F04091160450911704493562
:101AC000524038F004C08AE92EC088E92CC089E968
:101AD0002AC04091160450911704E0911604F09129
:101AE0001704692F990F770BC9010E94B0129B014F
:101AF000DE010E941913DC01CB012AE0B695A795FF
:101B0000979587952A95D1F78E1B9F0B64E170E01E
:101B10000E94B0128CE9860F8D3924F08F3B1CF0A7
:101B200080EC01C08BE9DF91CF91089510928C0376
:101B3000109218048FEF9FEF9093100480930F047E
:101B400060911D04662331F00E94AF0A9093100447
:101B500080930F0410921504109214041092130431
:101B600085E0809311048DED92E80C943E0BFC010E
:101B700080911104853039F520918C03409118042F
:101B800030E02B5F3F4F50E02417350724F0809161
:101B900018048638C0F084E08093110480918C038F
:101BA000813830F081E090E09093100480930F042E
:101BB00090918A039F7781F090918A039F7780911B
:101BC0001E04981749F080911104843019F4CF0154
:101BD0000E94960D80E0089580910F04909110046A
:101BE000892B41F40190F081E02D309719F080E0CD
:101BF00009950BC08FEF9FEFDC0180931904909340
:101C00001A04A0931B04B0931C0481E008958091F2
:101C10001104853089F48091180481110DC00E944F
:101C2000380B80FD09C08DE092E80E943E0B84E0F5
:101C30008093110481E0089580E00895FC01211152
:101C400002C090E001C090E8692B60938A039091F4
:101C50001E04411102C020E001C020E8922B9093A5
:101C60008B030190F081E02D309711F081E0099510
:101C70008FEF9FEF9093100480930F0480910F04D7
:101C80009091100460911D040E94AF0A909310047B
:101C900080930F0486E0809311048DE392E80C9406
:101CA0003E0B809111048430B9F06623D1F383B7E1
:101CB000817F633021F0623021F090E003C094E036
:101CC00001C09CE0892B83BF83B7816083BF889567
:101CD00083B78E7F83BFE5CF0895CF92EF920F93A6
:101CE0001F93CF93DF93EC01162FBA0120938C033F
:101CF000422F50E08DE893E00E9409102E2D402FD6
:101D0000612FCE010E941E0E6C2DCE01DF91CF916E
:101D10001F910F91EF90CF900C94510E8F929F9244
:101D2000AF92BF92CF92EF920F93CF93DF9300D0F9
:101D3000CDB7DEB74C015A01C4012A8369830E94E2
:101D4000070E2A816981811108C0C4012A83698331
:101D50000E94B70D69812A81EFCFCE2CE12CA5011D
:101D6000C4010E946D0E0F900F90DF91CF910F91E3
:101D7000EF90CF90BF90AF909F908F90089560E0CC
:101D800070E00E941A0D92FB882780F90895AF92A7
:101D9000BF92CF92EF920F931F93CF93DF931F9237
:101DA000CDB7DEB75C0149830E94C70A4981642F21
:101DB000C5010E94DA0A85E0C82E98E0E92E00E00D
:101DC0002AEA41E061E0C5010E94610C882341F1EB
:101DD0006FE470ECC5010E941A0D6AE070E080E0CB
:101DE00090E00E945305C5010E94BF0E882389F030
:101DF00060E470ECC5010E941A0D6AE070E080E0BA
:101E000090E00E945305C5010E94BF0E11E0182703
:101E100001C010E060E070ECC5010E941A0D01C025
:101E200010E0812F0F90DF91CF911F910F91EF90D4
:101E3000CF90BF90AF90089580918B038F770895D6
:101E40008230E8F4E82FF0E0EE0FFF1FE15EFB4F79
:101E500071836083813041F0809169008C7F482BD1
:101E600040936900E89A089580916900440F551FD6
:101E7000440F551F837F482B40936900E99A0895CA
:101E8000823068F4813011F0E89801C0E998E82FB9
:101E9000F0E0EE0FFF1FE15EFB4F1182108208950C
:101EA0001F920F920FB60F9211242F933F934F93CF
:101EB0005F936F937F938F939F93AF93BF93EF93B2
:101EC000FF9380911F0490912004892B29F0E091C9
:101ED0001F04F09120040995FF91EF91BF91AF91FC
:101EE0009F918F917F916F915F914F913F912F9132
:101EF0000F900FBE0F901F9018951F920F920FB664
:101F00000F9211242F933F934F935F936F937F937F
:101F10008F939F93AF93BF93EF93FF93809121048F
:101F200090912204892B29F0E0912104F091220460
:101F30000995FF91EF91BF91AF919F918F917F9103
:101F40006F915F914F913F912F910F900FBE0F9026
:101F50001F9018958F929F92AF92BF92CF92DF926F
:101F6000EF92FF92CF93DF93EC01688179818A81B0
:101F70009B81611571058105910521F464E279ED7C
:101F80008BE597E02DE133EF41E050E00E94FA123B
:101F900049015A019B01AC01A7EAB1E40E94281350
:101FA0006B017C01ACEEB4EFA50194010E943613E5
:101FB000DC01CB018C0D9D1DAE1DBF1DB7FF03C005
:101FC0000197A109B04888839983AA83BB839F772F
:101FD000DF91CF91FF90EF90DF90CF90BF90AF90C7
:101FE0009F908F9008950E94AA0F089580E091E03D
:101FF0000E94AA0F0895A0E0B0E0809300019093A2
:102000000101A0930201B09303010895F8940C9488
:102010004113FB01DC0102C001900D924150504080
:10202000D8F708955058BB27AA270E942A100C946D
:10203000A4110E94961138F00E949D1120F039F4ED
:102040009F3F19F426F40C9493110EF4E095E7FBEE
:102050000C948D11E92F0E94B51158F3BA1762073D
:1020600073078407950720F079F4A6F50C94D7112F
:102070000EF4E0950B2EBA2FA02D0B01B9019001A3
:102080000C01CA01A0011124FF27591B99F0593FE7
:1020900050F4503E68F11A16F040A22F232F342F2F
:1020A0004427585FF3CF469537952795A795F0407D
:1020B0005395C9F77EF41F16BA0B620B730B840B92
:1020C000BAF09150A1F0FF0FBB1F661F771F881F4A
:1020D000C2F70EC0BA0F621F731F841F48F48795A2
:1020E00077956795B795F7959E3F08F0B0CF939594
:1020F000880F08F09927EE0F9795879508950E940D
:10210000691108F481E008950E9498100C94A411BC
:102110000E949D1158F00E94961140F029F45F3FF3
:1021200029F00C948D1151110C94D8110C94931129
:102130000E94B51168F39923B1F3552391F3951BD0
:10214000550BBB27AA2762177307840738F09F5FD8
:102150005F4F220F331F441FAA1FA9F335D00E2E45
:102160003AF0E0E832D091505040E695001CCAF7B2
:102170002BD0FE2F29D0660F771F881FBB1F261775
:1021800037074807AB07B0E809F0BB0B802DBF014C
:10219000FF2793585F4F3AF09E3F510578F00C941B
:1021A0008D110C94D8115F3FE4F3983ED4F38695DB
:1021B00077956795B795F7959F5FC9F7880F911D3C
:1021C0009695879597F90895E1E0660F771F881F28
:1021D000BB1F621773078407BA0720F0621B730BDB
:1021E000840BBA0BEE1F88F7E09508950E94FD104E
:1021F0006894B1110C94D81108950E94BD1188F013
:102200009F5798F0B92F9927B751B0F0E1F0660FBA
:10221000771F881F991F1AF0BA95C9F714C0B130FB
:1022200091F00E94D711B1E008950C94D711672F57
:10223000782F8827B85F39F0B93FCCF3869577952A
:102240006795B395D9F73EF4909580957095619513
:102250007F4F8F4F9F4F0895E89409C097FB3EF43E
:1022600090958095709561957F4F8F4F9F4F9923E3
:10227000A9F0F92F96E9BB279395F6958795779561
:102280006795B795F111F8CFFAF4BB0F11F460FF21
:102290001BC06F5F7F4F8F4F9F4F16C0882311F079
:1022A00096E911C0772321F09EE8872F762F05C08D
:1022B000662371F096E8862F70E060E02AF09A9528
:1022C000660F771F881FDAF7880F9695879597F91D
:1022D0000895990F0008550FAA0BE0E8FEEF1616B7
:1022E0001706E807F907C0F012161306E407F5070A
:1022F00098F0621B730B840B950B39F40A2661F07E
:10230000232B242B252B21F408950A2609F4A14020
:10231000A6958FEF811D811D089597F99F6780E82D
:1023200070E060E008959FEF80EC089500240A9427
:102330001616170618060906089500240A941216A0
:102340001306140605060895092E0394000C11F4D3
:10235000882352F0BB0F40F4BF2B11F460FF04C080
:102360006F5F7F4F8F4F9F4F089557FD9058440FD9
:10237000551F59F05F3F71F04795880F97FB991FE4
:1023800061F09F3F79F087950895121613061406A1
:10239000551FF2CF4695F1DF08C01616170618062E
:1023A000991FF1CF86957105610508940895E89409
:1023B000BB2766277727CB0197F908950E946911FB
:1023C00008F48FEF08950E94F6110C94A4110E9456
:1023D000961138F00E949D1120F0952311F00C9475
:1023E0008D110C94931111240C94D8110E94B511E5
:1023F00070F3959FC1F3950F50E0551F629FF00158
:10240000729FBB27F00DB11D639FAA27F00DB11D70
:10241000AA1F649F6627B00DA11D661F829F2227F9
:10242000B00DA11D621F739FB00DA11D621F839F80
:10243000A00D611D221F749F3327A00D611D231F56
:10244000849F600D211D822F762F6A2F11249F57A4
:1024500050409AF0F1F088234AF0EE0FFF1FBB1FA7
:10246000661F771F881F91505040A9F79E3F510566
:1024700080F00C948D110C94D8115F3FE4F3983EDA
:10248000D4F3869577956795B795F795E7959F5F10
:10249000C1F7FE2B880F911D9695879597F90895A2
:1024A00019F416F40C9493110C949B120E94BD1114
:1024B000B8F39923C9F3B6F39F57550B87FF0E94D2
:1024C000A9120024A0E640EA9001805856959795FD
:1024D00028F4805C660F771F881F20F026173707C7
:1024E000480730F4621B730B840B202931294A2BD7
:1024F000A69517940794202531254A2758F7660F8B
:10250000771F881F20F026173707480730F4620B23
:10251000730B840B200D311D411DA09581F7B9016E
:10252000842F9158880F9695879508950E94691178
:10253000880B990B08959F3F31F0915020F48795B7
:1025400077956795B795880F911D9695879597F91B
:10255000089591505040660F771F881FD2F7089555
:10256000AA1BBB1B51E107C0AA1FBB1FA617B707B9
:1025700010F0A61BB70B881F991F5A95A9F78095D5
:102580009095BC01CD01089597FB072E16F4009499
:1025900007D077FD09D00E94B01207FC05D03EF4A9
:1025A000909581959F4F0895709561957F4F0895FF
:1025B000A1E21A2EAA1BBB1BFD010DC0AA1FBB1F47
:1025C000EE1FFF1FA217B307E407F50720F0A21BB9
:1025D000B30BE40BF50B661F771F881F991F1A9426
:1025E00069F760957095809590959B01AC01BD0150
:1025F000CF010895052E97FB1EF400940E9411133D
:1026000057FD07D00E94D81207FC03D04EF40C945B
:10261000111350954095309521953F4F4F4F5F4F87
:10262000089590958095709561957F4F8F4F9F4F3E
:102630000895A29FB001B39FC001A39F700D811D9B
:102640001124911DB29F700D811D1124911D0895BB
:102650000E941913A59F900DB49F900DA49F800D0B
:10266000911D11240895B7FF0C9428130E9428137C
:10267000821B930B0895EE0FFF1F0590F491E02D40
:062680000994F894FFCF5D
:1026860001000000140A020A2020417667203A2041
:10269600002020566172203A2000202053746420C6
:1026A600446576203A2000205468726573686F6C22
:1026B6006473202D3E204C54203A20002052542092
:1026C6003A20004578747261632042697473284D1C
:1026D60061746875722920280029203A2000202379
:1026E6002300544845204D455353414745003B0080
:1026F6002626006E616E00696E66006F7666002E95
:1027060000000000002B097206D4080009E4082026
:022716000900B8
:00000001FF
