:100000000C9463000C94B00B0C94DD0B0C948B00DF
:100010000C948B000C948B000C948B000C948B0034
:100020000C948B000C948B000C948B000C948B0024
:100030000C948B000C948B000C948B000C948B0014
:100040000C9466020C948B000C94CE050C94110653
:100050000C948B000C948B000C948B000C948B00F4
:100060000C948B000C948B00000000070002010030
:100070000003040600000000000000000102040864
:100080001020408001020408102001020408102002
:10009000040404040404040402020202020203032E
:1000A00003030303000000002300260029000000D2
:1000B0000000250028002B0000000000240027007D
:1000C0002A00CD01D40611241FBECFEFD8E0DEBF39
:1000D000CDBF11E0A0E0B1E0E6ECF8E102C0059090
:1000E0000D92AA32B107D9F722E0AAE2B1E001C02D
:1000F0001D92AB39B207E1F710E0C3E6D0E004C0CF
:100100002197FE010E945B0CC136D107C9F70E94FE
:1001100027050C940A0C0C940000CF92EF920F93D9
:1001200040E051EE60E070E087E591E00E944C060F
:1001300010924701109246018CE98093450142E0FC
:100140006AE088E491E00E94270B882339F042ECB2
:1001500051E060E088E491E00E94800985E0C82ECB
:1001600098E0E92E00E028EC42E06091010188E48B
:1001700091E00E94C1080F91EF90CF9008950F93E6
:100180001F93CF93C82F8B0161E00E946B0360E047
:100190008C2F0E94A703B801110F880B990B0E94A6
:1001A000E10261E08C2FCF911F910F910C94A70376
:1001B000EF920F9388E491E00E94170A811103C027
:1001C00080E090E059C08091870290918802892B4D
:1001D000B9F764EE7CE088E491E00E949A0980938C
:1001E000450188E491E00E947C0B90910001891305
:1001F000E7CFE0914C01F0914D019081973001F7EC
:10020000E0914A01F0914B01AEE3B1E001900D9213
:100210009A95E1F72091400130914101909145017B
:10022000F901EC5CFE4F9083F901E65DFE4F4091D1
:10023000420140832091010130E030933F0120933F
:100240003E01909342019CE0E92E01E027E04EE35D
:1002500051E0682F88E491E00E94EE0A81E090E08E
:1002600020914001309141012930310510F480E0A6
:1002700090E09195819591090F91EF900895EF92FB
:100280000F93CF93DF9320914601309147012A309D
:10029000310509F47BC08091010190E090933F010A
:1002A00080933E01309341012093400180914501AC
:1002B000809342018CE0E82E01E027E04EE351E01C
:1002C0006091000188E491E00E94EE0AC4E6D0E06B
:1002D00088E491E00E94170A882309F44BC08091BA
:1002E000870290918802892B09F044C064EE7CE07B
:1002F00088E491E00E949A098093450188E491E0A6
:100300000E947C0B9091000189133AC0E0914C014E
:10031000F0914D018081873099F5E0914A01F0918B
:100320004B01AEE3B1E001900D928A95E1F7809127
:10033000400190914101FC01EC5CFE4F2091420193
:1003400020832091460130914701F901E65DFE4F7F
:100350004091450140838217930729F401969093B9
:1003600047018093460164E670E080E090E00E94DF
:10037000E10209C06AE070E080E090E00E94E102E2
:10038000219709F0A5CF80E090E002C08FEF9FEFAA
:10039000DF91CF910F91EF900895E8E4F1E085E0CF
:1003A00092E09383828384E092E09583848384E067
:1003B00091E090934401809343010895CF93DF939C
:1003C000609101014AE050E06F3010F0609100014F
:1003D00087E591E00E94200560E171E087E591E00A
:1003E0000E943D04CAE2D1E06991062E000C770B11
:1003F0004AE050E087E591E00E940C0564E171E07D
:1004000087E591E00E943D0481E0C433D80761F79D
:1004100066E171E087E591E00E945A046091010174
:100420004AE050E06F3010F46091000187E591E000
:100430000E94200560E171E087E591E00E943D04A3
:10044000C4E3D1E06991062E000C770B4AE050E03E
:1004500087E591E00E940C0564E171E087E591E099
:100460000E943D0481E0CE33D80761F766E171E078
:1004700087E591E00E945A0487E591E00E9480059B
:1004800068EE73E080E090E00E94E1021092470184
:100490001092460180E090E0DF91CF910895CF93D4
:1004A000809101018F3018F40E943F0102C00E9428
:1004B000D800C82F6AE070E089E00E94BF00CC231A
:1004C00019F0CF910C94DE01CF9108951F920F92F5
:1004D0000FB60F9211242F933F938F939F93AF9357
:1004E000BF9380914F0190915001A0915101B09123
:1004F000520130914E0123E0230F2D3720F4019655
:10050000A11DB11D05C026E8230F0296A11DB11D36
:1005100020934E0180934F0190935001A09351017D
:10052000B09352018091530190915401A0915501D3
:10053000B09156010196A11DB11D80935301909376
:100540005401A0935501B0935601BF91AF919F9173
:100550008F913F912F910F900FBE0F901F90189584
:100560002FB7F89460914F01709150018091510123
:10057000909152012FBF08953FB7F8948091530195
:1005800090915401A0915501B091560126B5A89BB8
:1005900005C02F3F19F00196A11DB11D3FBFBA2F15
:1005A000A92F982F8827820F911DA11DB11DBC0175
:1005B000CD0142E0660F771F881F991F4A95D1F73A
:1005C0000895CF92DF92EF92FF92CF93DF936B016A
:1005D0007C010E94BC02EB01C114D104E104F104CE
:1005E00079F00E94BC026C1B7D0B683E7340A0F347
:1005F00081E0C81AD108E108F108C851DC4FECCFFE
:10060000DF91CF91FF90EF90DF90CF900895789495
:1006100084B5826084BD84B5816084BD85B5826007
:1006200085BD85B5816085BDEEE6F0E080818160A5
:100630008083E1E8F0E010828081826080838081A5
:1006400081608083E0E8F0E0808181608083E1EB7D
:10065000F0E0808184608083E0EBF0E08081816065
:100660008083EAE7F0E0808184608083808182601B
:100670008083808181608083808180688083109204
:10068000C1000895833081F028F4813099F08230E0
:10069000A1F008958630A9F08730B9F08430D1F404
:1006A000809180008F7D03C0809180008F77809340
:1006B0008000089584B58F7702C084B58F7D84BD96
:1006C00008958091B0008F7703C08091B0008F7D36
:1006D0008093B0000895CF93DF9390E0FC01E4583D
:1006E000FF4F2491FC01E057FF4F8491882361F173
:1006F00090E0880F991FFC01E854FF4FC591D491F9
:10070000FC01E255FF4FA591B491611109C09FB75B
:10071000F8948881209582238883EC912E230BC046
:10072000623061F49FB7F8943881822F80958323DB
:100730008883EC912E2B2C939FBF06C08FB7F89423
:10074000E8812E2B28838FBFDF91CF9108951F93CF
:10075000CF93DF93282F30E0F901E859FF4F8491C0
:10076000F901E458FF4FD491F901E057FF4FC491CC
:10077000CC23C9F0162F81110E944203EC2FF0E028
:10078000EE0FFF1FE255FF4FA591B4918FB7F8947C
:10079000111105C09C91ED2FE095E92302C0EC9169
:1007A000ED2BEC938FBFDF91CF911F910895CF93E5
:1007B000DF93282F30E0F901E859FF4F8491F901C8
:1007C000E458FF4FD491F901E057FF4FC491CC2377
:1007D00091F081110E944203EC2FF0E0EE0FFF1F19
:1007E000EC55FF4FA591B491EC91ED2381E090E0A1
:1007F00021F480E002C080E090E0DF91CF91089585
:10080000CF92DF92EF92FF920F931F93CF93DF93DC
:100810006C01EB017B01E40EF51E00E010E0CE154B
:10082000DF0561F06991D601ED91FC910190F081B5
:10083000E02DC6010995080F191FF1CFC801DF91FE
:10084000CF911F910F91FF90EF90DF90CF9008957F
:100850006115710579F0FB0101900020E9F73197EE
:10086000AF01461B570BDC01ED91FC910280F38137
:10087000E02D099480E090E008950C942804DC01B8
:10088000ED91FC910190F081E02D09940F931F935D
:10089000CF93DF93EC016DE00E943F048C016AE08E
:1008A000CE010E943F04800F911FDF91CF911F91D5
:1008B0000F9108950F931F93CF93DF93EC010E9444
:1008C00028048C01CE010E944604800F911FDF9105
:1008D000CF911F910F9108958F929F92AF92BF92E7
:1008E000CF92DF92EF92FF920F931F93CF93DF93FC
:1008F000CDB7DEB7A1970FB6F894DEBF0FBECDBF60
:100900006C01142FE52FCB01022F19A2223008F41D
:100910000AE07E0121E2E20EF11C802E912CA12C36
:10092000B12C612F7E2FA50194010E942A0C029FF9
:100930001019112481E0E81AF1081A3014F4105D3E
:1009400001C0195CF7011083122FE32FCA01232B7A
:10095000242B252B31F7B701C6010E942804A1964C
:100960000FB6F894DEBF0FBECDBFDF91CF911F91C0
:100970000F91FF90EF90DF90CF90BF90AF909F903E
:100980008F900895CF92DF92EF92FF920F931F9373
:10099000CF93DF93EC016A017B012115310579F4D6
:1009A000E881F9810190F081E02D642FDF91CF91F2
:1009B0001F910F91FF90EF90DF90CF9009942A3014
:1009C0003105E9F477FF1AC06DE20E943F048C0103
:1009D00044275527BA014C195D096E097F092AE0A1
:1009E000CE010E946C04800F911FDF91CF911F9167
:1009F0000F91FF90EF90DF90CF9008952AE0B7011C
:100A0000A601CE01DF91CF911F910F91FF90EF9042
:100A1000DF90CF900C946C049A01AB01770F660BBA
:100A2000770B0C94C2042115310541F4DC01ED91E2
:100A3000FC910190F081E02D642F09940C946C04DA
:100A40009A01462F50E060E070E00C9413050E947C
:100A500007030E948D00C8E0D6E00E944F02209755
:100A6000E1F30E940806F9CFFC0124853585F901E0
:100A7000E05CFF4F80819181329620813181821B21
:100A8000930B8F7399270895DC011C96ED91FC91CF
:100A90001D97DF01A05CBF4F2D913C9111971296DD
:100AA0008D919C9111972817390739F08D919C9160
:100AB000E80FF91F808190E008958FEF9FEF089570
:100AC000FC01A485B585FD01E05CFF4F20813181EB
:100AD0003296808191812817390779F08081918140
:100AE000A80FB91F8C91208131812F5F3F4F2F7349
:100AF00033273183208390E008958FEF9FEF08958F
:100B0000FC0181A1882329F0A489B5898C9186FFF5
:100B1000FBCF11A208950F931F93CF93DF93FC0196
:100B2000A685B7858D01005C1F4FE80188819981FA
:100B300001968F739927AD014E5B5F4FEA012881C3
:100B4000398182179307D1F3E80128813981A20FF7
:100B5000B31F6C93A685B785A05CBF4F11969C937D
:100B60008E93A689B7892C9181E090E0078C02C012
:100B7000880F991F0A94E2F7822B8C9381E081A35E
:100B80000488F589E02D80818064808381E090E095
:100B9000DF91CF911F910F91089508951F920F92A9
:100BA0000FB60F9211242F934F935F938F939F93C0
:100BB000EF93FF938091C00082FD1CC02091C6007E
:100BC0008091FD019091FE0101968F7399274091CC
:100BD000FF01509100028417950771F0E091FD012B
:100BE000F091FE01E354FE4F20839093FE01809329
:100BF000FD0102C08091C600FF91EF919F918F91FE
:100C00005F914F912F910F900FBE0F901F901895ED
:100C100087E591E00E943405892B11F00C94CD05F5
:100C200008951F920F920FB60F9211242F933F93A6
:100C30008F939F93EF93FF932091B9013091BA0165
:100C40008091BB019091BC012817390731F4809144
:100C5000C1008F7D8093C10014C0E091BB01F09171
:100C6000BC01E758FE4F20818091BB019091BC01EF
:100C700001968F7399279093BC018093BB012093B9
:100C8000C600FF91EF919F918F913F912F910F900F
:100C90000FBE0F901F901895CF92DF92EF92FF92A8
:100CA0000F931F93CF93DF93EC016A017B014115F2
:100CB000514E6105710509F1EC89FD8981E090E0F3
:100CC00008A002C0880F991F0A94E2F7808360E0B1
:100CD00079E08DE390E0A70196010E942A0C89013A
:100CE0009A01015011092109310936952795179567
:100CF0000795980101151041A8F0EC89FD89108233
:100D000060E874E88EE190E0A70196010E942A0C49
:100D1000DA01C9010197A109B109B695A79597957F
:100D200087959C01E889F9893083EA89FB892083CA
:100D300019A2EE89FF89408181E090E09C010C8C32
:100D400002C0220F331F0A94E2F7242B2083EE897E
:100D5000FF8940819C010D8C02C0220F331F0A9431
:100D6000E2F7242B2083EE89FF8940819C010E8CC1
:100D700002C0220F331F0A94E2F7242B2083EE894E
:100D8000FF8920810F8C02C0880F991F0A94E2F717
:100D9000809582238083DF91CF911F910F91FF90E7
:100DA000EF90DF90CF900895E7E5F1E01382128293
:100DB00088EE93E0A0E0B0E084839583A683B783B8
:100DC0008DE191E0918380838DEB91E0958784871D
:100DD00089E791E09787868785EC90E0918B808BFF
:100DE00084EC90E0938B828B80EC90E0958B848BED
:100DF00081EC90E0978B868B82EC90E0918F808FD6
:100E000086EC90E0938F828F84E0848F83E0858FDF
:100E100087E0868F85E0878F81E080A3089586270D
:100E2000682F62956827062E669566956025062EC2
:100E3000669560256770082E892F669507946795DB
:100E4000902D862706946795902586270895CF9341
:100E5000C62F61E0809103010E94A703C0930301A4
:100E600061E08C2F0E946B0361E080910301CF91C0
:100E70000C94A703CF93DF931F92CDB7DEB7809179
:100E800002018250823038F469830E94A00B69818C
:100E90006093020103C082E08093020160E08091D0
:100EA00002010E946B0361E0809102010F90DF91CB
:100EB000CF910C94A70390919602809102019923FF
:100EC00039F040E050E06CEC77E082500C94800BFD
:100ED00082500C94A00B809103018A3021F061E0D4
:100EE0008AE00E946B0361E0809103010E946B0322
:100EF00061E0809103010E94A70361E08BE00E9402
:100F00006B0360E08CE00E946B0361E08DE00E9467
:100F10006B0380E58CBD8DB581608DBD60E08091F7
:100F200002010E946B0361E0809102010C94A7030F
:100F30008EBD0DB407FEFDCF8EB50895EF92FF92E2
:100F40001F93CF93DF931F92CDB7DEB7182F2CB529
:100F500021602CBD60E08091030199830E94A7036A
:100F60009981892F0E949807E82EF12CFE2CEE24FF
:100F7000812F0E949807E82A61E0809103010E9476
:100F8000A7038CB58E7F8CBDC7010F90DF91CF91E9
:100F90001F91FF90EF900895CF9380E090E00E9422
:100FA0009E0780918902853009F094C080918E025D
:100FB00090918F02892B91F080918A0284FD0EC05E
:100FC00085E880937A0080918A028F708064809394
:100FD0007C0080917A00806480937A0080E090EBBE
:100FE0000E949E07682F80918E0290918F02892B1C
:100FF00069F080918A0284FD09C080917A0086FDA3
:10100000FCCF90917A00906490937A008091900246
:1010100081110EC080919502882351F0E0919002D9
:1010200091E09E0F90939002F0E0EF5FFD4F808380
:10103000E091900281E08E0F80939002F0E0EF5FEC
:10104000FD4F608380918702909188020E940F0774
:10105000909388028093870280918E0290918F02F4
:10106000892B39F180918A0284FD23C080918B0203
:101070008138F8F480917A0086FDFCCF8091780069
:101080002091790090E0922B9C012C5331092F354F
:10109000314078F420918C0230918D02820F931FA1
:1010A00090938D0280938C0280918B028F5F80934E
:1010B0008B02809104022091900290E0059630E02E
:1010C000821793070CF456C080919002863808F07E
:1010D00051C055C08091890287FF1BC0E091040276
:1010E0008091890291E0980F90938902EC5F8E0FB6
:1010F000E82FF0E0EF5FFD4FC08180918702909173
:1011000088026C2F0E940F079093880280938702B9
:101110002DC08091890291E0980F909389028330CD
:10112000F1F054F48823A9F08130E9F4809187022A
:1011300090918802C92F1AC08930B9F08A3099F489
:10114000C0919502909104028DEF891B80938902D2
:101150000DC08091870290918802C82F07C08DE052
:1011600092E80E949E07CAEA01C0CDE28C2F90E06F
:10117000985402C08DE092E8CF910C949E07CF91D5
:1011800008958F929F92AF92BF92EF920F931F9309
:10119000CF93DF9300D000D0CDB7DEB7142F1092DD
:1011A00096022C836B8389839A830E945B076B81F1
:1011B000609396022C812093950289819A810E94E6
:1011C0006B0780E090E00E949E0785E092E80E9415
:1011D0009E0780E098EB0E949E070E94B0024B01A0
:1011E0005C01809102010E94D703892B91F40E9437
:1011F000B002DC01CB0188199909AA09BB09883C16
:101200009105A105B10528F480E090E00E949E07B9
:10121000E8CF0E94B002DC01CB0188199909AA0924
:10122000BB09883C9105A105B10508F054C020E137
:10123000129FC0011124876C90680E949E0780E471
:1012400096EA0E949E078E2D90E09A530E949E0778
:1012500082EA94E90E949E078CEA92EC0E949E0723
:1012600080919502882349F083E89AEC0E949E07BA
:101270008091950290E09E6C06C08BE89AEC0E94EB
:101280009E078DE29EEC0E949E0783E894EC0E94EC
:101290009E07083028F4802F90E08065986902C08E
:1012A00087E598E90E949E0787E79CEC0E949E07CD
:1012B00080E090EE0E949E0780E098EC0E949E07DE
:1012C00083E490EC0E949E0784E0809389020E9450
:1012D0005B0781E001C080E00F900F900F900F90AE
:1012E000DF91CF911F910F91EF90BF90AF909F90A2
:1012F0008F900895CB01F8940E949E0778940895EA
:10130000CF93C62F50938F0240938E0260E08EE001
:101310008C0F0E946B03F89480918A02807F8093E7
:101320008A0280918A02CF70C82BC0938A02789477
:10133000CF910895CF93DF93EB01809189028430A0
:1013400011F580918E0290918F02892BF1F0F89423
:1013500020918C0230918D0290918B02789496307E
:101360001CF482E9891B3FC040918E0250918F028C
:101370004C32514060F040918E0250918F024935BD
:10138000524038F004C08AE92EC088E92CC089E9AF
:101390002AC040918E0250918F02E0918E02F0910E
:1013A0008F02692F990F770BC9010E94160C9B01C0
:1013B000DE010E944C0CDC01CB012AE0B695A7951A
:1013C000979587952A95D1F78E1B9F0B64E170E066
:1013D0000E94160C8CE9860F8D3924F08F3B1CF08F
:1013E00080EC01C08BE9DF91CF9108951092040247
:1013F000109290028FEF9FEF909388028093870264
:1014000060919502662331F00E940F079093880245
:101410008093870210928D0210928C0210928B02A0
:1014200085E0809389028DED92E80C949E07FC0183
:1014300080918902853039F5209104024091900213
:1014400030E02B5F3F4F50E02417350724F08091A8
:1014500090028638C0F084E0809389028091040273
:10146000813830F081E090E0909388028093870289
:10147000909102029F7781F0909102029F77809174
:101480009602981749F080918902843019F4CF01AF
:101490000E94F60980E00895809187029091880269
:1014A000892B41F40190F081E02D309719F080E014
:1014B00009950BC08FEF9FEFDC0180939102909311
:1014C0009202A0939302B093940281E008958091D8
:1014D0008902853089F48091900281110DC00E94AB
:1014E000980780FD09C08DE092E80E949E0784E085
:1014F0008093890281E0089580E00895FC01211124
:1015000002C090E001C090E8692B609302029091C4
:101510009602411102C020E001C020E8922B909376
:1015200003020190F081E02D309711F081E00995E0
:101530008FEF9FEF909388028093870280918702BC
:1015400090918802609195020E940F079093880203
:101550008093870286E0809389028DE392E80C9461
:101560009E07809189028430B9F06623D1F383B756
:10157000817F633021F0623021F090E003C094E07D
:1015800001C09CE0892B83BF83B7816083BF8895AE
:1015900083B78E7F83BFE5CF0895CF92EF920F93ED
:1015A0001F93CF93DF93EC01162FBA01209304020F
:1015B000422F50E085E092E00E940D0C2E2D402F2E
:1015C000612FCE010E947E0A6C2DCE01DF91CF915A
:1015D0001F910F91EF90CF900C94B10A8F929F9230
:1015E000AF92BF92CF92EF920F93CF93DF9300D041
:1015F000CDB7DEB74C015A01C4012A8369830E942A
:10160000670A2A816981811108C0C4012A8369831C
:101610000E94170A69812A81EFCFCE2CE12CA50107
:10162000C4010E94CD0A0F900F90DF91CF910F91CE
:10163000EF90CF90BF90AF909F908F90089560E013
:1016400070E00E947A0992FB882780F90895AF9292
:10165000BF92CF92EF920F931F93CF93DF931F927E
:10166000CDB7DEB75C0149830E9427074981642F0B
:10167000C5010E943A0785E0C82E98E0E92E00E0F7
:101680002AEA41E061E0C5010E94C108882341F1D6
:101690006FE470ECC5010E947A096AE070E080E0B6
:1016A00090E00E94E102C5010E941F0B882389F08F
:1016B00060E470ECC5010E947A096AE070E080E0A5
:1016C00090E00E94E102C5010E941F0B11E0182763
:1016D00001C010E060E070ECC5010E947A0901C011
:1016E00010E0812F0F90DF91CF911F910F91EF901C
:1016F000CF90BF90AF900895809103028F770895A7
:101700008230E8F4E82FF0E0EE0FFF1FE956FD4FBE
:1017100071836083813041F0809169008C7F482B18
:1017200040936900E89A089580916900440F551F1D
:10173000440F551F837F482B40936900E99A089511
:10174000823068F4813011F0E89801C0E998E82F00
:10175000F0E0EE0FFF1FE956FD4F11821082089551
:101760001F920F920FB60F9211242F933F934F9316
:101770005F936F937F938F939F93AF93BF93EF93F9
:10178000FF938091970290919802892B29F0E09124
:101790009702F09198020995FF91EF91BF91AF9157
:1017A0009F918F917F916F915F914F913F912F9179
:1017B0000F900FBE0F901F9018951F920F920FB6AB
:1017C0000F9211242F933F934F935F936F937F93C7
:1017D0008F939F93AF93BF93EF93FF938091990261
:1017E00090919A02892B29F0E0919902F0919A0246
:1017F0000995FF91EF91BF91AF919F918F917F914B
:101800006F915F914F913F912F910F900FBE0F906D
:101810001F901895F8940C94610CFB01DC0102C038
:1018200001900D9241505040D8F70895AA1BBB1B60
:1018300051E107C0AA1FBB1FA617B70710F0A61BD0
:10184000B70B881F991F5A95A9F780959095BC01F1
:10185000CD010895A1E21A2EAA1BBB1BFD010DC0EC
:10186000AA1FBB1FEE1FFF1FA217B307E407F50750
:1018700020F0A21BB30BE40BF50B661F771F881F2C
:10188000991F1A9469F760957095809590959B01C2
:10189000AC01BD01CF010895A29FB001B39FC0016B
:1018A000A39F700D811D1124911DB29F700D811D8C
:1018B0001124911D0895EE0FFF1F0590F491E02D66
:0618C0000994F894FFCF2B
:1018C600140A020A544845204D45535341474500E2
:1018D600203A20003B00262600000000008B050071
:0A18E6000434056005440580050088
:00000001FF
