:100000000C9479000C94E90F0C9416100C94A10038
:100010000C94A1000C94A1000C94A1000C94A100DC
:100020000C94A1000C94A1000C94A1000C94A100CC
:100030000C94A1000C94A1000C94A1000C94A100BC
:100040000C9471050C94A1000C94070A0C944A0AB4
:100050000C94A1000C94A1000C94A1000C94A1009C
:100060000C94A1000C94A10052464D313242204420
:100070006574656374696F6E204641494C21005276
:10008000464D313242204465746563746564204F87
:100090004B210000000007000201000003040600DD
:1000A0000000000000000001020408102040800150
:1000B00002040810200102040810200404040404AF
:1000C0000404040202020202020303030303030006
:1000D0000000002300260029000000000025002861
:1000E000002B0000000000240027002A0000280444
:1000F0000D0B11241FBECFEFD8E0DEBFCDBF11E046
:10010000A0E0B1E0E2E0F7E202C005900D92A03875
:10011000B107D9F724E0A0E8B1E001C01D92AD31EC
:10012000B207E1F710E0C9E7D0E004C02197FE0173
:100130000E947913C737D107C9F70E9460090C9450
:100140009F100C940000CF92EF920F9340E051EE7D
:1001500060E070E089ED92E00E94850A1092C90289
:100160001092C8028CE98093C70242E06AE08AECF0
:1001700092E00E94600F882319F06FE770E002C0E0
:1001800068E670E089ED92E00E94880742EC51E059
:1001900060E08AEC92E00E94B90D85E0C82E98E0FC
:1001A000E92E00E028EC42E0609105018AEC92E043
:1001B0000E94FA0C0F91EF90CF9008950F931F9328
:1001C000CF93C82F8B0161E00E94760660E08C2FF0
:1001D0000E94B206B801110F880B990B0E94EC0522
:1001E00061E08C2FCF911F910F910C94B206EF928A
:1001F0000F938AEC92E00E94500E811103C080E0C0
:1002000090E059C08091090490910A04892BB9F7B4
:1002100064EE7CE08AEC92E00E94D30D8093C702EA
:100220008AEC92E00E94B50F909104018913E7CF08
:10023000E091CE02F091CF029081973001F7E091EA
:10024000CC02F091CD02ACEAB2E001900D929A9509
:10025000E1F72091AE023091AF029091C702F9010F
:10026000E85BFD4F9083F901EC51FE4F4091B002E5
:1002700040832091050130E03093AD022093AC0221
:100280009093B0029CE0E92E01E027E04CEA52E0B6
:10029000682F8AEC92E00E94270F81E090E0209185
:1002A000AE023091AF022336310510F480E090E0C9
:1002B0009195819591090F91EF900895EF920F9389
:1002C000CF93DF932091C8023091C90224363105C3
:1002D00009F48BC08091050190E09093AD0280936A
:1002E000AC023093AF022093AE028091C70280939C
:1002F000B0028CE0E82E01E027E04CEA52E0609189
:1003000004018AEC92E00E94270FC4E6D0E08AEC58
:1003100092E00E94500E882309F45BC0809109048A
:1003200090910A04892B09F054C064EE7CE08AECB9
:1003300092E00E94D30D8093C7028AEC92E00E9463
:10034000B50F9091040189134AC0E091CE02F0915B
:10035000CF028081873009F042C0E091CC02F09159
:10036000CD02ACEAB2E001900D928A95E1F780915E
:10037000AE029091AF02FC01E85BFD4F2091B0020C
:1003800020832091C8023091C902F901EC51FE4F3F
:100390004091C70240838217930729F401969093F6
:1003A000C9028093C8028091C8029091C9020E943C
:1003B00094100E948F1068EC70E00E940213BC0140
:1003C0006C597F4F072E000C880B990B0E94EC058F
:1003D00009C06AE070E080E090E00E94EC0521979F
:1003E00009F095CF80E090E002C08FEF9FEFDF91A2
:1003F000CF910F91EF9008959F92AF92BF92CF92BD
:10040000DF92EF92FF920F931F93CF93DF937C01C4
:10041000C62F5A016901FC0180E090E0262F660F8B
:10042000330BB901615071098617970798F401964B
:10043000AC014217530760F4D701A40FB51F9C907D
:10044000D081D91514F49082DC934F5F5F4FF1CFC8
:100450003196EACFF701E25AFF4F8081F60180839F
:10046000F7018581F801808368E071E089ED92E011
:100470000E946B07F6016081062E000C770B4AE0A4
:1004800050E089ED92E00E944C0864E271E089ED51
:1004900092E00E946B07F8016081062E000C770B3A
:1004A0004AE050E089ED92E00E944C086AE271E077
:1004B00089ED92E0C0FD43C00E946B07C7FDCF5F8E
:1004C000C5950C2E000CDD0B87010C0F1D1F21970D
:1004D000CE0DDF1DF80180816881062E000C770BA0
:1004E000680F711D87FD7A95072E000C880B990BFC
:1004F0000E94C71120E030E040E05FE30E947C12E0
:10050000AB01BC0122E030E089ED92E00E944C0991
:10051000F80180816881062E000C770B680F711D31
:1005200087FD7A95072E000C880B990B0E94C71146
:1005300020E030E040E05FE30E947C121DC00E949A
:100540006B07C7FDCF5FC595C7018C0F911DC7FD18
:100550009A95EC016881062E000C770B4AE050E07A
:1005600089ED92E00E944C086881062E000C770B02
:10057000880B990B0E94C711F501608371838283F8
:100580009383DF91CF911F910F91FF90EF90DF90B8
:10059000CF90BF90AF909F9008952F923F924F922F
:1005A0005F926F927F928F929F92AF92BF92CF9203
:1005B000DF92EF92FF920F931F93CF93DF93CDB70C
:1005C000DEB729970FB6F894DEBF0FBECDBF1C0172
:1005D0006D835A834983FC82EB82250136018E8D1F
:1005E0009F8DA8A1B9A18E839F83A887B987D901C0
:1005F0006C91062E000C770B880B990B0E94C7118B
:100600009B01AC01E981FA816081718182819381D2
:100610000E94AB104B015C016093BB027093BC0263
:100620008093BD029093BE02D8016C91062E000CFF
:10063000770B880B990B0E94C711E981FA81208101
:100640003181428153810E94AB106B017C01609328
:10065000B7027093B8028093B9029093BA029B01DB
:10066000AC01C501B4010E94AC106093B302709359
:10067000B4028093B5029093B602A3019201C50122
:10068000B4010E947C129B01AC01A981BA816D91D9
:100690007D918D919C910E94AB106093C3027093E9
:1006A000C4028093C5029093C6022E813F81488583
:1006B0005985C701B6010E947C129B01AC01E981FA
:1006C000FA8160817181828193810E94AC10609374
:1006D000BF027093C0028093C1029093C20265E38F
:1006E00071E089ED92E00E946B074091C302509146
:1006F000C4026091C5027091C60222E030E089ED2B
:1007000092E00E944C096CE371E089ED92E00E9456
:100710006B074091BF025091C0026091C10270917D
:10072000C20222E030E089ED92E00E944E0900E032
:1007300010E0FD81EF2EFF0FFF08DD24D394802F02
:1007400090E08E159F059CF5F101E80FF91F60817F
:10075000062E000C770B880B990B0E94C7114B01DA
:100760005C012091C3023091C4024091C5025091B6
:10077000C6020E94181187FF05C0F101E10FF11DAB
:10078000108212C02091BF023091C0024091C1027C
:100790005091C202C501B4010E94771218162CF4C0
:1007A000F101E10FF11DD0821F5F0F5FC8CFAB8158
:1007B000BC811C9363E471E089ED92E00E946B07B9
:1007C0004AE050E0EB81FC81608189ED92E00E947B
:1007D00060086FE171E089ED92E00E946B0710E024
:1007E000AB81BC818C911817A8F4F101E10FF11DC8
:1007F0006081062E000C770B4AE050E089ED92E014
:100800000E944C0862E271E089ED92E00E946B0761
:100810001F5FE6CF6DE471E089ED92E029960FB697
:10082000F894DEBF0FBECDBFDF91CF911F910F9126
:10083000FF90EF90DF90CF90BF90AF909F908F9000
:100840007F906F905F904F903F902F900C949A07FD
:10085000EAECF2E087E893E09383828386E893E012
:100860009583848381E591E09093B2028093B102F5
:100870000895AF92BF92CF92DF92EF92FF920F93C3
:100880001F93CF93DF93CDB7DEB727970FB6F894BA
:10089000DEBF0FBECDBF19821A821B821C826091FF
:1008A00005014AE050E06F3010F06091040189EDDD
:1008B00092E00E94600860E271E089ED92E00E949F
:1008C0006B0704EE11E0D8016D918D01062E000C2E
:1008D000770B4AE050E089ED92E00E944C086DE50C
:1008E00071E089ED92E00E946B07B2E008341B07CB
:1008F00051F76FE571E089ED92E00E949A0724E6D6
:10090000F22EE0E8F1E0DF018F2D1D928A95E9F7E4
:10091000E4EEF1E0A0E8B1E08F2D01900D928A9510
:10092000E1F78E010A5F1F4F9E01295F3F4FAE0125
:100930004F5F5F4F64E680E891E00E94FC01E4EEC7
:10094000F1E0A0E8B1E001900D92FA94E1F78FE3B5
:100950008F931F921F921F92A12CB12C30E8C32EAF
:100960003EE3D32EDE0115967D019E01295F3F4FA8
:10097000AE014F5F5F4F64E680E891E00E94CD02D8
:10098000609105010F900F900F900F904AE050E09A
:100990006F3010F46091040189ED92E00E946008CC
:1009A00060E271E089ED92E00E946B0708E412E0DA
:1009B000F80161918F01062E000C770B4AE050E0A0
:1009C00089ED92E00E944C086DE571E089ED92E0BE
:1009D0000E946B07F2E00C3A1F0751F76FE571E0D8
:1009E00089ED92E00E949A0784E6F82EE0E8F1E0B3
:1009F000DF018F2D1D928A95E9F7E8E4F2E0A0E887
:100A0000B1E08F2D01900D928A95E1F78E010A5F7A
:100A10001F4F9E01295F3F4FAE014F5F5F4F64E65E
:100A200080E891E00E94FC01E8E4F2E0A0E8B1E097
:100A300001900D92FA94E1F78FE38F931F921F922A
:100A40001F92A12CB12C90E8C92E9EE3D92EDE0175
:100A500015967D019E01295F3F4FAE014F5F5F4FAD
:100A600064E680E891E00E94CD0289ED92E00E9468
:100A7000B90968EE73E080E090E00E94EC05109206
:100A8000C9021092C8020F900F900F900F9080E053
:100A900090E027960FB6F894DEBF0FBECDBFDF9172
:100AA000CF911F910F91FF90EF90DF90CF90BF906B
:100AB000AF900895CF93809105018F3018F40E9474
:100AC0005E0102C00E94F700C82F6AE070E089E072
:100AD0000E94DE00CC2319F0CF910C943904CF9101
:100AE00008951F920F920FB60F9211242F933F93E8
:100AF0008F939F93AF93BF938091D1029091D20235
:100B0000A091D302B091D4023091D00223E0230F00
:100B10002D3720F40196A11DB11D05C026E8230F35
:100B20000296A11DB11D2093D0028093D102909313
:100B3000D202A093D302B093D4028091D5029091B7
:100B4000D602A091D702B091D8020196A11DB11D85
:100B50008093D5029093D602A093D702B093D80287
:100B6000BF91AF919F918F913F912F910F900FBEA9
:100B70000F901F9018952FB7F8946091D102709143
:100B8000D2028091D3029091D4022FBF08953FB733
:100B9000F8948091D5029091D602A091D702B0919D
:100BA000D80226B5A89B05C02F3F19F00196A11DBC
:100BB000B11D3FBFBA2FA92F982F8827820F911DF3
:100BC000A11DB11DBC01CD0142E0660F771F881F3A
:100BD000991F4A95D1F70895CF92DF92EF92FF9235
:100BE000CF93DF936B017C010E94C705EB01C11419
:100BF000D104E104F10479F00E94C7056C1B7D0B60
:100C0000683E7340A0F381E0C81AD108E108F108FA
:100C1000C851DC4FECCFDF91CF91FF90EF90DF9088
:100C2000CF900895789484B5826084BD84B5816046
:100C300084BD85B5826085BD85B5816085BDEEE6E4
:100C4000F0E0808181608083E1E8F0E010828081C3
:100C500082608083808181608083E0E8F0E0808131
:100C600081608083E1EBF0E0808184608083E0EB51
:100C7000F0E0808181608083EAE7F0E08081846039
:100C80008083808182608083808181608083808195
:100C9000806880831092C1000895833081F028F429
:100CA000813099F08230A1F008958630A9F0873024
:100CB000B9F08430D1F4809180008F7D03C08091A1
:100CC00080008F7780938000089584B58F7702C06D
:100CD00084B58F7D84BD08958091B0008F7703C067
:100CE0008091B0008F7D8093B0000895CF93DF9303
:100CF00090E0FC01E955FF4F2491FC01E554FF4FC2
:100D00008491882361F190E0880F991FFC01ED51D7
:100D1000FF4FC591D491FC01E752FF4FA591B491CB
:100D2000611109C09FB7F894888120958223888338
:100D3000EC912E230BC0623061F49FB7F894388198
:100D4000822F809583238883EC912E2B2C939FBF39
:100D500006C08FB7F894E8812E2B28838FBFDF91D0
:100D6000CF9108951F93CF93DF93282F30E0F9019F
:100D7000ED56FF4F8491F901E955FF4FD491F901E8
:100D8000E554FF4FC491CC23C9F0162F81110E9466
:100D90004D06EC2FF0E0EE0FFF1FE752FF4FA5913D
:100DA000B4918FB7F894111105C09C91ED2FE09587
:100DB000E92302C0EC91ED2BEC938FBFDF91CF9133
:100DC0001F910895CF93DF93282F30E0F901ED565E
:100DD000FF4F8491F901E955FF4FD491F901E55492
:100DE000FF4FC491CC2391F081110E944D06EC2F4E
:100DF000F0E0EE0FFF1FE153FF4FA591B491EC918E
:100E0000ED2381E090E021F480E002C080E090E0FA
:100E1000DF91CF910895CF92DF92EF92FF920F93DF
:100E20001F93CF93DF936C01EB017B01E40EF51E62
:100E300000E010E0CE15DF0561F06991D601ED917B
:100E4000FC910190F081E02DC6010995080F191F52
:100E5000F1CFC801DF91CF911F910F91FF90EF90DB
:100E6000DF90CF9008956115710579F0FB01019035
:100E70000020E9F73197AF01461B570BDC01ED91DC
:100E8000FC910280F381E02D099480E090E00895C8
:100E9000EF92FF920F931F93CF93DF937C01FB019F
:100EA00000E010E06491EF012196662361F0D70124
:100EB000ED91FC910190F081E02DC7010995080F9B
:100EC000191FFE01EFCFC801DF91CF911F910F9144
:100ED000FF90EF9008950C943307DC01ED91FC91A5
:100EE0000190F081E02D09940F931F93CF93DF932E
:100EF000EC016DE00E946D078C016AE0CE010E945A
:100F00006D07800F911FDF91CF911F910F91089571
:100F10000F931F93CF93DF93EC010E9448078C013E
:100F2000CE010E947407800F911FDF91CF911F9116
:100F30000F9108950F931F93CF93DF93EC010E94BD
:100F400033078C01CE010E947407800F911FDF913F
:100F5000CF911F910F9108958F929F92AF92BF9260
:100F6000CF92DF92EF92FF920F931F93CF93DF9375
:100F7000CDB7DEB7A1970FB6F894DEBF0FBECDBFD9
:100F80006C01142FE52FCB01022F19A2223008F497
:100F90000AE07E0121E2E20EF11C802E912CA12CB0
:100FA000B12C612F7E2FA50194010E941613029F80
:100FB0001019112481E0E81AF1081A3014F4105DB8
:100FC00001C0195CF7011083122FE32FCA01232BF4
:100FD000242B252B31F7B701C6010E943307A196B8
:100FE0000FB6F894DEBF0FBECDBFDF91CF911F913A
:100FF0000F91FF90EF90DF90CF90BF90AF909F90B8
:101000008F900895CF92DF92EF92FF920F931F93EC
:10101000CF93DF93EC016A017B012115310579F44F
:10102000E881F9810190F081E02D642FDF91CF916B
:101030001F910F91FF90EF90DF90CF9009942A308D
:101040003105E9F477FF1AC06DE20E946D078C014B
:1010500044275527BA014C195D096E097F092AE01A
:10106000CE010E94AC07800F911FDF91CF911F919D
:101070000F91FF90EF90DF90CF9008952AE0B70195
:10108000A601CE01DF91CF911F910F91FF90EF90BC
:10109000DF90CF900C94AC079A01AB01770F660BF1
:1010A000770B0C9402082115310541F4DC01ED9118
:1010B000FC910190F081E02D642F09940C94AC0711
:1010C0009A01462F50E060E070E00C9453084F9274
:1010D0005F926F927F928F929F92AF92BF92CF92C8
:1010E000DF92EF92FF92CF93DF93EC016A017B01D5
:1010F000B22E9A01AB01C701B6010E94E912882302
:1011000019F062E671E027C026013701E89477F80C
:101110002FEF3FEF4FE75FE7C301B2010E94E912F3
:1011200081110DC02FEF3FEF4FE75FE7C301B20121
:101130000E94181118161CF466E671E00CC02FEF1F
:101140003FEF4FE75FE4C701B6010E947712181620
:101150009CF46AE671E0CE01DF91CF91FF90EF90B1
:10116000DF90CF90BF90AF909F908F907F906F90C7
:101170005F904F900C9433072FEF3FEF4FE75FECFA
:10118000C701B6010E94181187FDE3CF20E030E0CF
:10119000A901C701B6010E94181187FF0AC06DE2BC
:1011A000CE010E946D074C01F7FAF094F7F8F09425
:1011B00002C0812C912CA12C60E070E080E09FE3C4
:1011C000AB1441F020E030E040E251E40E941D11F8
:1011D000A394F6CF9B01AC01C701B6010E94AC10ED
:1011E0002B013C010E9496116B017C010E94C511EC
:1011F0009B01AC01C301B2010E94AB102B013C0169
:101200002AE0B701A601CE010E94AC077C01E80CE0
:10121000F91CBB2039F06EE671E0CE010E94330765
:10122000E80EF91EDB2CDD2039F120E030E040E251
:1012300051E4C301B2010E947C122B013C010E94C7
:101240008F114B01770FAA08BB082AE030E0B501E7
:10125000A401CE010E940208E80EF91EC501B401E6
:101260000E94C7119B01AC01C301B2010E94AB10E7
:101270002B013C01DA94D7CFC701DF91CF91FF90CA
:10128000EF90DF90CF90BF90AF909F908F907F9026
:101290006F905F904F9008950C9467080F931F9381
:1012A000CF93DF93EC010E9467088C01CE010E946E
:1012B0007407800F911FDF91CF911F910F910895B7
:1012C0000E9412060E94A300C1E4DAE00E945A05BF
:1012D0002097E1F30E94410AF9CFFC01248535856E
:1012E000F901E05CFF4F808191813296208131814C
:1012F000821B930B8F7399270895DC011C96ED9147
:10130000FC911D97DF01A05CBF4F2D913C9111977F
:1013100012968D919C9111972817390739F08D916C
:101320009C91E80FF91F808190E008958FEF9FEF67
:101330000895FC01A485B585FD01E05CFF4F208187
:1013400031813296808191812817390779F0808127
:101350009181A80FB91F8C91208131812F5F3F4F60
:101360002F7333273183208390E008958FEF9FEF11
:101370000895FC0181A1882329F0A489B5898C9165
:1013800086FFFBCF11A208950F931F93CF93DF9396
:10139000FC01A685B7858D01005C1F4FE80188819F
:1013A000998101968F739927AD014E5B5F4FEA01DA
:1013B0002881398182179307D1F3E8012881398187
:1013C000A20FB31F6C93A685B785A05CBF4F119683
:1013D0009C938E93A689B7892C9181E090E0078C2D
:1013E00002C0880F991F0A94E2F7822B8C9381E048
:1013F00081A30488F589E02D80818064808381E069
:1014000090E0DF91CF911F910F91089508951F9261
:101410000F920FB60F9211242F934F935F938F93D8
:101420009F93EF93FF938091C00082FD1CC0209199
:10143000C60080917F039091800301968F73992756
:1014400040918103509182038417950771F0E091D8
:101450007F03F0918003E15CFC4F20839093800335
:1014600080937F0302C08091C600FF91EF919F910E
:101470008F915F914F912F910F900FBE0F901F9002
:10148000189589ED92E00E946D09892B11F00C945A
:10149000060A08951F920F920FB60F9211242F93F0
:1014A0003F938F939F93EF93FF9320913B03309152
:1014B0003C0380913D0390913E032817390731F496
:1014C0008091C1008F7D8093C10014C0E0913D03E5
:1014D000F0913E03E550FD4F208180913D039091B6
:1014E0003E0301968F73992790933E0380933D03AB
:1014F0002093C600FF91EF919F918F913F912F9183
:101500000F900FBE0F901F901895CF92DF92EF9221
:10151000FF920F931F93CF93DF93EC016A017B013E
:101520004115514E6105710509F1EC89FD8981E094
:1015300090E008A002C0880F991F0A94E2F7808308
:1015400060E079E08DE390E0A70196010E94161318
:1015500089019A0101501109210931093695279510
:1015600017950795980101151041A8F0EC89FD89A0
:10157000108260E874E88EE190E0A70196010E9475
:101580001613DA01C9010197A109B109B695A7950A
:10159000979587959C01E889F9893083EA89FB89C9
:1015A000208319A2EE89FF89408181E090E09C01AF
:1015B0000C8C02C0220F331F0A94E2F7242B2083E5
:1015C000EE89FF8940819C010D8C02C0220F331FE0
:1015D0000A94E2F7242B2083EE89FF8940819C0145
:1015E0000E8C02C0220F331F0A94E2F7242B2083B3
:1015F000EE89FF8920810F8C02C0880F991F0A9401
:10160000E2F7809582238083DF91CF911F910F9124
:10161000FF90EF90DF90CF900895E9EDF2E0138214
:10162000128288EE93E0A0E0B0E084839583A683E5
:10163000B78384E791E0918380838FE393E095877C
:1016400084878BEF92E09787868785EC90E0918B7B
:10165000808B84EC90E0938B828B80EC90E0958B78
:10166000848B81EC90E0978B868B82EC90E0918F5D
:10167000808F86EC90E0938F828F84E0848F83E06C
:10168000858F87E0868F85E0878F81E080A308952E
:101690008627682F62956827062E669566956025D1
:1016A000062E669560256770082E892F669507942B
:1016B0006795902D8627069467959025862708952F
:1016C000CF93C62F61E0809107010E94B206C093BC
:1016D000070161E08C2F0E94760661E0809107018E
:1016E000CF910C94B206CF93DF931F92CDB7DEB7A4
:1016F000809106018250823038F469830E94D90FAC
:1017000069816093060103C082E08093060160E076
:10171000809106010E94760661E0809106010F909B
:10172000DF91CF910C94B20690911804809106013C
:10173000992339F040E050E065E07CE082500C9461
:10174000B90F82500C94D90F809107018A3021F093
:1017500061E08AE00E94760661E0809107010E94C4
:10176000760661E0809107010E94B20661E08BE09D
:101770000E94760660E08CE00E94760661E08DE0D3
:101780000E94760680E58CBD8DB581608DBD60E0E0
:10179000809106010E94760661E0809106010C941A
:1017A000B2068EBD0DB407FEFDCF8EB50895EF9243
:1017B000FF921F93CF93DF931F92CDB7DEB7182F01
:1017C0002CB521602CBD60E08091070199830E94B7
:1017D000B2069981892F0E94D10BE82EF12CFE2CA4
:1017E000EE24812F0E94D10BE82A61E0809107014D
:1017F0000E94B2068CB58E7F8CBDC7010F90DF9121
:10180000CF911F91FF90EF900895CF9380E090E0EB
:101810000E94D70B80910B04853009F094C0809111
:10182000100490911104892B91F080910C0484FD97
:101830000EC085E880937A0080910C048F708064DC
:1018400080937C0080917A00806480937A0080E0AD
:1018500090EB0E94D70B682F809110049091110497
:10186000892B69F080910C0484FD09C080917A0075
:1018700086FDFCCF90917A00906490937A008091DD
:10188000120481110EC080911704882351F0E09159
:10189000120491E09E0F90931204F0E0ED57FC4F7C
:1018A0008083E091120481E08E0F80931204F0E0B7
:1018B000ED57FC4F60838091090490910A040E94C7
:1018C000480B90930A04809309048091100490912E
:1018D0001104892B39F180910C0484FD23C080917F
:1018E0000D048138F8F480917A0086FDFCCF809158
:1018F00078002091790090E0922B9C012C533109C3
:101900002F35314078F420910E0430910F04820F6E
:10191000931F90930F0480930E0480910D048F5FAA
:1019200080930D04809186032091120490E0059627
:1019300030E0821793070CF456C080911204863869
:1019400008F051C055C080910B0487FF1BC0E09187
:10195000860380910B0491E0980F90930B04EC5F49
:101960008E0FE82FF0E0ED57FC4FC0818091090405
:1019700090910A046C2F0E94480B90930A04809364
:1019800009042DC080910B0491E0980F90930B04F3
:101990008330F1F054F48823A9F08130E9F4809188
:1019A000090490910A04C92F1AC08930B9F08A300D
:1019B00099F4C0911704909186038DEF891B809351
:1019C0000B040DC08091090490910A04C82F07C030
:1019D0008DE092E80E94D70BCAEA01C0CDE28C2FBD
:1019E00090E0985402C08DE092E8CF910C94D70B10
:1019F000CF9108958F929F92AF92BF92EF920F93E3
:101A00001F93CF93DF9300D000D0CDB7DEB7142F54
:101A1000109218042C836B8389839A830E94940B01
:101A20006B81609318042C812093170489819A811B
:101A30000E94A40B80E090E00E94D70B85E092E822
:101A40000E94D70B80E098EB0E94D70B0E94BB0549
:101A50004B015C01809106010E94E206892B91F402
:101A60000E94BB05DC01CB0188199909AA09BB09B1
:101A7000883C9105A105B10528F480E090E00E9422
:101A8000D70BE8CF0E94BB05DC01CB01881999096F
:101A9000AA09BB09883C9105A105B10508F054C00D
:101AA00020E1129FC0011124876C90680E94D70B1F
:101AB00080E496EA0E94D70B8E2D90E09A530E9404
:101AC000D70B82EA94E90E94D70B8CEA92EC0E9431
:101AD000D70B80911704882349F083E89AEC0E9481
:101AE000D70B8091170490E09E6C06C08BE89AECAF
:101AF0000E94D70B8DE29EEC0E94D70B83E894ECFA
:101B00000E94D70B083028F4802F90E080659869F8
:101B100002C087E598E90E94D70B87E79CEC0E94FA
:101B2000D70B80E090EE0E94D70B80E098EC0E94EB
:101B3000D70B83E490EC0E94D70B84E080930B04D6
:101B40000E94940B81E001C080E00F900F900F90F5
:101B50000F90DF91CF911F910F91EF90BF90AF90B9
:101B60009F908F900895CB01F8940E94D70B7894A2
:101B70000895CF93C62F509311044093100460E052
:101B80008EE08C0F0E947606F89480910C04807F82
:101B900080930C0480910C04CF70C82BC0930C046C
:101BA0007894CF910895CF93DF93EB0180910B044C
:101BB000843011F58091100490911104892BF1F07B
:101BC000F89420910E0430910F0490910D047894B4
:101BD00096301CF482E9891B3FC04091100450915B
:101BE00011044C32514060F04091100450911104A6
:101BF0004935524038F004C08AE92EC088E92CC02B
:101C000089E92AC04091100450911104E091100418
:101C1000F0911104692F990F770BC9010E94EE1200
:101C20009B01DE010E945713DC01CB012AE0B6952F
:101C3000A795979587952A95D1F78E1B9F0B64E101
:101C400070E00E94EE128CE9860F8D3924F08F3BF4
:101C50001CF080EC01C08BE9DF91CF9108951092C8
:101C60008603109212048FEF9FEF90930A048093E3
:101C7000090460911704662331F00E94480B909389
:101C80000A048093090410920F0410920E0410921B
:101C90000D0485E080930B048DED92E80C94D70B36
:101CA000FC0180910B04853039F520918603409129
:101CB000120430E02B5F3F4F50E02417350724F02B
:101CC000809112048638C0F084E080930B048091E8
:101CD0008603813830F081E090E090930A0480938D
:101CE0000904909184039F7781F0909184039F77FA
:101CF00080911804981749F080910B04843019F4EE
:101D0000CF010E942F0E80E00895809109049091E8
:101D10000A04892B41F40190F081E02D309719F0ED
:101D200080E009950BC08FEF9FEFDC0180931304D7
:101D300090931404A0931504B093160481E00895C1
:101D400080910B04853089F48091120481110DC0BB
:101D50000E94D10B80FD09C08DE092E80E94D70B54
:101D600084E080930B0481E0089580E00895FC01F5
:101D7000211102C090E001C090E8692B60938403B8
:101D800090911804411102C020E001C020E8922B7C
:101D9000909385030190F081E02D309711F081E060
:101DA00009958FEF9FEF90930A0480930904809127
:101DB000090490910A04609117040E94480B9093C3
:101DC0000A048093090486E080930B048DE392E873
:101DD0000C94D70B80910B048430B9F06623D1F3B7
:101DE00083B7817F633021F0623021F090E003C03F
:101DF00094E001C09CE0892B83BF83B7816083BFDF
:101E0000889583B78E7F83BFE5CF0895CF92EF92F9
:101E10000F931F93CF93DF93EC01162FBA012093FA
:101E20008603422F50E087E893E00E94A2102E2DF7
:101E3000402F612FCE010E94B70E6C2DCE01DF9195
:101E4000CF911F910F91EF90CF900C94EA0E8F924B
:101E50009F92AF92BF92CF92EF920F93CF93DF9367
:101E600000D0CDB7DEB74C015A01C4012A83698383
:101E70000E94A00E2A816981811108C0C4012A83B1
:101E800069830E94500E69812A81EFCFCE2CE12C0C
:101E9000A501C4010E94060F0F900F90DF91CF9112
:101EA0000F91EF90CF90BF90AF909F908F9008953B
:101EB00060E070E00E94B30D92FB882780F90895DE
:101EC000AF92BF92CF92EF920F931F93CF93DF9376
:101ED0001F92CDB7DEB75C0149830E94600B498138
:101EE000642FC5010E94730B85E0C82E98E0E92E8F
:101EF00000E02AEA41E061E0C5010E94FA0C882373
:101F000041F16FE470ECC5010E94B30D6AE070E02E
:101F100080E090E00E94EC05C5010E94580F8823E4
:101F200089F060E470ECC5010E94B30D6AE070E0D6
:101F300080E090E00E94EC05C5010E94580F11E07E
:101F4000182701C010E060E070ECC5010E94B30DDD
:101F500001C010E0812F0F90DF91CF911F910F9161
:101F6000EF90CF90BF90AF900895809185038F77C9
:101F700008958230E8F4E82FF0E0EE0FFF1FE75EEF
:101F8000FB4F71836083813041F0809169008C7FC9
:101F9000482B40936900E89A089580916900440FA6
:101FA000551F440F551F837F482B40936900E99AC2
:101FB0000895823068F4813011F0E89801C0E99802
:101FC000E82FF0E0EE0FFF1FE75EFB4F118210825B
:101FD00008951F920F920FB60F9211242F933F93E3
:101FE0004F935F936F937F938F939F93AF93BF9321
:101FF000EF93FF938091190490911A04892B29F093
:10200000E0911904F0911A040995FF91EF91BF91A5
:10201000AF919F918F917F916F915F914F913F9180
:102020002F910F900FBE0F901F9018951F920F9237
:102030000FB60F9211242F933F934F935F936F939B
:102040007F938F939F93AF93BF93EF93FF93809171
:102050001B0490911C04892B29F0E0911B04F09142
:102060001C040995FF91EF91BF91AF919F918F91C2
:102070007F916F915F914F913F912F910F900FBE84
:102080000F901F9018958F929F92AF92BF92CF9210
:10209000DF92EF92FF92CF93DF93EC016881798119
:1020A0008A819B81611571058105910521F464E2A6
:1020B00079ED8BE597E02DE133EF41E050E00E94B0
:1020C000381349015A019B01AC01A7EAB1E40E940F
:1020D00066136B017C01ACEEB4EFA50194010E9484
:1020E0007413DC01CB018C0D9D1DAE1DBF1DB7FF10
:1020F00003C00197A109B04888839983AA83BB8351
:102100009F77DF91CF91FF90EF90DF90CF90BF90BE
:10211000AF909F908F9008950E944310089580E0A3
:1021200091E00E9443100895A0E0B0E08093000188
:1021300090930101A0930201B09303010895F894D4
:102140000C947F13FB01DC0102C001900D92415001
:102150005040D8F708955058BB27AA270E94C310B3
:102160000C943D120E942F1238F00E94361220F07B
:1021700039F49F3F19F426F40C942C120EF4E095D8
:10218000E7FB0C942612E92F0E944E1258F3BA175F
:10219000620773078407950720F079F4A6F50C947D
:1021A00070120EF4E0950B2EBA2FA02D0B01B90181
:1021B00090010C01CA01A0011124FF27591B99F0BD
:1021C000593F50F4503E68F11A16F040A22F232FC9
:1021D000342F4427585FF3CF469537952795A79519
:1021E000F0405395C9F77EF41F16BA0B620B730BC0
:1021F000840BBAF09150A1F0FF0FBB1F661F771F31
:10220000881FC2F70EC0BA0F621F731F841F48F4E5
:10221000879577956795B795F7959E3F08F0B0CF6E
:102220009395880F08F09927EE0F97958795089555
:102230000E94021208F481E008950E9431110C946A
:102240003D120E94361258F00E942F1240F029F4DD
:102250005F3F29F00C94261251110C9471120C94CA
:102260002C120E944E1268F39923B1F3552391F377
:10227000951B550BBB27AA2762177307840738F0F5
:102280009F5F5F4F220F331F441FAA1FA9F335D052
:102290000E2E3AF0E0E832D091505040E695001C06
:1022A000CAF72BD0FE2F29D0660F771F881FBB1FC0
:1022B000261737074807AB07B0E809F0BB0B802D9E
:1022C000BF01FF2793585F4F3AF09E3F510578F0CA
:1022D0000C9426120C9471125F3FE4F3983ED4F3F1
:1022E000869577956795B795F7959F5FC9F7880F9E
:1022F000911D9695879597F90895E1E0660F771FF0
:10230000881FBB1F621773078407BA0720F0621B80
:10231000730B840BBA0BEE1F88F7E09508950E94AB
:1023200096116894B1110C94711208950E9456127E
:1023300088F09F5798F0B92F9927B751B0F0E1F086
:10234000660F771F881F991F1AF0BA95C9F714C036
:10235000B13091F00E947012B1E008950C947012A7
:10236000672F782F8827B85F39F0B93FCCF386956F
:1023700077956795B395D9F73EF4909580957095CC
:1023800061957F4F8F4F9F4F0895E89409C097FB49
:102390003EF490958095709561957F4F8F4F9F4F3C
:1023A0009923A9F0F92F96E9BB279395F695879580
:1023B00077956795B795F111F8CFFAF4BB0F11F443
:1023C00060FF1BC06F5F7F4F8F4F9F4F16C08823EA
:1023D00011F096E911C0772321F09EE8872F762F20
:1023E00005C0662371F096E8862F70E060E02AF061
:1023F0009A95660F771F881FDAF7880F969587954D
:1024000097F90895990F0008550FAA0BE0E8FEEF21
:1024100016161706E807F907C0F012161306E407A8
:10242000F50798F0621B730B840B950B39F40A26A1
:1024300061F0232B242B252B21F408950A2609F47F
:10244000A140A6958FEF811D811D089597F99F6783
:1024500080E870E060E008959FEF80EC089500242C
:102460000A941616170618060906089500240A94F9
:1024700012161306140605060895092E0394000C7F
:1024800011F4882352F0BB0F40F4BF2B11F460FF0E
:1024900004C06F5F7F4F8F4F9F4F089557FD905837
:1024A000440F551F59F05F3F71F04795880F97FB18
:1024B000991F61F09F3F79F08795089512161306D2
:1024C0001406551FF2CF4695F1DF08C01616170601
:1024D0001806991FF1CF8695710561050894089536
:1024E000E894BB2766277727CB0197F908950E94C8
:1024F000021208F48FEF08950E948F120C943D127F
:102500000E942F1238F00E94361220F0952311F00D
:102510000C9426120C942C1211240C9471120E940B
:102520004E1270F3959FC1F3950F50E0551F629FB7
:10253000F001729FBB27F00DB11D639FAA27F00D1C
:10254000B11DAA1F649F6627B00DA11D661F829F43
:102550002227B00DA11D621F739FB00DA11D621F28
:10256000839FA00D611D221F749F3327A00D611D45
:10257000231F849F600D211D822F762F6A2F112427
:102580009F5750409AF0F1F088234AF0EE0FFF1F5A
:10259000BB1F661F771F881F91505040A9F79E3FB1
:1025A000510580F00C9426120C9471125F3FE4F3F5
:1025B000983ED4F3869577956795B795F795E79507
:1025C0009F5FC1F7FE2B880F911D9695879597F910
:1025D00008950E940212880B990B0895AA1BBB1B39
:1025E00051E107C0AA1FBB1FA617B70710F0A61B13
:1025F000B70B881F991F5A95A9F780959095BC0134
:10260000CD01089597FB072E16F4009407D077FDAF
:1026100009D00E94EE1207FC05D03EF490958195FA
:102620009F4F0895709561957F4F0895A1E21A2EEE
:10263000AA1BBB1BFD010DC0AA1FBB1FEE1FFF1F66
:10264000A217B307E407F50720F0A21BB30BE40BB6
:10265000F50B661F771F881F991F1A9469F76095FD
:102660007095809590959B01AC01BD01CF010895B7
:10267000052E97FB1EF400940E944F1357FD07D0C0
:102680000E94161307FC03D04EF40C944F13509580
:102690004095309521953F4F4F4F5F4F089590954E
:1026A0008095709561957F4F8F4F9F4F0895A29FA2
:1026B000B001B39FC001A39F700D811D1124911D16
:1026C000B29F700D811D1124911D08950E94571312
:1026D000A59F900DB49F900DA49F800D911D112476
:1026E0000895B7FF0C9466130E946613821B930B28
:1026F0000895EE0FFF1F0590F491E02D0994F894D2
:02270000FFCF09
:1027020001000000140A020A2052616E6765202847
:102712004D696E525353202D204D617852535329E7
:10272200203A2000203C2D3E2000204D6564696146
:102732006E203A2000204C54203A2000205254208F
:102742003A20004D656442697473202800202323D7
:1027520000544845204D455353414745003B002610
:1027620026006E616E00696E66006F7666002E004E
:1027720000000000C4090B076D0999097D09B90918
:00000001FF
